{
  "contractName": "FlightSuretyData",
  "abi": [
    {
      "inputs": [],
      "stateMutability": "nonpayable",
      "type": "constructor"
    },
    {
      "anonymous": false,
      "inputs": [
        {
          "indexed": false,
          "internalType": "uint256",
          "name": "level",
          "type": "uint256"
        },
        {
          "indexed": false,
          "internalType": "string",
          "name": "info",
          "type": "string"
        },
        {
          "indexed": false,
          "internalType": "uint256",
          "name": "int0",
          "type": "uint256"
        },
        {
          "indexed": false,
          "internalType": "uint256",
          "name": "int1",
          "type": "uint256"
        },
        {
          "indexed": false,
          "internalType": "uint256",
          "name": "int2",
          "type": "uint256"
        }
      ],
      "name": "DataConsole",
      "type": "event"
    },
    {
      "anonymous": false,
      "inputs": [
        {
          "indexed": false,
          "internalType": "address",
          "name": "airlineAddress",
          "type": "address"
        },
        {
          "indexed": false,
          "internalType": "string",
          "name": "airlineName",
          "type": "string"
        },
        {
          "indexed": false,
          "internalType": "uint256",
          "name": "status",
          "type": "uint256"
        }
      ],
      "name": "Registered",
      "type": "event"
    },
    {
      "stateMutability": "payable",
      "type": "fallback",
      "payable": true
    },
    {
      "stateMutability": "payable",
      "type": "receive",
      "payable": true
    },
    {
      "inputs": [
        {
          "internalType": "address",
          "name": "_contract",
          "type": "address"
        }
      ],
      "name": "authorizeCaller",
      "outputs": [],
      "stateMutability": "nonpayable",
      "type": "function"
    },
    {
      "inputs": [],
      "name": "registrationNeedsVoting",
      "outputs": [
        {
          "internalType": "bool",
          "name": "",
          "type": "bool"
        }
      ],
      "stateMutability": "view",
      "type": "function",
      "constant": true
    },
    {
      "inputs": [
        {
          "internalType": "address",
          "name": "_airlineAddress",
          "type": "address"
        },
        {
          "internalType": "string",
          "name": "_airlineName",
          "type": "string"
        }
      ],
      "name": "registerAirline",
      "outputs": [],
      "stateMutability": "nonpayable",
      "type": "function"
    },
    {
      "inputs": [
        {
          "internalType": "address",
          "name": "airline",
          "type": "address"
        }
      ],
      "name": "isRegistered",
      "outputs": [
        {
          "internalType": "bool",
          "name": "",
          "type": "bool"
        }
      ],
      "stateMutability": "view",
      "type": "function",
      "constant": true
    },
    {
      "inputs": [
        {
          "internalType": "address",
          "name": "airline",
          "type": "address"
        }
      ],
      "name": "isAirline",
      "outputs": [
        {
          "internalType": "bool",
          "name": "",
          "type": "bool"
        }
      ],
      "stateMutability": "view",
      "type": "function",
      "constant": true
    },
    {
      "inputs": [],
      "name": "numberOfAirlines",
      "outputs": [
        {
          "internalType": "uint256",
          "name": "",
          "type": "uint256"
        }
      ],
      "stateMutability": "view",
      "type": "function",
      "constant": true
    },
    {
      "inputs": [],
      "name": "getConsensusThreshold",
      "outputs": [
        {
          "internalType": "uint256",
          "name": "",
          "type": "uint256"
        }
      ],
      "stateMutability": "view",
      "type": "function",
      "constant": true
    },
    {
      "inputs": [
        {
          "internalType": "uint256",
          "name": "index",
          "type": "uint256"
        }
      ],
      "name": "getAirline",
      "outputs": [
        {
          "internalType": "string",
          "name": "name",
          "type": "string"
        },
        {
          "internalType": "uint256",
          "name": "status",
          "type": "uint256"
        }
      ],
      "stateMutability": "view",
      "type": "function",
      "constant": true
    },
    {
      "inputs": [
        {
          "internalType": "uint256",
          "name": "index",
          "type": "uint256"
        }
      ],
      "name": "getVotingResults",
      "outputs": [
        {
          "internalType": "uint256",
          "name": "yes",
          "type": "uint256"
        },
        {
          "internalType": "uint256",
          "name": "no",
          "type": "uint256"
        },
        {
          "internalType": "uint256",
          "name": "open",
          "type": "uint256"
        },
        {
          "internalType": "uint256",
          "name": "voters",
          "type": "uint256"
        }
      ],
      "stateMutability": "view",
      "type": "function",
      "constant": true
    },
    {
      "inputs": [
        {
          "internalType": "address",
          "name": "_airlineAddress",
          "type": "address"
        },
        {
          "internalType": "address",
          "name": "_voterAddress",
          "type": "address"
        },
        {
          "internalType": "uint256",
          "name": "_vote",
          "type": "uint256"
        }
      ],
      "name": "voteOnAirline",
      "outputs": [],
      "stateMutability": "nonpayable",
      "type": "function"
    },
    {
      "inputs": [
        {
          "internalType": "address",
          "name": "airline",
          "type": "address"
        },
        {
          "internalType": "string",
          "name": "flight",
          "type": "string"
        },
        {
          "internalType": "uint256",
          "name": "timestamp",
          "type": "uint256"
        },
        {
          "internalType": "address",
          "name": "insuree",
          "type": "address"
        },
        {
          "internalType": "uint256",
          "name": "amount",
          "type": "uint256"
        }
      ],
      "name": "buyInsurance",
      "outputs": [],
      "stateMutability": "payable",
      "type": "function",
      "payable": true
    },
    {
      "inputs": [
        {
          "internalType": "address",
          "name": "airline",
          "type": "address"
        },
        {
          "internalType": "string",
          "name": "flight",
          "type": "string"
        },
        {
          "internalType": "uint256",
          "name": "timestamp",
          "type": "uint256"
        }
      ],
      "name": "creditInsurees",
      "outputs": [],
      "stateMutability": "nonpayable",
      "type": "function"
    },
    {
      "inputs": [
        {
          "internalType": "address",
          "name": "airline",
          "type": "address"
        },
        {
          "internalType": "string",
          "name": "flight",
          "type": "string"
        },
        {
          "internalType": "uint256",
          "name": "timestamp",
          "type": "uint256"
        },
        {
          "internalType": "address payable",
          "name": "insuree",
          "type": "address"
        }
      ],
      "name": "pay",
      "outputs": [],
      "stateMutability": "payable",
      "type": "function",
      "payable": true
    },
    {
      "inputs": [],
      "name": "fund",
      "outputs": [],
      "stateMutability": "payable",
      "type": "function",
      "payable": true
    }
  ],
  "bytecode": "0x6080604052600380556000600555609660085534801561001e57600080fd5b50336000806101000a81548173ffffffffffffffffffffffffffffffffffffffff021916908373ffffffffffffffffffffffffffffffffffffffff160217905550612c498061006e6000396000f3fe6080604052600436106100e05760003560e01c8063869d7b761161007f578063c8820a7011610059578063c8820a701461056d578063d42791e11461065f578063d6e1c1891461068a578063ee38a74914610745576100ef565b8063869d7b76146103ed578063b60d4288146104fc578063c3c5a54714610506576100ef565b80633c85380f116100bb5780633c85380f1461022c578063433b875a146102575780634fe63a48146102845780635e984d1014610389576100ef565b80623cc044146100f95780630e248a11146101745780632c388d5d146101db576100ef565b366100ef576100ed61082d565b005b6100f761082d565b005b34801561010557600080fd5b506101726004803603606081101561011c57600080fd5b81019080803573ffffffffffffffffffffffffffffffffffffffff169060200190929190803573ffffffffffffffffffffffffffffffffffffffff16906020019092919080359060200190929190505050610c07565b005b34801561018057600080fd5b506101c36004803603602081101561019757600080fd5b81019080803573ffffffffffffffffffffffffffffffffffffffff169060200190929190505050611149565b60405180821515815260200191505060405180910390f35b3480156101e757600080fd5b5061022a600480360360208110156101fe57600080fd5b81019080803573ffffffffffffffffffffffffffffffffffffffff169060200190929190505050611197565b005b34801561023857600080fd5b5061024161129c565b6040518082815260200191505060405180910390f35b34801561026357600080fd5b5061026c6112a6565b60405180821515815260200191505060405180910390f35b6103876004803603608081101561029a57600080fd5b81019080803573ffffffffffffffffffffffffffffffffffffffff169060200190929190803590602001906401000000008111156102d757600080fd5b8201836020820111156102e957600080fd5b8035906020019184600183028401116401000000008311171561030b57600080fd5b91908080601f016020809104026020016040519081016040528093929190818152602001838380828437600081840152601f19601f82011690508083019250505050505050919291929080359060200190929190803573ffffffffffffffffffffffffffffffffffffffff16906020019092919050505061135b565b005b34801561039557600080fd5b506103c2600480360360208110156103ac57600080fd5b810190808035906020019092919050505061161d565b6040518085815260200184815260200183815260200182815260200194505050505060405180910390f35b6104fa600480360360a081101561040357600080fd5b81019080803573ffffffffffffffffffffffffffffffffffffffff1690602001909291908035906020019064010000000081111561044057600080fd5b82018360208201111561045257600080fd5b8035906020019184600183028401116401000000008311171561047457600080fd5b91908080601f016020809104026020016040519081016040528093929190818152602001838380828437600081840152601f19601f82011690508083019250505050505050919291929080359060200190929190803573ffffffffffffffffffffffffffffffffffffffff169060200190929190803590602001909291905050506117bc565b005b61050461082d565b005b34801561051257600080fd5b506105556004803603602081101561052957600080fd5b81019080803573ffffffffffffffffffffffffffffffffffffffff169060200190929190505050611b6c565b60405180821515815260200191505060405180910390f35b34801561057957600080fd5b5061065d6004803603606081101561059057600080fd5b81019080803573ffffffffffffffffffffffffffffffffffffffff169060200190929190803590602001906401000000008111156105cd57600080fd5b8201836020820111156105df57600080fd5b8035906020019184600183028401116401000000008311171561060157600080fd5b91908080601f016020809104026020016040519081016040528093929190818152602001838380828437600081840152601f19601f82011690508083019250505050505050919291929080359060200190929190505050611bbb565b005b34801561066b57600080fd5b50610674611df7565b6040518082815260200191505060405180910390f35b34801561069657600080fd5b506106c3600480360360208110156106ad57600080fd5b8101908080359060200190929190505050611e01565b6040518080602001838152602001828103825284818151815260200191508051906020019080838360005b838110156107095780820151818401526020810190506106ee565b50505050905090810190601f1680156107365780820380516001836020036101000a031916815260200191505b50935050505060405180910390f35b34801561075157600080fd5b5061082b6004803603604081101561076857600080fd5b81019080803573ffffffffffffffffffffffffffffffffffffffff169060200190929190803590602001906401000000008111156107a557600080fd5b8201836020820111156107b757600080fd5b803590602001918460018302840111640100000000831117156107d957600080fd5b91908080601f016020809104026020016040519081016040528093929190818152602001838380828437600081840152601f19601f820116905080830192505050505050509192919290505050611fc3565b005b610835612af6565b600660003373ffffffffffffffffffffffffffffffffffffffff1673ffffffffffffffffffffffffffffffffffffffff168152602001908152602001600020604051806040016040529081600082018054600181600116156101000203166002900480601f0160208091040260200160405190810160405280929190818152602001828054600181600116156101000203166002900480156109185780601f106108ed57610100808354040283529160200191610918565b820191906000526020600020905b8154815290600101906020018083116108fb57829003601f168201915b5050505050815260200160018201548152505090506000816020015114156109a8576040517f08c379a00000000000000000000000000000000000000000000000000000000081526004018080602001828103825260168152602001807f4169726c696e655f6e6f745f726567697374657265640000000000000000000081525060200191505060405180910390fd5b600381602001511415610a23576040517f08c379a000000000000000000000000000000000000000000000000000000000815260040180806020018281038252600e8152602001807f416c72656164795f66756e64656400000000000000000000000000000000000081525060200191505060405180910390fd5b6002816020015114610a9d576040517f08c379a000000000000000000000000000000000000000000000000000000000815260040180806020018281038252600e8152602001807f556e6b6e6f776e5f73746174757300000000000000000000000000000000000081525060200191505060405180910390fd5b600a341015610b14576040517f08c379a000000000000000000000000000000000000000000000000000000000815260040180806020018281038252600f8152602001807f4e6f745f656e6f7567685f66756e64000000000000000000000000000000000081525060200191505060405180910390fd5b3073ffffffffffffffffffffffffffffffffffffffff166108fc600a9081150290604051600060405180830381858888f19350505050158015610b5b573d6000803e3d6000fd5b506000610b72600a3461294690919063ffffffff16565b90503373ffffffffffffffffffffffffffffffffffffffff166108fc829081150290604051600060405180830381858888f19350505050158015610bba573d6000803e3d6000fd5b506003600660003373ffffffffffffffffffffffffffffffffffffffff1673ffffffffffffffffffffffffffffffffffffffff168152602001908152602001600020600101819055505050565b600160009054906101000a900473ffffffffffffffffffffffffffffffffffffffff1673ffffffffffffffffffffffffffffffffffffffff163373ffffffffffffffffffffffffffffffffffffffff1614610cad576040517f08c379a0000000000000000000000000000000000000000000000000000000008152600401808060200182810382526021815260200180612bae6021913960400191505060405180910390fd5b6001811480610cbc5750600281145b610d2e576040517f08c379a00000000000000000000000000000000000000000000000000000000081526004018080602001828103825260158152602001807f566f74655f73686f756c645f62655f315f6f725f32000000000000000000000081525060200191505060405180910390fd5b600073ffffffffffffffffffffffffffffffffffffffff168373ffffffffffffffffffffffffffffffffffffffff161415610dd1576040517f08c379a00000000000000000000000000000000000000000000000000000000081526004018080602001828103825260148152602001807f456d7074795f6169726c696e654164647265737300000000000000000000000081525060200191505060405180910390fd5b600073ffffffffffffffffffffffffffffffffffffffff168273ffffffffffffffffffffffffffffffffffffffff161415610e74576040517f08c379a00000000000000000000000000000000000000000000000000000000081526004018080602001828103825260128152602001807f456d7074795f766f74657241646472657373000000000000000000000000000081525060200191505060405180910390fd5b610e7c612af6565b600660008573ffffffffffffffffffffffffffffffffffffffff1673ffffffffffffffffffffffffffffffffffffffff168152602001908152602001600020604051806040016040529081600082018054600181600116156101000203166002900480601f016020809104026020016040519081016040528092919081815260200182805460018160011615610100020316600290048015610f5f5780601f10610f3457610100808354040283529160200191610f5f565b820191906000526020600020905b815481529060010190602001808311610f4257829003601f168201915b5050505050815260200160018201548152505090506001816020015114610fee576040517f08c379a00000000000000000000000000000000000000000000000000000000081526004018080602001828103825260148152602001807f4169726c696e655f7374617475735f6e6f745f3100000000000000000000000081525060200191505060405180910390fd5b6000600760008673ffffffffffffffffffffffffffffffffffffffff1673ffffffffffffffffffffffffffffffffffffffff1681526020019081526020016000209050600080600091505b82600101548210156110e257600083600001600084815260200190815260200160002090508773ffffffffffffffffffffffffffffffffffffffff168160000160009054906101000a900473ffffffffffffffffffffffffffffffffffffffff1673ffffffffffffffffffffffffffffffffffffffff1614156110c0578581600101819055505b6001816001015414156110d4576001820191505b508180600101925050611039565b60028360010154816110f057fe5b048110611140576002600660008973ffffffffffffffffffffffffffffffffffffffff1673ffffffffffffffffffffffffffffffffffffffff168152602001908152602001600020600101819055505b50505050505050565b600080600660008473ffffffffffffffffffffffffffffffffffffffff1673ffffffffffffffffffffffffffffffffffffffff16815260200190815260200160002060010154119050919050565b60008054906101000a900473ffffffffffffffffffffffffffffffffffffffff1673ffffffffffffffffffffffffffffffffffffffff163373ffffffffffffffffffffffffffffffffffffffff1614611258576040517f08c379a000000000000000000000000000000000000000000000000000000000815260040180806020018281038252601c8152602001807f43616c6c6572206973206e6f7420636f6e7472616374206f776e65720000000081525060200191505060405180910390fd5b80600160006101000a81548173ffffffffffffffffffffffffffffffffffffffff021916908373ffffffffffffffffffffffffffffffffffffffff16021790555050565b6000600554905090565b6000600160009054906101000a900473ffffffffffffffffffffffffffffffffffffffff1673ffffffffffffffffffffffffffffffffffffffff163373ffffffffffffffffffffffffffffffffffffffff161461134e576040517f08c379a0000000000000000000000000000000000000000000000000000000008152600401808060200182810382526021815260200180612bae6021913960400191505060405180910390fd5b6005546003541115905090565b6000611368858585612990565b9050600073ffffffffffffffffffffffffffffffffffffffff166009600083815260200190815260200160002060000160009054906101000a900473ffffffffffffffffffffffffffffffffffffffff1673ffffffffffffffffffffffffffffffffffffffff161415611443576040517f08c379a00000000000000000000000000000000000000000000000000000000081526004018080602001828103825260148152602001807f466c696768745f646f65735f6e6f5f657869737400000000000000000000000081525060200191505060405180910390fd5b60006009600083815260200190815260200160002060030160008473ffffffffffffffffffffffffffffffffffffffff1673ffffffffffffffffffffffffffffffffffffffff16815260200190815260200160002054116114ef576040517f08c379a0000000000000000000000000000000000000000000000000000000008152600401808060200182810382526024815260200180612bcf6024913960400191505060405180910390fd5b60026009600083815260200190815260200160002060040154141561157c576040517f08c379a00000000000000000000000000000000000000000000000000000000081526004018080602001828103825260098152602001807f4e6f5f7061796f7574000000000000000000000000000000000000000000000081525060200191505060405180910390fd5b8173ffffffffffffffffffffffffffffffffffffffff166108fc6009600084815260200190815260200160002060030160008573ffffffffffffffffffffffffffffffffffffffff1673ffffffffffffffffffffffffffffffffffffffff168152602001908152602001600020549081150290604051600060405180830381858888f19350505050158015611615573d6000803e3d6000fd5b505050505050565b600080600080600554851061169a576040517f08c379a000000000000000000000000000000000000000000000000000000000815260040180806020018281038252600b8152602001807f57726f6e675f496e64657800000000000000000000000000000000000000000081525060200191505060405180910390fd5b6000600760006004600089815260200190815260200160002060009054906101000a900473ffffffffffffffffffffffffffffffffffffffff1673ffffffffffffffffffffffffffffffffffffffff1673ffffffffffffffffffffffffffffffffffffffff16815260200190815260200160002090506000945060009350600092508060010154915060005b828110156117b3576000826000016000838152602001908152602001600020600101541415611756576001840193505b600182600001600083815260200190815260200160002060010154141561177e576001860195505b60028260000160008381526020019081526020016000206001015414156117a6576001850194505b8080600101915050611726565b50509193509193565b600160009054906101000a900473ffffffffffffffffffffffffffffffffffffffff1673ffffffffffffffffffffffffffffffffffffffff163373ffffffffffffffffffffffffffffffffffffffff1614611862576040517f08c379a0000000000000000000000000000000000000000000000000000000008152600401808060200182810382526021815260200180612bae6021913960400191505060405180910390fd5b600061186f868686612990565b9050600082116118ca576040517f08c379a0000000000000000000000000000000000000000000000000000000008152600401808060200182810382526021815260200180612bf36021913960400191505060405180910390fd5b60008211611923576040517f08c379a0000000000000000000000000000000000000000000000000000000008152600401808060200182810382526021815260200180612bf36021913960400191505060405180910390fd5b600073ffffffffffffffffffffffffffffffffffffffff166009600083815260200190815260200160002060000160009054906101000a900473ffffffffffffffffffffffffffffffffffffffff1673ffffffffffffffffffffffffffffffffffffffff1614156119fc576040517f08c379a00000000000000000000000000000000000000000000000000000000081526004018080602001828103825260148152602001807f466c696768745f646f65735f6e6f5f657869737400000000000000000000000081525060200191505060405180910390fd5b60006009600083815260200190815260200160002060030160008573ffffffffffffffffffffffffffffffffffffffff1673ffffffffffffffffffffffffffffffffffffffff1681526020019081526020016000205414611ac5576040517f08c379a00000000000000000000000000000000000000000000000000000000081526004018080602001828103825260168152602001807f496e73757265655f616c72656164795f6578697374730000000000000000000081525060200191505060405180910390fd5b3073ffffffffffffffffffffffffffffffffffffffff166108fc839081150290604051600060405180830381858888f19350505050158015611b0b573d6000803e3d6000fd5b50816009600083815260200190815260200160002060030160008573ffffffffffffffffffffffffffffffffffffffff1673ffffffffffffffffffffffffffffffffffffffff16815260200190815260200160002081905550505050505050565b60006001600660008473ffffffffffffffffffffffffffffffffffffffff1673ffffffffffffffffffffffffffffffffffffffff16815260200190815260200160002060010154119050919050565b600160009054906101000a900473ffffffffffffffffffffffffffffffffffffffff1673ffffffffffffffffffffffffffffffffffffffff163373ffffffffffffffffffffffffffffffffffffffff1614611c61576040517f08c379a0000000000000000000000000000000000000000000000000000000008152600401808060200182810382526021815260200180612bae6021913960400191505060405180910390fd5b6000611c6e848484612990565b9050600073ffffffffffffffffffffffffffffffffffffffff166009600083815260200190815260200160002060000160009054906101000a900473ffffffffffffffffffffffffffffffffffffffff1673ffffffffffffffffffffffffffffffffffffffff161415611d49576040517f08c379a00000000000000000000000000000000000000000000000000000000081526004018080602001828103825260148152602001807f466c696768745f646f65735f6e6f5f657869737400000000000000000000000081525060200191505060405180910390fd5b6001600960008381526020019081526020016000206004015414611dd5576040517f08c379a00000000000000000000000000000000000000000000000000000000081526004018080602001828103825260178152602001807f466c69676874446174615f77726f6e675f73746174757300000000000000000081525060200191505060405180910390fd5b6002600960008381526020019081526020016000206004018190555050505050565b6000600354905090565b606060006005548310611e7c576040517f08c379a000000000000000000000000000000000000000000000000000000000815260040180806020018281038252600b8152602001807f57726f6e675f496e64657800000000000000000000000000000000000000000081525060200191505060405180910390fd5b611e84612af6565b600660006004600087815260200190815260200160002060009054906101000a900473ffffffffffffffffffffffffffffffffffffffff1673ffffffffffffffffffffffffffffffffffffffff1673ffffffffffffffffffffffffffffffffffffffff168152602001908152602001600020604051806040016040529081600082018054600181600116156101000203166002900480601f016020809104026020016040519081016040528092919081815260200182805460018160011615610100020316600290048015611f9a5780601f10611f6f57610100808354040283529160200191611f9a565b820191906000526020600020905b815481529060010190602001808311611f7d57829003601f168201915b505050505081526020016001820154815250509050806000015181602001519250925050915091565b600160009054906101000a900473ffffffffffffffffffffffffffffffffffffffff1673ffffffffffffffffffffffffffffffffffffffff163373ffffffffffffffffffffffffffffffffffffffff1614612069576040517f08c379a0000000000000000000000000000000000000000000000000000000008152600401808060200182810382526021815260200180612bae6021913960400191505060405180910390fd5b600073ffffffffffffffffffffffffffffffffffffffff168273ffffffffffffffffffffffffffffffffffffffff1614156120a357612942565b6120ac82611b6c565b1561211f576040517f08c379a00000000000000000000000000000000000000000000000000000000081526004018080602001828103825260128152602001807f416c72656164795f52656769737465726564000000000000000000000000000081525060200191505060405180910390fd5b6121276112a6565b6121af5760405180604001604052808281526020016002815250600660008473ffffffffffffffffffffffffffffffffffffffff1673ffffffffffffffffffffffffffffffffffffffff168152602001908152602001600020600082015181600001908051906020019061219c929190612b10565b5060208201518160010155905050612711565b7f4db6ce33ac3fad1babe34f5a9ff99ef52648b2f737ec783f833755f47e3a32e86103e860008060006040518085815260200180602001858152602001848152602001838152602001828103825260118152602001807f417070726f76616c206e65656465643a200000000000000000000000000000008152506020019550505050505060405180910390a16060600660008473ffffffffffffffffffffffffffffffffffffffff1673ffffffffffffffffffffffffffffffffffffffff1681526020019081526020016000206000018054600181600116156101000203166002900480601f0160208091040260200160405190810160405280929190818152602001828054600181600116156101000203166002900480156123135780601f106122e857610100808354040283529160200191612313565b820191906000526020600020905b8154815290600101906020018083116122f657829003601f168201915b505050505090507f4db6ce33ac3fad1babe34f5a9ff99ef52648b2f737ec783f833755f47e3a32e86103e88260008060006040518086815260200180602001858152602001848152602001838152602001828103825286818151815260200191508051906020019080838360005b8381101561239c578082015181840152602081019050612381565b50505050905090810190601f1680156123c95780820380516001836020036101000a031916815260200191505b50965050505050505060405180910390a160405180602001604052806000815250600760008573ffffffffffffffffffffffffffffffffffffffff1673ffffffffffffffffffffffffffffffffffffffff168152602001908152602001600020600082015181600101559050506000600760008573ffffffffffffffffffffffffffffffffffffffff1673ffffffffffffffffffffffffffffffffffffffff16815260200190815260200160002090506000805b6005548110156125ba5760006004600083815260200190815260200160002060009054906101000a900473ffffffffffffffffffffffffffffffffffffffff1690506000600660008373ffffffffffffffffffffffffffffffffffffffff1673ffffffffffffffffffffffffffffffffffffffff16815260200190815260200160002090506001816001015411156125ab5760405180604001604052808373ffffffffffffffffffffffffffffffffffffffff168152602001600081525085600001600086815260200190815260200160002060008201518160000160006101000a81548173ffffffffffffffffffffffffffffffffffffffff021916908373ffffffffffffffffffffffffffffffffffffffff160217905550602082015181600101559050506001840193505b5050808060010191505061247d565b5060405180604001604052808581526020016001815250600660008773ffffffffffffffffffffffffffffffffffffffff1673ffffffffffffffffffffffffffffffffffffffff168152602001908152602001600020600082015181600001908051906020019061262c929190612b10565b50602082015181600101559050506000600760008773ffffffffffffffffffffffffffffffffffffffff1673ffffffffffffffffffffffffffffffffffffffff1681526020019081526020016000206001015490507f4db6ce33ac3fad1babe34f5a9ff99ef52648b2f737ec783f833755f47e3a32e86103e88260008060405180858152602001806020018581526020018481526020018381526020018281038252600e8152602001807f4e72206f6620766f746572733a200000000000000000000000000000000000008152506020019550505050505060405180910390a1505050505b8160046000600554815260200190815260200160002060006101000a81548173ffffffffffffffffffffffffffffffffffffffff021916908373ffffffffffffffffffffffffffffffffffffffff160217905550600160056000828254019250508190555061277e612af6565b600660008473ffffffffffffffffffffffffffffffffffffffff1673ffffffffffffffffffffffffffffffffffffffff168152602001908152602001600020604051806040016040529081600082018054600181600116156101000203166002900480601f0160208091040260200160405190810160405280929190818152602001828054600181600116156101000203166002900480156128615780601f1061283657610100808354040283529160200191612861565b820191906000526020600020905b81548152906001019060200180831161284457829003601f168201915b5050505050815260200160018201548152505090507f89b886e508b5806f8c28179176052458c2bd0f54106811773b56be2d51a14e608382600001518360200151604051808473ffffffffffffffffffffffffffffffffffffffff16815260200180602001838152602001828103825284818151815260200191508051906020019080838360005b838110156129045780820151818401526020810190506128e9565b50505050905090810190601f1680156129315780820380516001836020036101000a031916815260200191505b5094505050505060405180910390a1505b5050565b600061298883836040518060400160405280601e81526020017f536166654d6174683a207375627472616374696f6e206f766572666c6f770000815250612a36565b905092915050565b6000838383604051602001808473ffffffffffffffffffffffffffffffffffffffff1660601b815260140183805190602001908083835b602083106129ea57805182526020820191506020810190506020830392506129c7565b6001836020036101000a03801982511681845116808217855250505050505090500182815260200193505050506040516020818303038152906040528051906020012090509392505050565b6000838311158290612ae3576040517f08c379a00000000000000000000000000000000000000000000000000000000081526004018080602001828103825283818151815260200191508051906020019080838360005b83811015612aa8578082015181840152602081019050612a8d565b50505050905090810190601f168015612ad55780820380516001836020036101000a031916815260200191505b509250505060405180910390fd5b5060008385039050809150509392505050565b604051806040016040528060608152602001600081525090565b828054600181600116156101000203166002900490600052602060002090601f016020900481019282601f10612b5157805160ff1916838001178555612b7f565b82800160010185558215612b7f579182015b82811115612b7e578251825591602001919060010190612b63565b5b509050612b8c9190612b90565b5090565b5b80821115612ba9576000816000905550600101612b91565b509056fe43616c6c6572206973206e6f7420617574686f72697a656420636f6e7472616374496e73757265655f646f65735f6e6f5f65786973745f6f725f7061796f75745f646f6e65416d6f756e745f6e656564735f746f5f62655f677265617465725f7468616e5f30a2646970667358221220dd4b5d1a388763b0469f18e42f533a3ccb8992cb18b47338d71ba1ee6f525d9464736f6c634300060c0033",
  "immutableReferences": {},
  "source": "// SPDX-License-Identifier: MIT\n\npragma solidity ^0.6.0;\n\nimport \"../node_modules/@openzeppelin/contracts/math/SafeMath.sol\";\n\ncontract FlightSuretyData {\n    using SafeMath for uint256;\n\n    /********************************************************************************************/\n    /*                                       DATA VARIABLES                                     */\n    /********************************************************************************************/\n\n    address private contractOwner;                                      // Account used to deploy contract\n    address private authorizedContract;\n\n    // Blocks all state changes throughout the contract if false\n\n\n    uint numberOfApproved;\n\n    struct Airline {\n        string name;\n        // 0 : does not exist\n        // 1 waiting for approval\n        // 2 approved\n        // 3 funded (10 ether payed)\n        // 9 blocked\n        uint status;\n    }\n\n    //\n    // Multiparty Consensus Approval Vote\n    //\n\n    struct AirlineApprovalVote {\n        address airlineAddress;\n        // 0 not voted\n        // 1 approve\n        // 2 disapprove\n        uint vote;\n    }\n\n    struct AirlineApproval {\n        mapping(uint => AirlineApprovalVote) airlineApprovalVoteIndex;\n        uint length;\n    }\n\n    uint private consensusThreshold = 3;\n    mapping(uint => address) private airlineIndex;\n    uint private airlineIndexLength = 0;\n    mapping(address => Airline) private airlineData;\n    mapping(address => AirlineApproval) private address2airlineApproval;\n\n\n\n\n    /********************************************************************************************/\n    /*                                       EVENT DEFINITIONS                                  */\n    /********************************************************************************************/\n\n    event Registered(address airlineAddress, string airlineName, uint status);\n    event DataConsole(uint level, string info, uint int0, uint int1, uint int2);\n\n\n    /**\n    * @dev Constructor\n    *      The deploying account becomes contractOwner\n    */\n    constructor\n    (\n    )\n    public\n    {\n        contractOwner = msg.sender;\n    }\n\n    /********************************************************************************************/\n    /*                                       FUNCTION MODIFIERS                                 */\n    /********************************************************************************************/\n\n\n\n    /**\n    * @dev Modifier that requires the \"ContractOwner\" account to be the function caller\n    */\n    modifier requireContractOwner()\n    {\n        require(msg.sender == contractOwner, \"Caller is not contract owner\");\n        _;\n    }\n\n    modifier requireAuthorizedCaller()\n    {\n        require(msg.sender == authorizedContract, \"Caller is not authorized contract\");\n        _;\n    }\n\n\n\n    /********************************************************************************************/\n    /*                                       UTILITY FUNCTIONS                                  */\n    /********************************************************************************************/\n\n\n\n\n\n\n    function authorizeCaller\n    (\n        address _contract\n    )\n    external\n    requireContractOwner\n    {\n        authorizedContract = _contract;\n    }\n\n\n    /********************************************************************************************/\n    /*                                     SMART CONTRACT FUNCTIONS                             */\n    /********************************************************************************************/\n\n\n    function registrationNeedsVoting() public requireAuthorizedCaller view returns (bool){\n        return !(consensusThreshold > airlineIndexLength);\n    }\n\n    function registerAirline\n    (\n        address _airlineAddress, string memory _airlineName\n    )\n    requireAuthorizedCaller\n    external\n    {\n\n        if (_airlineAddress == address(0)) {\n            return;\n        }\n\n        require(!isRegistered(_airlineAddress), 'Already_Registered');\n        if (!registrationNeedsVoting()) {\n            airlineData[_airlineAddress] = Airline(_airlineName, 2);\n        } else {\n            emit DataConsole(1000, 'Approval needed: ', 0, 0, 0);\n            string memory airlineName = airlineData[_airlineAddress].name;\n            emit DataConsole(1000, airlineName, 0, 0, 0);\n            address2airlineApproval[_airlineAddress] = AirlineApproval(0);\n            AirlineApproval storage airlineApproval = address2airlineApproval[_airlineAddress];\n            uint index = 0;\n            for (uint i = 0; i < airlineIndexLength; i++) {\n                address addressV = airlineIndex[i];\n                Airline storage airlineV = airlineData[addressV];\n                if (airlineV.status > 1) {\n                    airlineApproval.airlineApprovalVoteIndex[index] = AirlineApprovalVote(addressV, 0);\n                    index += 1;\n                }\n            }\n            airlineData[_airlineAddress] = Airline(_airlineName, 1);\n\n            uint nrOfVoters = address2airlineApproval[_airlineAddress].length;\n            emit DataConsole(1000, 'Nr of voters: ', nrOfVoters, 0, 0);\n        }\n        airlineIndex[airlineIndexLength] = _airlineAddress;\n        airlineIndexLength += 1;\n        Airline memory airline = airlineData[_airlineAddress];\n        emit Registered(_airlineAddress, airline.name, airline.status);\n    }\n\n    function isRegistered(address airline) public view returns (bool)\n    {\n        return airlineData[airline].status > 1;\n    }\n\n    function isAirline(address airline) public view returns (bool)\n    {\n        return airlineData[airline].status > 0;\n    }\n\n    function numberOfAirlines() public view returns (uint)\n    {\n        return airlineIndexLength;\n    }\n\n\n    function getConsensusThreshold() public view returns (uint)\n    {\n        return consensusThreshold;\n    }\n\n\n    function getAirline(uint index) public view returns (string memory name, uint status)\n    {\n        require(index < airlineIndexLength, 'Wrong_Index');\n        Airline memory a = airlineData[airlineIndex[index]];\n        return (a.name, a.status);\n    }\n\n    function getVotingResults(uint index) public view returns (uint yes, uint no, uint open, uint voters)\n    {\n        require(index < airlineIndexLength, 'Wrong_Index');\n        AirlineApproval storage a = address2airlineApproval[airlineIndex[index]];\n        yes = 0;\n        no = 0;\n        open = 0;\n        voters = a.length;\n        for (uint i = 0; i < voters; i++) {\n            if (a.airlineApprovalVoteIndex[i].vote == 0) {\n                open += 1;\n            }\n            if (a.airlineApprovalVoteIndex[i].vote == 1) {\n                yes += 1;\n            }\n            if (a.airlineApprovalVoteIndex[i].vote == 2) {\n                no += 1;\n            }\n        }\n        return (yes, no, open, voters);\n    }\n\n    function voteOnAirline(address _airlineAddress, address _voterAddress, uint _vote) public requireAuthorizedCaller {\n        require(_vote == 1 || _vote == 2, 'Vote_should_be_1_or_2');\n        require(_airlineAddress != address(0), 'Empty_airlineAddress');\n        require(_voterAddress != address(0), 'Empty_voterAddress');\n        Airline memory airline = airlineData[_airlineAddress];\n        require(airline.status == 1, 'Airline_status_not_1');\n        AirlineApproval storage airlineApproval = address2airlineApproval[_airlineAddress];\n        uint i = 0;\n        uint yesVotes = 0;\n\n        for (i = 0; i < airlineApproval.length; i++) {\n            AirlineApprovalVote storage airlineApprovalVote = airlineApproval.airlineApprovalVoteIndex[i];\n            if (airlineApprovalVote.airlineAddress == _airlineAddress) {\n                airlineApprovalVote.vote = _vote;\n            }\n            if (airlineApprovalVote.vote == 1) {\n                yesVotes += 1;\n            }\n        }\n        if (yesVotes >= airlineApproval.length / 2) {\n            airlineData[_airlineAddress].status = 2;\n        }\n    }\n\n    //    ***\n    //    INSURANCE SECTION\n    //    ***\n\n    uint paybackRatioPercentage = 150;\n\n    struct FlightData {\n        address airline;\n        string flight;\n        uint256 timestamp;\n        mapping(address => uint) insurances;\n        // 1 ok (initial)\n        // 2 pay outs\n        uint status;\n        uint totalSum;\n    }\n\n    mapping(bytes32 => FlightData) flightData;\n    bytes32[] flightKeys;\n\n\n    /**\n     * @dev Buy insurance for a flight\n     *\n     */\n    function buyInsurance\n    (\n        address airline,\n        string memory flight,\n        uint256 timestamp,\n        address insuree,\n        uint amount\n    )\n    external\n    requireAuthorizedCaller\n    payable\n    {\n\n        bytes32 flightKey = getFlightKey(airline, flight, timestamp);\n        require(amount > 0, 'Amount_needs_to_be_greater_than_0');\n        require(amount > 0, 'Amount_needs_to_be_greater_than_0');\n        require(flightData[flightKey].airline != address(0), 'Flight_does_no_exist');\n        require(flightData[flightKey].insurances[insuree] == 0, 'Insuree_already_exists');\n\n\n        address(this).transfer(amount);\n        flightData[flightKey].insurances[insuree] = amount;\n\n    }\n\n    /**\n     *  @dev Credits payouts to insurees\n    */\n    function creditInsurees\n    (\n        address airline,\n        string memory flight,\n        uint256 timestamp\n    )\n    external\n    requireAuthorizedCaller\n    {\n        bytes32 flightKey = getFlightKey(airline, flight, timestamp);\n        require(flightData[flightKey].airline != address(0), 'Flight_does_no_exist');\n        require(flightData[flightKey].status == 1, 'FlightData_wrong_status');\n        flightData[flightKey].status = 2;\n    }\n\n\n    /**\n     *  @dev Transfers eligible payout funds to insuree\n     *\n    */\n    function pay\n    (\n        address airline,\n        string memory flight,\n        uint256 timestamp,\n        address payable insuree\n    )\n    external\n    payable\n    {\n\n        bytes32 flightKey = getFlightKey(airline, flight, timestamp);\n        require(flightData[flightKey].airline != address(0), 'Flight_does_no_exist');\n        require(flightData[flightKey].insurances[insuree] > 0, 'Insuree_does_no_exist_or_payout_done');\n        require(flightData[flightKey].status  != 2, 'No_payout');\n        insuree.transfer(flightData[flightKey].insurances[insuree]);\n    }\n\n    /**\n     * @dev Initial funding for the insurance. Unless there are too many delayed flights\n     *      resulting in insurance payouts, the contract should be self-sustaining\n     *\n     */\n    function fund\n    (\n    )\n    public\n    payable\n    {\n        Airline memory airline = airlineData[msg.sender];\n        require(airline.status != 0, 'Airline_not_registered');\n        require(airline.status != 3, 'Already_funded');\n        require(airline.status == 2, 'Unknown_status');\n        require(msg.value >= 10, 'Not_enough_fund');\n        address(this).transfer(10);\n        uint amountToReturn = msg.value.sub(10);\n        msg.sender.transfer(amountToReturn);\n        airlineData[msg.sender].status = 3;\n    }\n\n    function getFlightKey\n    (\n        address airline,\n        string memory flight,\n        uint256 timestamp\n    )\n    pure\n    internal\n    returns (bytes32)\n    {\n        return keccak256(abi.encodePacked(airline, flight, timestamp));\n    }\n\n    /**\n    * @dev Fallback function for funding smart contract.\n    *\n    */\n    fallback()\n    external\n    payable\n    {\n        fund();\n    }\n\n    receive()\n    external\n    payable\n    {\n        fund();\n    }\n\n\n}\n\n",
  "sourcePath": "/Users/tonibuenter/_proj/misc/udacity/u-blockchain4-flightsurety/contracts/FlightSuretyData.sol",
  "compiler": {
    "name": "solc",
    "version": "0.6.12+commit.27d51765.Emscripten.clang"
  },
  "schemaVersion": "3.4.1",
  "updatedAt": "2021-06-02T13:14:54.563Z",
  "networkType": "ethereum",
  "devdoc": {
    "kind": "dev",
    "methods": {
      "buyInsurance(address,string,uint256,address,uint256)": {
        "details": "Buy insurance for a flight"
      },
      "constructor": {
        "details": "Constructor      The deploying account becomes contractOwner"
      },
      "creditInsurees(address,string,uint256)": {
        "details": "Credits payouts to insurees"
      },
      "fund()": {
        "details": "Initial funding for the insurance. Unless there are too many delayed flights      resulting in insurance payouts, the contract should be self-sustaining"
      },
      "pay(address,string,uint256,address)": {
        "details": "Transfers eligible payout funds to insuree"
      }
    },
    "version": 1
  },
  "userdoc": {
    "kind": "user",
    "methods": {},
    "version": 1
  }
}