{
  "contractName": "FlightSuretyApp",
  "abi": [
    {
      "inputs": [
        {
          "internalType": "address",
          "name": "_dataContract",
          "type": "address"
        }
      ],
      "stateMutability": "nonpayable",
      "type": "constructor"
    },
    {
      "anonymous": false,
      "inputs": [
        {
          "indexed": false,
          "internalType": "string",
          "name": "origin",
          "type": "string"
        },
        {
          "indexed": false,
          "internalType": "uint256",
          "name": "level",
          "type": "uint256"
        },
        {
          "indexed": false,
          "internalType": "string",
          "name": "info",
          "type": "string"
        }
      ],
      "name": "Console",
      "type": "event"
    },
    {
      "anonymous": false,
      "inputs": [
        {
          "indexed": false,
          "internalType": "address",
          "name": "airline",
          "type": "address"
        },
        {
          "indexed": false,
          "internalType": "string",
          "name": "flight",
          "type": "string"
        },
        {
          "indexed": false,
          "internalType": "uint256",
          "name": "timestamp",
          "type": "uint256"
        },
        {
          "indexed": false,
          "internalType": "uint8",
          "name": "status",
          "type": "uint8"
        }
      ],
      "name": "FlightStatusInfo",
      "type": "event"
    },
    {
      "anonymous": false,
      "inputs": [
        {
          "indexed": false,
          "internalType": "address",
          "name": "airline",
          "type": "address"
        },
        {
          "indexed": false,
          "internalType": "string",
          "name": "flight",
          "type": "string"
        },
        {
          "indexed": false,
          "internalType": "uint256",
          "name": "timestamp",
          "type": "uint256"
        },
        {
          "indexed": false,
          "internalType": "uint8",
          "name": "status",
          "type": "uint8"
        }
      ],
      "name": "OracleReport",
      "type": "event"
    },
    {
      "anonymous": false,
      "inputs": [
        {
          "indexed": false,
          "internalType": "uint8",
          "name": "index",
          "type": "uint8"
        },
        {
          "indexed": false,
          "internalType": "address",
          "name": "airline",
          "type": "address"
        },
        {
          "indexed": false,
          "internalType": "string",
          "name": "flight",
          "type": "string"
        },
        {
          "indexed": false,
          "internalType": "uint256",
          "name": "timestamp",
          "type": "uint256"
        }
      ],
      "name": "OracleRequest",
      "type": "event"
    },
    {
      "inputs": [],
      "name": "REGISTRATION_FEE",
      "outputs": [
        {
          "internalType": "uint256",
          "name": "",
          "type": "uint256"
        }
      ],
      "stateMutability": "view",
      "type": "function",
      "constant": true
    },
    {
      "inputs": [
        {
          "internalType": "bytes1",
          "name": "b",
          "type": "bytes1"
        }
      ],
      "name": "char",
      "outputs": [
        {
          "internalType": "bytes1",
          "name": "c",
          "type": "bytes1"
        }
      ],
      "stateMutability": "pure",
      "type": "function",
      "constant": true
    },
    {
      "inputs": [
        {
          "internalType": "string",
          "name": "origin",
          "type": "string"
        },
        {
          "internalType": "uint256",
          "name": "level",
          "type": "uint256"
        },
        {
          "internalType": "string",
          "name": "info",
          "type": "string"
        }
      ],
      "name": "log",
      "outputs": [],
      "stateMutability": "nonpayable",
      "type": "function"
    },
    {
      "inputs": [
        {
          "internalType": "address",
          "name": "x",
          "type": "address"
        }
      ],
      "name": "toAsciiString",
      "outputs": [
        {
          "internalType": "string",
          "name": "",
          "type": "string"
        }
      ],
      "stateMutability": "pure",
      "type": "function",
      "constant": true
    },
    {
      "inputs": [
        {
          "internalType": "address payable",
          "name": "_dataContract",
          "type": "address"
        }
      ],
      "name": "setDataContract",
      "outputs": [],
      "stateMutability": "nonpayable",
      "type": "function"
    },
    {
      "inputs": [],
      "name": "isOperational",
      "outputs": [
        {
          "internalType": "bool",
          "name": "",
          "type": "bool"
        }
      ],
      "stateMutability": "view",
      "type": "function",
      "constant": true
    },
    {
      "inputs": [
        {
          "internalType": "bool",
          "name": "_operational",
          "type": "bool"
        }
      ],
      "name": "setOperational",
      "outputs": [],
      "stateMutability": "nonpayable",
      "type": "function"
    },
    {
      "inputs": [],
      "name": "getDataContract",
      "outputs": [
        {
          "internalType": "address",
          "name": "",
          "type": "address"
        }
      ],
      "stateMutability": "view",
      "type": "function",
      "constant": true
    },
    {
      "inputs": [
        {
          "internalType": "address",
          "name": "_airlineAddress",
          "type": "address"
        },
        {
          "internalType": "string",
          "name": "_airlineName",
          "type": "string"
        }
      ],
      "name": "registerAirline",
      "outputs": [
        {
          "internalType": "bool",
          "name": "success",
          "type": "bool"
        },
        {
          "internalType": "uint256",
          "name": "votes",
          "type": "uint256"
        }
      ],
      "stateMutability": "payable",
      "type": "function",
      "payable": true
    },
    {
      "inputs": [
        {
          "internalType": "address",
          "name": "_address",
          "type": "address"
        }
      ],
      "name": "isRegistered",
      "outputs": [
        {
          "internalType": "bool",
          "name": "",
          "type": "bool"
        }
      ],
      "stateMutability": "view",
      "type": "function",
      "constant": true
    },
    {
      "inputs": [
        {
          "internalType": "address",
          "name": "_address",
          "type": "address"
        }
      ],
      "name": "registrationStatus",
      "outputs": [
        {
          "internalType": "uint256",
          "name": "",
          "type": "uint256"
        }
      ],
      "stateMutability": "view",
      "type": "function",
      "constant": true
    },
    {
      "inputs": [
        {
          "internalType": "address",
          "name": "_address",
          "type": "address"
        }
      ],
      "name": "isAirline",
      "outputs": [
        {
          "internalType": "bool",
          "name": "",
          "type": "bool"
        }
      ],
      "stateMutability": "view",
      "type": "function",
      "constant": true
    },
    {
      "inputs": [
        {
          "internalType": "address",
          "name": "_candidateAddress",
          "type": "address"
        },
        {
          "internalType": "address",
          "name": "_voterAddress",
          "type": "address"
        },
        {
          "internalType": "uint256",
          "name": "_vote",
          "type": "uint256"
        }
      ],
      "name": "voteOnAirline",
      "outputs": [],
      "stateMutability": "nonpayable",
      "type": "function"
    },
    {
      "inputs": [
        {
          "internalType": "uint256",
          "name": "_index",
          "type": "uint256"
        }
      ],
      "name": "votingResultsByIndex",
      "outputs": [
        {
          "internalType": "uint256",
          "name": "",
          "type": "uint256"
        },
        {
          "internalType": "uint256",
          "name": "",
          "type": "uint256"
        },
        {
          "internalType": "uint256",
          "name": "",
          "type": "uint256"
        },
        {
          "internalType": "uint256",
          "name": "",
          "type": "uint256"
        }
      ],
      "stateMutability": "view",
      "type": "function",
      "constant": true
    },
    {
      "inputs": [
        {
          "internalType": "address",
          "name": "_address",
          "type": "address"
        }
      ],
      "name": "votingResults",
      "outputs": [
        {
          "internalType": "uint256",
          "name": "",
          "type": "uint256"
        },
        {
          "internalType": "uint256",
          "name": "",
          "type": "uint256"
        },
        {
          "internalType": "uint256",
          "name": "",
          "type": "uint256"
        },
        {
          "internalType": "uint256",
          "name": "",
          "type": "uint256"
        }
      ],
      "stateMutability": "view",
      "type": "function",
      "constant": true
    },
    {
      "inputs": [],
      "name": "registerFlight",
      "outputs": [],
      "stateMutability": "pure",
      "type": "function",
      "constant": true
    },
    {
      "inputs": [
        {
          "internalType": "address",
          "name": "airline",
          "type": "address"
        },
        {
          "internalType": "string",
          "name": "flight",
          "type": "string"
        },
        {
          "internalType": "uint256",
          "name": "timestamp",
          "type": "uint256"
        }
      ],
      "name": "fetchFlightStatus",
      "outputs": [],
      "stateMutability": "nonpayable",
      "type": "function"
    },
    {
      "inputs": [],
      "name": "registerOracle",
      "outputs": [],
      "stateMutability": "payable",
      "type": "function",
      "payable": true
    },
    {
      "inputs": [],
      "name": "isOracleRegistered",
      "outputs": [
        {
          "internalType": "bool",
          "name": "",
          "type": "bool"
        }
      ],
      "stateMutability": "view",
      "type": "function",
      "constant": true
    },
    {
      "inputs": [],
      "name": "getMyIndexes",
      "outputs": [
        {
          "internalType": "uint8[3]",
          "name": "",
          "type": "uint8[3]"
        }
      ],
      "stateMutability": "view",
      "type": "function",
      "constant": true
    },
    {
      "inputs": [
        {
          "internalType": "uint8",
          "name": "index",
          "type": "uint8"
        },
        {
          "internalType": "address",
          "name": "airline",
          "type": "address"
        },
        {
          "internalType": "string",
          "name": "flight",
          "type": "string"
        },
        {
          "internalType": "uint256",
          "name": "timestamp",
          "type": "uint256"
        },
        {
          "internalType": "uint8",
          "name": "statusCode",
          "type": "uint8"
        }
      ],
      "name": "submitOracleResponse",
      "outputs": [],
      "stateMutability": "nonpayable",
      "type": "function"
    }
  ],
  "bytecode": "0x608060405260018060146101000a81548160ff0219169083151502179055506000600460006101000a81548160ff021916908360ff16021790555034801561004657600080fd5b506040516131e83803806131e88339818101604052602081101561006957600080fd5b810190808051906020019092919050505080600160006101000a81548173ffffffffffffffffffffffffffffffffffffffff021916908373ffffffffffffffffffffffffffffffffffffffff160217905550600160009054906101000a900473ffffffffffffffffffffffffffffffffffffffff16600260006101000a81548173ffffffffffffffffffffffffffffffffffffffff021916908373ffffffffffffffffffffffffffffffffffffffff160217905550336000806101000a81548173ffffffffffffffffffffffffffffffffffffffff021916908373ffffffffffffffffffffffffffffffffffffffff1602179055505061307a8061016e6000396000f3fe6080604052600436106101295760003560e01c80635f1cc0e6116100ab578063ae6f17e01161006f578063ae6f17e01461079d578063c10f2700146107b4578063c3c5a547146108c0578063cd905dff14610927578063ee38a74914610954578063f83f11c014610a4c57610129565b80635f1cc0e6146105c3578063602e03b41461061657806364b4f7511461067b57806369f9ad2f146106a65780639c9161c51461073957610129565b80632c6e7598116100f25780632c6e7598146102cf578063339d25901461039957806345c83148146103a3578063500b94aa1461041d5780635970e0891461045a57610129565b80623cc0441461012e57806303959bb7146101a95780630d1db1f0146101fa5780630e248a111461022757806324e0fbaa1461028e575b600080fd5b34801561013a57600080fd5b506101a76004803603606081101561015157600080fd5b81019080803573ffffffffffffffffffffffffffffffffffffffff169060200190929190803573ffffffffffffffffffffffffffffffffffffffff16906020019092919080359060200190929190505050610b3e565b005b3480156101b557600080fd5b506101f8600480360360208110156101cc57600080fd5b81019080803573ffffffffffffffffffffffffffffffffffffffff169060200190929190505050610d71565b005b34801561020657600080fd5b5061020f610ed9565b60405180821515815260200191505060405180910390f35b34801561023357600080fd5b506102766004803603602081101561024a57600080fd5b81019080803573ffffffffffffffffffffffffffffffffffffffff169060200190929190505050610f30565b60405180821515815260200191505060405180910390f35b34801561029a57600080fd5b506102a36110c1565b604051808273ffffffffffffffffffffffffffffffffffffffff16815260200191505060405180910390f35b3480156102db57600080fd5b5061031e600480360360208110156102f257600080fd5b81019080803573ffffffffffffffffffffffffffffffffffffffff1690602001909291905050506110eb565b6040518080602001828103825283818151815260200191508051906020019080838360005b8381101561035e578082015181840152602081019050610343565b50505050905090810190601f16801561038b5780820380516001836020036101000a031916815260200191505b509250505060405180910390f35b6103a161124e565b005b3480156103af57600080fd5b506103f2600480360360208110156103c657600080fd5b81019080803573ffffffffffffffffffffffffffffffffffffffff169060200190929190505050611460565b6040518085815260200184815260200183815260200182815260200194505050505060405180910390f35b34801561042957600080fd5b506104586004803603602081101561044057600080fd5b8101908080351515906020019092919050505061161c565b005b34801561046657600080fd5b506105c16004803603606081101561047d57600080fd5b810190808035906020019064010000000081111561049a57600080fd5b8201836020820111156104ac57600080fd5b803590602001918460018302840111640100000000831117156104ce57600080fd5b91908080601f016020809104026020016040519081016040528093929190818152602001838380828437600081840152601f19601f820116905080830192505050505050509192919290803590602001909291908035906020019064010000000081111561053b57600080fd5b82018360208201111561054d57600080fd5b8035906020019184600183028401116401000000008311171561056f57600080fd5b91908080601f016020809104026020016040519081016040528093929190818152602001838380828437600081840152601f19601f8201169050808301925050505050505091929192905050506116fa565b005b3480156105cf57600080fd5b506105d8611810565b6040518082600360200280838360005b838110156106035780820151818401526020810190506105e8565b5050505090500191505060405180910390f35b34801561062257600080fd5b506106656004803603602081101561063957600080fd5b81019080803573ffffffffffffffffffffffffffffffffffffffff169060200190929190505050611983565b6040518082815260200191505060405180910390f35b34801561068757600080fd5b50610690611b14565b6040518082815260200191505060405180910390f35b3480156106b257600080fd5b50610701600480360360208110156106c957600080fd5b8101908080357effffffffffffffffffffffffffffffffffffffffffffffffffffffffffffff19169060200190929190505050611b20565b60405180827effffffffffffffffffffffffffffffffffffffffffffffffffffffffffffff1916815260200191505060405180910390f35b34801561074557600080fd5b506107726004803603602081101561075c57600080fd5b8101908080359060200190929190505050611b54565b6040518085815260200184815260200183815260200182815260200194505050505060405180910390f35b3480156107a957600080fd5b506107b2611cfa565b005b3480156107c057600080fd5b506108be600480360360a08110156107d757600080fd5b81019080803560ff169060200190929190803573ffffffffffffffffffffffffffffffffffffffff1690602001909291908035906020019064010000000081111561082157600080fd5b82018360208201111561083357600080fd5b8035906020019184600183028401116401000000008311171561085557600080fd5b91908080601f016020809104026020016040519081016040528093929190818152602001838380828437600081840152601f19601f82011690508083019250505050505050919291929080359060200190929190803560ff169060200190929190505050611cfc565b005b3480156108cc57600080fd5b5061090f600480360360208110156108e357600080fd5b81019080803573ffffffffffffffffffffffffffffffffffffffff16906020019092919050505061226d565b60405180821515815260200191505060405180910390f35b34801561093357600080fd5b5061093c6123fe565b60405180821515815260200191505060405180910390f35b610a2d6004803603604081101561096a57600080fd5b81019080803573ffffffffffffffffffffffffffffffffffffffff169060200190929190803590602001906401000000008111156109a757600080fd5b8201836020820111156109b957600080fd5b803590602001918460018302840111640100000000831117156109db57600080fd5b91908080601f016020809104026020016040519081016040528093929190818152602001838380828437600081840152601f19601f820116905080830192505050505050509192919290505050612415565b6040518083151581526020018281526020019250505060405180910390f35b348015610a5857600080fd5b50610b3c60048036036060811015610a6f57600080fd5b81019080803573ffffffffffffffffffffffffffffffffffffffff16906020019092919080359060200190640100000000811115610aac57600080fd5b820183602082011115610abe57600080fd5b80359060200191846001830284011164010000000083111715610ae057600080fd5b91908080601f016020809104026020016040519081016040528093929190818152602001838380828437600081840152601f19601f820116905080830192505050505050509192919290803590602001909291905050506128fa565b005b600073ffffffffffffffffffffffffffffffffffffffff16600260009054906101000a900473ffffffffffffffffffffffffffffffffffffffff1673ffffffffffffffffffffffffffffffffffffffff161415610c03576040517f08c379a00000000000000000000000000000000000000000000000000000000081526004018080602001828103825260108152602001807f4e4f5f444154415f434f4e54524143540000000000000000000000000000000081525060200191505060405180910390fd5b3373ffffffffffffffffffffffffffffffffffffffff168273ffffffffffffffffffffffffffffffffffffffff1614610ca4576040517f08c379a00000000000000000000000000000000000000000000000000000000081526004018080602001828103825260148152602001807f4f4e4c595f53454e4445525f43414e5f564f544500000000000000000000000081525060200191505060405180910390fd5b600260009054906101000a900473ffffffffffffffffffffffffffffffffffffffff1673ffffffffffffffffffffffffffffffffffffffff16623cc0448484846040518463ffffffff1660e01b8152600401808473ffffffffffffffffffffffffffffffffffffffff1681526020018373ffffffffffffffffffffffffffffffffffffffff1681526020018281526020019350505050600060405180830381600087803b158015610d5457600080fd5b505af1158015610d68573d6000803e3d6000fd5b50505050505050565b60008054906101000a900473ffffffffffffffffffffffffffffffffffffffff1673ffffffffffffffffffffffffffffffffffffffff163373ffffffffffffffffffffffffffffffffffffffff1614610e32576040517f08c379a000000000000000000000000000000000000000000000000000000000815260040180806020018281038252601c8152602001807f43414c4c45525f49535f4e4f545f434f4e54524143545f4f574e45520000000081525060200191505060405180910390fd5b80600160006101000a81548173ffffffffffffffffffffffffffffffffffffffff021916908373ffffffffffffffffffffffffffffffffffffffff160217905550600160009054906101000a900473ffffffffffffffffffffffffffffffffffffffff16600260006101000a81548173ffffffffffffffffffffffffffffffffffffffff021916908373ffffffffffffffffffffffffffffffffffffffff16021790555050565b6000600560003373ffffffffffffffffffffffffffffffffffffffff1673ffffffffffffffffffffffffffffffffffffffff16815260200190815260200160002060000160009054906101000a900460ff16905090565b60008073ffffffffffffffffffffffffffffffffffffffff16600260009054906101000a900473ffffffffffffffffffffffffffffffffffffffff1673ffffffffffffffffffffffffffffffffffffffff161415610ff6576040517f08c379a00000000000000000000000000000000000000000000000000000000081526004018080602001828103825260108152602001807f4e4f5f444154415f434f4e54524143540000000000000000000000000000000081525060200191505060405180910390fd5b600260009054906101000a900473ffffffffffffffffffffffffffffffffffffffff1673ffffffffffffffffffffffffffffffffffffffff16630e248a11836040518263ffffffff1660e01b8152600401808273ffffffffffffffffffffffffffffffffffffffff16815260200191505060206040518083038186803b15801561107f57600080fd5b505afa158015611093573d6000803e3d6000fd5b505050506040513d60208110156110a957600080fd5b81019080805190602001909291905050509050919050565b6000600160009054906101000a900473ffffffffffffffffffffffffffffffffffffffff16905090565b606080602867ffffffffffffffff8111801561110657600080fd5b506040519080825280601f01601f1916602001820160405280156111395781602001600182028036833780820191505090505b50905060005b60148110156112445760008160130360080260020a8573ffffffffffffffffffffffffffffffffffffffff168161117257fe5b0460f81b9050600060108260f81c60ff168161118a57fe5b0460f81b905060008160f81c6010028360f81c0360f81b90506111ac82611b20565b8585600202815181106111bb57fe5b60200101907effffffffffffffffffffffffffffffffffffffffffffffffffffffffffffff1916908160001a9053506111f381611b20565b85600186600202018151811061120557fe5b60200101907effffffffffffffffffffffffffffffffffffffffffffffffffffffffffffff1916908160001a905350505050808060010191505061113f565b5080915050919050565b611256610ed9565b156112c9576040517f08c379a00000000000000000000000000000000000000000000000000000000081526004018080602001828103825260198152602001807f4f5241434c455f414c52454144595f524547495354455245440000000000000081525060200191505060405180910390fd5b670de0b6b3a7640000341015611347576040517f08c379a000000000000000000000000000000000000000000000000000000000815260040180806020018281038252601c8152602001807f524547495354524154494f4e5f4645452049535f52455155495245440000000081525060200191505060405180910390fd5b600160009054906101000a900473ffffffffffffffffffffffffffffffffffffffff1673ffffffffffffffffffffffffffffffffffffffff166108fc670de0b6b3a76400009081150290604051600060405180830381858888f193505050501580156113b7573d6000803e3d6000fd5b506113c0612ec4565b6113c933612b33565b9050604051806040016040528060011515815260200182815250600560003373ffffffffffffffffffffffffffffffffffffffff1673ffffffffffffffffffffffffffffffffffffffff16815260200190815260200160002060008201518160000160006101000a81548160ff021916908315150217905550602082015181600101906003611459929190612ee6565b5090505050565b600080600080600073ffffffffffffffffffffffffffffffffffffffff16600260009054906101000a900473ffffffffffffffffffffffffffffffffffffffff1673ffffffffffffffffffffffffffffffffffffffff16141561152b576040517f08c379a00000000000000000000000000000000000000000000000000000000081526004018080602001828103825260108152602001807f4e4f5f444154415f434f4e54524143540000000000000000000000000000000081525060200191505060405180910390fd5b600260009054906101000a900473ffffffffffffffffffffffffffffffffffffffff1673ffffffffffffffffffffffffffffffffffffffff166345c83148866040518263ffffffff1660e01b8152600401808273ffffffffffffffffffffffffffffffffffffffff16815260200191505060806040518083038186803b1580156115b457600080fd5b505afa1580156115c8573d6000803e3d6000fd5b505050506040513d60808110156115de57600080fd5b810190808051906020019092919080519060200190929190805190602001909291908051906020019092919050505093509350935093509193509193565b60008054906101000a900473ffffffffffffffffffffffffffffffffffffffff1673ffffffffffffffffffffffffffffffffffffffff163373ffffffffffffffffffffffffffffffffffffffff16146116dd576040517f08c379a000000000000000000000000000000000000000000000000000000000815260040180806020018281038252601c8152602001807f43414c4c45525f49535f4e4f545f434f4e54524143545f4f574e45520000000081525060200191505060405180910390fd5b80600160146101000a81548160ff02191690831515021790555050565b7face1aa9780bbc49f856ae4fe04995bd3db501976b157012131b6f92019a34694838383604051808060200184815260200180602001838103835286818151815260200191508051906020019080838360005b8381101561176857808201518184015260208101905061174d565b50505050905090810190601f1680156117955780820380516001836020036101000a031916815260200191505b50838103825284818151815260200191508051906020019080838360005b838110156117ce5780820151818401526020810190506117b3565b50505050905090810190601f1680156117fb5780820380516001836020036101000a031916815260200191505b509550505050505060405180910390a1505050565b611818612ec4565b600560003373ffffffffffffffffffffffffffffffffffffffff1673ffffffffffffffffffffffffffffffffffffffff16815260200190815260200160002060000160009054906101000a900460ff166118da576040517f08c379a000000000000000000000000000000000000000000000000000000000815260040180806020018281038252601b8152602001807f4e6f745f726567697374657265645f61735f616e5f6f7261636c65000000000081525060200191505060405180910390fd5b600560003373ffffffffffffffffffffffffffffffffffffffff1673ffffffffffffffffffffffffffffffffffffffff168152602001908152602001600020600101600380602002604051908101604052809291908260038015611979576020028201916000905b82829054906101000a900460ff1660ff16815260200190600101906020826000010492830192600103820291508084116119425790505b5050505050905090565b60008073ffffffffffffffffffffffffffffffffffffffff16600260009054906101000a900473ffffffffffffffffffffffffffffffffffffffff1673ffffffffffffffffffffffffffffffffffffffff161415611a49576040517f08c379a00000000000000000000000000000000000000000000000000000000081526004018080602001828103825260108152602001807f4e4f5f444154415f434f4e54524143540000000000000000000000000000000081525060200191505060405180910390fd5b600260009054906101000a900473ffffffffffffffffffffffffffffffffffffffff1673ffffffffffffffffffffffffffffffffffffffff1663602e03b4836040518263ffffffff1660e01b8152600401808273ffffffffffffffffffffffffffffffffffffffff16815260200191505060206040518083038186803b158015611ad257600080fd5b505afa158015611ae6573d6000803e3d6000fd5b505050506040513d6020811015611afc57600080fd5b81019080805190602001909291905050509050919050565b670de0b6b3a764000081565b6000600a8260f81c60ff161015611b425760308260f81c0160f81b9050611b4f565b60578260f81c0160f81b90505b919050565b600080600080600073ffffffffffffffffffffffffffffffffffffffff16600260009054906101000a900473ffffffffffffffffffffffffffffffffffffffff1673ffffffffffffffffffffffffffffffffffffffff161415611c1f576040517f08c379a00000000000000000000000000000000000000000000000000000000081526004018080602001828103825260108152602001807f4e4f5f444154415f434f4e54524143540000000000000000000000000000000081525060200191505060405180910390fd5b600260009054906101000a900473ffffffffffffffffffffffffffffffffffffffff1673ffffffffffffffffffffffffffffffffffffffff16639c9161c5866040518263ffffffff1660e01b81526004018082815260200191505060806040518083038186803b158015611c9257600080fd5b505afa158015611ca6573d6000803e3d6000fd5b505050506040513d6080811015611cbc57600080fd5b810190808051906020019092919080519060200190929190805190602001909291908051906020019092919050505093509350935093509193509193565b565b8460ff16600560003373ffffffffffffffffffffffffffffffffffffffff1673ffffffffffffffffffffffffffffffffffffffff168152602001908152602001600020600101600060038110611d4e57fe5b602091828204019190069054906101000a900460ff1660ff161480611ddb57508460ff16600560003373ffffffffffffffffffffffffffffffffffffffff1673ffffffffffffffffffffffffffffffffffffffff168152602001908152602001600020600101600160038110611dc057fe5b602091828204019190069054906101000a900460ff1660ff16145b80611e4e57508460ff16600560003373ffffffffffffffffffffffffffffffffffffffff1673ffffffffffffffffffffffffffffffffffffffff168152602001908152602001600020600101600260038110611e3357fe5b602091828204019190069054906101000a900460ff1660ff16145b611ea3576040517f08c379a00000000000000000000000000000000000000000000000000000000081526004018080602001828103825260238152602001806130226023913960400191505060405180910390fd5b600085858585604051602001808560ff1660f81b81526001018473ffffffffffffffffffffffffffffffffffffffff1660601b815260140183805190602001908083835b60208310611f0a5780518252602082019150602081019050602083039250611ee7565b6001836020036101000a0380198251168184511680821785525050505050509050018281526020019450505050506040516020818303038152906040528051906020012090506006600082815260200190815260200160002060000160149054906101000a900460ff16611fc9576040517f08c379a000000000000000000000000000000000000000000000000000000000815260040180806020018281038252602f815260200180612fa9602f913960400191505060405180910390fd5b6006600082815260200190815260200160002060010160008360ff1660ff168152602001908152602001600020339080600181540180825580915050600190039060005260206000200160009091909190916101000a81548173ffffffffffffffffffffffffffffffffffffffff021916908373ffffffffffffffffffffffffffffffffffffffff1602179055507f43c853095c2752648493c88b4baac4d580d2594ffb00c6f1d4242d844514f78385858585604051808573ffffffffffffffffffffffffffffffffffffffff168152602001806020018481526020018360ff168152602001828103825285818151815260200191508051906020019080838360005b838110156120e75780820151818401526020810190506120cc565b50505050905090810190601f1680156121145780820380516001836020036101000a031916815260200191505b509550505050505060405180910390a160036006600083815260200190815260200160002060010160008460ff1660ff16815260200190815260200160002080549050106122655760006006600083815260200190815260200160002060000160146101000a81548160ff0219169083151502179055507fe23f5229de535c091e3b7bec2665f5d698192d3b31393066e8987b7a05076b6c85858585604051808573ffffffffffffffffffffffffffffffffffffffff168152602001806020018481526020018360ff168152602001828103825285818151815260200191508051906020019080838360005b8381101561221b578082015181840152602081019050612200565b50505050905090810190601f1680156122485780820380516001836020036101000a031916815260200191505b509550505050505060405180910390a161226485858585612cbf565b5b505050505050565b60008073ffffffffffffffffffffffffffffffffffffffff16600260009054906101000a900473ffffffffffffffffffffffffffffffffffffffff1673ffffffffffffffffffffffffffffffffffffffff161415612333576040517f08c379a00000000000000000000000000000000000000000000000000000000081526004018080602001828103825260108152602001807f4e4f5f444154415f434f4e54524143540000000000000000000000000000000081525060200191505060405180910390fd5b600260009054906101000a900473ffffffffffffffffffffffffffffffffffffffff1673ffffffffffffffffffffffffffffffffffffffff1663c3c5a547836040518263ffffffff1660e01b8152600401808273ffffffffffffffffffffffffffffffffffffffff16815260200191505060206040518083038186803b1580156123bc57600080fd5b505afa1580156123d0573d6000803e3d6000fd5b505050506040513d60208110156123e657600080fd5b81019080805190602001909291905050509050919050565b6000600160149054906101000a900460ff16905090565b600080600160149054906101000a900460ff1661247d576040517f08c379a0000000000000000000000000000000000000000000000000000000008152600401808060200182810382526025815260200180612ffd6025913960400191505060405180910390fd5b600073ffffffffffffffffffffffffffffffffffffffff16600160009054906101000a900473ffffffffffffffffffffffffffffffffffffffff1673ffffffffffffffffffffffffffffffffffffffff161415612542576040517f08c379a00000000000000000000000000000000000000000000000000000000081526004018080602001828103825260188152602001807f4e4f5f444154415f434f4e54524143545f444546494e4544000000000000000081525060200191505060405180910390fd5b600260009054906101000a900473ffffffffffffffffffffffffffffffffffffffff1673ffffffffffffffffffffffffffffffffffffffff1663433b875a6040518163ffffffff1660e01b815260040160206040518083038186803b1580156125aa57600080fd5b505afa1580156125be573d6000803e3d6000fd5b505050506040513d60208110156125d457600080fd5b810190808051906020019092919050505015801561269457506000600260009054906101000a900473ffffffffffffffffffffffffffffffffffffffff1673ffffffffffffffffffffffffffffffffffffffff16633c85380f6040518163ffffffff1660e01b815260040160206040518083038186803b15801561265757600080fd5b505afa15801561266b573d6000803e3d6000fd5b505050506040513d602081101561268157600080fd5b8101908080519060200190929190505050115b156127b357600260009054906101000a900473ffffffffffffffffffffffffffffffffffffffff1673ffffffffffffffffffffffffffffffffffffffff1663c3c5a547336040518263ffffffff1660e01b8152600401808273ffffffffffffffffffffffffffffffffffffffff16815260200191505060206040518083038186803b15801561272257600080fd5b505afa158015612736573d6000803e3d6000fd5b505050506040513d602081101561274c57600080fd5b81019080805190602001909291905050506127b2576040517f08c379a0000000000000000000000000000000000000000000000000000000008152600401808060200182810382526025815260200180612fd86025913960400191505060405180910390fd5b5b600260009054906101000a900473ffffffffffffffffffffffffffffffffffffffff1673ffffffffffffffffffffffffffffffffffffffff1663ee38a74985856040518363ffffffff1660e01b8152600401808373ffffffffffffffffffffffffffffffffffffffff16815260200180602001828103825283818151815260200191508051906020019080838360005b8381101561285e578082015181840152602081019050612843565b50505050905090810190601f16801561288b5780820380516001836020036101000a031916815260200191505b5093505050506040805180830381600087803b1580156128aa57600080fd5b505af11580156128be573d6000803e3d6000fd5b505050506040513d60408110156128d457600080fd5b810190808051906020019092919080519060200190929190505050915091509250929050565b600061290533612dea565b9050600081858585604051602001808560ff1660f81b81526001018473ffffffffffffffffffffffffffffffffffffffff1660601b815260140183805190602001908083835b6020831061296e578051825260208201915060208101905060208303925061294b565b6001836020036101000a03801982511681845116808217855250505050505090500182815260200194505050505060405160208183030381529060405280519060200120905060405180604001604052803373ffffffffffffffffffffffffffffffffffffffff168152602001600115158152506006600083815260200190815260200160002060008201518160000160006101000a81548173ffffffffffffffffffffffffffffffffffffffff021916908373ffffffffffffffffffffffffffffffffffffffff16021790555060208201518160000160146101000a81548160ff0219169083151502179055509050507f3ed01f2c3fc24c6b329d931e35b03e390d23497d22b3f90e15b600343e93df1182868686604051808560ff1681526020018473ffffffffffffffffffffffffffffffffffffffff16815260200180602001838152602001828103825284818151815260200191508051906020019080838360005b83811015612aef578082015181840152602081019050612ad4565b50505050905090810190601f168015612b1c5780820380516001836020036101000a031916815260200191505b509550505050505060405180910390a15050505050565b612b3b612ec4565b612b43612ec4565b612b4c83612dea565b81600060038110612b5957fe5b602002019060ff16908160ff168152505080600060038110612b7757fe5b602002015181600160038110612b8957fe5b602002019060ff16908160ff16815250505b80600060038110612ba857fe5b602002015160ff1681600160038110612bbd57fe5b602002015160ff161415612bf757612bd483612dea565b81600160038110612be157fe5b602002019060ff16908160ff1681525050612b9b565b80600160038110612c0457fe5b602002015181600260038110612c1657fe5b602002019060ff16908160ff16815250505b80600060038110612c3557fe5b602002015160ff1681600260038110612c4a57fe5b602002015160ff161480612c85575080600160038110612c6657fe5b602002015160ff1681600260038110612c7b57fe5b602002015160ff16145b15612cb657612c9383612dea565b81600260038110612ca057fe5b602002019060ff16908160ff1681525050612c28565b80915050919050565b600a8160ff161115612de457600260009054906101000a900473ffffffffffffffffffffffffffffffffffffffff1673ffffffffffffffffffffffffffffffffffffffff1663c8820a708585856040518463ffffffff1660e01b8152600401808473ffffffffffffffffffffffffffffffffffffffff16815260200180602001838152602001828103825284818151815260200191508051906020019080838360005b83811015612d7d578082015181840152602081019050612d62565b50505050905090810190601f168015612daa5780820380516001836020036101000a031916815260200191505b50945050505050600060405180830381600087803b158015612dcb57600080fd5b505af1158015612ddf573d6000803e3d6000fd5b505050505b50505050565b600080600a905060008160ff166004600081819054906101000a900460ff168092919060010191906101000a81548160ff021916908360ff16021790555060ff1643034085604051602001808381526020018273ffffffffffffffffffffffffffffffffffffffff1660601b8152601401925050506040516020818303038152906040528051906020012060001c81612e7f57fe5b06905060fa600460009054906101000a900460ff1660ff161115612eba576000600460006101000a81548160ff021916908360ff1602179055505b8092505050919050565b6040518060600160405280600390602082028036833780820191505090505090565b826003601f01602090048101928215612f6f5791602002820160005b83821115612f4057835183826101000a81548160ff021916908360ff1602179055509260200192600101602081600001049283019260010302612f02565b8015612f6d5782816101000a81549060ff0219169055600101602081600001049283019260010302612f40565b505b509050612f7c9190612f80565b5090565b5b80821115612fa457600081816101000a81549060ff021916905550600101612f81565b509056fe466c69676874206f722074696d657374616d7020646f206e6f74206d61746368206f7261636c65207265717565737453454e4445525f4e454544535f544f5f42455f524547495354455245445f4149524c494e45434f4e54524143545f49535f43555252454e544c595f4e4f545f4f5045524154494f4e414c496e64657820646f6573206e6f74206d61746368206f7261636c652072657175657374a264697066735822122000b149ce948e5e143d963f7380fee8aaa12795e289420a916b640cdbfb98ad2e64736f6c634300060c0033",
  "immutableReferences": {},
  "source": "// SPDX-License-Identifier: MIT\n\npragma solidity ^0.6.0;\n\nimport \"../node_modules/@openzeppelin/contracts/math/SafeMath.sol\";\nimport \"./FlightSuretyData.sol\";\nimport \"./Utils.sol\";\n\n/************************************************** */\n/* FlightSurety Smart Contract                      */\n/************************************************** */\ncontract FlightSuretyApp is Utils {\n    using SafeMath for uint256; // Allow SafeMath functions to be called for all uint256 types (similar to \"prototype\" in Javascript)\n\n    /********************************************************************************************/\n    /*                                       DATA VARIABLES                                     */\n    /********************************************************************************************/\n\n    // Flight status codees\n    uint8 private constant STATUS_CODE_UNKNOWN = 0;\n    uint8 private constant STATUS_CODE_ON_TIME = 10;\n    uint8 private constant STATUS_CODE_LATE_AIRLINE = 20;\n    uint8 private constant STATUS_CODE_LATE_WEATHER = 30;\n    uint8 private constant STATUS_CODE_LATE_TECHNICAL = 40;\n    uint8 private constant STATUS_CODE_LATE_OTHER = 50;\n\n    address private contractOwner;          // Account used to deploy contract\n    address payable private dataContract;\n\n    bool private operational = true;\n\n\n    FlightSuretyData private fsData;\n\n    struct Flight {\n        bool isRegistered;\n        uint8 statusCode;\n        uint256 updatedTimestamp;\n        address airline;\n    }\n\n    mapping(bytes32 => Flight) private flights;\n\n\n    /********************************************************************************************/\n    /*                                       FUNCTION MODIFIERS                                 */\n    /********************************************************************************************/\n\n    // Modifiers help avoid duplication of code. They are typically used to validate something\n    // before a function is allowed to be executed.\n\n    /**\n    * @dev Modifier that requires the \"operational\" boolean variable to be \"true\"\n    *      This is used on all state changing functions to pause the contract in\n    *      the event there is an issue that needs to be fixed\n    */\n    modifier requireIsOperational()\n    {\n        // Modify to call data contract's status\n        require(operational, \"CONTRACT_IS_CURRENTLY_NOT_OPERATIONAL\");\n        _;\n        // All modifiers require an \"_\" which indicates where the function body will be added\n    }\n\n    /**\n    * @dev Modifier that requires the \"ContractOwner\" account to be the function caller\n    */\n    modifier requireContractOwner()\n    {\n        require(msg.sender == contractOwner, \"CALLER_IS_NOT_CONTRACT_OWNER\");\n        _;\n    }\n\n    modifier requireDataContract()\n    {\n        require(address(fsData) != address(0), 'NO_DATA_CONTRACT');\n        _;\n    }\n\n\n\n    /********************************************************************************************/\n    /*                                       CONSTRUCTOR                                        */\n    /********************************************************************************************/\n\n    constructor (address _dataContract) public\n    {\n        dataContract = payable(_dataContract);\n        fsData = FlightSuretyData(payable(dataContract));\n        contractOwner = msg.sender;\n    }\n\n\n\n\n    /********************************************************************************************/\n    /*                                       UTILITY FUNCTIONS                                  */\n    /********************************************************************************************/\n\n\n    function setDataContract\n    (\n        address payable _dataContract\n    )\n    external\n    requireContractOwner\n    {\n        dataContract = _dataContract;\n        fsData = FlightSuretyData(payable(dataContract));\n    }\n\n\n\n\n    // Modify to call data contract's status\n    function isOperational()\n    public\n    view\n    returns (bool)\n    {\n        return operational;\n    }\n\n    function setOperational(bool _operational) public requireContractOwner {\n        operational = _operational;\n    }\n\n    function getDataContract() public view returns (address){\n        return dataContract;\n    }\n\n    /********************************************************************************************/\n    /*                                     SMART CONTRACT FUNCTIONS                             */\n    /********************************************************************************************/\n\n\n    function registerAirline(address _airlineAddress, string memory _airlineName)\n    external\n    payable\n    requireIsOperational\n    returns (bool success, uint votes)\n    {\n        require(dataContract != address(0), 'NO_DATA_CONTRACT_DEFINED');\n\n        if (!fsData.registrationNeedsVoting() && fsData.numberOfAirlines() > 0) {\n            require(fsData.isRegistered(msg.sender), 'SENDER_NEEDS_TO_BE_REGISTERED_AIRLINE');\n        }\n        return fsData.registerAirline(_airlineAddress, _airlineName);\n    }\n\n    function isRegistered(address _address) public view requireDataContract returns (bool)\n    {\n        return fsData.isRegistered(_address);\n    }\n\n    function registrationStatus(address _address)\n    public\n    view\n    requireDataContract\n    returns (uint)\n    {\n        return fsData.registrationStatus(_address);\n    }\n\n\n    function isAirline(address _address) public view requireDataContract returns (bool)\n    {\n        return fsData.isAirline(_address);\n    }\n\n    function voteOnAirline\n    (\n        address _candidateAddress,\n        address _voterAddress,\n        uint _vote\n    )\n    public requireDataContract\n    {\n        require(_voterAddress == msg.sender, 'ONLY_SENDER_CAN_VOTE');\n\n        return fsData.voteOnAirline(_candidateAddress, _voterAddress, _vote);\n    }\n\n\n    function votingResultsByIndex(\n        uint _index\n    )\n    public\n    view\n    requireDataContract\n    returns (uint, uint, uint, uint)\n    {\n        return fsData.votingResultsByIndex(_index);\n    }\n\n\n    function votingResults(address _address)\n    public\n    view\n    requireDataContract\n    returns (uint, uint, uint, uint)\n    {\n        return fsData.votingResults(_address);\n    }\n\n\n\n\n    /**\n     * @dev Register a future flight for insuring.\n     *\n     */\n    function registerFlight\n    (\n    )\n    external\n    pure\n    {\n\n    }\n\n    /**\n     * @dev Called after oracle has updated flight status\n     *\n     */\n    function processFlightStatus\n    (\n        address airline,\n        string memory flight,\n        uint256 timestamp,\n        uint8 statusCode\n    )\n    internal\n    {\n        if (statusCode > 10) {\n            fsData.creditInsurees(airline, flight, timestamp);\n        }\n    }\n\n\n    // Generate a request for oracles to fetch flight information\n    function fetchFlightStatus\n    (\n        address airline,\n        string memory flight,\n        uint256 timestamp\n    )\n    external\n    {\n        uint8 index = getRandomIndex(msg.sender);\n\n        // Generate a unique key for storing the request\n        bytes32 key = keccak256(abi.encodePacked(index, airline, flight, timestamp));\n        oracleResponses[key] = ResponseInfo({\n        requester : msg.sender,\n        isOpen : true\n        });\n\n        emit OracleRequest(index, airline, flight, timestamp);\n    }\n\n\n    // region ORACLE MANAGEMENT\n\n    // Incremented to add pseudo-randomness at various points\n    uint8 private nonce = 0;\n\n    // Fee to be paid when registering oracle\n    uint256 public constant REGISTRATION_FEE = 1 ether;\n\n    // Number of oracles that must respond for valid status\n    uint256 private constant MIN_RESPONSES = 3;\n\n\n    struct Oracle {\n        bool isRegistered;\n        uint8[3] indexes;\n    }\n\n    // Track all registered oracles\n    mapping(address => Oracle) private oracles;\n\n    // Model for responses from oracles\n    struct ResponseInfo {\n        address requester;                              // Account that requested status\n        bool isOpen;                                    // If open, oracle responses are accepted\n        mapping(uint8 => address[]) responses;          // Mapping key is the status code reported\n        // This lets us group responses and identify\n        // the response that majority of the oracles\n    }\n\n    // Track all oracle responses\n    // Key = hash(index, flight, timestamp)\n    mapping(bytes32 => ResponseInfo) private oracleResponses;\n\n    // Event fired each time an oracle submits a response\n    event FlightStatusInfo(address airline, string flight, uint256 timestamp, uint8 status);\n\n    event OracleReport(address airline, string flight, uint256 timestamp, uint8 status);\n\n    // Event fired when flight status request is submitted\n    // Oracles track this and if they have a matching index\n    // they fetch data and submit a response\n    event OracleRequest(uint8 index, address airline, string flight, uint256 timestamp);\n\n\n    function registerOracle\n    (\n    )\n    external\n    payable\n    {\n        require(!isOracleRegistered(), \"ORACLE_ALREADY_REGISTERED\");\n        require(msg.value >= REGISTRATION_FEE, \"REGISTRATION_FEE IS_REQUIRED\");\n        dataContract.transfer(REGISTRATION_FEE);\n\n        uint8[3] memory indexes = generateIndexes(msg.sender);\n\n        oracles[msg.sender] = Oracle({\n        isRegistered : true,\n        indexes : indexes\n        });\n    }\n\n\n    function isOracleRegistered()\n    view\n    public\n    returns (bool)\n    {\n        return oracles[msg.sender].isRegistered;\n    }\n\n\n    function getMyIndexes()\n    view\n    external\n    returns (uint8[3] memory)\n    {\n        require(oracles[msg.sender].isRegistered, \"Not_registered_as_an_oracle\");\n        return oracles[msg.sender].indexes;\n    }\n\n\n\n    // Called by oracle when a response is available to an outstanding request\n    // For the response to be accepted, there must be a pending request that is open\n    // and matches one of the three Indexes randomly assigned to the oracle at the\n    // time of registration (i.e. uninvited oracles are not welcome)\n    function submitOracleResponse\n    (\n        uint8 index,\n        address airline,\n        string memory flight,\n        uint256 timestamp,\n        uint8 statusCode\n    )\n    external\n    {\n        require((oracles[msg.sender].indexes[0] == index) || (oracles[msg.sender].indexes[1] == index) || (oracles[msg.sender].indexes[2] == index), \"Index does not match oracle request\");\n\n\n        bytes32 key = keccak256(abi.encodePacked(index, airline, flight, timestamp));\n        require(oracleResponses[key].isOpen, \"Flight or timestamp do not match oracle request\");\n\n        oracleResponses[key].responses[statusCode].push(msg.sender);\n\n        // Information isn't considered verified until at least MIN_RESPONSES\n        // oracles respond with the *** same *** information\n        emit OracleReport(airline, flight, timestamp, statusCode);\n        if (oracleResponses[key].responses[statusCode].length >= MIN_RESPONSES) {\n            oracleResponses[key].isOpen = false;\n            emit FlightStatusInfo(airline, flight, timestamp, statusCode);\n\n            // Handle flight status as appropriate\n            processFlightStatus(airline, flight, timestamp, statusCode);\n        }\n    }\n\n\n    function getFlightKey\n    (\n        address airline,\n        string memory flight,\n        uint256 timestamp\n    )\n    pure\n    internal\n    returns (bytes32)\n    {\n        return keccak256(abi.encodePacked(airline, flight, timestamp));\n    }\n\n    // Returns array of three non-duplicating integers from 0-9\n    function generateIndexes\n    (\n        address account\n    )\n    internal\n    returns (uint8[3] memory)\n    {\n        uint8[3] memory indexes;\n        indexes[0] = getRandomIndex(account);\n\n        indexes[1] = indexes[0];\n        while (indexes[1] == indexes[0]) {\n            indexes[1] = getRandomIndex(account);\n        }\n\n        indexes[2] = indexes[1];\n        while ((indexes[2] == indexes[0]) || (indexes[2] == indexes[1])) {\n            indexes[2] = getRandomIndex(account);\n        }\n\n        return indexes;\n    }\n\n    // Returns array of three non-duplicating integers from 0-9\n    function getRandomIndex\n    (\n        address account\n    )\n    internal\n    returns (uint8)\n    {\n        uint8 maxValue = 10;\n\n        // Pseudo random number...the incrementing nonce adds variation\n        uint8 random = uint8(uint256(keccak256(abi.encodePacked(blockhash(block.number - nonce++), account))) % maxValue);\n\n        if (nonce > 250) {\n            nonce = 0;\n            // Can only fetch blockhashes for last 256 blocks so we adapt\n        }\n\n        return random;\n    }\n\n    // endregion\n\n}\n",
  "sourcePath": "/Users/tonibuenter/_proj/misc/udacity/u-blockchain4-flightsurety/contracts/FlightSuretyApp.sol",
  "compiler": {
    "name": "solc",
    "version": "0.6.12+commit.27d51765.Emscripten.clang"
  },
  "schemaVersion": "3.4.1",
  "updatedAt": "2021-06-09T07:23:24.019Z",
  "networkType": "ethereum",
  "devdoc": {
    "kind": "dev",
    "methods": {
      "registerFlight()": {
        "details": "Register a future flight for insuring."
      }
    },
    "version": 1
  },
  "userdoc": {
    "kind": "user",
    "methods": {},
    "version": 1
  }
}