{
  "contractName": "FlightSuretyData",
  "abi": [
    {
      "inputs": [],
      "stateMutability": "nonpayable",
      "type": "constructor"
    },
    {
      "anonymous": false,
      "inputs": [
        {
          "indexed": false,
          "internalType": "string",
          "name": "origin",
          "type": "string"
        },
        {
          "indexed": false,
          "internalType": "uint256",
          "name": "level",
          "type": "uint256"
        },
        {
          "indexed": false,
          "internalType": "string",
          "name": "info",
          "type": "string"
        }
      ],
      "name": "Console",
      "type": "event"
    },
    {
      "anonymous": false,
      "inputs": [
        {
          "indexed": false,
          "internalType": "address",
          "name": "airlineAddress",
          "type": "address"
        },
        {
          "indexed": false,
          "internalType": "string",
          "name": "airlineName",
          "type": "string"
        },
        {
          "indexed": false,
          "internalType": "uint256",
          "name": "status",
          "type": "uint256"
        }
      ],
      "name": "Registered",
      "type": "event"
    },
    {
      "anonymous": false,
      "inputs": [
        {
          "indexed": false,
          "internalType": "address",
          "name": "airlineAddress",
          "type": "address"
        },
        {
          "indexed": false,
          "internalType": "string",
          "name": "airlineName",
          "type": "string"
        },
        {
          "indexed": false,
          "internalType": "uint256",
          "name": "status",
          "type": "uint256"
        }
      ],
      "name": "VotingEvent",
      "type": "event"
    },
    {
      "stateMutability": "payable",
      "type": "fallback",
      "payable": true
    },
    {
      "inputs": [
        {
          "internalType": "bytes1",
          "name": "b",
          "type": "bytes1"
        }
      ],
      "name": "char",
      "outputs": [
        {
          "internalType": "bytes1",
          "name": "c",
          "type": "bytes1"
        }
      ],
      "stateMutability": "pure",
      "type": "function",
      "constant": true
    },
    {
      "inputs": [
        {
          "internalType": "string",
          "name": "origin",
          "type": "string"
        },
        {
          "internalType": "uint256",
          "name": "level",
          "type": "uint256"
        },
        {
          "internalType": "string",
          "name": "info",
          "type": "string"
        }
      ],
      "name": "log",
      "outputs": [],
      "stateMutability": "nonpayable",
      "type": "function"
    },
    {
      "inputs": [
        {
          "internalType": "address",
          "name": "x",
          "type": "address"
        }
      ],
      "name": "toAsciiString",
      "outputs": [
        {
          "internalType": "string",
          "name": "",
          "type": "string"
        }
      ],
      "stateMutability": "pure",
      "type": "function",
      "constant": true
    },
    {
      "stateMutability": "payable",
      "type": "receive",
      "payable": true
    },
    {
      "inputs": [
        {
          "internalType": "address",
          "name": "_contract",
          "type": "address"
        }
      ],
      "name": "authorizeCaller",
      "outputs": [],
      "stateMutability": "nonpayable",
      "type": "function"
    },
    {
      "inputs": [],
      "name": "getContractOwner",
      "outputs": [
        {
          "internalType": "address",
          "name": "",
          "type": "address"
        }
      ],
      "stateMutability": "view",
      "type": "function",
      "constant": true
    },
    {
      "inputs": [
        {
          "internalType": "address",
          "name": "_address",
          "type": "address"
        }
      ],
      "name": "getBallotSize",
      "outputs": [
        {
          "internalType": "uint256",
          "name": "",
          "type": "uint256"
        }
      ],
      "stateMutability": "view",
      "type": "function",
      "constant": true
    },
    {
      "inputs": [],
      "name": "registrationNeedsVoting",
      "outputs": [
        {
          "internalType": "bool",
          "name": "",
          "type": "bool"
        }
      ],
      "stateMutability": "view",
      "type": "function",
      "constant": true
    },
    {
      "inputs": [
        {
          "internalType": "address",
          "name": "_airlineAddress",
          "type": "address"
        },
        {
          "internalType": "string",
          "name": "_airlineName",
          "type": "string"
        }
      ],
      "name": "registerAirline",
      "outputs": [
        {
          "internalType": "bool",
          "name": "success",
          "type": "bool"
        },
        {
          "internalType": "uint256",
          "name": "votes",
          "type": "uint256"
        }
      ],
      "stateMutability": "nonpayable",
      "type": "function"
    },
    {
      "inputs": [
        {
          "internalType": "address",
          "name": "airline",
          "type": "address"
        }
      ],
      "name": "isRegistered",
      "outputs": [
        {
          "internalType": "bool",
          "name": "",
          "type": "bool"
        }
      ],
      "stateMutability": "view",
      "type": "function",
      "constant": true
    },
    {
      "inputs": [
        {
          "internalType": "address",
          "name": "airline",
          "type": "address"
        }
      ],
      "name": "isFunded",
      "outputs": [
        {
          "internalType": "bool",
          "name": "",
          "type": "bool"
        }
      ],
      "stateMutability": "view",
      "type": "function",
      "constant": true
    },
    {
      "inputs": [
        {
          "internalType": "address",
          "name": "_airlineAddress",
          "type": "address"
        }
      ],
      "name": "registrationStatus",
      "outputs": [
        {
          "internalType": "uint256",
          "name": "",
          "type": "uint256"
        }
      ],
      "stateMutability": "view",
      "type": "function",
      "constant": true
    },
    {
      "inputs": [],
      "name": "numberOfAirlines",
      "outputs": [
        {
          "internalType": "uint256",
          "name": "",
          "type": "uint256"
        }
      ],
      "stateMutability": "view",
      "type": "function",
      "constant": true
    },
    {
      "inputs": [],
      "name": "getConsensusThreshold",
      "outputs": [
        {
          "internalType": "uint256",
          "name": "",
          "type": "uint256"
        }
      ],
      "stateMutability": "view",
      "type": "function",
      "constant": true
    },
    {
      "inputs": [
        {
          "internalType": "uint256",
          "name": "index",
          "type": "uint256"
        }
      ],
      "name": "getAirlineByIndex",
      "outputs": [
        {
          "internalType": "address",
          "name": "airlineAddress",
          "type": "address"
        },
        {
          "internalType": "string",
          "name": "airlineName",
          "type": "string"
        },
        {
          "internalType": "uint256",
          "name": "airlineStatus",
          "type": "uint256"
        }
      ],
      "stateMutability": "view",
      "type": "function",
      "constant": true
    },
    {
      "inputs": [
        {
          "internalType": "address",
          "name": "_address",
          "type": "address"
        }
      ],
      "name": "getAirlineByAddress",
      "outputs": [
        {
          "internalType": "string",
          "name": "airlineName",
          "type": "string"
        },
        {
          "internalType": "uint256",
          "name": "airlineStatus",
          "type": "uint256"
        }
      ],
      "stateMutability": "view",
      "type": "function",
      "constant": true
    },
    {
      "inputs": [
        {
          "internalType": "uint256",
          "name": "_index",
          "type": "uint256"
        }
      ],
      "name": "votingResultsByIndex",
      "outputs": [
        {
          "internalType": "uint256",
          "name": "",
          "type": "uint256"
        },
        {
          "internalType": "uint256",
          "name": "",
          "type": "uint256"
        },
        {
          "internalType": "uint256",
          "name": "",
          "type": "uint256"
        },
        {
          "internalType": "uint256",
          "name": "",
          "type": "uint256"
        }
      ],
      "stateMutability": "view",
      "type": "function",
      "constant": true
    },
    {
      "inputs": [
        {
          "internalType": "address",
          "name": "_address",
          "type": "address"
        }
      ],
      "name": "votingResults",
      "outputs": [
        {
          "internalType": "uint256",
          "name": "yes",
          "type": "uint256"
        },
        {
          "internalType": "uint256",
          "name": "no",
          "type": "uint256"
        },
        {
          "internalType": "uint256",
          "name": "open",
          "type": "uint256"
        },
        {
          "internalType": "uint256",
          "name": "voters",
          "type": "uint256"
        }
      ],
      "stateMutability": "view",
      "type": "function",
      "constant": true
    },
    {
      "inputs": [
        {
          "internalType": "address",
          "name": "_candidateAddress",
          "type": "address"
        },
        {
          "internalType": "address",
          "name": "_voterAddress",
          "type": "address"
        },
        {
          "internalType": "uint256",
          "name": "_vote",
          "type": "uint256"
        }
      ],
      "name": "voteOnAirline",
      "outputs": [],
      "stateMutability": "nonpayable",
      "type": "function"
    },
    {
      "inputs": [
        {
          "internalType": "address",
          "name": "_airline",
          "type": "address"
        },
        {
          "internalType": "string",
          "name": "_flight",
          "type": "string"
        },
        {
          "internalType": "uint256",
          "name": "_timestamp",
          "type": "uint256"
        }
      ],
      "name": "registerFlight",
      "outputs": [],
      "stateMutability": "nonpayable",
      "type": "function"
    },
    {
      "inputs": [],
      "name": "getNumberOfFlights",
      "outputs": [
        {
          "internalType": "uint256",
          "name": "",
          "type": "uint256"
        }
      ],
      "stateMutability": "view",
      "type": "function",
      "constant": true
    },
    {
      "inputs": [
        {
          "internalType": "uint256",
          "name": "index",
          "type": "uint256"
        }
      ],
      "name": "getFlightByIndex",
      "outputs": [
        {
          "internalType": "address",
          "name": "airline",
          "type": "address"
        },
        {
          "internalType": "string",
          "name": "flight",
          "type": "string"
        },
        {
          "internalType": "uint256",
          "name": "timestamp",
          "type": "uint256"
        }
      ],
      "stateMutability": "view",
      "type": "function",
      "constant": true
    },
    {
      "inputs": [
        {
          "internalType": "address",
          "name": "_airline",
          "type": "address"
        },
        {
          "internalType": "string",
          "name": "_flight",
          "type": "string"
        },
        {
          "internalType": "uint256",
          "name": "_timestamp",
          "type": "uint256"
        }
      ],
      "name": "isFlightRegistered",
      "outputs": [
        {
          "internalType": "bool",
          "name": "",
          "type": "bool"
        }
      ],
      "stateMutability": "view",
      "type": "function",
      "constant": true
    },
    {
      "inputs": [
        {
          "internalType": "address",
          "name": "airline",
          "type": "address"
        },
        {
          "internalType": "string",
          "name": "flight",
          "type": "string"
        },
        {
          "internalType": "uint256",
          "name": "timestamp",
          "type": "uint256"
        },
        {
          "internalType": "address",
          "name": "insuree",
          "type": "address"
        }
      ],
      "name": "isInsured",
      "outputs": [
        {
          "internalType": "bool",
          "name": "",
          "type": "bool"
        }
      ],
      "stateMutability": "view",
      "type": "function",
      "constant": true
    },
    {
      "inputs": [
        {
          "internalType": "address",
          "name": "airline",
          "type": "address"
        },
        {
          "internalType": "string",
          "name": "flight",
          "type": "string"
        },
        {
          "internalType": "uint256",
          "name": "timestamp",
          "type": "uint256"
        },
        {
          "internalType": "address",
          "name": "insuree",
          "type": "address"
        }
      ],
      "name": "insureeStatus",
      "outputs": [
        {
          "internalType": "uint256",
          "name": "status",
          "type": "uint256"
        },
        {
          "internalType": "uint256",
          "name": "amount",
          "type": "uint256"
        }
      ],
      "stateMutability": "view",
      "type": "function",
      "constant": true
    },
    {
      "inputs": [
        {
          "internalType": "address",
          "name": "airline",
          "type": "address"
        },
        {
          "internalType": "string",
          "name": "flight",
          "type": "string"
        },
        {
          "internalType": "uint256",
          "name": "timestamp",
          "type": "uint256"
        },
        {
          "internalType": "address",
          "name": "insuree",
          "type": "address"
        },
        {
          "internalType": "uint256",
          "name": "amount",
          "type": "uint256"
        }
      ],
      "name": "registerInsurance",
      "outputs": [],
      "stateMutability": "nonpayable",
      "type": "function"
    },
    {
      "inputs": [
        {
          "internalType": "address",
          "name": "airline",
          "type": "address"
        },
        {
          "internalType": "string",
          "name": "flight",
          "type": "string"
        },
        {
          "internalType": "uint256",
          "name": "timestamp",
          "type": "uint256"
        }
      ],
      "name": "creditInsurees",
      "outputs": [],
      "stateMutability": "nonpayable",
      "type": "function"
    },
    {
      "inputs": [
        {
          "internalType": "address",
          "name": "airline",
          "type": "address"
        },
        {
          "internalType": "string",
          "name": "flight",
          "type": "string"
        },
        {
          "internalType": "uint256",
          "name": "timestamp",
          "type": "uint256"
        },
        {
          "internalType": "address payable",
          "name": "insuree",
          "type": "address"
        }
      ],
      "name": "pay",
      "outputs": [],
      "stateMutability": "payable",
      "type": "function",
      "payable": true
    },
    {
      "inputs": [],
      "name": "fund",
      "outputs": [],
      "stateMutability": "payable",
      "type": "function",
      "payable": true
    }
  ],
  "bytecode": "0x6080604052678ac7230489e80000600255600480556000600655609660095534801561002a57600080fd5b50336000806101000a81548173ffffffffffffffffffffffffffffffffffffffff021916908373ffffffffffffffffffffffffffffffffffffffff16021790555061426f8061007a6000396000f3fe6080604052600436106101ba5760003560e01c8063602e03b4116100ec578063b60d42881161008a578063c8820a7011610064578063c8820a7014611062578063d42791e114611154578063ee38a7491461117f578063f92e0ecc14611284576101c1565b8063b60d428814610f19578063bb75e85c14610f23578063c3c5a54714610ffb576101c1565b80637998c0b8116100c65780637998c0b814610c635780638b41aaae14610d345780639c9161c514610d99578063a305e6b914610dfd576101c1565b8063602e03b414610b4057806360f3e3fb14610ba557806369f9ad2f14610bd0576101c1565b8063433b875a116101595780634ab210f0116101335780634ab210f01461073e5780634fe63a481461086b5780635689b249146109705780635970e089146109d7576101c1565b8063433b875a14610656578063442890d51461068357806345c83148146106c4576101c1565b80632c6e7598116101955780632c6e7598146103975780633c85380f146104615780633cc0be9c1461048c578063408ce10a1461057e576101c1565b80623cc044146101c3578063241a53cb1461023e5780632c388d5d14610346576101c1565b366101c157005b005b3480156101cf57600080fd5b5061023c600480360360608110156101e657600080fd5b81019080803573ffffffffffffffffffffffffffffffffffffffff169060200190929190803573ffffffffffffffffffffffffffffffffffffffff169060200190929190803590602001909291905050506113ac565b005b34801561024a57600080fd5b5061032e6004803603606081101561026157600080fd5b81019080803573ffffffffffffffffffffffffffffffffffffffff1690602001909291908035906020019064010000000081111561029e57600080fd5b8201836020820111156102b057600080fd5b803590602001918460018302840111640100000000831117156102d257600080fd5b91908080601f016020809104026020016040519081016040528093929190818152602001838380828437600081840152601f19601f82011690508083019250505050505050919291929080359060200190929190505050611a85565b60405180821515815260200191505060405180910390f35b34801561035257600080fd5b506103956004803603602081101561036957600080fd5b81019080803573ffffffffffffffffffffffffffffffffffffffff169060200190929190505050611b06565b005b3480156103a357600080fd5b506103e6600480360360208110156103ba57600080fd5b81019080803573ffffffffffffffffffffffffffffffffffffffff169060200190929190505050611b4a565b6040518080602001828103825283818151815260200191508051906020019080838360005b8381101561042657808201518184015260208101905061040b565b50505050905090810190601f1680156104535780820380516001836020036101000a031916815260200191505b509250505060405180910390f35b34801561046d57600080fd5b50610476611cad565b6040518082815260200191505060405180910390f35b34801561049857600080fd5b5061057c600480360360608110156104af57600080fd5b81019080803573ffffffffffffffffffffffffffffffffffffffff169060200190929190803590602001906401000000008111156104ec57600080fd5b8201836020820111156104fe57600080fd5b8035906020019184600183028401116401000000008311171561052057600080fd5b91908080601f016020809104026020016040519081016040528093929190818152602001838380828437600081840152601f19601f82011690508083019250505050505050919291929080359060200190929190505050611cb7565b005b34801561058a57600080fd5b506105b7600480360360208110156105a157600080fd5b8101908080359060200190929190505050611f47565b604051808473ffffffffffffffffffffffffffffffffffffffff16815260200180602001838152602001828103825284818151815260200191508051906020019080838360005b838110156106195780820151818401526020810190506105fe565b50505050905090810190601f1680156106465780820380516001836020036101000a031916815260200191505b5094505050505060405180910390f35b34801561066257600080fd5b5061066b6120eb565b60405180821515815260200191505060405180910390f35b34801561068f57600080fd5b506106986121bd565b604051808273ffffffffffffffffffffffffffffffffffffffff16815260200191505060405180910390f35b3480156106d057600080fd5b50610713600480360360208110156106e757600080fd5b81019080803573ffffffffffffffffffffffffffffffffffffffff1690602001909291905050506121e6565b6040518085815260200184815260200183815260200182815260200194505050505060405180910390f35b34801561074a57600080fd5b5061084e6004803603608081101561076157600080fd5b81019080803573ffffffffffffffffffffffffffffffffffffffff1690602001909291908035906020019064010000000081111561079e57600080fd5b8201836020820111156107b057600080fd5b803590602001918460018302840111640100000000831117156107d257600080fd5b91908080601f016020809104026020016040519081016040528093929190818152602001838380828437600081840152601f19601f82011690508083019250505050505050919291929080359060200190929190803573ffffffffffffffffffffffffffffffffffffffff1690602001909291905050506122bd565b604051808381526020018281526020019250505060405180910390f35b61096e6004803603608081101561088157600080fd5b81019080803573ffffffffffffffffffffffffffffffffffffffff169060200190929190803590602001906401000000008111156108be57600080fd5b8201836020820111156108d057600080fd5b803590602001918460018302840111640100000000831117156108f257600080fd5b91908080601f016020809104026020016040519081016040528093929190818152602001838380828437600081840152601f19601f82011690508083019250505050505050919291929080359060200190929190803573ffffffffffffffffffffffffffffffffffffffff1690602001909291905050506123d5565b005b34801561097c57600080fd5b506109bf6004803603602081101561099357600080fd5b81019080803573ffffffffffffffffffffffffffffffffffffffff169060200190929190505050612764565b60405180821515815260200191505060405180910390f35b3480156109e357600080fd5b50610b3e600480360360608110156109fa57600080fd5b8101908080359060200190640100000000811115610a1757600080fd5b820183602082011115610a2957600080fd5b80359060200191846001830284011164010000000083111715610a4b57600080fd5b91908080601f016020809104026020016040519081016040528093929190818152602001838380828437600081840152601f19601f8201169050808301925050505050505091929192908035906020019092919080359060200190640100000000811115610ab857600080fd5b820183602082011115610aca57600080fd5b80359060200191846001830284011164010000000083111715610aec57600080fd5b91908080601f016020809104026020016040519081016040528093929190818152602001838380828437600081840152601f19601f8201169050808301925050505050505091929192905050506127b3565b005b348015610b4c57600080fd5b50610b8f60048036036020811015610b6357600080fd5b81019080803573ffffffffffffffffffffffffffffffffffffffff1690602001909291905050506128c9565b6040518082815260200191505060405180910390f35b348015610bb157600080fd5b50610bba612915565b6040518082815260200191505060405180910390f35b348015610bdc57600080fd5b50610c2b60048036036020811015610bf357600080fd5b8101908080357effffffffffffffffffffffffffffffffffffffffffffffffffffffffffffff19169060200190929190505050612922565b60405180827effffffffffffffffffffffffffffffffffffffffffffffffffffffffffffff1916815260200191505060405180910390f35b348015610c6f57600080fd5b50610cb260048036036020811015610c8657600080fd5b81019080803573ffffffffffffffffffffffffffffffffffffffff169060200190929190505050612956565b6040518080602001838152602001828103825284818151815260200191508051906020019080838360005b83811015610cf8578082015181840152602081019050610cdd565b50505050905090810190601f168015610d255780820380516001836020036101000a031916815260200191505b50935050505060405180910390f35b348015610d4057600080fd5b50610d8360048036036020811015610d5757600080fd5b81019080803573ffffffffffffffffffffffffffffffffffffffff169060200190929190505050612ac2565b6040518082815260200191505060405180910390f35b348015610da557600080fd5b50610dd260048036036020811015610dbc57600080fd5b8101908080359060200190929190505050612b13565b6040518085815260200184815260200183815260200182815260200194505050505060405180910390f35b348015610e0957600080fd5b50610f17600480360360a0811015610e2057600080fd5b81019080803573ffffffffffffffffffffffffffffffffffffffff16906020019092919080359060200190640100000000811115610e5d57600080fd5b820183602082011115610e6f57600080fd5b80359060200191846001830284011164010000000083111715610e9157600080fd5b91908080601f016020809104026020016040519081016040528093929190818152602001838380828437600081840152601f19601f82011690508083019250505050505050919291929080359060200190929190803573ffffffffffffffffffffffffffffffffffffffff16906020019092919080359060200190929190505050612bdb565b005b610f21612e29565b005b348015610f2f57600080fd5b50610f5c60048036036020811015610f4657600080fd5b81019080803590602001909291905050506131f4565b604051808473ffffffffffffffffffffffffffffffffffffffff16815260200180602001838152602001828103825284818151815260200191508051906020019080838360005b83811015610fbe578082015181840152602081019050610fa3565b50505050905090810190601f168015610feb5780820380516001836020036101000a031916815260200191505b5094505050505060405180910390f35b34801561100757600080fd5b5061104a6004803603602081101561101e57600080fd5b81019080803573ffffffffffffffffffffffffffffffffffffffff169060200190929190505050613349565b60405180821515815260200191505060405180910390f35b34801561106e57600080fd5b506111526004803603606081101561108557600080fd5b81019080803573ffffffffffffffffffffffffffffffffffffffff169060200190929190803590602001906401000000008111156110c257600080fd5b8201836020820111156110d457600080fd5b803590602001918460018302840111640100000000831117156110f657600080fd5b91908080601f016020809104026020016040519081016040528093929190818152602001838380828437600081840152601f19601f82011690508083019250505050505050919291929080359060200190929190505050613397565b005b34801561116057600080fd5b506111696135f0565b6040518082815260200191505060405180910390f35b34801561118b57600080fd5b50611265600480360360408110156111a257600080fd5b81019080803573ffffffffffffffffffffffffffffffffffffffff169060200190929190803590602001906401000000008111156111df57600080fd5b8201836020820111156111f157600080fd5b8035906020019184600183028401116401000000008311171561121357600080fd5b91908080601f016020809104026020016040519081016040528093929190818152602001838380828437600081840152601f19601f8201169050808301925050505050505091929192905050506135fa565b6040518083151581526020018281526020019250505060405180910390f35b34801561129057600080fd5b50611394600480360360808110156112a757600080fd5b81019080803573ffffffffffffffffffffffffffffffffffffffff169060200190929190803590602001906401000000008111156112e457600080fd5b8201836020820111156112f657600080fd5b8035906020019184600183028401116401000000008311171561131857600080fd5b91908080601f016020809104026020016040519081016040528093929190818152602001838380828437600081840152601f19601f82011690508083019250505050505050919291929080359060200190929190803573ffffffffffffffffffffffffffffffffffffffff169060200190929190505050613d15565b60405180821515815260200191505060405180910390f35b600160009054906101000a900473ffffffffffffffffffffffffffffffffffffffff1673ffffffffffffffffffffffffffffffffffffffff163373ffffffffffffffffffffffffffffffffffffffff161461146f576040517f08c379a00000000000000000000000000000000000000000000000000000000081526004018080602001828103825260188152602001807f43414c4c45525f49535f4e4f545f415554484f52495a4544000000000000000081525060200191505060405180910390fd5b600181148061147e5750600281145b6114f0576040517f08c379a00000000000000000000000000000000000000000000000000000000081526004018080602001828103825260158152602001807f564f54455f53484f554c445f42455f315f4f525f32000000000000000000000081525060200191505060405180910390fd5b600073ffffffffffffffffffffffffffffffffffffffff168373ffffffffffffffffffffffffffffffffffffffff161415611593576040517f08c379a00000000000000000000000000000000000000000000000000000000081526004018080602001828103825260178152602001807f454d5054595f43414e4449444154455f4144445245535300000000000000000081525060200191505060405180910390fd5b600073ffffffffffffffffffffffffffffffffffffffff168273ffffffffffffffffffffffffffffffffffffffff161415611636576040517f08c379a00000000000000000000000000000000000000000000000000000000081526004018080602001828103825260138152602001807f454d5054595f564f5445525f414444524553530000000000000000000000000081525060200191505060405180910390fd5b6000600760008573ffffffffffffffffffffffffffffffffffffffff1673ffffffffffffffffffffffffffffffffffffffff168152602001908152602001600020905060018160010154146116f3576040517f08c379a00000000000000000000000000000000000000000000000000000000081526004018080602001828103825260168152602001807f43414e4449444154455f5354415455535f4e4f545f310000000000000000000081525060200191505060405180910390fd5b6000600860008673ffffffffffffffffffffffffffffffffffffffff1673ffffffffffffffffffffffffffffffffffffffff1681526020019081526020016000209050600080600091505b826001015482101561197357600083600001600084815260200190815260200160002090507face1aa9780bbc49f856ae4fe04995bd3db501976b157012131b6f92019a346948160000160009054906101000a900473ffffffffffffffffffffffffffffffffffffffff1673ffffffffffffffffffffffffffffffffffffffff16604051808060200183815260200180602001838103835260088152602001807f766f74696e672d310000000000000000000000000000000000000000000000008152506020018381038252600c8152602001807f766f746572416464726573730000000000000000000000000000000000000000815250602001935050505060405180910390a18673ffffffffffffffffffffffffffffffffffffffff168160000160009054906101000a900473ffffffffffffffffffffffffffffffffffffffff1673ffffffffffffffffffffffffffffffffffffffff161415611951578581600301819055507face1aa9780bbc49f856ae4fe04995bd3db501976b157012131b6f92019a3469486604051808060200183815260200180602001838103835260088152602001807f766f74696e672d31000000000000000000000000000000000000000000000000815250602001838103825260078152602001807f696e20766f746500000000000000000000000000000000000000000000000000815250602001935050505060405180910390a15b600181600301541415611965576001820191505b50818060010192505061173e565b600260018460010154018161198457fe5b048110611a7c57600284600101819055507ffe9d4497e883ac6410397197a8dd9a80c9eb3a6ae51016c22f276b099ed1660d87856000018660010154604051808473ffffffffffffffffffffffffffffffffffffffff16815260200180602001838152602001828103825284818154600181600116156101000203166002900481526020019150805460018160011615610100020316600290048015611a6b5780601f10611a4057610100808354040283529160200191611a6b565b820191906000526020600020905b815481529060010190602001808311611a4e57829003601f168201915b505094505050505060405180910390a15b50505050505050565b600080611a93858585613d88565b9050600073ffffffffffffffffffffffffffffffffffffffff16600a600083815260200190815260200160002060000160009054906101000a900473ffffffffffffffffffffffffffffffffffffffff1673ffffffffffffffffffffffffffffffffffffffff1614159150509392505050565b80600160006101000a81548173ffffffffffffffffffffffffffffffffffffffff021916908373ffffffffffffffffffffffffffffffffffffffff16021790555050565b606080602867ffffffffffffffff81118015611b6557600080fd5b506040519080825280601f01601f191660200182016040528015611b985781602001600182028036833780820191505090505b50905060005b6014811015611ca35760008160130360080260020a8573ffffffffffffffffffffffffffffffffffffffff1681611bd157fe5b0460f81b9050600060108260f81c60ff1681611be957fe5b0460f81b905060008160f81c6010028360f81c0360f81b9050611c0b82612922565b858560020281518110611c1a57fe5b60200101907effffffffffffffffffffffffffffffffffffffffffffffffffffffffffffff1916908160001a905350611c5281612922565b856001866002020181518110611c6457fe5b60200101907effffffffffffffffffffffffffffffffffffffffffffffffffffffffffffff1916908160001a9053505050508080600101915050611b9e565b5080915050919050565b6000600654905090565b600160009054906101000a900473ffffffffffffffffffffffffffffffffffffffff1673ffffffffffffffffffffffffffffffffffffffff163373ffffffffffffffffffffffffffffffffffffffff1614611d7a576040517f08c379a00000000000000000000000000000000000000000000000000000000081526004018080602001828103825260188152602001807f43414c4c45525f49535f4e4f545f415554484f52495a4544000000000000000081525060200191505060405180910390fd5b6000611d87848484613d88565b9050600073ffffffffffffffffffffffffffffffffffffffff16600a600083815260200190815260200160002060000160009054906101000a900473ffffffffffffffffffffffffffffffffffffffff1673ffffffffffffffffffffffffffffffffffffffff1614611e61576040517f08c379a00000000000000000000000000000000000000000000000000000000081526004018080602001828103825260198152602001807f464c494748545f414c52454144595f524547495354455245440000000000000081525060200191505060405180910390fd5b83600a600083815260200190815260200160002060000160006101000a81548173ffffffffffffffffffffffffffffffffffffffff021916908373ffffffffffffffffffffffffffffffffffffffff1602179055506001600a60008381526020019081526020016000206004018190555081600a60008381526020019081526020016000206002018190555082600a60008381526020019081526020016000206001019080519060200190611f179291906140d0565b50600b81908060018154018082558091505060019003906000526020600020016000909190919091505550505050565b6000606060006006548410611fc4576040517f08c379a000000000000000000000000000000000000000000000000000000000815260040180806020018281038252600b8152602001807f57524f4e475f494e44455800000000000000000000000000000000000000000081525060200191505060405180910390fd5b6005600085815260200190815260200160002060009054906101000a900473ffffffffffffffffffffffffffffffffffffffff1692506000600760008573ffffffffffffffffffffffffffffffffffffffff1673ffffffffffffffffffffffffffffffffffffffff1681526020019081526020016000209050806000018054600181600116156101000203166002900480601f0160208091040260200160405190810160405280929190818152602001828054600181600116156101000203166002900480156120d55780601f106120aa576101008083540402835291602001916120d5565b820191906000526020600020905b8154815290600101906020018083116120b857829003601f168201915b5050505050925080600101549150509193909250565b6000600160009054906101000a900473ffffffffffffffffffffffffffffffffffffffff1673ffffffffffffffffffffffffffffffffffffffff163373ffffffffffffffffffffffffffffffffffffffff16146121b0576040517f08c379a00000000000000000000000000000000000000000000000000000000081526004018080602001828103825260188152602001807f43414c4c45525f49535f4e4f545f415554484f52495a4544000000000000000081525060200191505060405180910390fd5b6006546004541115905090565b60008060009054906101000a900473ffffffffffffffffffffffffffffffffffffffff16905090565b6000806000806000600860008773ffffffffffffffffffffffffffffffffffffffff1673ffffffffffffffffffffffffffffffffffffffff168152602001908152602001600020905060009450600093506000925060005b81600101548110156122ad5760008260000160008381526020019081526020016000209050600081600301541415612277576001850194505b60018160030154141561228b576001870196505b60028160030154141561229f576001860195505b50808060010191505061223e565b5080600101549150509193509193565b60008060006122cd878787613d88565b90506000600a600083815260200190815260200160002060040154141561235c576040517f08c379a00000000000000000000000000000000000000000000000000000000081526004018080602001828103825260158152602001807f4e4f5f464c494748545f454e5452595f464f554e44000000000000000000000081525060200191505060405180910390fd5b600a6000828152602001908152602001600020600401549250600a600082815260200190815260200160002060030160008573ffffffffffffffffffffffffffffffffffffffff1673ffffffffffffffffffffffffffffffffffffffff1681526020019081526020016000205491505094509492505050565b60006123e2858585613d88565b9050600073ffffffffffffffffffffffffffffffffffffffff16600a600083815260200190815260200160002060000160009054906101000a900473ffffffffffffffffffffffffffffffffffffffff1673ffffffffffffffffffffffffffffffffffffffff1614156124bd576040517f08c379a00000000000000000000000000000000000000000000000000000000081526004018080602001828103825260148152602001807f464c494748545f444f45535f4e4f5f455849535400000000000000000000000081525060200191505060405180910390fd5b6000600a600083815260200190815260200160002060030160008473ffffffffffffffffffffffffffffffffffffffff1673ffffffffffffffffffffffffffffffffffffffff1681526020019081526020016000205411612569576040517f08c379a00000000000000000000000000000000000000000000000000000000081526004018080602001828103825260248152602001806142166024913960400191505060405180910390fd5b6002600a60008381526020019081526020016000206004015414156125f6576040517f08c379a00000000000000000000000000000000000000000000000000000000081526004018080602001828103825260098152602001807f4e4f5f5041594f5554000000000000000000000000000000000000000000000081525060200191505060405180910390fd5b6000600a600083815260200190815260200160002060030160008473ffffffffffffffffffffffffffffffffffffffff1673ffffffffffffffffffffffffffffffffffffffff1681526020019081526020016000205490506000612676612667600284613e2e90919063ffffffff16565b83613e7890919063ffffffff16565b90506000600a600085815260200190815260200160002060030160008673ffffffffffffffffffffffffffffffffffffffff1673ffffffffffffffffffffffffffffffffffffffff168152602001908152602001600020819055506126fa81600a600086815260200190815260200160002060050154613f0090919063ffffffff16565b600a6000858152602001908152602001600020600501819055508373ffffffffffffffffffffffffffffffffffffffff166108fc829081150290604051600060405180830381858888f1935050505015801561275a573d6000803e3d6000fd5b5050505050505050565b60006003600760008473ffffffffffffffffffffffffffffffffffffffff1673ffffffffffffffffffffffffffffffffffffffff16815260200190815260200160002060010154149050919050565b7face1aa9780bbc49f856ae4fe04995bd3db501976b157012131b6f92019a34694838383604051808060200184815260200180602001838103835286818151815260200191508051906020019080838360005b83811015612821578082015181840152602081019050612806565b50505050905090810190601f16801561284e5780820380516001836020036101000a031916815260200191505b50838103825284818151815260200191508051906020019080838360005b8381101561288757808201518184015260208101905061286c565b50505050905090810190601f1680156128b45780820380516001836020036101000a031916815260200191505b509550505050505060405180910390a1505050565b6000600760008373ffffffffffffffffffffffffffffffffffffffff1673ffffffffffffffffffffffffffffffffffffffff168152602001908152602001600020600101549050919050565b6000600b80549050905090565b6000600a8260f81c60ff1610156129445760308260f81c0160f81b9050612951565b60578260f81c0160f81b90505b919050565b6060600080600760008573ffffffffffffffffffffffffffffffffffffffff1673ffffffffffffffffffffffffffffffffffffffff16815260200190815260200160002090506000816001015414612a16576040517f08c379a000000000000000000000000000000000000000000000000000000000815260040180806020018281038252600d8152602001807f57524f4e475f414444524553530000000000000000000000000000000000000081525060200191505060405180910390fd5b806000018054600181600116156101000203166002900480601f016020809104026020016040519081016040528092919081815260200182805460018160011615610100020316600290048015612aae5780601f10612a8357610100808354040283529160200191612aae565b820191906000526020600020905b815481529060010190602001808311612a9157829003601f168201915b505050505092508060010154915050915091565b600080600860008473ffffffffffffffffffffffffffffffffffffffff1673ffffffffffffffffffffffffffffffffffffffff16815260200190815260200160002090508060010154915050919050565b6000806000806006548510612b90576040517f08c379a00000000000000000000000000000000000000000000000000000000081526004018080602001828103825260138152602001807f57524f4e475f4149524c494e455f494e4445580000000000000000000000000081525060200191505060405180910390fd5b612bcc6005600087815260200190815260200160002060009054906101000a900473ffffffffffffffffffffffffffffffffffffffff166121e6565b93509350935093509193509193565b600160009054906101000a900473ffffffffffffffffffffffffffffffffffffffff1673ffffffffffffffffffffffffffffffffffffffff163373ffffffffffffffffffffffffffffffffffffffff1614612c9e576040517f08c379a00000000000000000000000000000000000000000000000000000000081526004018080602001828103825260188152602001807f43414c4c45525f49535f4e4f545f415554484f52495a4544000000000000000081525060200191505060405180910390fd5b6000612cab868686613d88565b9050600073ffffffffffffffffffffffffffffffffffffffff16600a600083815260200190815260200160002060000160009054906101000a900473ffffffffffffffffffffffffffffffffffffffff1673ffffffffffffffffffffffffffffffffffffffff161415612d86576040517f08c379a00000000000000000000000000000000000000000000000000000000081526004018080602001828103825260148152602001807f464c494748545f444f45535f4e4f5f455849535400000000000000000000000081525060200191505060405180910390fd5b81600a600083815260200190815260200160002060030160008573ffffffffffffffffffffffffffffffffffffffff1673ffffffffffffffffffffffffffffffffffffffff16815260200190815260200160002081905550612e0782600a600084815260200190815260200160002060050154613e7890919063ffffffff16565b600a600083815260200190815260200160002060050181905550505050505050565b612e31614150565b600760003373ffffffffffffffffffffffffffffffffffffffff1673ffffffffffffffffffffffffffffffffffffffff168152602001908152602001600020604051806060016040529081600082018054600181600116156101000203166002900480601f016020809104026020016040519081016040528092919081815260200182805460018160011615610100020316600290048015612f145780601f10612ee957610100808354040283529160200191612f14565b820191906000526020600020905b815481529060010190602001808311612ef757829003601f168201915b50505050508152602001600182015481526020016002820154815250509050600081602001511415612fae576040517f08c379a00000000000000000000000000000000000000000000000000000000081526004018080602001828103825260168152602001807f4149524c494e455f4e4f545f524547495354455245440000000000000000000081525060200191505060405180910390fd5b600381602001511415613029576040517f08c379a000000000000000000000000000000000000000000000000000000000815260040180806020018281038252600e8152602001807f414c52454144595f46554e44454400000000000000000000000000000000000081525060200191505060405180910390fd5b60028160200151146130a3576040517f08c379a000000000000000000000000000000000000000000000000000000000815260040180806020018281038252600e8152602001807f554e4b4e4f574e5f53544154555300000000000000000000000000000000000081525060200191505060405180910390fd5b60025434101561311b576040517f08c379a000000000000000000000000000000000000000000000000000000000815260040180806020018281038252600a8152602001807f4e4f545f454e4f5547480000000000000000000000000000000000000000000081525060200191505060405180910390fd5b3073ffffffffffffffffffffffffffffffffffffffff166108fc349081150290604051600060405180830381858888f19350505050158015613161573d6000803e3d6000fd5b5034600760003373ffffffffffffffffffffffffffffffffffffffff1673ffffffffffffffffffffffffffffffffffffffff168152602001908152602001600020600201819055506003600760003373ffffffffffffffffffffffffffffffffffffffff1673ffffffffffffffffffffffffffffffffffffffff1681526020019081526020016000206001018190555050565b600060606000600a6000600b868154811061320b57fe5b9060005260206000200154815260200190815260200160002060000160009054906101000a900473ffffffffffffffffffffffffffffffffffffffff169250600a6000600b868154811061325b57fe5b906000526020600020015481526020019081526020016000206001018054600181600116156101000203166002900480601f01602080910402602001604051908101604052809291908181526020018280546001816001161561010002031660029004801561330b5780601f106132e05761010080835404028352916020019161330b565b820191906000526020600020905b8154815290600101906020018083116132ee57829003601f168201915b50505050509150600a6000600b868154811061332357fe5b906000526020600020015481526020019081526020016000206002015490509193909250565b600080600760008473ffffffffffffffffffffffffffffffffffffffff1673ffffffffffffffffffffffffffffffffffffffff16815260200190815260200160002060010154119050919050565b600160009054906101000a900473ffffffffffffffffffffffffffffffffffffffff1673ffffffffffffffffffffffffffffffffffffffff163373ffffffffffffffffffffffffffffffffffffffff161461345a576040517f08c379a00000000000000000000000000000000000000000000000000000000081526004018080602001828103825260188152602001807f43414c4c45525f49535f4e4f545f415554484f52495a4544000000000000000081525060200191505060405180910390fd5b6000613467848484613d88565b9050600073ffffffffffffffffffffffffffffffffffffffff16600a600083815260200190815260200160002060000160009054906101000a900473ffffffffffffffffffffffffffffffffffffffff1673ffffffffffffffffffffffffffffffffffffffff161415613542576040517f08c379a00000000000000000000000000000000000000000000000000000000081526004018080602001828103825260148152602001807f464c494748545f444f45535f4e4f5f455849535400000000000000000000000081525060200191505060405180910390fd5b6001600a600083815260200190815260200160002060040154146135ce576040517f08c379a00000000000000000000000000000000000000000000000000000000081526004018080602001828103825260178152602001807f464c49474854444154415f57524f4e475f53544154555300000000000000000081525060200191505060405180910390fd5b6002600a60008381526020019081526020016000206004018190555050505050565b6000600454905090565b600080600160009054906101000a900473ffffffffffffffffffffffffffffffffffffffff1673ffffffffffffffffffffffffffffffffffffffff163373ffffffffffffffffffffffffffffffffffffffff16146136c0576040517f08c379a00000000000000000000000000000000000000000000000000000000081526004018080602001828103825260188152602001807f43414c4c45525f49535f4e4f545f415554484f52495a4544000000000000000081525060200191505060405180910390fd5b60009050600091506136d06120eb565b61376d576040518060600160405280848152602001600281526020016000815250600760008673ffffffffffffffffffffffffffffffffffffffff1673ffffffffffffffffffffffffffffffffffffffff168152602001908152602001600020600082015181600001908051906020019061374c9291906140d0565b50602082015181600101556040820151816002015590505060019150613b7f565b7face1aa9780bbc49f856ae4fe04995bd3db501976b157012131b6f92019a346948473ffffffffffffffffffffffffffffffffffffffff166040518080602001838152602001806020018381038352600a8152602001807f72656769737465722d31000000000000000000000000000000000000000000008152506020018381038252600c8152602001807f6e6565647320766f74696e670000000000000000000000000000000000000000815250602001935050505060405180910390a16000805b600654811015613a9e5760006005600083815260200190815260200160002060009054906101000a900473ffffffffffffffffffffffffffffffffffffffff1690506000600760008373ffffffffffffffffffffffffffffffffffffffff1673ffffffffffffffffffffffffffffffffffffffff1681526020019081526020016000209050600281600101541415613a8f5781600860008a73ffffffffffffffffffffffffffffffffffffffff1673ffffffffffffffffffffffffffffffffffffffff168152602001908152602001600020600001600086815260200190815260200160002060000160006101000a81548173ffffffffffffffffffffffffffffffffffffffff021916908373ffffffffffffffffffffffffffffffffffffffff16021790555080600001600860008a73ffffffffffffffffffffffffffffffffffffffff1673ffffffffffffffffffffffffffffffffffffffff168152602001908152602001600020600001600086815260200190815260200160002060010190805460018160011615610100020316600290046139d0929190614171565b506000600860008a73ffffffffffffffffffffffffffffffffffffffff1673ffffffffffffffffffffffffffffffffffffffff16815260200190815260200160002060000160008681526020019081526020016000206003018190555083600860008a73ffffffffffffffffffffffffffffffffffffffff1673ffffffffffffffffffffffffffffffffffffffff1681526020019081526020016000206000016000868152602001908152602001600020600201819055506001840193505b50508080600101915050613830565b5080600860008773ffffffffffffffffffffffffffffffffffffffff1673ffffffffffffffffffffffffffffffffffffffff168152602001908152602001600020600101819055508091506040518060600160405280858152602001600181526020016000815250600760008773ffffffffffffffffffffffffffffffffffffffff1673ffffffffffffffffffffffffffffffffffffffff1681526020019081526020016000206000820151816000019080519060200190613b619291906140d0565b50602082015181600101556040820151816002015590505060019250505b8360056000600654815260200190815260200160002060006101000a81548173ffffffffffffffffffffffffffffffffffffffff021916908373ffffffffffffffffffffffffffffffffffffffff16021790555060016006600082825401925050819055506000600760008673ffffffffffffffffffffffffffffffffffffffff1673ffffffffffffffffffffffffffffffffffffffff16815260200190815260200160002090507f89b886e508b5806f8c28179176052458c2bd0f54106811773b56be2d51a14e6085826000018360010154604051808473ffffffffffffffffffffffffffffffffffffffff16815260200180602001838152602001828103825284818154600181600116156101000203166002900481526020019150805460018160011615610100020316600290048015613cfd5780601f10613cd257610100808354040283529160200191613cfd565b820191906000526020600020905b815481529060010190602001808311613ce057829003601f168201915b505094505050505060405180910390a1509250929050565b600080613d23868686613d88565b90506000600a600083815260200190815260200160002060030160008573ffffffffffffffffffffffffffffffffffffffff1673ffffffffffffffffffffffffffffffffffffffff168152602001908152602001600020541415915050949350505050565b6000838383604051602001808473ffffffffffffffffffffffffffffffffffffffff1660601b815260140183805190602001908083835b60208310613de25780518252602082019150602081019050602083039250613dbf565b6001836020036101000a03801982511681845116808217855250505050505090500182815260200193505050506040516020818303038152906040528051906020012090509392505050565b6000613e7083836040518060400160405280601a81526020017f536166654d6174683a206469766973696f6e206279207a65726f000000000000815250613f4a565b905092915050565b600080828401905083811015613ef6576040517f08c379a000000000000000000000000000000000000000000000000000000000815260040180806020018281038252601b8152602001807f536166654d6174683a206164646974696f6e206f766572666c6f77000000000081525060200191505060405180910390fd5b8091505092915050565b6000613f4283836040518060400160405280601e81526020017f536166654d6174683a207375627472616374696f6e206f766572666c6f770000815250614010565b905092915050565b60008083118290613ff6576040517f08c379a00000000000000000000000000000000000000000000000000000000081526004018080602001828103825283818151815260200191508051906020019080838360005b83811015613fbb578082015181840152602081019050613fa0565b50505050905090810190601f168015613fe85780820380516001836020036101000a031916815260200191505b509250505060405180910390fd5b50600083858161400257fe5b049050809150509392505050565b60008383111582906140bd576040517f08c379a00000000000000000000000000000000000000000000000000000000081526004018080602001828103825283818151815260200191508051906020019080838360005b83811015614082578082015181840152602081019050614067565b50505050905090810190601f1680156140af5780820380516001836020036101000a031916815260200191505b509250505060405180910390fd5b5060008385039050809150509392505050565b828054600181600116156101000203166002900490600052602060002090601f016020900481019282601f1061411157805160ff191683800117855561413f565b8280016001018555821561413f579182015b8281111561413e578251825591602001919060010190614123565b5b50905061414c91906141f8565b5090565b60405180606001604052806060815260200160008152602001600081525090565b828054600181600116156101000203166002900490600052602060002090601f016020900481019282601f106141aa57805485556141e7565b828001600101855582156141e757600052602060002091601f016020900482015b828111156141e65782548255916001019190600101906141cb565b5b5090506141f491906141f8565b5090565b5b808211156142115760008160009055506001016141f9565b509056fe494e53555245455f444f45535f4e4f5f45584953545f4f525f5041594f55545f444f4e45a264697066735822122065c2e12a826227cf8cb3f73f4ec8e4503721684e5309543b718d567e3a872f3e64736f6c634300060c0033",
  "immutableReferences": {},
  "source": "// SPDX-License-Identifier: MIT\n\npragma solidity ^0.6.0;\n\nimport \"../node_modules/@openzeppelin/contracts/math/SafeMath.sol\";\nimport \"./Utils.sol\";\n\ncontract FlightSuretyData is Utils {\n    using SafeMath for uint256;\n\n    /********************************************************************************************/\n    /*                                       DATA VARIABLES                                     */\n    /********************************************************************************************/\n\n    address private contractOwner;                                      // Account used to deploy contract\n    address private authorizedContract;\n\n    uint private MINIMAL_FUND = 10 ether;\n\n    // Blocks all state changes throughout the contract if false\n\n\n    uint numberOfApproved;\n\n    struct Airline {\n        string name;\n        // 0 : does not exist\n        // 1 waiting for approval\n        // 2 approved\n        // 3 funded (10 ether payed)\n        // 9 blocked\n        uint status;\n        uint deposit;\n    }\n\n    //\n    // Multiparty Consensus Approval VotingBox\n    //\n\n    struct Ballot {\n        address voterAddress;\n        string name;\n        uint index;\n        // 0 not voted\n        // 1 approve\n        // 2 disapprove\n        uint vote;\n    }\n\n    struct VotingBox {\n        mapping(uint => Ballot) ballotList;\n        uint ballotSize;\n    }\n\n    uint private consensusThreshold = 4;\n    mapping(uint => address) private airlineList;\n    uint private airlineIndex = 0;\n    mapping(address => Airline) private airlineData;\n    mapping(address => VotingBox) private votingBoxMap;\n\n\n\n\n    /********************************************************************************************/\n    /*                                       EVENT DEFINITIONS                                  */\n    /********************************************************************************************/\n\n    event Registered(address airlineAddress, string airlineName, uint status);\n\n    event VotingEvent(address airlineAddress, string airlineName, uint status);\n\n    /**\n    * @dev Constructor\n    *      The deploying account becomes contractOwner\n    */\n    constructor\n    (\n    )\n    public\n    {\n        contractOwner = msg.sender;\n    }\n\n    /********************************************************************************************/\n    /*                                       FUNCTION MODIFIERS                                 */\n    /********************************************************************************************/\n\n\n\n    /**\n    * @dev Modifier that requires the \"ContractOwner\" account to be the function caller\n    */\n    modifier requireContractOwner()\n    {\n        // DEV require(msg.sender == contractOwner || msg.sender == authorizedContract, \"CALLER_IS_NOT_CONTRACT_OWNER\");\n        _;\n    }\n\n    modifier requireAuthorizedCaller()\n    {\n        require(msg.sender == authorizedContract, \"CALLER_IS_NOT_AUTHORIZED\");\n        _;\n    }\n\n\n\n    /********************************************************************************************/\n    /*                                       UTILITY FUNCTIONS                                  */\n    /********************************************************************************************/\n\n\n\n\n    function authorizeCaller\n    (\n        address _contract\n    )\n    external\n    requireContractOwner\n    {\n        authorizedContract = _contract;\n    }\n\n    function getContractOwner\n    (\n    )\n    view\n    public\n    returns (address)\n    {\n        return contractOwner;\n    }\n\n    function getBallotSize\n    (\n        address _address\n    )\n    view\n    public\n    returns (uint)\n    {\n        VotingBox storage votingBox = votingBoxMap[_address];\n        return votingBox.ballotSize;\n    }\n\n\n    /********************************************************************************************/\n    /*                                     SMART CONTRACT FUNCTIONS                             */\n    /********************************************************************************************/\n\n\n    function registrationNeedsVoting()\n    public\n    requireAuthorizedCaller\n    view\n    returns (bool)\n    {\n        return !(consensusThreshold > airlineIndex);\n    }\n\n    function registerAirline\n    (\n        address _airlineAddress,\n        string memory _airlineName\n    )\n    requireAuthorizedCaller\n    external\n    returns (bool success, uint votes)\n    {\n\n        votes = 0;\n        success = false;\n        if (!registrationNeedsVoting()) {\n            airlineData[_airlineAddress] = Airline(_airlineName, 2, 0);\n            success = true;\n        } else {\n            emit Console('register-1', uint(_airlineAddress), 'needs voting');\n            uint counter = 0;\n            for (uint i = 0; i < airlineIndex; i++) {\n                address voterAddress = airlineList[i];\n                Airline storage a = airlineData[voterAddress];\n                if (a.status == 2) {\n                    votingBoxMap[_airlineAddress].ballotList[counter].voterAddress = voterAddress;\n                    votingBoxMap[_airlineAddress].ballotList[counter].name = a.name;\n                    votingBoxMap[_airlineAddress].ballotList[counter].vote = 0;\n                    votingBoxMap[_airlineAddress].ballotList[counter].index = counter;\n                    counter += 1;\n                }\n            }\n            votingBoxMap[_airlineAddress].ballotSize = counter;\n            votes = counter;\n            airlineData[_airlineAddress] = Airline(_airlineName, 1, 0);\n            success = true;\n        }\n        airlineList[airlineIndex] = _airlineAddress;\n        airlineIndex += 1;\n        Airline storage airline = airlineData[_airlineAddress];\n        emit Registered(_airlineAddress, airline.name, airline.status);\n        return (success, votes);\n    }\n\n\n    function isRegistered(address airline) public view returns (bool)\n    {\n        return airlineData[airline].status > 0;\n    }\n\n    function isFunded(address airline) public view returns (bool)\n    {\n        return airlineData[airline].status == 3;\n    }\n\n    function registrationStatus(\n        address _airlineAddress\n    )\n    public\n    view\n    returns (uint)\n    {\n        return airlineData[_airlineAddress].status;\n    }\n\n    function numberOfAirlines() public view returns (uint)\n    {\n        return airlineIndex;\n    }\n\n\n    function getConsensusThreshold() public view returns (uint)\n    {\n        return consensusThreshold;\n    }\n\n\n    function getAirlineByIndex(\n        uint index\n    )\n    public\n    view\n    returns (address airlineAddress, string memory airlineName, uint airlineStatus)\n    {\n        require(index < airlineIndex, 'WRONG_INDEX');\n        airlineAddress = airlineList[index];\n        Airline storage a = airlineData[airlineAddress];\n        airlineName = a.name;\n        airlineStatus = a.status;\n        return (airlineAddress, airlineName, airlineStatus);\n    }\n\n\n    function getAirlineByAddress(\n        address _address\n    )\n    public\n    view\n    returns (string memory airlineName, uint airlineStatus)\n    {\n        Airline storage airline = airlineData[_address];\n        require(airline.status == 0, 'WRONG_ADDRESS');\n        airlineName = airline.name;\n        airlineStatus = airline.status;\n        return (airlineName, airlineStatus);\n    }\n\n\n    function votingResultsByIndex(\n        uint _index\n    )\n    public\n    view\n    returns (uint, uint, uint, uint)\n    {\n        require(_index < airlineIndex, 'WRONG_AIRLINE_INDEX');\n        return votingResults(airlineList[_index]);\n    }\n\n\n    function votingResults\n    (\n        address _address\n    )\n    public\n    view\n    returns (uint yes, uint no, uint open, uint voters)\n    {\n        VotingBox storage votingBox = votingBoxMap[_address];\n        yes = 0;\n        no = 0;\n        open = 0;\n        for (uint i = 0; i < votingBox.ballotSize; i++) {\n            Ballot storage ballot = votingBox.ballotList[i];\n            if (ballot.vote == 0) {\n                open += 1;\n            }\n            if (ballot.vote == 1) {\n                yes += 1;\n            }\n            if (ballot.vote == 2) {\n                no += 1;\n            }\n        }\n        voters = votingBox.ballotSize;\n        return (yes, no, open, voters);\n    }\n\n\n    function voteOnAirline\n    (\n        address _candidateAddress,\n        address _voterAddress,\n        uint _vote\n    )\n    public\n    requireAuthorizedCaller\n    {\n        require(_vote == 1 || _vote == 2, 'VOTE_SHOULD_BE_1_OR_2');\n        require(_candidateAddress != address(0), 'EMPTY_CANDIDATE_ADDRESS');\n        require(_voterAddress != address(0), 'EMPTY_VOTER_ADDRESS');\n        Airline storage airline = airlineData[_candidateAddress];\n        require(airline.status == 1, 'CANDIDATE_STATUS_NOT_1');\n        VotingBox storage votingBox = votingBoxMap[_candidateAddress];\n        uint i = 0;\n        uint yeses = 0;\n        for (i = 0; i < votingBox.ballotSize; i++) {\n            Ballot storage ballot = votingBox.ballotList[i];\n            emit Console('voting-1', uint(ballot.voterAddress), 'voterAddress');\n            if (ballot.voterAddress == _voterAddress) {\n                ballot.vote = _vote;\n                emit Console('voting-1', _vote, 'in vote');\n            }\n            if (ballot.vote == 1) {\n                yeses += 1;\n            }\n        }\n        if (yeses >= (votingBox.ballotSize + 1) / 2) {\n            airline.status = 2;\n            emit VotingEvent(_candidateAddress, airline.name, airline.status);\n        }\n    }\n\n    uint paybackRatioPercentage = 150;\n\n    struct FlightData {\n        address airline;\n        string flight;\n        uint256 timestamp;\n        mapping(address => uint) insurances;\n        // 1 ok (initial)\n        // 2 pay outs\n        uint status;\n        uint totalSum;\n    }\n\n    mapping(bytes32 => FlightData) flightData;\n    bytes32[] flightKeys;\n\n\n    //\n    // FLIGHT\n    //\n\n    function registerFlight\n    (\n        address _airline, string memory _flight, uint256 _timestamp\n    )\n    external\n    requireAuthorizedCaller\n    {\n        bytes32 flightKey = getFlightKey(_airline, _flight, _timestamp);\n        require(flightData[flightKey].airline == address(0), 'FLIGHT_ALREADY_REGISTERED');\n        flightData[flightKey].airline = _airline;\n        flightData[flightKey].status = 1;\n        flightData[flightKey].timestamp = _timestamp;\n        flightData[flightKey].flight = _flight;\n        flightKeys.push(flightKey);\n    }\n\n\n    function getNumberOfFlights\n    (\n\n    )\n    public\n    view\n    returns (uint)\n    {\n        return flightKeys.length;\n    }\n\n\n    function getFlightByIndex\n    (\n        uint index\n    )\n    public\n    view\n    returns (address airline, string memory flight, uint timestamp)\n    {\n        airline = flightData[flightKeys[index]].airline;\n        flight = flightData[flightKeys[index]].flight;\n        timestamp = flightData[flightKeys[index]].timestamp;\n        return (airline, flight, timestamp);\n    }\n\n    function isFlightRegistered\n    (\n        address _airline, string memory _flight, uint256 _timestamp\n    )\n    public\n    view\n    returns (bool)\n    {\n        bytes32 flightKey = getFlightKey(_airline, _flight, _timestamp);\n        return flightData[flightKey].airline != address(0);\n    }\n\n\n    //\n    // INSURANCE\n    //\n\n    function isInsured\n    (\n        address airline,\n        string memory flight,\n        uint256 timestamp,\n        address insuree\n    )\n    public\n    view\n    returns (bool)\n    {\n        bytes32 flightKey = getFlightKey(airline, flight, timestamp);\n        return flightData[flightKey].insurances[insuree] != 0;\n    }\n\n    function insureeStatus\n    (\n        address airline,\n        string memory flight,\n        uint256 timestamp,\n        address insuree\n    )\n    public\n    view\n    returns (uint status, uint amount)\n    {\n        bytes32 flightKey = getFlightKey(airline, flight, timestamp);\n        require(flightData[flightKey].status != 0, 'NO_FLIGHT_ENTRY_FOUND');\n        status = flightData[flightKey].status;\n        amount = flightData[flightKey].insurances[insuree];\n        return (status, amount);\n    }\n\n    function registerInsurance(\n        address airline,\n        string memory flight,\n        uint256 timestamp,\n        address insuree,\n        uint amount\n    )\n    external\n    requireAuthorizedCaller\n    {\n        bytes32 flightKey = getFlightKey(airline, flight, timestamp);\n        require(flightData[flightKey].airline != address(0), 'FLIGHT_DOES_NO_EXIST');\n        flightData[flightKey].insurances[insuree] = amount;\n        flightData[flightKey].totalSum = flightData[flightKey].totalSum.add(amount);\n    }\n\n\n    /**\n     *  @dev Credits payouts to insurees\n    */\n    function creditInsurees\n    (\n        address airline,\n        string memory flight,\n        uint256 timestamp\n    )\n    external\n    requireAuthorizedCaller\n    {\n        bytes32 flightKey = getFlightKey(airline, flight, timestamp);\n        require(flightData[flightKey].airline != address(0), 'FLIGHT_DOES_NO_EXIST');\n        require(flightData[flightKey].status == 1, 'FLIGHTDATA_WRONG_STATUS');\n        flightData[flightKey].status = 2;\n    }\n\n\n    /**\n     *  @dev Transfers eligible payout funds to insuree\n     *\n    */\n    function pay\n    (\n        address airline,\n        string memory flight,\n        uint256 timestamp,\n        address payable insuree\n    )\n    external\n    payable\n    {\n\n        bytes32 flightKey = getFlightKey(airline, flight, timestamp);\n        require(flightData[flightKey].airline != address(0), 'FLIGHT_DOES_NO_EXIST');\n        require(flightData[flightKey].insurances[insuree] > 0, 'INSUREE_DOES_NO_EXIST_OR_PAYOUT_DONE');\n        require(flightData[flightKey].status != 2, 'NO_PAYOUT');\n\n        uint256 _a = flightData[flightKey].insurances[insuree];\n        uint256 amount = _a.add(_a.div(2));\n\n        flightData[flightKey].insurances[insuree] = 0;\n        flightData[flightKey].totalSum = flightData[flightKey].totalSum.sub(amount);\n        insuree.transfer(amount);\n    }\n\n    /**\n     * @dev Initial funding for the insurance. Unless there are too many delayed flights\n     *      resulting in insurance payouts, the contract should be self-sustaining\n     *\n     */\n    function fund\n    (\n    )\n    public\n    payable\n    {\n        Airline memory airline = airlineData[msg.sender];\n        require(airline.status != 0, 'AIRLINE_NOT_REGISTERED');\n        require(airline.status != 3, 'ALREADY_FUNDED');\n        require(airline.status == 2, 'UNKNOWN_STATUS');\n        require(msg.value >= MINIMAL_FUND, 'NOT_ENOUGH');\n\n        //        payable(address(this)).transfer(MINIMAL_FUND);\n        //        uint amountToReturn = msg.value.sub(MINIMAL_FUND);\n        //        msg.sender.transfer(amountToReturn);\n\n        payable(address(this)).transfer(msg.value);\n        airlineData[msg.sender].deposit = msg.value;\n        airlineData[msg.sender].status = 3;\n    }\n\n    function getFlightKey\n    (\n        address airline,\n        string memory flight,\n        uint256 timestamp\n    )\n    pure\n    internal\n    returns (bytes32)\n    {\n        return keccak256(abi.encodePacked(airline, flight, timestamp));\n    }\n\n    /**\n    * @dev Fallback function for funding smart contract.\n    *\n    */\n    fallback()\n    external\n    payable\n    {\n\n    }\n\n    receive()\n    external\n    payable\n    {\n\n    }\n\n\n}\n\n",
  "sourcePath": "/Users/tonibuenter/_proj/misc/udacity/u-blockchain4-flightsurety/contracts/FlightSuretyData.sol",
  "compiler": {
    "name": "solc",
    "version": "0.6.12+commit.27d51765.Emscripten.clang"
  },
  "schemaVersion": "3.4.1",
  "updatedAt": "2021-06-15T16:47:02.203Z",
  "networkType": "ethereum",
  "devdoc": {
    "kind": "dev",
    "methods": {
      "constructor": {
        "details": "Constructor      The deploying account becomes contractOwner"
      },
      "creditInsurees(address,string,uint256)": {
        "details": "Credits payouts to insurees"
      },
      "fund()": {
        "details": "Initial funding for the insurance. Unless there are too many delayed flights      resulting in insurance payouts, the contract should be self-sustaining"
      },
      "pay(address,string,uint256,address)": {
        "details": "Transfers eligible payout funds to insuree"
      }
    },
    "version": 1
  },
  "userdoc": {
    "kind": "user",
    "methods": {},
    "version": 1
  }
}