{
  "contractName": "FlightSuretyData",
  "abi": [
    {
      "inputs": [],
      "stateMutability": "nonpayable",
      "type": "constructor"
    },
    {
      "anonymous": false,
      "inputs": [
        {
          "indexed": false,
          "internalType": "string",
          "name": "origin",
          "type": "string"
        },
        {
          "indexed": false,
          "internalType": "uint256",
          "name": "level",
          "type": "uint256"
        },
        {
          "indexed": false,
          "internalType": "string",
          "name": "info",
          "type": "string"
        }
      ],
      "name": "Console",
      "type": "event"
    },
    {
      "anonymous": false,
      "inputs": [
        {
          "indexed": false,
          "internalType": "address",
          "name": "airlineAddress",
          "type": "address"
        },
        {
          "indexed": false,
          "internalType": "string",
          "name": "airlineName",
          "type": "string"
        },
        {
          "indexed": false,
          "internalType": "uint256",
          "name": "status",
          "type": "uint256"
        }
      ],
      "name": "Registered",
      "type": "event"
    },
    {
      "anonymous": false,
      "inputs": [
        {
          "indexed": false,
          "internalType": "address",
          "name": "airlineAddress",
          "type": "address"
        },
        {
          "indexed": false,
          "internalType": "string",
          "name": "airlineName",
          "type": "string"
        },
        {
          "indexed": false,
          "internalType": "uint256",
          "name": "status",
          "type": "uint256"
        }
      ],
      "name": "VotingEvent",
      "type": "event"
    },
    {
      "stateMutability": "payable",
      "type": "fallback",
      "payable": true
    },
    {
      "inputs": [
        {
          "internalType": "bytes1",
          "name": "b",
          "type": "bytes1"
        }
      ],
      "name": "char",
      "outputs": [
        {
          "internalType": "bytes1",
          "name": "c",
          "type": "bytes1"
        }
      ],
      "stateMutability": "pure",
      "type": "function",
      "constant": true
    },
    {
      "inputs": [
        {
          "internalType": "string",
          "name": "origin",
          "type": "string"
        },
        {
          "internalType": "uint256",
          "name": "level",
          "type": "uint256"
        },
        {
          "internalType": "string",
          "name": "info",
          "type": "string"
        }
      ],
      "name": "log",
      "outputs": [],
      "stateMutability": "nonpayable",
      "type": "function"
    },
    {
      "inputs": [
        {
          "internalType": "address",
          "name": "x",
          "type": "address"
        }
      ],
      "name": "toAsciiString",
      "outputs": [
        {
          "internalType": "string",
          "name": "",
          "type": "string"
        }
      ],
      "stateMutability": "pure",
      "type": "function",
      "constant": true
    },
    {
      "stateMutability": "payable",
      "type": "receive",
      "payable": true
    },
    {
      "inputs": [
        {
          "internalType": "address",
          "name": "_contract",
          "type": "address"
        }
      ],
      "name": "authorizeCaller",
      "outputs": [],
      "stateMutability": "nonpayable",
      "type": "function"
    },
    {
      "inputs": [],
      "name": "getContractOwner",
      "outputs": [
        {
          "internalType": "address",
          "name": "",
          "type": "address"
        }
      ],
      "stateMutability": "view",
      "type": "function",
      "constant": true
    },
    {
      "inputs": [
        {
          "internalType": "address",
          "name": "_address",
          "type": "address"
        }
      ],
      "name": "getBallotSize",
      "outputs": [
        {
          "internalType": "uint256",
          "name": "",
          "type": "uint256"
        }
      ],
      "stateMutability": "view",
      "type": "function",
      "constant": true
    },
    {
      "inputs": [],
      "name": "registrationNeedsVoting",
      "outputs": [
        {
          "internalType": "bool",
          "name": "",
          "type": "bool"
        }
      ],
      "stateMutability": "view",
      "type": "function",
      "constant": true
    },
    {
      "inputs": [
        {
          "internalType": "address",
          "name": "_airlineAddress",
          "type": "address"
        },
        {
          "internalType": "string",
          "name": "_airlineName",
          "type": "string"
        }
      ],
      "name": "registerAirline",
      "outputs": [
        {
          "internalType": "bool",
          "name": "success",
          "type": "bool"
        },
        {
          "internalType": "uint256",
          "name": "votes",
          "type": "uint256"
        }
      ],
      "stateMutability": "nonpayable",
      "type": "function"
    },
    {
      "inputs": [
        {
          "internalType": "address",
          "name": "airline",
          "type": "address"
        }
      ],
      "name": "isRegistered",
      "outputs": [
        {
          "internalType": "bool",
          "name": "",
          "type": "bool"
        }
      ],
      "stateMutability": "view",
      "type": "function",
      "constant": true
    },
    {
      "inputs": [
        {
          "internalType": "address",
          "name": "_airlineAddress",
          "type": "address"
        }
      ],
      "name": "registrationStatus",
      "outputs": [
        {
          "internalType": "uint256",
          "name": "",
          "type": "uint256"
        }
      ],
      "stateMutability": "view",
      "type": "function",
      "constant": true
    },
    {
      "inputs": [
        {
          "internalType": "address",
          "name": "airline",
          "type": "address"
        }
      ],
      "name": "isAirline",
      "outputs": [
        {
          "internalType": "bool",
          "name": "",
          "type": "bool"
        }
      ],
      "stateMutability": "view",
      "type": "function",
      "constant": true
    },
    {
      "inputs": [],
      "name": "numberOfAirlines",
      "outputs": [
        {
          "internalType": "uint256",
          "name": "",
          "type": "uint256"
        }
      ],
      "stateMutability": "view",
      "type": "function",
      "constant": true
    },
    {
      "inputs": [],
      "name": "getConsensusThreshold",
      "outputs": [
        {
          "internalType": "uint256",
          "name": "",
          "type": "uint256"
        }
      ],
      "stateMutability": "view",
      "type": "function",
      "constant": true
    },
    {
      "inputs": [
        {
          "internalType": "uint256",
          "name": "index",
          "type": "uint256"
        }
      ],
      "name": "getAirlineByIndex",
      "outputs": [
        {
          "internalType": "address",
          "name": "airlineAddress",
          "type": "address"
        },
        {
          "internalType": "string",
          "name": "airlineName",
          "type": "string"
        },
        {
          "internalType": "uint256",
          "name": "airlineStatus",
          "type": "uint256"
        }
      ],
      "stateMutability": "view",
      "type": "function",
      "constant": true
    },
    {
      "inputs": [
        {
          "internalType": "address",
          "name": "_address",
          "type": "address"
        }
      ],
      "name": "getAirlineByAddress",
      "outputs": [
        {
          "internalType": "string",
          "name": "airlineName",
          "type": "string"
        },
        {
          "internalType": "uint256",
          "name": "airlineStatus",
          "type": "uint256"
        }
      ],
      "stateMutability": "view",
      "type": "function",
      "constant": true
    },
    {
      "inputs": [
        {
          "internalType": "uint256",
          "name": "_index",
          "type": "uint256"
        }
      ],
      "name": "votingResultsByIndex",
      "outputs": [
        {
          "internalType": "uint256",
          "name": "",
          "type": "uint256"
        },
        {
          "internalType": "uint256",
          "name": "",
          "type": "uint256"
        },
        {
          "internalType": "uint256",
          "name": "",
          "type": "uint256"
        },
        {
          "internalType": "uint256",
          "name": "",
          "type": "uint256"
        }
      ],
      "stateMutability": "view",
      "type": "function",
      "constant": true
    },
    {
      "inputs": [
        {
          "internalType": "address",
          "name": "_address",
          "type": "address"
        }
      ],
      "name": "votingResults",
      "outputs": [
        {
          "internalType": "uint256",
          "name": "yes",
          "type": "uint256"
        },
        {
          "internalType": "uint256",
          "name": "no",
          "type": "uint256"
        },
        {
          "internalType": "uint256",
          "name": "open",
          "type": "uint256"
        },
        {
          "internalType": "uint256",
          "name": "voters",
          "type": "uint256"
        }
      ],
      "stateMutability": "view",
      "type": "function",
      "constant": true
    },
    {
      "inputs": [
        {
          "internalType": "address",
          "name": "_candidateAddress",
          "type": "address"
        },
        {
          "internalType": "address",
          "name": "_voterAddress",
          "type": "address"
        },
        {
          "internalType": "uint256",
          "name": "_vote",
          "type": "uint256"
        }
      ],
      "name": "voteOnAirline",
      "outputs": [],
      "stateMutability": "nonpayable",
      "type": "function"
    },
    {
      "inputs": [
        {
          "internalType": "address",
          "name": "airline",
          "type": "address"
        },
        {
          "internalType": "string",
          "name": "flight",
          "type": "string"
        },
        {
          "internalType": "uint256",
          "name": "timestamp",
          "type": "uint256"
        },
        {
          "internalType": "address",
          "name": "insuree",
          "type": "address"
        },
        {
          "internalType": "uint256",
          "name": "amount",
          "type": "uint256"
        }
      ],
      "name": "buyInsurance",
      "outputs": [],
      "stateMutability": "payable",
      "type": "function",
      "payable": true
    },
    {
      "inputs": [
        {
          "internalType": "address",
          "name": "airline",
          "type": "address"
        },
        {
          "internalType": "string",
          "name": "flight",
          "type": "string"
        },
        {
          "internalType": "uint256",
          "name": "timestamp",
          "type": "uint256"
        }
      ],
      "name": "creditInsurees",
      "outputs": [],
      "stateMutability": "nonpayable",
      "type": "function"
    },
    {
      "inputs": [
        {
          "internalType": "address",
          "name": "airline",
          "type": "address"
        },
        {
          "internalType": "string",
          "name": "flight",
          "type": "string"
        },
        {
          "internalType": "uint256",
          "name": "timestamp",
          "type": "uint256"
        },
        {
          "internalType": "address payable",
          "name": "insuree",
          "type": "address"
        }
      ],
      "name": "pay",
      "outputs": [],
      "stateMutability": "payable",
      "type": "function",
      "payable": true
    },
    {
      "inputs": [],
      "name": "fund",
      "outputs": [],
      "stateMutability": "payable",
      "type": "function",
      "payable": true
    }
  ],
  "bytecode": "0x6080604052600a60025560036004556000600655609660095534801561002457600080fd5b50336000806101000a81548173ffffffffffffffffffffffffffffffffffffffff021916908373ffffffffffffffffffffffffffffffffffffffff160217905550613610806100746000396000f3fe6080604052600436106101385760003560e01c8063602e03b4116100ab5780639c9161c51161006f5780639c9161c514610ad4578063b60d428814610b38578063c3c5a54714610b42578063c8820a7014610ba9578063d42791e114610c9b578063ee38a74914610cc65761013f565b8063602e03b41461079757806369f9ad2f146107fc5780637998c0b81461088f578063869d7b76146109605780638b41aaae14610a6f5761013f565b8063408ce10a116100fd578063408ce10a14610369578063433b875a14610441578063442890d51461046e57806345c83148146104af5780634fe63a48146105295780635970e0891461062e5761013f565b80623cc044146101415780630e248a11146101bc5780632c388d5d146102235780632c6e7598146102745780633c85380f1461033e5761013f565b3661013f57005b005b34801561014d57600080fd5b506101ba6004803603606081101561016457600080fd5b81019080803573ffffffffffffffffffffffffffffffffffffffff169060200190929190803573ffffffffffffffffffffffffffffffffffffffff16906020019092919080359060200190929190505050610dcb565b005b3480156101c857600080fd5b5061020b600480360360208110156101df57600080fd5b81019080803573ffffffffffffffffffffffffffffffffffffffff1690602001909291905050506113e1565b60405180821515815260200191505060405180910390f35b34801561022f57600080fd5b506102726004803603602081101561024657600080fd5b81019080803573ffffffffffffffffffffffffffffffffffffffff16906020019092919050505061142f565b005b34801561028057600080fd5b506102c36004803603602081101561029757600080fd5b81019080803573ffffffffffffffffffffffffffffffffffffffff169060200190929190505050611473565b6040518080602001828103825283818151815260200191508051906020019080838360005b838110156103035780820151818401526020810190506102e8565b50505050905090810190601f1680156103305780820380516001836020036101000a031916815260200191505b509250505060405180910390f35b34801561034a57600080fd5b506103536115d6565b6040518082815260200191505060405180910390f35b34801561037557600080fd5b506103a26004803603602081101561038c57600080fd5b81019080803590602001909291905050506115e0565b604051808473ffffffffffffffffffffffffffffffffffffffff16815260200180602001838152602001828103825284818151815260200191508051906020019080838360005b838110156104045780820151818401526020810190506103e9565b50505050905090810190601f1680156104315780820380516001836020036101000a031916815260200191505b5094505050505060405180910390f35b34801561044d57600080fd5b50610456611784565b60405180821515815260200191505060405180910390f35b34801561047a57600080fd5b50610483611856565b604051808273ffffffffffffffffffffffffffffffffffffffff16815260200191505060405180910390f35b3480156104bb57600080fd5b506104fe600480360360208110156104d257600080fd5b81019080803573ffffffffffffffffffffffffffffffffffffffff16906020019092919050505061187f565b6040518085815260200184815260200183815260200182815260200194505050505060405180910390f35b61062c6004803603608081101561053f57600080fd5b81019080803573ffffffffffffffffffffffffffffffffffffffff1690602001909291908035906020019064010000000081111561057c57600080fd5b82018360208201111561058e57600080fd5b803590602001918460018302840111640100000000831117156105b057600080fd5b91908080601f016020809104026020016040519081016040528093929190818152602001838380828437600081840152601f19601f82011690508083019250505050505050919291929080359060200190929190803573ffffffffffffffffffffffffffffffffffffffff169060200190929190505050611956565b005b34801561063a57600080fd5b506107956004803603606081101561065157600080fd5b810190808035906020019064010000000081111561066e57600080fd5b82018360208201111561068057600080fd5b803590602001918460018302840111640100000000831117156106a257600080fd5b91908080601f016020809104026020016040519081016040528093929190818152602001838380828437600081840152601f19601f820116905080830192505050505050509192919290803590602001909291908035906020019064010000000081111561070f57600080fd5b82018360208201111561072157600080fd5b8035906020019184600183028401116401000000008311171561074357600080fd5b91908080601f016020809104026020016040519081016040528093929190818152602001838380828437600081840152601f19601f820116905080830192505050505050509192919290505050611c18565b005b3480156107a357600080fd5b506107e6600480360360208110156107ba57600080fd5b81019080803573ffffffffffffffffffffffffffffffffffffffff169060200190929190505050611d2e565b6040518082815260200191505060405180910390f35b34801561080857600080fd5b506108576004803603602081101561081f57600080fd5b8101908080357effffffffffffffffffffffffffffffffffffffffffffffffffffffffffffff19169060200190929190505050611d7a565b60405180827effffffffffffffffffffffffffffffffffffffffffffffffffffffffffffff1916815260200191505060405180910390f35b34801561089b57600080fd5b506108de600480360360208110156108b257600080fd5b81019080803573ffffffffffffffffffffffffffffffffffffffff169060200190929190505050611dae565b6040518080602001838152602001828103825284818151815260200191508051906020019080838360005b83811015610924578082015181840152602081019050610909565b50505050905090810190601f1680156109515780820380516001836020036101000a031916815260200191505b50935050505060405180910390f35b610a6d600480360360a081101561097657600080fd5b81019080803573ffffffffffffffffffffffffffffffffffffffff169060200190929190803590602001906401000000008111156109b357600080fd5b8201836020820111156109c557600080fd5b803590602001918460018302840111640100000000831117156109e757600080fd5b91908080601f016020809104026020016040519081016040528093929190818152602001838380828437600081840152601f19601f82011690508083019250505050505050919291929080359060200190929190803573ffffffffffffffffffffffffffffffffffffffff16906020019092919080359060200190929190505050611f1a565b005b348015610a7b57600080fd5b50610abe60048036036020811015610a9257600080fd5b81019080803573ffffffffffffffffffffffffffffffffffffffff1690602001909291905050506122e7565b6040518082815260200191505060405180910390f35b348015610ae057600080fd5b50610b0d60048036036020811015610af757600080fd5b8101908080359060200190929190505050612338565b6040518085815260200184815260200183815260200182815260200194505050505060405180910390f35b610b40612400565b005b348015610b4e57600080fd5b50610b9160048036036020811015610b6557600080fd5b81019080803573ffffffffffffffffffffffffffffffffffffffff1690602001909291905050506127dd565b60405180821515815260200191505060405180910390f35b348015610bb557600080fd5b50610c9960048036036060811015610bcc57600080fd5b81019080803573ffffffffffffffffffffffffffffffffffffffff16906020019092919080359060200190640100000000811115610c0957600080fd5b820183602082011115610c1b57600080fd5b80359060200191846001830284011164010000000083111715610c3d57600080fd5b91908080601f016020809104026020016040519081016040528093929190818152602001838380828437600081840152601f19601f8201169050808301925050505050505091929192908035906020019092919050505061282c565b005b348015610ca757600080fd5b50610cb0612a85565b6040518082815260200191505060405180910390f35b348015610cd257600080fd5b50610dac60048036036040811015610ce957600080fd5b81019080803573ffffffffffffffffffffffffffffffffffffffff16906020019092919080359060200190640100000000811115610d2657600080fd5b820183602082011115610d3857600080fd5b80359060200191846001830284011164010000000083111715610d5a57600080fd5b91908080601f016020809104026020016040519081016040528093929190818152602001838380828437600081840152601f19601f820116905080830192505050505050509192919290505050612a8f565b6040518083151581526020018281526020019250505060405180910390f35b6001811480610dda5750600281145b610e4c576040517f08c379a00000000000000000000000000000000000000000000000000000000081526004018080602001828103825260158152602001807f564f54455f53484f554c445f42455f315f4f525f32000000000000000000000081525060200191505060405180910390fd5b600073ffffffffffffffffffffffffffffffffffffffff168373ffffffffffffffffffffffffffffffffffffffff161415610eef576040517f08c379a00000000000000000000000000000000000000000000000000000000081526004018080602001828103825260178152602001807f454d5054595f43414e4449444154455f4144445245535300000000000000000081525060200191505060405180910390fd5b600073ffffffffffffffffffffffffffffffffffffffff168273ffffffffffffffffffffffffffffffffffffffff161415610f92576040517f08c379a00000000000000000000000000000000000000000000000000000000081526004018080602001828103825260138152602001807f454d5054595f564f5445525f414444524553530000000000000000000000000081525060200191505060405180910390fd5b6000600760008573ffffffffffffffffffffffffffffffffffffffff1673ffffffffffffffffffffffffffffffffffffffff1681526020019081526020016000209050600181600101541461104f576040517f08c379a00000000000000000000000000000000000000000000000000000000081526004018080602001828103825260168152602001807f43414e4449444154455f5354415455535f4e4f545f310000000000000000000081525060200191505060405180910390fd5b6000600860008673ffffffffffffffffffffffffffffffffffffffff1673ffffffffffffffffffffffffffffffffffffffff1681526020019081526020016000209050600080600091505b82600101548210156112cf57600083600001600084815260200190815260200160002090507face1aa9780bbc49f856ae4fe04995bd3db501976b157012131b6f92019a346948160000160009054906101000a900473ffffffffffffffffffffffffffffffffffffffff1673ffffffffffffffffffffffffffffffffffffffff16604051808060200183815260200180602001838103835260088152602001807f766f74696e672d310000000000000000000000000000000000000000000000008152506020018381038252600c8152602001807f766f746572416464726573730000000000000000000000000000000000000000815250602001935050505060405180910390a18673ffffffffffffffffffffffffffffffffffffffff168160000160009054906101000a900473ffffffffffffffffffffffffffffffffffffffff1673ffffffffffffffffffffffffffffffffffffffff1614156112ad578581600301819055507face1aa9780bbc49f856ae4fe04995bd3db501976b157012131b6f92019a3469486604051808060200183815260200180602001838103835260088152602001807f766f74696e672d31000000000000000000000000000000000000000000000000815250602001838103825260078152602001807f696e20766f746500000000000000000000000000000000000000000000000000815250602001935050505060405180910390a15b6001816003015414156112c1576001820191505b50818060010192505061109a565b60026001846001015401816112e057fe5b0481106113d857600284600101819055507ffe9d4497e883ac6410397197a8dd9a80c9eb3a6ae51016c22f276b099ed1660d87856000018660010154604051808473ffffffffffffffffffffffffffffffffffffffff168152602001806020018381526020018281038252848181546001816001161561010002031660029004815260200191508054600181600116156101000203166002900480156113c75780601f1061139c576101008083540402835291602001916113c7565b820191906000526020600020905b8154815290600101906020018083116113aa57829003601f168201915b505094505050505060405180910390a15b50505050505050565b600080600760008473ffffffffffffffffffffffffffffffffffffffff1673ffffffffffffffffffffffffffffffffffffffff16815260200190815260200160002060010154119050919050565b80600160006101000a81548173ffffffffffffffffffffffffffffffffffffffff021916908373ffffffffffffffffffffffffffffffffffffffff16021790555050565b606080602867ffffffffffffffff8111801561148e57600080fd5b506040519080825280601f01601f1916602001820160405280156114c15781602001600182028036833780820191505090505b50905060005b60148110156115cc5760008160130360080260020a8573ffffffffffffffffffffffffffffffffffffffff16816114fa57fe5b0460f81b9050600060108260f81c60ff168161151257fe5b0460f81b905060008160f81c6010028360f81c0360f81b905061153482611d7a565b85856002028151811061154357fe5b60200101907effffffffffffffffffffffffffffffffffffffffffffffffffffffffffffff1916908160001a90535061157b81611d7a565b85600186600202018151811061158d57fe5b60200101907effffffffffffffffffffffffffffffffffffffffffffffffffffffffffffff1916908160001a90535050505080806001019150506114c7565b5080915050919050565b6000600654905090565b600060606000600654841061165d576040517f08c379a000000000000000000000000000000000000000000000000000000000815260040180806020018281038252600b8152602001807f57524f4e475f494e44455800000000000000000000000000000000000000000081525060200191505060405180910390fd5b6005600085815260200190815260200160002060009054906101000a900473ffffffffffffffffffffffffffffffffffffffff1692506000600760008573ffffffffffffffffffffffffffffffffffffffff1673ffffffffffffffffffffffffffffffffffffffff1681526020019081526020016000209050806000018054600181600116156101000203166002900480601f01602080910402602001604051908101604052809291908181526020018280546001816001161561010002031660029004801561176e5780601f106117435761010080835404028352916020019161176e565b820191906000526020600020905b81548152906001019060200180831161175157829003601f168201915b5050505050925080600101549150509193909250565b6000600160009054906101000a900473ffffffffffffffffffffffffffffffffffffffff1673ffffffffffffffffffffffffffffffffffffffff163373ffffffffffffffffffffffffffffffffffffffff1614611849576040517f08c379a00000000000000000000000000000000000000000000000000000000081526004018080602001828103825260188152602001807f43414c4c45525f49535f4e4f545f415554484f52495a4544000000000000000081525060200191505060405180910390fd5b6006546004541115905090565b60008060009054906101000a900473ffffffffffffffffffffffffffffffffffffffff16905090565b6000806000806000600860008773ffffffffffffffffffffffffffffffffffffffff1673ffffffffffffffffffffffffffffffffffffffff168152602001908152602001600020905060009450600093506000925060005b81600101548110156119465760008260000160008381526020019081526020016000209050600081600301541415611910576001850194505b600181600301541415611924576001870196505b600281600301541415611938576001860195505b5080806001019150506118d7565b5080600101549150509193509193565b60006119638585856132a7565b9050600073ffffffffffffffffffffffffffffffffffffffff16600a600083815260200190815260200160002060000160009054906101000a900473ffffffffffffffffffffffffffffffffffffffff1673ffffffffffffffffffffffffffffffffffffffff161415611a3e576040517f08c379a00000000000000000000000000000000000000000000000000000000081526004018080602001828103825260148152602001807f466c696768745f646f65735f6e6f5f657869737400000000000000000000000081525060200191505060405180910390fd5b6000600a600083815260200190815260200160002060030160008473ffffffffffffffffffffffffffffffffffffffff1673ffffffffffffffffffffffffffffffffffffffff1681526020019081526020016000205411611aea576040517f08c379a00000000000000000000000000000000000000000000000000000000081526004018080602001828103825260248152602001806135966024913960400191505060405180910390fd5b6002600a6000838152602001908152602001600020600401541415611b77576040517f08c379a00000000000000000000000000000000000000000000000000000000081526004018080602001828103825260098152602001807f4e6f5f7061796f7574000000000000000000000000000000000000000000000081525060200191505060405180910390fd5b8173ffffffffffffffffffffffffffffffffffffffff166108fc600a600084815260200190815260200160002060030160008573ffffffffffffffffffffffffffffffffffffffff1673ffffffffffffffffffffffffffffffffffffffff168152602001908152602001600020549081150290604051600060405180830381858888f19350505050158015611c10573d6000803e3d6000fd5b505050505050565b7face1aa9780bbc49f856ae4fe04995bd3db501976b157012131b6f92019a34694838383604051808060200184815260200180602001838103835286818151815260200191508051906020019080838360005b83811015611c86578082015181840152602081019050611c6b565b50505050905090810190601f168015611cb35780820380516001836020036101000a031916815260200191505b50838103825284818151815260200191508051906020019080838360005b83811015611cec578082015181840152602081019050611cd1565b50505050905090810190601f168015611d195780820380516001836020036101000a031916815260200191505b509550505050505060405180910390a1505050565b6000600760008373ffffffffffffffffffffffffffffffffffffffff1673ffffffffffffffffffffffffffffffffffffffff168152602001908152602001600020600101549050919050565b6000600a8260f81c60ff161015611d9c5760308260f81c0160f81b9050611da9565b60578260f81c0160f81b90505b919050565b6060600080600760008573ffffffffffffffffffffffffffffffffffffffff1673ffffffffffffffffffffffffffffffffffffffff16815260200190815260200160002090506000816001015414611e6e576040517f08c379a000000000000000000000000000000000000000000000000000000000815260040180806020018281038252600d8152602001807f57524f4e475f414444524553530000000000000000000000000000000000000081525060200191505060405180910390fd5b806000018054600181600116156101000203166002900480601f016020809104026020016040519081016040528092919081815260200182805460018160011615610100020316600290048015611f065780601f10611edb57610100808354040283529160200191611f06565b820191906000526020600020905b815481529060010190602001808311611ee957829003601f168201915b505050505092508060010154915050915091565b600160009054906101000a900473ffffffffffffffffffffffffffffffffffffffff1673ffffffffffffffffffffffffffffffffffffffff163373ffffffffffffffffffffffffffffffffffffffff1614611fdd576040517f08c379a00000000000000000000000000000000000000000000000000000000081526004018080602001828103825260188152602001807f43414c4c45525f49535f4e4f545f415554484f52495a4544000000000000000081525060200191505060405180910390fd5b6000611fea8686866132a7565b905060008211612045576040517f08c379a00000000000000000000000000000000000000000000000000000000081526004018080602001828103825260218152602001806135ba6021913960400191505060405180910390fd5b6000821161209e576040517f08c379a00000000000000000000000000000000000000000000000000000000081526004018080602001828103825260218152602001806135ba6021913960400191505060405180910390fd5b600073ffffffffffffffffffffffffffffffffffffffff16600a600083815260200190815260200160002060000160009054906101000a900473ffffffffffffffffffffffffffffffffffffffff1673ffffffffffffffffffffffffffffffffffffffff161415612177576040517f08c379a00000000000000000000000000000000000000000000000000000000081526004018080602001828103825260148152602001807f466c696768745f646f65735f6e6f5f657869737400000000000000000000000081525060200191505060405180910390fd5b6000600a600083815260200190815260200160002060030160008573ffffffffffffffffffffffffffffffffffffffff1673ffffffffffffffffffffffffffffffffffffffff1681526020019081526020016000205414612240576040517f08c379a00000000000000000000000000000000000000000000000000000000081526004018080602001828103825260168152602001807f496e73757265655f616c72656164795f6578697374730000000000000000000081525060200191505060405180910390fd5b3073ffffffffffffffffffffffffffffffffffffffff166108fc839081150290604051600060405180830381858888f19350505050158015612286573d6000803e3d6000fd5b5081600a600083815260200190815260200160002060030160008573ffffffffffffffffffffffffffffffffffffffff1673ffffffffffffffffffffffffffffffffffffffff16815260200190815260200160002081905550505050505050565b600080600860008473ffffffffffffffffffffffffffffffffffffffff1673ffffffffffffffffffffffffffffffffffffffff16815260200190815260200160002090508060010154915050919050565b60008060008060065485106123b5576040517f08c379a00000000000000000000000000000000000000000000000000000000081526004018080602001828103825260138152602001807f57524f4e475f4149524c494e455f494e4445580000000000000000000000000081525060200191505060405180910390fd5b6123f16005600087815260200190815260200160002060009054906101000a900473ffffffffffffffffffffffffffffffffffffffff1661187f565b93509350935093509193509193565b612408613457565b600760003373ffffffffffffffffffffffffffffffffffffffff1673ffffffffffffffffffffffffffffffffffffffff168152602001908152602001600020604051806040016040529081600082018054600181600116156101000203166002900480601f0160208091040260200160405190810160405280929190818152602001828054600181600116156101000203166002900480156124eb5780601f106124c0576101008083540402835291602001916124eb565b820191906000526020600020905b8154815290600101906020018083116124ce57829003601f168201915b50505050508152602001600182015481525050905060008160200151141561257b576040517f08c379a00000000000000000000000000000000000000000000000000000000081526004018080602001828103825260168152602001807f4149524c494e455f4e4f545f524547495354455245440000000000000000000081525060200191505060405180910390fd5b6003816020015114156125f6576040517f08c379a000000000000000000000000000000000000000000000000000000000815260040180806020018281038252600e8152602001807f414c52454144595f46554e44454400000000000000000000000000000000000081525060200191505060405180910390fd5b6002816020015114612670576040517f08c379a000000000000000000000000000000000000000000000000000000000815260040180806020018281038252600e8152602001807f554e4b4e4f574e5f53544154555300000000000000000000000000000000000081525060200191505060405180910390fd5b6002543410156126e8576040517f08c379a000000000000000000000000000000000000000000000000000000000815260040180806020018281038252600a8152602001807f4e4f545f454e4f5547480000000000000000000000000000000000000000000081525060200191505060405180910390fd5b3073ffffffffffffffffffffffffffffffffffffffff166108fc6002549081150290604051600060405180830381858888f19350505050158015612730573d6000803e3d6000fd5b5060006127486002543461334d90919063ffffffff16565b90503373ffffffffffffffffffffffffffffffffffffffff166108fc829081150290604051600060405180830381858888f19350505050158015612790573d6000803e3d6000fd5b506003600760003373ffffffffffffffffffffffffffffffffffffffff1673ffffffffffffffffffffffffffffffffffffffff168152602001908152602001600020600101819055505050565b60006001600760008473ffffffffffffffffffffffffffffffffffffffff1673ffffffffffffffffffffffffffffffffffffffff16815260200190815260200160002060010154119050919050565b600160009054906101000a900473ffffffffffffffffffffffffffffffffffffffff1673ffffffffffffffffffffffffffffffffffffffff163373ffffffffffffffffffffffffffffffffffffffff16146128ef576040517f08c379a00000000000000000000000000000000000000000000000000000000081526004018080602001828103825260188152602001807f43414c4c45525f49535f4e4f545f415554484f52495a4544000000000000000081525060200191505060405180910390fd5b60006128fc8484846132a7565b9050600073ffffffffffffffffffffffffffffffffffffffff16600a600083815260200190815260200160002060000160009054906101000a900473ffffffffffffffffffffffffffffffffffffffff1673ffffffffffffffffffffffffffffffffffffffff1614156129d7576040517f08c379a00000000000000000000000000000000000000000000000000000000081526004018080602001828103825260148152602001807f466c696768745f646f65735f6e6f5f657869737400000000000000000000000081525060200191505060405180910390fd5b6001600a60008381526020019081526020016000206004015414612a63576040517f08c379a00000000000000000000000000000000000000000000000000000000081526004018080602001828103825260178152602001807f466c69676874446174615f77726f6e675f73746174757300000000000000000081525060200191505060405180910390fd5b6002600a60008381526020019081526020016000206004018190555050505050565b6000600454905090565b600080600160009054906101000a900473ffffffffffffffffffffffffffffffffffffffff1673ffffffffffffffffffffffffffffffffffffffff163373ffffffffffffffffffffffffffffffffffffffff1614612b55576040517f08c379a00000000000000000000000000000000000000000000000000000000081526004018080602001828103825260188152602001807f43414c4c45525f49535f4e4f545f415554484f52495a4544000000000000000081525060200191505060405180910390fd5b600073ffffffffffffffffffffffffffffffffffffffff168473ffffffffffffffffffffffffffffffffffffffff161415612bf8576040517f08c379a00000000000000000000000000000000000000000000000000000000081526004018080602001828103825260178152602001807f4d495353494e475f4149524c494e455f4144445245535300000000000000000081525060200191505060405180910390fd5b612c01846127dd565b15612c74576040517f08c379a000000000000000000000000000000000000000000000000000000000815260040180806020018281038252601a8152602001807f4149524c494e455f414c52454144595f5245474953544552454400000000000081525060200191505060405180910390fd5b6000905060009150612c84611784565b612d105760405180604001604052808481526020016002815250600760008673ffffffffffffffffffffffffffffffffffffffff1673ffffffffffffffffffffffffffffffffffffffff1681526020019081526020016000206000820151816000019080519060200190612cf9929190613471565b506020820151816001015590505060019150613111565b7face1aa9780bbc49f856ae4fe04995bd3db501976b157012131b6f92019a346948473ffffffffffffffffffffffffffffffffffffffff166040518080602001838152602001806020018381038352600a8152602001807f72656769737465722d31000000000000000000000000000000000000000000008152506020018381038252600c8152602001807f6e6565647320766f74696e670000000000000000000000000000000000000000815250602001935050505060405180910390a16000805b6006548110156130415760006005600083815260200190815260200160002060009054906101000a900473ffffffffffffffffffffffffffffffffffffffff1690506000600760008373ffffffffffffffffffffffffffffffffffffffff1673ffffffffffffffffffffffffffffffffffffffff16815260200190815260200160002090506002816001015414156130325781600860008a73ffffffffffffffffffffffffffffffffffffffff1673ffffffffffffffffffffffffffffffffffffffff168152602001908152602001600020600001600086815260200190815260200160002060000160006101000a81548173ffffffffffffffffffffffffffffffffffffffff021916908373ffffffffffffffffffffffffffffffffffffffff16021790555080600001600860008a73ffffffffffffffffffffffffffffffffffffffff1673ffffffffffffffffffffffffffffffffffffffff16815260200190815260200160002060000160008681526020019081526020016000206001019080546001816001161561010002031660029004612f739291906134f1565b506000600860008a73ffffffffffffffffffffffffffffffffffffffff1673ffffffffffffffffffffffffffffffffffffffff16815260200190815260200160002060000160008681526020019081526020016000206003018190555083600860008a73ffffffffffffffffffffffffffffffffffffffff1673ffffffffffffffffffffffffffffffffffffffff1681526020019081526020016000206000016000868152602001908152602001600020600201819055506001840193505b50508080600101915050612dd3565b5080600860008773ffffffffffffffffffffffffffffffffffffffff1673ffffffffffffffffffffffffffffffffffffffff1681526020019081526020016000206001018190555080915060405180604001604052808581526020016001815250600760008773ffffffffffffffffffffffffffffffffffffffff1673ffffffffffffffffffffffffffffffffffffffff16815260200190815260200160002060008201518160000190805190602001906130fd929190613471565b506020820151816001015590505060019250505b8360056000600654815260200190815260200160002060006101000a81548173ffffffffffffffffffffffffffffffffffffffff021916908373ffffffffffffffffffffffffffffffffffffffff16021790555060016006600082825401925050819055506000600760008673ffffffffffffffffffffffffffffffffffffffff1673ffffffffffffffffffffffffffffffffffffffff16815260200190815260200160002090507f89b886e508b5806f8c28179176052458c2bd0f54106811773b56be2d51a14e6085826000018360010154604051808473ffffffffffffffffffffffffffffffffffffffff1681526020018060200183815260200182810382528481815460018160011615610100020316600290048152602001915080546001816001161561010002031660029004801561328f5780601f106132645761010080835404028352916020019161328f565b820191906000526020600020905b81548152906001019060200180831161327257829003601f168201915b505094505050505060405180910390a1509250929050565b6000838383604051602001808473ffffffffffffffffffffffffffffffffffffffff1660601b815260140183805190602001908083835b6020831061330157805182526020820191506020810190506020830392506132de565b6001836020036101000a03801982511681845116808217855250505050505090500182815260200193505050506040516020818303038152906040528051906020012090509392505050565b600061338f83836040518060400160405280601e81526020017f536166654d6174683a207375627472616374696f6e206f766572666c6f770000815250613397565b905092915050565b6000838311158290613444576040517f08c379a00000000000000000000000000000000000000000000000000000000081526004018080602001828103825283818151815260200191508051906020019080838360005b838110156134095780820151818401526020810190506133ee565b50505050905090810190601f1680156134365780820380516001836020036101000a031916815260200191505b509250505060405180910390fd5b5060008385039050809150509392505050565b604051806040016040528060608152602001600081525090565b828054600181600116156101000203166002900490600052602060002090601f016020900481019282601f106134b257805160ff19168380011785556134e0565b828001600101855582156134e0579182015b828111156134df5782518255916020019190600101906134c4565b5b5090506134ed9190613578565b5090565b828054600181600116156101000203166002900490600052602060002090601f016020900481019282601f1061352a5780548555613567565b8280016001018555821561356757600052602060002091601f016020900482015b8281111561356657825482559160010191906001019061354b565b5b5090506135749190613578565b5090565b5b80821115613591576000816000905550600101613579565b509056fe496e73757265655f646f65735f6e6f5f65786973745f6f725f7061796f75745f646f6e65416d6f756e745f6e656564735f746f5f62655f677265617465725f7468616e5f30a26469706673582212208367a5255d6ec779aef0107c26e73632fe74e46264d84922f38a9e07594c4c6e64736f6c634300060c0033",
  "immutableReferences": {},
  "source": "// SPDX-License-Identifier: MIT\n\npragma solidity ^0.6.0;\n\nimport \"../node_modules/@openzeppelin/contracts/math/SafeMath.sol\";\nimport \"./Utils.sol\";\n\ncontract FlightSuretyData is Utils {\n    using SafeMath for uint256;\n\n    /********************************************************************************************/\n    /*                                       DATA VARIABLES                                     */\n    /********************************************************************************************/\n\n    address private contractOwner;                                      // Account used to deploy contract\n    address private authorizedContract;\n\n    uint private MINIMAL_FUND = 10;\n\n    // Blocks all state changes throughout the contract if false\n\n\n    uint numberOfApproved;\n\n    struct Airline {\n        string name;\n        // 0 : does not exist\n        // 1 waiting for approval\n        // 2 approved\n        // 3 funded (10 ether payed)\n        // 9 blocked\n        uint status;\n    }\n\n    //\n    // Multiparty Consensus Approval VotingBox\n    //\n\n    struct Ballot {\n        address voterAddress;\n        string name;\n        uint index;\n        // 0 not voted\n        // 1 approve\n        // 2 disapprove\n        uint vote;\n    }\n\n    struct VotingBox {\n        mapping(uint => Ballot) ballotList;\n        uint ballotSize;\n    }\n\n    uint private consensusThreshold = 3;\n    mapping(uint => address) private airlineList;\n    uint private airlineIndex = 0;\n    mapping(address => Airline) private airlineData;\n    mapping(address => VotingBox) private votingBoxMap;\n\n\n\n\n    /********************************************************************************************/\n    /*                                       EVENT DEFINITIONS                                  */\n    /********************************************************************************************/\n\n    event Registered(address airlineAddress, string airlineName, uint status);\n\n    event VotingEvent(address airlineAddress, string airlineName, uint status);\n\n    /**\n    * @dev Constructor\n    *      The deploying account becomes contractOwner\n    */\n    constructor\n    (\n    )\n    public\n    {\n        contractOwner = msg.sender;\n    }\n\n    /********************************************************************************************/\n    /*                                       FUNCTION MODIFIERS                                 */\n    /********************************************************************************************/\n\n\n\n    /**\n    * @dev Modifier that requires the \"ContractOwner\" account to be the function caller\n    */\n    modifier requireContractOwner()\n    {\n        // DEV require(msg.sender == contractOwner || msg.sender == authorizedContract, \"CALLER_IS_NOT_CONTRACT_OWNER\");\n        _;\n    }\n\n    modifier requireAuthorizedCaller()\n    {\n        require(msg.sender == authorizedContract, \"CALLER_IS_NOT_AUTHORIZED\");\n        _;\n    }\n\n\n\n    /********************************************************************************************/\n    /*                                       UTILITY FUNCTIONS                                  */\n    /********************************************************************************************/\n\n\n\n\n    function authorizeCaller\n    (\n        address _contract\n    )\n    external\n    requireContractOwner\n    {\n        authorizedContract = _contract;\n    }\n\n    function getContractOwner\n    (\n    )\n    view\n    public\n    returns (address)\n    {\n        return contractOwner;\n    }\n\n    function getBallotSize\n    (\n        address _address\n    )\n    view\n    public\n    returns (uint)\n    {\n        VotingBox storage votingBox = votingBoxMap[_address];\n        return votingBox.ballotSize;\n    }\n\n\n    /********************************************************************************************/\n    /*                                     SMART CONTRACT FUNCTIONS                             */\n    /********************************************************************************************/\n\n\n    function registrationNeedsVoting()\n    public\n    requireAuthorizedCaller\n    view\n    returns (bool)\n    {\n        return !(consensusThreshold > airlineIndex);\n    }\n\n    function registerAirline\n    (\n        address _airlineAddress,\n        string memory _airlineName\n    )\n    requireAuthorizedCaller\n    external\n    returns (bool success, uint votes)\n    {\n        require(_airlineAddress != address(0), 'MISSING_AIRLINE_ADDRESS');\n        require(!isRegistered(_airlineAddress), 'AIRLINE_ALREADY_REGISTERED');\n        votes = 0;\n        success = false;\n        if (!registrationNeedsVoting()) {\n            airlineData[_airlineAddress] = Airline(_airlineName, 2);\n            success = true;\n        } else {\n            emit Console('register-1', uint(_airlineAddress), 'needs voting');\n            uint counter = 0;\n            for (uint i = 0; i < airlineIndex; i++) {\n                address voterAddress = airlineList[i];\n                Airline storage a = airlineData[voterAddress];\n                if (a.status == 2) {\n                    votingBoxMap[_airlineAddress].ballotList[counter].voterAddress = voterAddress;\n                    votingBoxMap[_airlineAddress].ballotList[counter].name = a.name;\n                    votingBoxMap[_airlineAddress].ballotList[counter].vote = 0;\n                    votingBoxMap[_airlineAddress].ballotList[counter].index = counter;\n                    counter += 1;\n                }\n            }\n            votingBoxMap[_airlineAddress].ballotSize = counter;\n            votes = counter;\n            airlineData[_airlineAddress] = Airline(_airlineName, 1);\n            success = true;\n        }\n        airlineList[airlineIndex] = _airlineAddress;\n        airlineIndex += 1;\n        Airline storage airline = airlineData[_airlineAddress];\n        emit Registered(_airlineAddress, airline.name, airline.status);\n        return (success, votes);\n    }\n\n\n    function isRegistered(address airline) public view returns (bool)\n    {\n        return airlineData[airline].status > 1;\n    }\n\n    function registrationStatus(\n        address _airlineAddress\n    )\n    public\n    view\n    returns (uint)\n    {\n        return airlineData[_airlineAddress].status;\n    }\n\n    function isAirline(address airline) public view returns (bool)\n    {\n        return airlineData[airline].status > 0;\n    }\n\n    function numberOfAirlines() public view returns (uint)\n    {\n        return airlineIndex;\n    }\n\n\n    function getConsensusThreshold() public view returns (uint)\n    {\n        return consensusThreshold;\n    }\n\n\n    function getAirlineByIndex(\n        uint index\n    )\n    public\n    view\n    returns (address airlineAddress, string memory airlineName, uint airlineStatus)\n    {\n        require(index < airlineIndex, 'WRONG_INDEX');\n        airlineAddress  = airlineList[index];\n        Airline storage a = airlineData[airlineAddress];\n        airlineName = a.name;\n        airlineStatus = a.status;\n        return (airlineAddress, airlineName, airlineStatus);\n    }\n\n\n    function getAirlineByAddress(\n        address _address\n    )\n    public\n    view\n    returns (string memory airlineName, uint airlineStatus)\n    {\n        Airline storage airline = airlineData[_address];\n        require(airline.status == 0, 'WRONG_ADDRESS');\n        airlineName = airline.name;\n        airlineStatus = airline.status;\n        return (airlineName, airlineStatus);\n    }\n\n\n    function votingResultsByIndex(\n        uint _index\n    )\n    public\n    view\n    returns (uint, uint, uint, uint)\n    {\n        require(_index < airlineIndex, 'WRONG_AIRLINE_INDEX');\n        return votingResults(airlineList[_index]);\n    }\n\n\n    function votingResults\n    (\n        address _address\n    )\n    public\n    view\n    returns (uint yes, uint no, uint open, uint voters)\n    {\n        VotingBox storage votingBox = votingBoxMap[_address];\n        yes = 0;\n        no = 0;\n        open = 0;\n        for (uint i = 0; i < votingBox.ballotSize; i++) {\n            Ballot storage ballot = votingBox.ballotList[i];\n            if (ballot.vote == 0) {\n                open += 1;\n            }\n            if (ballot.vote == 1) {\n                yes += 1;\n            }\n            if (ballot.vote == 2) {\n                no += 1;\n            }\n        }\n        voters = votingBox.ballotSize;\n        return (yes, no, open, voters);\n    }\n\n\n    function voteOnAirline\n    (\n        address _candidateAddress,\n        address _voterAddress,\n        uint _vote\n    )\n    public\n\n    {\n        require(_vote == 1 || _vote == 2, 'VOTE_SHOULD_BE_1_OR_2');\n        require(_candidateAddress != address(0), 'EMPTY_CANDIDATE_ADDRESS');\n        require(_voterAddress != address(0), 'EMPTY_VOTER_ADDRESS');\n        Airline storage airline = airlineData[_candidateAddress];\n        require(airline.status == 1, 'CANDIDATE_STATUS_NOT_1');\n        VotingBox storage votingBox = votingBoxMap[_candidateAddress];\n        uint i = 0;\n        uint yeses = 0;\n        for (i = 0; i < votingBox.ballotSize; i++) {\n            Ballot storage ballot = votingBox.ballotList[i];\n            emit Console('voting-1', uint(ballot.voterAddress), 'voterAddress');\n            if (ballot.voterAddress == _voterAddress) {\n                ballot.vote = _vote;\n                emit Console('voting-1', _vote, 'in vote');\n            }\n            if (ballot.vote == 1) {\n                yeses += 1;\n            }\n        }\n        if (yeses >= (votingBox.ballotSize + 1) / 2) {\n            airline.status = 2;\n            emit VotingEvent(_candidateAddress, airline.name, airline.status);\n        }\n    }\n\n    //    ***\n    //    INSURANCE SECTION\n    //    ***\n\n    uint paybackRatioPercentage = 150;\n\n    struct FlightData {\n        address airline;\n        string flight;\n        uint256 timestamp;\n        mapping(address => uint) insurances;\n        // 1 ok (initial)\n        // 2 pay outs\n        uint status;\n        uint totalSum;\n    }\n\n    mapping(bytes32 => FlightData) flightData;\n    bytes32[] flightKeys;\n\n\n    /**\n     * @dev Buy insurance for a flight\n     *\n     */\n    function buyInsurance\n    (\n        address airline,\n        string memory flight,\n        uint256 timestamp,\n        address insuree,\n        uint amount\n    )\n    external\n    requireAuthorizedCaller\n    payable\n    {\n\n        bytes32 flightKey = getFlightKey(airline, flight, timestamp);\n        require(amount > 0, 'Amount_needs_to_be_greater_than_0');\n        require(amount > 0, 'Amount_needs_to_be_greater_than_0');\n        require(flightData[flightKey].airline != address(0), 'Flight_does_no_exist');\n        require(flightData[flightKey].insurances[insuree] == 0, 'Insuree_already_exists');\n\n\n        address(this).transfer(amount);\n        flightData[flightKey].insurances[insuree] = amount;\n\n    }\n\n    /**\n     *  @dev Credits payouts to insurees\n    */\n    function creditInsurees\n    (\n        address airline,\n        string memory flight,\n        uint256 timestamp\n    )\n    external\n    requireAuthorizedCaller\n    {\n        bytes32 flightKey = getFlightKey(airline, flight, timestamp);\n        require(flightData[flightKey].airline != address(0), 'Flight_does_no_exist');\n        require(flightData[flightKey].status == 1, 'FlightData_wrong_status');\n        flightData[flightKey].status = 2;\n    }\n\n\n    /**\n     *  @dev Transfers eligible payout funds to insuree\n     *\n    */\n    function pay\n    (\n        address airline,\n        string memory flight,\n        uint256 timestamp,\n        address payable insuree\n    )\n    external\n    payable\n    {\n\n        bytes32 flightKey = getFlightKey(airline, flight, timestamp);\n        require(flightData[flightKey].airline != address(0), 'Flight_does_no_exist');\n        require(flightData[flightKey].insurances[insuree] > 0, 'Insuree_does_no_exist_or_payout_done');\n        require(flightData[flightKey].status != 2, 'No_payout');\n        insuree.transfer(flightData[flightKey].insurances[insuree]);\n    }\n\n    /**\n     * @dev Initial funding for the insurance. Unless there are too many delayed flights\n     *      resulting in insurance payouts, the contract should be self-sustaining\n     *\n     */\n    function fund\n    (\n    )\n    public\n    payable\n    {\n        Airline memory airline = airlineData[msg.sender];\n        require(airline.status != 0, 'AIRLINE_NOT_REGISTERED');\n        require(airline.status != 3, 'ALREADY_FUNDED');\n        require(airline.status == 2, 'UNKNOWN_STATUS');\n        require(msg.value >= MINIMAL_FUND, 'NOT_ENOUGH');\n\n        payable(address(this)).transfer(MINIMAL_FUND);\n\n        uint amountToReturn = msg.value.sub(MINIMAL_FUND);\n        msg.sender.transfer(amountToReturn);\n        airlineData[msg.sender].status = 3;\n    }\n\n    function getFlightKey\n    (\n        address airline,\n        string memory flight,\n        uint256 timestamp\n    )\n    pure\n    internal\n    returns (bytes32)\n    {\n        return keccak256(abi.encodePacked(airline, flight, timestamp));\n    }\n\n    /**\n    * @dev Fallback function for funding smart contract.\n    *\n    */\n    fallback()\n    external\n    payable\n    {\n\n    }\n\n    receive()\n    external\n    payable\n    {\n\n    }\n\n\n}\n\n",
  "sourcePath": "/Users/tonibuenter/_proj/misc/udacity/u-blockchain4-flightsurety/contracts/FlightSuretyData.sol",
  "compiler": {
    "name": "solc",
    "version": "0.6.12+commit.27d51765.Emscripten.clang"
  },
  "schemaVersion": "3.4.1",
  "updatedAt": "2021-06-09T07:23:24.036Z",
  "networkType": "ethereum",
  "devdoc": {
    "kind": "dev",
    "methods": {
      "buyInsurance(address,string,uint256,address,uint256)": {
        "details": "Buy insurance for a flight"
      },
      "constructor": {
        "details": "Constructor      The deploying account becomes contractOwner"
      },
      "creditInsurees(address,string,uint256)": {
        "details": "Credits payouts to insurees"
      },
      "fund()": {
        "details": "Initial funding for the insurance. Unless there are too many delayed flights      resulting in insurance payouts, the contract should be self-sustaining"
      },
      "pay(address,string,uint256,address)": {
        "details": "Transfers eligible payout funds to insuree"
      }
    },
    "version": 1
  },
  "userdoc": {
    "kind": "user",
    "methods": {},
    "version": 1
  }
}