{
  "contractName": "FlightSuretyApp",
  "abi": [
    {
      "inputs": [
        {
          "internalType": "address",
          "name": "_dataContract",
          "type": "address"
        }
      ],
      "stateMutability": "nonpayable",
      "type": "constructor"
    },
    {
      "anonymous": false,
      "inputs": [
        {
          "indexed": false,
          "internalType": "string",
          "name": "origin",
          "type": "string"
        },
        {
          "indexed": false,
          "internalType": "uint256",
          "name": "level",
          "type": "uint256"
        },
        {
          "indexed": false,
          "internalType": "string",
          "name": "info",
          "type": "string"
        }
      ],
      "name": "Console",
      "type": "event"
    },
    {
      "anonymous": false,
      "inputs": [
        {
          "indexed": false,
          "internalType": "address",
          "name": "airline",
          "type": "address"
        },
        {
          "indexed": false,
          "internalType": "string",
          "name": "flight",
          "type": "string"
        },
        {
          "indexed": false,
          "internalType": "uint256",
          "name": "timestamp",
          "type": "uint256"
        },
        {
          "indexed": false,
          "internalType": "uint8",
          "name": "status",
          "type": "uint8"
        }
      ],
      "name": "FlightStatusInfo",
      "type": "event"
    },
    {
      "anonymous": false,
      "inputs": [
        {
          "indexed": false,
          "internalType": "address",
          "name": "airline",
          "type": "address"
        },
        {
          "indexed": false,
          "internalType": "string",
          "name": "flight",
          "type": "string"
        },
        {
          "indexed": false,
          "internalType": "uint256",
          "name": "timestamp",
          "type": "uint256"
        },
        {
          "indexed": false,
          "internalType": "uint8",
          "name": "status",
          "type": "uint8"
        }
      ],
      "name": "OracleReport",
      "type": "event"
    },
    {
      "anonymous": false,
      "inputs": [
        {
          "indexed": false,
          "internalType": "uint8",
          "name": "index",
          "type": "uint8"
        },
        {
          "indexed": false,
          "internalType": "address",
          "name": "airline",
          "type": "address"
        },
        {
          "indexed": false,
          "internalType": "string",
          "name": "flight",
          "type": "string"
        },
        {
          "indexed": false,
          "internalType": "uint256",
          "name": "timestamp",
          "type": "uint256"
        }
      ],
      "name": "OracleRequest",
      "type": "event"
    },
    {
      "inputs": [],
      "name": "REGISTRATION_FEE",
      "outputs": [
        {
          "internalType": "uint256",
          "name": "",
          "type": "uint256"
        }
      ],
      "stateMutability": "view",
      "type": "function",
      "constant": true
    },
    {
      "inputs": [
        {
          "internalType": "bytes1",
          "name": "b",
          "type": "bytes1"
        }
      ],
      "name": "char",
      "outputs": [
        {
          "internalType": "bytes1",
          "name": "c",
          "type": "bytes1"
        }
      ],
      "stateMutability": "pure",
      "type": "function",
      "constant": true
    },
    {
      "inputs": [
        {
          "internalType": "string",
          "name": "origin",
          "type": "string"
        },
        {
          "internalType": "uint256",
          "name": "level",
          "type": "uint256"
        },
        {
          "internalType": "string",
          "name": "info",
          "type": "string"
        }
      ],
      "name": "log",
      "outputs": [],
      "stateMutability": "nonpayable",
      "type": "function"
    },
    {
      "inputs": [
        {
          "internalType": "address",
          "name": "x",
          "type": "address"
        }
      ],
      "name": "toAsciiString",
      "outputs": [
        {
          "internalType": "string",
          "name": "",
          "type": "string"
        }
      ],
      "stateMutability": "pure",
      "type": "function",
      "constant": true
    },
    {
      "inputs": [
        {
          "internalType": "address payable",
          "name": "_dataContract",
          "type": "address"
        }
      ],
      "name": "setDataContract",
      "outputs": [],
      "stateMutability": "nonpayable",
      "type": "function"
    },
    {
      "inputs": [],
      "name": "isOperational",
      "outputs": [
        {
          "internalType": "bool",
          "name": "",
          "type": "bool"
        }
      ],
      "stateMutability": "view",
      "type": "function",
      "constant": true
    },
    {
      "inputs": [
        {
          "internalType": "bool",
          "name": "_operational",
          "type": "bool"
        }
      ],
      "name": "setOperational",
      "outputs": [],
      "stateMutability": "nonpayable",
      "type": "function"
    },
    {
      "inputs": [],
      "name": "getDataContract",
      "outputs": [
        {
          "internalType": "address",
          "name": "",
          "type": "address"
        }
      ],
      "stateMutability": "view",
      "type": "function",
      "constant": true
    },
    {
      "inputs": [
        {
          "internalType": "address",
          "name": "_airlineAddress",
          "type": "address"
        },
        {
          "internalType": "string",
          "name": "_airlineName",
          "type": "string"
        }
      ],
      "name": "registerAirline",
      "outputs": [
        {
          "internalType": "bool",
          "name": "success",
          "type": "bool"
        },
        {
          "internalType": "uint256",
          "name": "votes",
          "type": "uint256"
        }
      ],
      "stateMutability": "payable",
      "type": "function",
      "payable": true
    },
    {
      "inputs": [
        {
          "internalType": "address",
          "name": "_address",
          "type": "address"
        }
      ],
      "name": "isRegistered",
      "outputs": [
        {
          "internalType": "bool",
          "name": "",
          "type": "bool"
        }
      ],
      "stateMutability": "view",
      "type": "function",
      "constant": true
    },
    {
      "inputs": [
        {
          "internalType": "address",
          "name": "_address",
          "type": "address"
        }
      ],
      "name": "registrationStatus",
      "outputs": [
        {
          "internalType": "uint256",
          "name": "",
          "type": "uint256"
        }
      ],
      "stateMutability": "view",
      "type": "function",
      "constant": true
    },
    {
      "inputs": [
        {
          "internalType": "address",
          "name": "_address",
          "type": "address"
        }
      ],
      "name": "isAirline",
      "outputs": [
        {
          "internalType": "bool",
          "name": "",
          "type": "bool"
        }
      ],
      "stateMutability": "view",
      "type": "function",
      "constant": true
    },
    {
      "inputs": [
        {
          "internalType": "address",
          "name": "_candidateAddress",
          "type": "address"
        },
        {
          "internalType": "address",
          "name": "_voterAddress",
          "type": "address"
        },
        {
          "internalType": "uint256",
          "name": "_vote",
          "type": "uint256"
        }
      ],
      "name": "voteOnAirline",
      "outputs": [],
      "stateMutability": "nonpayable",
      "type": "function"
    },
    {
      "inputs": [
        {
          "internalType": "uint256",
          "name": "_index",
          "type": "uint256"
        }
      ],
      "name": "votingResultsByIndex",
      "outputs": [
        {
          "internalType": "uint256",
          "name": "",
          "type": "uint256"
        },
        {
          "internalType": "uint256",
          "name": "",
          "type": "uint256"
        },
        {
          "internalType": "uint256",
          "name": "",
          "type": "uint256"
        },
        {
          "internalType": "uint256",
          "name": "",
          "type": "uint256"
        }
      ],
      "stateMutability": "view",
      "type": "function",
      "constant": true
    },
    {
      "inputs": [
        {
          "internalType": "address",
          "name": "_address",
          "type": "address"
        }
      ],
      "name": "votingResults",
      "outputs": [
        {
          "internalType": "uint256",
          "name": "",
          "type": "uint256"
        },
        {
          "internalType": "uint256",
          "name": "",
          "type": "uint256"
        },
        {
          "internalType": "uint256",
          "name": "",
          "type": "uint256"
        },
        {
          "internalType": "uint256",
          "name": "",
          "type": "uint256"
        }
      ],
      "stateMutability": "view",
      "type": "function",
      "constant": true
    },
    {
      "inputs": [
        {
          "internalType": "string",
          "name": "flight",
          "type": "string"
        },
        {
          "internalType": "uint256",
          "name": "timestamp",
          "type": "uint256"
        }
      ],
      "name": "registerFlight",
      "outputs": [],
      "stateMutability": "nonpayable",
      "type": "function"
    },
    {
      "inputs": [
        {
          "internalType": "address",
          "name": "_airline",
          "type": "address"
        },
        {
          "internalType": "string",
          "name": "_flight",
          "type": "string"
        },
        {
          "internalType": "uint256",
          "name": "_timestamp",
          "type": "uint256"
        }
      ],
      "name": "isFlightRegistered",
      "outputs": [
        {
          "internalType": "bool",
          "name": "",
          "type": "bool"
        }
      ],
      "stateMutability": "view",
      "type": "function",
      "constant": true
    },
    {
      "inputs": [
        {
          "internalType": "address",
          "name": "airline",
          "type": "address"
        },
        {
          "internalType": "string",
          "name": "flight",
          "type": "string"
        },
        {
          "internalType": "uint256",
          "name": "timestamp",
          "type": "uint256"
        }
      ],
      "name": "fetchFlightStatus",
      "outputs": [],
      "stateMutability": "nonpayable",
      "type": "function"
    },
    {
      "inputs": [
        {
          "internalType": "address",
          "name": "airline",
          "type": "address"
        },
        {
          "internalType": "string",
          "name": "flight",
          "type": "string"
        },
        {
          "internalType": "uint256",
          "name": "timestamp",
          "type": "uint256"
        }
      ],
      "name": "buyInsurance",
      "outputs": [],
      "stateMutability": "payable",
      "type": "function",
      "payable": true
    },
    {
      "inputs": [],
      "name": "sendToDataContract",
      "outputs": [],
      "stateMutability": "payable",
      "type": "function",
      "payable": true
    },
    {
      "inputs": [],
      "name": "registerOracle",
      "outputs": [],
      "stateMutability": "payable",
      "type": "function",
      "payable": true
    },
    {
      "inputs": [],
      "name": "isOracleRegistered",
      "outputs": [
        {
          "internalType": "bool",
          "name": "",
          "type": "bool"
        }
      ],
      "stateMutability": "view",
      "type": "function",
      "constant": true
    },
    {
      "inputs": [],
      "name": "getMyIndexes",
      "outputs": [
        {
          "internalType": "uint8[3]",
          "name": "",
          "type": "uint8[3]"
        }
      ],
      "stateMutability": "view",
      "type": "function",
      "constant": true
    },
    {
      "inputs": [
        {
          "internalType": "uint8",
          "name": "index",
          "type": "uint8"
        },
        {
          "internalType": "address",
          "name": "airline",
          "type": "address"
        },
        {
          "internalType": "string",
          "name": "flight",
          "type": "string"
        },
        {
          "internalType": "uint256",
          "name": "timestamp",
          "type": "uint256"
        },
        {
          "internalType": "uint8",
          "name": "statusCode",
          "type": "uint8"
        }
      ],
      "name": "submitOracleResponse",
      "outputs": [],
      "stateMutability": "nonpayable",
      "type": "function"
    }
  ],
  "bytecode": "0x608060405260018060146101000a81548160ff0219169083151502179055506000600460006101000a81548160ff021916908360ff16021790555034801561004657600080fd5b50604051613afa380380613afa8339818101604052602081101561006957600080fd5b810190808051906020019092919050505080600160006101000a81548173ffffffffffffffffffffffffffffffffffffffff021916908373ffffffffffffffffffffffffffffffffffffffff160217905550600160009054906101000a900473ffffffffffffffffffffffffffffffffffffffff16600260006101000a81548173ffffffffffffffffffffffffffffffffffffffff021916908373ffffffffffffffffffffffffffffffffffffffff160217905550336000806101000a81548173ffffffffffffffffffffffffffffffffffffffff021916908373ffffffffffffffffffffffffffffffffffffffff1602179055505061398c8061016e6000396000f3fe60806040526004361061014a5760003560e01c8063500b94aa116100b65780639c9161c51161006f5780639c9161c514610a23578063c10f270014610a87578063c3c5a54714610b93578063cd905dff14610bfa578063ee38a74914610c27578063f83f11c014610d1f5761014a565b8063500b94aa146107075780635970e089146107445780635f1cc0e6146108ad578063602e03b41461090057806364b4f7511461096557806369f9ad2f146109905761014a565b806326cad2151161010857806326cad215146103f85780632c6e7598146104025780632f6721d0146104cc578063339d2590146105b157806339cfc995146105bb57806345c831481461068d5761014a565b80623cc0441461014f57806303959bb7146101ca5780630d1db1f01461021b5780630e248a1114610248578063241a53cb146102af57806324e0fbaa146103b7575b600080fd5b34801561015b57600080fd5b506101c86004803603606081101561017257600080fd5b81019080803573ffffffffffffffffffffffffffffffffffffffff169060200190929190803573ffffffffffffffffffffffffffffffffffffffff16906020019092919080359060200190929190505050610e11565b005b3480156101d657600080fd5b50610219600480360360208110156101ed57600080fd5b81019080803573ffffffffffffffffffffffffffffffffffffffff169060200190929190505050611044565b005b34801561022757600080fd5b506102306111ac565b60405180821515815260200191505060405180910390f35b34801561025457600080fd5b506102976004803603602081101561026b57600080fd5b81019080803573ffffffffffffffffffffffffffffffffffffffff169060200190929190505050611203565b60405180821515815260200191505060405180910390f35b3480156102bb57600080fd5b5061039f600480360360608110156102d257600080fd5b81019080803573ffffffffffffffffffffffffffffffffffffffff1690602001909291908035906020019064010000000081111561030f57600080fd5b82018360208201111561032157600080fd5b8035906020019184600183028401116401000000008311171561034357600080fd5b91908080601f016020809104026020016040519081016040528093929190818152602001838380828437600081840152601f19601f82011690508083019250505050505050919291929080359060200190929190505050611394565b60405180821515815260200191505060405180910390f35b3480156103c357600080fd5b506103cc6114d8565b604051808273ffffffffffffffffffffffffffffffffffffffff16815260200191505060405180910390f35b610400611502565b005b34801561040e57600080fd5b506104516004803603602081101561042557600080fd5b81019080803573ffffffffffffffffffffffffffffffffffffffff16906020019092919050505061156d565b6040518080602001828103825283818151815260200191508051906020019080838360005b83811015610491578082015181840152602081019050610476565b50505050905090810190601f1680156104be5780820380516001836020036101000a031916815260200191505b509250505060405180910390f35b6105af600480360360608110156104e257600080fd5b81019080803573ffffffffffffffffffffffffffffffffffffffff1690602001909291908035906020019064010000000081111561051f57600080fd5b82018360208201111561053157600080fd5b8035906020019184600183028401116401000000008311171561055357600080fd5b91908080601f016020809104026020016040519081016040528093929190818152602001838380828437600081840152601f19601f820116905080830192505050505050509192919290803590602001909291905050506116d0565b005b6105b9611a46565b005b3480156105c757600080fd5b5061068b600480360360408110156105de57600080fd5b81019080803590602001906401000000008111156105fb57600080fd5b82018360208201111561060d57600080fd5b8035906020019184600183028401116401000000008311171561062f57600080fd5b91908080601f016020809104026020016040519081016040528093929190818152602001838380828437600081840152601f19601f82011690508083019250505050505050919291929080359060200190929190505050611c58565b005b34801561069957600080fd5b506106dc600480360360208110156106b057600080fd5b81019080803573ffffffffffffffffffffffffffffffffffffffff169060200190929190505050611d74565b6040518085815260200184815260200183815260200182815260200194505050505060405180910390f35b34801561071357600080fd5b506107426004803603602081101561072a57600080fd5b81019080803515159060200190929190505050611f30565b005b34801561075057600080fd5b506108ab6004803603606081101561076757600080fd5b810190808035906020019064010000000081111561078457600080fd5b82018360208201111561079657600080fd5b803590602001918460018302840111640100000000831117156107b857600080fd5b91908080601f016020809104026020016040519081016040528093929190818152602001838380828437600081840152601f19601f820116905080830192505050505050509192919290803590602001909291908035906020019064010000000081111561082557600080fd5b82018360208201111561083757600080fd5b8035906020019184600183028401116401000000008311171561085957600080fd5b91908080601f016020809104026020016040519081016040528093929190818152602001838380828437600081840152601f19601f82011690508083019250505050505050919291929050505061200e565b005b3480156108b957600080fd5b506108c2612124565b6040518082600360200280838360005b838110156108ed5780820151818401526020810190506108d2565b5050505090500191505060405180910390f35b34801561090c57600080fd5b5061094f6004803603602081101561092357600080fd5b81019080803573ffffffffffffffffffffffffffffffffffffffff169060200190929190505050612297565b6040518082815260200191505060405180910390f35b34801561097157600080fd5b5061097a612428565b6040518082815260200191505060405180910390f35b34801561099c57600080fd5b506109eb600480360360208110156109b357600080fd5b8101908080357effffffffffffffffffffffffffffffffffffffffffffffffffffffffffffff19169060200190929190505050612434565b60405180827effffffffffffffffffffffffffffffffffffffffffffffffffffffffffffff1916815260200191505060405180910390f35b348015610a2f57600080fd5b50610a5c60048036036020811015610a4657600080fd5b8101908080359060200190929190505050612468565b6040518085815260200184815260200183815260200182815260200194505050505060405180910390f35b348015610a9357600080fd5b50610b91600480360360a0811015610aaa57600080fd5b81019080803560ff169060200190929190803573ffffffffffffffffffffffffffffffffffffffff16906020019092919080359060200190640100000000811115610af457600080fd5b820183602082011115610b0657600080fd5b80359060200191846001830284011164010000000083111715610b2857600080fd5b91908080601f016020809104026020016040519081016040528093929190818152602001838380828437600081840152601f19601f82011690508083019250505050505050919291929080359060200190929190803560ff16906020019092919050505061260e565b005b348015610b9f57600080fd5b50610be260048036036020811015610bb657600080fd5b81019080803573ffffffffffffffffffffffffffffffffffffffff169060200190929190505050612b7f565b60405180821515815260200191505060405180910390f35b348015610c0657600080fd5b50610c0f612d10565b60405180821515815260200191505060405180910390f35b610d0060048036036040811015610c3d57600080fd5b81019080803573ffffffffffffffffffffffffffffffffffffffff16906020019092919080359060200190640100000000811115610c7a57600080fd5b820183602082011115610c8c57600080fd5b80359060200191846001830284011164010000000083111715610cae57600080fd5b91908080601f016020809104026020016040519081016040528093929190818152602001838380828437600081840152601f19601f820116905080830192505050505050509192919290505050612d27565b6040518083151581526020018281526020019250505060405180910390f35b348015610d2b57600080fd5b50610e0f60048036036060811015610d4257600080fd5b81019080803573ffffffffffffffffffffffffffffffffffffffff16906020019092919080359060200190640100000000811115610d7f57600080fd5b820183602082011115610d9157600080fd5b80359060200191846001830284011164010000000083111715610db357600080fd5b91908080601f016020809104026020016040519081016040528093929190818152602001838380828437600081840152601f19601f8201169050808301925050505050505091929192908035906020019092919050505061320c565b005b600073ffffffffffffffffffffffffffffffffffffffff16600260009054906101000a900473ffffffffffffffffffffffffffffffffffffffff1673ffffffffffffffffffffffffffffffffffffffff161415610ed6576040517f08c379a00000000000000000000000000000000000000000000000000000000081526004018080602001828103825260108152602001807f4e4f5f444154415f434f4e54524143540000000000000000000000000000000081525060200191505060405180910390fd5b3373ffffffffffffffffffffffffffffffffffffffff168273ffffffffffffffffffffffffffffffffffffffff1614610f77576040517f08c379a00000000000000000000000000000000000000000000000000000000081526004018080602001828103825260148152602001807f4f4e4c595f53454e4445525f43414e5f564f544500000000000000000000000081525060200191505060405180910390fd5b600260009054906101000a900473ffffffffffffffffffffffffffffffffffffffff1673ffffffffffffffffffffffffffffffffffffffff16623cc0448484846040518463ffffffff1660e01b8152600401808473ffffffffffffffffffffffffffffffffffffffff1681526020018373ffffffffffffffffffffffffffffffffffffffff1681526020018281526020019350505050600060405180830381600087803b15801561102757600080fd5b505af115801561103b573d6000803e3d6000fd5b50505050505050565b60008054906101000a900473ffffffffffffffffffffffffffffffffffffffff1673ffffffffffffffffffffffffffffffffffffffff163373ffffffffffffffffffffffffffffffffffffffff1614611105576040517f08c379a000000000000000000000000000000000000000000000000000000000815260040180806020018281038252601c8152602001807f43414c4c45525f49535f4e4f545f434f4e54524143545f4f574e45520000000081525060200191505060405180910390fd5b80600160006101000a81548173ffffffffffffffffffffffffffffffffffffffff021916908373ffffffffffffffffffffffffffffffffffffffff160217905550600160009054906101000a900473ffffffffffffffffffffffffffffffffffffffff16600260006101000a81548173ffffffffffffffffffffffffffffffffffffffff021916908373ffffffffffffffffffffffffffffffffffffffff16021790555050565b6000600560003373ffffffffffffffffffffffffffffffffffffffff1673ffffffffffffffffffffffffffffffffffffffff16815260200190815260200160002060000160009054906101000a900460ff16905090565b60008073ffffffffffffffffffffffffffffffffffffffff16600260009054906101000a900473ffffffffffffffffffffffffffffffffffffffff1673ffffffffffffffffffffffffffffffffffffffff1614156112c9576040517f08c379a00000000000000000000000000000000000000000000000000000000081526004018080602001828103825260108152602001807f4e4f5f444154415f434f4e54524143540000000000000000000000000000000081525060200191505060405180910390fd5b600260009054906101000a900473ffffffffffffffffffffffffffffffffffffffff1673ffffffffffffffffffffffffffffffffffffffff16630e248a11836040518263ffffffff1660e01b8152600401808273ffffffffffffffffffffffffffffffffffffffff16815260200191505060206040518083038186803b15801561135257600080fd5b505afa158015611366573d6000803e3d6000fd5b505050506040513d602081101561137c57600080fd5b81019080805190602001909291905050509050919050565b6000600260009054906101000a900473ffffffffffffffffffffffffffffffffffffffff1673ffffffffffffffffffffffffffffffffffffffff1663241a53cb8585856040518463ffffffff1660e01b8152600401808473ffffffffffffffffffffffffffffffffffffffff16815260200180602001838152602001828103825284818151815260200191508051906020019080838360005b8381101561144857808201518184015260208101905061142d565b50505050905090810190601f1680156114755780820380516001836020036101000a031916815260200191505b5094505050505060206040518083038186803b15801561149457600080fd5b505afa1580156114a8573d6000803e3d6000fd5b505050506040513d60208110156114be57600080fd5b810190808051906020019092919050505090509392505050565b6000600160009054906101000a900473ffffffffffffffffffffffffffffffffffffffff16905090565b600160009054906101000a900473ffffffffffffffffffffffffffffffffffffffff1673ffffffffffffffffffffffffffffffffffffffff166108fc349081150290604051600060405180830381858888f1935050505015801561156a573d6000803e3d6000fd5b50565b606080602867ffffffffffffffff8111801561158857600080fd5b506040519080825280601f01601f1916602001820160405280156115bb5781602001600182028036833780820191505090505b50905060005b60148110156116c65760008160130360080260020a8573ffffffffffffffffffffffffffffffffffffffff16816115f457fe5b0460f81b9050600060108260f81c60ff168161160c57fe5b0460f81b905060008160f81c6010028360f81c0360f81b905061162e82612434565b85856002028151811061163d57fe5b60200101907effffffffffffffffffffffffffffffffffffffffffffffffffffffffffffff1916908160001a90535061167581612434565b85600186600202018151811061168757fe5b60200101907effffffffffffffffffffffffffffffffffffffffffffffffffffffffffffff1916908160001a90535050505080806001019150506115c1565b5080915050919050565b600260009054906101000a900473ffffffffffffffffffffffffffffffffffffffff1673ffffffffffffffffffffffffffffffffffffffff1663f92e0ecc848484336040518563ffffffff1660e01b8152600401808573ffffffffffffffffffffffffffffffffffffffff168152602001806020018481526020018373ffffffffffffffffffffffffffffffffffffffff168152602001828103825285818151815260200191508051906020019080838360005b8381101561179f578082015181840152602081019050611784565b50505050905090810190601f1680156117cc5780820380516001836020036101000a031916815260200191505b509550505050505060206040518083038186803b1580156117ec57600080fd5b505afa158015611800573d6000803e3d6000fd5b505050506040513d602081101561181657600080fd5b81019080805190602001909291905050501561189a576040517f08c379a00000000000000000000000000000000000000000000000000000000081526004018080602001828103825260168152602001807f494e53555245455f414c52454144595f4558495354530000000000000000000081525060200191505060405180910390fd5b600160009054906101000a900473ffffffffffffffffffffffffffffffffffffffff1673ffffffffffffffffffffffffffffffffffffffff166108fc349081150290604051600060405180830381858888f19350505050158015611902573d6000803e3d6000fd5b50600260009054906101000a900473ffffffffffffffffffffffffffffffffffffffff1673ffffffffffffffffffffffffffffffffffffffff1663a305e6b984848433346040518663ffffffff1660e01b8152600401808673ffffffffffffffffffffffffffffffffffffffff168152602001806020018581526020018473ffffffffffffffffffffffffffffffffffffffff168152602001838152602001828103825286818151815260200191508051906020019080838360005b838110156119d95780820151818401526020810190506119be565b50505050905090810190601f168015611a065780820380516001836020036101000a031916815260200191505b509650505050505050600060405180830381600087803b158015611a2957600080fd5b505af1158015611a3d573d6000803e3d6000fd5b50505050505050565b611a4e6111ac565b15611ac1576040517f08c379a00000000000000000000000000000000000000000000000000000000081526004018080602001828103825260198152602001807f4f5241434c455f414c52454144595f524547495354455245440000000000000081525060200191505060405180910390fd5b670de0b6b3a7640000341015611b3f576040517f08c379a000000000000000000000000000000000000000000000000000000000815260040180806020018281038252601c8152602001807f524547495354524154494f4e5f4645452049535f52455155495245440000000081525060200191505060405180910390fd5b600160009054906101000a900473ffffffffffffffffffffffffffffffffffffffff1673ffffffffffffffffffffffffffffffffffffffff166108fc670de0b6b3a76400009081150290604051600060405180830381858888f19350505050158015611baf573d6000803e3d6000fd5b50611bb86137d6565b611bc133613445565b9050604051806040016040528060011515815260200182815250600560003373ffffffffffffffffffffffffffffffffffffffff1673ffffffffffffffffffffffffffffffffffffffff16815260200190815260200160002060008201518160000160006101000a81548160ff021916908315150217905550602082015181600101906003611c519291906137f8565b5090505050565b600260009054906101000a900473ffffffffffffffffffffffffffffffffffffffff1673ffffffffffffffffffffffffffffffffffffffff16633cc0be9c3384846040518463ffffffff1660e01b8152600401808473ffffffffffffffffffffffffffffffffffffffff16815260200180602001838152602001828103825284818151815260200191508051906020019080838360005b83811015611d0a578082015181840152602081019050611cef565b50505050905090810190601f168015611d375780820380516001836020036101000a031916815260200191505b50945050505050600060405180830381600087803b158015611d5857600080fd5b505af1158015611d6c573d6000803e3d6000fd5b505050505050565b600080600080600073ffffffffffffffffffffffffffffffffffffffff16600260009054906101000a900473ffffffffffffffffffffffffffffffffffffffff1673ffffffffffffffffffffffffffffffffffffffff161415611e3f576040517f08c379a00000000000000000000000000000000000000000000000000000000081526004018080602001828103825260108152602001807f4e4f5f444154415f434f4e54524143540000000000000000000000000000000081525060200191505060405180910390fd5b600260009054906101000a900473ffffffffffffffffffffffffffffffffffffffff1673ffffffffffffffffffffffffffffffffffffffff166345c83148866040518263ffffffff1660e01b8152600401808273ffffffffffffffffffffffffffffffffffffffff16815260200191505060806040518083038186803b158015611ec857600080fd5b505afa158015611edc573d6000803e3d6000fd5b505050506040513d6080811015611ef257600080fd5b810190808051906020019092919080519060200190929190805190602001909291908051906020019092919050505093509350935093509193509193565b60008054906101000a900473ffffffffffffffffffffffffffffffffffffffff1673ffffffffffffffffffffffffffffffffffffffff163373ffffffffffffffffffffffffffffffffffffffff1614611ff1576040517f08c379a000000000000000000000000000000000000000000000000000000000815260040180806020018281038252601c8152602001807f43414c4c45525f49535f4e4f545f434f4e54524143545f4f574e45520000000081525060200191505060405180910390fd5b80600160146101000a81548160ff02191690831515021790555050565b7face1aa9780bbc49f856ae4fe04995bd3db501976b157012131b6f92019a34694838383604051808060200184815260200180602001838103835286818151815260200191508051906020019080838360005b8381101561207c578082015181840152602081019050612061565b50505050905090810190601f1680156120a95780820380516001836020036101000a031916815260200191505b50838103825284818151815260200191508051906020019080838360005b838110156120e25780820151818401526020810190506120c7565b50505050905090810190601f16801561210f5780820380516001836020036101000a031916815260200191505b509550505050505060405180910390a1505050565b61212c6137d6565b600560003373ffffffffffffffffffffffffffffffffffffffff1673ffffffffffffffffffffffffffffffffffffffff16815260200190815260200160002060000160009054906101000a900460ff166121ee576040517f08c379a000000000000000000000000000000000000000000000000000000000815260040180806020018281038252601b8152602001807f4e6f745f726567697374657265645f61735f616e5f6f7261636c65000000000081525060200191505060405180910390fd5b600560003373ffffffffffffffffffffffffffffffffffffffff1673ffffffffffffffffffffffffffffffffffffffff16815260200190815260200160002060010160038060200260405190810160405280929190826003801561228d576020028201916000905b82829054906101000a900460ff1660ff16815260200190600101906020826000010492830192600103820291508084116122565790505b5050505050905090565b60008073ffffffffffffffffffffffffffffffffffffffff16600260009054906101000a900473ffffffffffffffffffffffffffffffffffffffff1673ffffffffffffffffffffffffffffffffffffffff16141561235d576040517f08c379a00000000000000000000000000000000000000000000000000000000081526004018080602001828103825260108152602001807f4e4f5f444154415f434f4e54524143540000000000000000000000000000000081525060200191505060405180910390fd5b600260009054906101000a900473ffffffffffffffffffffffffffffffffffffffff1673ffffffffffffffffffffffffffffffffffffffff1663602e03b4836040518263ffffffff1660e01b8152600401808273ffffffffffffffffffffffffffffffffffffffff16815260200191505060206040518083038186803b1580156123e657600080fd5b505afa1580156123fa573d6000803e3d6000fd5b505050506040513d602081101561241057600080fd5b81019080805190602001909291905050509050919050565b670de0b6b3a764000081565b6000600a8260f81c60ff1610156124565760308260f81c0160f81b9050612463565b60578260f81c0160f81b90505b919050565b600080600080600073ffffffffffffffffffffffffffffffffffffffff16600260009054906101000a900473ffffffffffffffffffffffffffffffffffffffff1673ffffffffffffffffffffffffffffffffffffffff161415612533576040517f08c379a00000000000000000000000000000000000000000000000000000000081526004018080602001828103825260108152602001807f4e4f5f444154415f434f4e54524143540000000000000000000000000000000081525060200191505060405180910390fd5b600260009054906101000a900473ffffffffffffffffffffffffffffffffffffffff1673ffffffffffffffffffffffffffffffffffffffff16639c9161c5866040518263ffffffff1660e01b81526004018082815260200191505060806040518083038186803b1580156125a657600080fd5b505afa1580156125ba573d6000803e3d6000fd5b505050506040513d60808110156125d057600080fd5b810190808051906020019092919080519060200190929190805190602001909291908051906020019092919050505093509350935093509193509193565b8460ff16600560003373ffffffffffffffffffffffffffffffffffffffff1673ffffffffffffffffffffffffffffffffffffffff16815260200190815260200160002060010160006003811061266057fe5b602091828204019190069054906101000a900460ff1660ff1614806126ed57508460ff16600560003373ffffffffffffffffffffffffffffffffffffffff1673ffffffffffffffffffffffffffffffffffffffff1681526020019081526020016000206001016001600381106126d257fe5b602091828204019190069054906101000a900460ff1660ff16145b8061276057508460ff16600560003373ffffffffffffffffffffffffffffffffffffffff1673ffffffffffffffffffffffffffffffffffffffff16815260200190815260200160002060010160026003811061274557fe5b602091828204019190069054906101000a900460ff1660ff16145b6127b5576040517f08c379a00000000000000000000000000000000000000000000000000000000081526004018080602001828103825260238152602001806139346023913960400191505060405180910390fd5b600085858585604051602001808560ff1660f81b81526001018473ffffffffffffffffffffffffffffffffffffffff1660601b815260140183805190602001908083835b6020831061281c57805182526020820191506020810190506020830392506127f9565b6001836020036101000a0380198251168184511680821785525050505050509050018281526020019450505050506040516020818303038152906040528051906020012090506006600082815260200190815260200160002060000160149054906101000a900460ff166128db576040517f08c379a000000000000000000000000000000000000000000000000000000000815260040180806020018281038252602f8152602001806138bb602f913960400191505060405180910390fd5b6006600082815260200190815260200160002060010160008360ff1660ff168152602001908152602001600020339080600181540180825580915050600190039060005260206000200160009091909190916101000a81548173ffffffffffffffffffffffffffffffffffffffff021916908373ffffffffffffffffffffffffffffffffffffffff1602179055507f43c853095c2752648493c88b4baac4d580d2594ffb00c6f1d4242d844514f78385858585604051808573ffffffffffffffffffffffffffffffffffffffff168152602001806020018481526020018360ff168152602001828103825285818151815260200191508051906020019080838360005b838110156129f95780820151818401526020810190506129de565b50505050905090810190601f168015612a265780820380516001836020036101000a031916815260200191505b509550505050505060405180910390a160036006600083815260200190815260200160002060010160008460ff1660ff1681526020019081526020016000208054905010612b775760006006600083815260200190815260200160002060000160146101000a81548160ff0219169083151502179055507fe23f5229de535c091e3b7bec2665f5d698192d3b31393066e8987b7a05076b6c85858585604051808573ffffffffffffffffffffffffffffffffffffffff168152602001806020018481526020018360ff168152602001828103825285818151815260200191508051906020019080838360005b83811015612b2d578082015181840152602081019050612b12565b50505050905090810190601f168015612b5a5780820380516001836020036101000a031916815260200191505b509550505050505060405180910390a1612b76858585856135d1565b5b505050505050565b60008073ffffffffffffffffffffffffffffffffffffffff16600260009054906101000a900473ffffffffffffffffffffffffffffffffffffffff1673ffffffffffffffffffffffffffffffffffffffff161415612c45576040517f08c379a00000000000000000000000000000000000000000000000000000000081526004018080602001828103825260108152602001807f4e4f5f444154415f434f4e54524143540000000000000000000000000000000081525060200191505060405180910390fd5b600260009054906101000a900473ffffffffffffffffffffffffffffffffffffffff1673ffffffffffffffffffffffffffffffffffffffff1663c3c5a547836040518263ffffffff1660e01b8152600401808273ffffffffffffffffffffffffffffffffffffffff16815260200191505060206040518083038186803b158015612cce57600080fd5b505afa158015612ce2573d6000803e3d6000fd5b505050506040513d6020811015612cf857600080fd5b81019080805190602001909291905050509050919050565b6000600160149054906101000a900460ff16905090565b600080600160149054906101000a900460ff16612d8f576040517f08c379a000000000000000000000000000000000000000000000000000000000815260040180806020018281038252602581526020018061390f6025913960400191505060405180910390fd5b600073ffffffffffffffffffffffffffffffffffffffff16600160009054906101000a900473ffffffffffffffffffffffffffffffffffffffff1673ffffffffffffffffffffffffffffffffffffffff161415612e54576040517f08c379a00000000000000000000000000000000000000000000000000000000081526004018080602001828103825260188152602001807f4e4f5f444154415f434f4e54524143545f444546494e4544000000000000000081525060200191505060405180910390fd5b600260009054906101000a900473ffffffffffffffffffffffffffffffffffffffff1673ffffffffffffffffffffffffffffffffffffffff1663433b875a6040518163ffffffff1660e01b815260040160206040518083038186803b158015612ebc57600080fd5b505afa158015612ed0573d6000803e3d6000fd5b505050506040513d6020811015612ee657600080fd5b8101908080519060200190929190505050158015612fa657506000600260009054906101000a900473ffffffffffffffffffffffffffffffffffffffff1673ffffffffffffffffffffffffffffffffffffffff16633c85380f6040518163ffffffff1660e01b815260040160206040518083038186803b158015612f6957600080fd5b505afa158015612f7d573d6000803e3d6000fd5b505050506040513d6020811015612f9357600080fd5b8101908080519060200190929190505050115b156130c557600260009054906101000a900473ffffffffffffffffffffffffffffffffffffffff1673ffffffffffffffffffffffffffffffffffffffff1663c3c5a547336040518263ffffffff1660e01b8152600401808273ffffffffffffffffffffffffffffffffffffffff16815260200191505060206040518083038186803b15801561303457600080fd5b505afa158015613048573d6000803e3d6000fd5b505050506040513d602081101561305e57600080fd5b81019080805190602001909291905050506130c4576040517f08c379a00000000000000000000000000000000000000000000000000000000081526004018080602001828103825260258152602001806138ea6025913960400191505060405180910390fd5b5b600260009054906101000a900473ffffffffffffffffffffffffffffffffffffffff1673ffffffffffffffffffffffffffffffffffffffff1663ee38a74985856040518363ffffffff1660e01b8152600401808373ffffffffffffffffffffffffffffffffffffffff16815260200180602001828103825283818151815260200191508051906020019080838360005b83811015613170578082015181840152602081019050613155565b50505050905090810190601f16801561319d5780820380516001836020036101000a031916815260200191505b5093505050506040805180830381600087803b1580156131bc57600080fd5b505af11580156131d0573d6000803e3d6000fd5b505050506040513d60408110156131e657600080fd5b810190808051906020019092919080519060200190929190505050915091509250929050565b6000613217336136fc565b9050600081858585604051602001808560ff1660f81b81526001018473ffffffffffffffffffffffffffffffffffffffff1660601b815260140183805190602001908083835b60208310613280578051825260208201915060208101905060208303925061325d565b6001836020036101000a03801982511681845116808217855250505050505090500182815260200194505050505060405160208183030381529060405280519060200120905060405180604001604052803373ffffffffffffffffffffffffffffffffffffffff168152602001600115158152506006600083815260200190815260200160002060008201518160000160006101000a81548173ffffffffffffffffffffffffffffffffffffffff021916908373ffffffffffffffffffffffffffffffffffffffff16021790555060208201518160000160146101000a81548160ff0219169083151502179055509050507f3ed01f2c3fc24c6b329d931e35b03e390d23497d22b3f90e15b600343e93df1182868686604051808560ff1681526020018473ffffffffffffffffffffffffffffffffffffffff16815260200180602001838152602001828103825284818151815260200191508051906020019080838360005b838110156134015780820151818401526020810190506133e6565b50505050905090810190601f16801561342e5780820380516001836020036101000a031916815260200191505b509550505050505060405180910390a15050505050565b61344d6137d6565b6134556137d6565b61345e836136fc565b8160006003811061346b57fe5b602002019060ff16908160ff16815250508060006003811061348957fe5b60200201518160016003811061349b57fe5b602002019060ff16908160ff16815250505b806000600381106134ba57fe5b602002015160ff16816001600381106134cf57fe5b602002015160ff161415613509576134e6836136fc565b816001600381106134f357fe5b602002019060ff16908160ff16815250506134ad565b8060016003811061351657fe5b60200201518160026003811061352857fe5b602002019060ff16908160ff16815250505b8060006003811061354757fe5b602002015160ff168160026003811061355c57fe5b602002015160ff16148061359757508060016003811061357857fe5b602002015160ff168160026003811061358d57fe5b602002015160ff16145b156135c8576135a5836136fc565b816002600381106135b257fe5b602002019060ff16908160ff168152505061353a565b80915050919050565b600a8160ff1611156136f657600260009054906101000a900473ffffffffffffffffffffffffffffffffffffffff1673ffffffffffffffffffffffffffffffffffffffff1663c8820a708585856040518463ffffffff1660e01b8152600401808473ffffffffffffffffffffffffffffffffffffffff16815260200180602001838152602001828103825284818151815260200191508051906020019080838360005b8381101561368f578082015181840152602081019050613674565b50505050905090810190601f1680156136bc5780820380516001836020036101000a031916815260200191505b50945050505050600060405180830381600087803b1580156136dd57600080fd5b505af11580156136f1573d6000803e3d6000fd5b505050505b50505050565b600080600a905060008160ff166004600081819054906101000a900460ff168092919060010191906101000a81548160ff021916908360ff16021790555060ff1643034085604051602001808381526020018273ffffffffffffffffffffffffffffffffffffffff1660601b8152601401925050506040516020818303038152906040528051906020012060001c8161379157fe5b06905060fa600460009054906101000a900460ff1660ff1611156137cc576000600460006101000a81548160ff021916908360ff1602179055505b8092505050919050565b6040518060600160405280600390602082028036833780820191505090505090565b826003601f016020900481019282156138815791602002820160005b8382111561385257835183826101000a81548160ff021916908360ff1602179055509260200192600101602081600001049283019260010302613814565b801561387f5782816101000a81549060ff0219169055600101602081600001049283019260010302613852565b505b50905061388e9190613892565b5090565b5b808211156138b657600081816101000a81549060ff021916905550600101613893565b509056fe466c69676874206f722074696d657374616d7020646f206e6f74206d61746368206f7261636c65207265717565737453454e4445525f4e454544535f544f5f42455f524547495354455245445f4149524c494e45434f4e54524143545f49535f43555252454e544c595f4e4f545f4f5045524154494f4e414c496e64657820646f6573206e6f74206d61746368206f7261636c652072657175657374a26469706673582212202e411b2f48038d212e42ecb53c394f7ebe16579ab62022856f399416d8caaf8364736f6c634300060c0033",
  "immutableReferences": {},
  "source": "// SPDX-License-Identifier: MIT\n\npragma solidity ^0.6.0;\n\nimport \"../node_modules/@openzeppelin/contracts/math/SafeMath.sol\";\nimport \"./FlightSuretyData.sol\";\nimport \"./Utils.sol\";\n\n/************************************************** */\n/* FlightSurety Smart Contract                      */\n/************************************************** */\ncontract FlightSuretyApp is Utils {\n    using SafeMath for uint256; // Allow SafeMath functions to be called for all uint256 types (similar to \"prototype\" in Javascript)\n\n    /********************************************************************************************/\n    /*                                       DATA VARIABLES                                     */\n    /********************************************************************************************/\n\n    // Flight status codees\n    uint8 private constant STATUS_CODE_UNKNOWN = 0;\n    uint8 private constant STATUS_CODE_ON_TIME = 10;\n    uint8 private constant STATUS_CODE_LATE_AIRLINE = 20;\n    uint8 private constant STATUS_CODE_LATE_WEATHER = 30;\n    uint8 private constant STATUS_CODE_LATE_TECHNICAL = 40;\n    uint8 private constant STATUS_CODE_LATE_OTHER = 50;\n\n    address private contractOwner;          // Account used to deploy contract\n    address payable private dataContract;\n\n    bool private operational = true;\n\n\n    FlightSuretyData private fsData;\n\n    struct Flight {\n        bool isRegistered;\n        uint8 statusCode;\n        uint256 updatedTimestamp;\n        address airline;\n    }\n\n    mapping(bytes32 => Flight) private flights;\n\n\n    /********************************************************************************************/\n    /*                                       FUNCTION MODIFIERS                                 */\n    /********************************************************************************************/\n\n    // Modifiers help avoid duplication of code. They are typically used to validate something\n    // before a function is allowed to be executed.\n\n    /**\n    * @dev Modifier that requires the \"operational\" boolean variable to be \"true\"\n    *      This is used on all state changing functions to pause the contract in\n    *      the event there is an issue that needs to be fixed\n    */\n    modifier requireIsOperational()\n    {\n        // Modify to call data contract's status\n        require(operational, \"CONTRACT_IS_CURRENTLY_NOT_OPERATIONAL\");\n        _;\n        // All modifiers require an \"_\" which indicates where the function body will be added\n    }\n\n    /**\n    * @dev Modifier that requires the \"ContractOwner\" account to be the function caller\n    */\n    modifier requireContractOwner()\n    {\n        require(msg.sender == contractOwner, \"CALLER_IS_NOT_CONTRACT_OWNER\");\n        _;\n    }\n\n    modifier requireDataContract()\n    {\n        require(address(fsData) != address(0), 'NO_DATA_CONTRACT');\n        _;\n    }\n\n\n\n    /********************************************************************************************/\n    /*                                       CONSTRUCTOR                                        */\n    /********************************************************************************************/\n\n    constructor (address _dataContract) public\n    {\n        dataContract = payable(_dataContract);\n        fsData = FlightSuretyData(payable(dataContract));\n        contractOwner = msg.sender;\n    }\n\n\n\n\n    /********************************************************************************************/\n    /*                                       UTILITY FUNCTIONS                                  */\n    /********************************************************************************************/\n\n\n    function setDataContract\n    (\n        address payable _dataContract\n    )\n    external\n    requireContractOwner\n    {\n        dataContract = _dataContract;\n        fsData = FlightSuretyData(payable(dataContract));\n    }\n\n\n\n\n    // Modify to call data contract's status\n    function isOperational()\n    public\n    view\n    returns (bool)\n    {\n        return operational;\n    }\n\n    function setOperational(bool _operational) public requireContractOwner {\n        operational = _operational;\n    }\n\n    function getDataContract() public view returns (address){\n        return dataContract;\n    }\n\n    /********************************************************************************************/\n    /*                                     AIRLINE                             */\n    /********************************************************************************************/\n\n\n    function registerAirline(address _airlineAddress, string memory _airlineName)\n    external\n    payable\n    requireIsOperational\n    returns (bool success, uint votes)\n    {\n        require(dataContract != address(0), 'NO_DATA_CONTRACT_DEFINED');\n\n        if (!fsData.registrationNeedsVoting() && fsData.numberOfAirlines() > 0) {\n            require(fsData.isRegistered(msg.sender), 'SENDER_NEEDS_TO_BE_REGISTERED_AIRLINE');\n        }\n        return fsData.registerAirline(_airlineAddress, _airlineName);\n    }\n\n    function isRegistered(address _address) public view requireDataContract returns (bool)\n    {\n        return fsData.isRegistered(_address);\n    }\n\n    function registrationStatus(address _address)\n    public\n    view\n    requireDataContract\n    returns (uint)\n    {\n        return fsData.registrationStatus(_address);\n    }\n\n\n    function isAirline(address _address) public view requireDataContract returns (bool)\n    {\n        return fsData.isAirline(_address);\n    }\n\n    function voteOnAirline\n    (\n        address _candidateAddress,\n        address _voterAddress,\n        uint _vote\n    )\n    public requireDataContract\n    {\n        require(_voterAddress == msg.sender, 'ONLY_SENDER_CAN_VOTE');\n\n        return fsData.voteOnAirline(_candidateAddress, _voterAddress, _vote);\n    }\n\n\n    function votingResultsByIndex(\n        uint _index\n    )\n    public\n    view\n    requireDataContract\n    returns (uint, uint, uint, uint)\n    {\n        return fsData.votingResultsByIndex(_index);\n    }\n\n\n    function votingResults(address _address)\n    public\n    view\n    requireDataContract\n    returns (uint, uint, uint, uint)\n    {\n        return fsData.votingResults(_address);\n    }\n\n\n    //\n    // FLIGHT\n    //\n    function registerFlight\n    (\n        string memory flight,\n        uint256 timestamp\n    )\n    external\n    {\n        fsData.registerFlight(msg.sender, flight, timestamp);\n    }\n\n\n    function isFlightRegistered\n    (\n        address _airline, string memory _flight, uint256 _timestamp\n    )\n    public\n    view\n    returns (bool)\n    {\n        return fsData.isFlightRegistered(_airline, _flight, _timestamp);\n    }\n\n\n    function processFlightStatus\n    (\n        address airline,\n        string memory flight,\n        uint256 timestamp,\n        uint8 statusCode\n    )\n    internal\n    {\n        if (statusCode > 10) {\n            fsData.creditInsurees(airline, flight, timestamp);\n        }\n    }\n\n\n    // Generate a request for oracles to fetch flight information\n    function fetchFlightStatus\n    (\n        address airline,\n        string memory flight,\n        uint256 timestamp\n    )\n    external\n    {\n        uint8 index = getRandomIndex(msg.sender);\n\n        // Generate a unique key for storing the request\n        bytes32 key = keccak256(abi.encodePacked(index, airline, flight, timestamp));\n        oracleResponses[key] = ResponseInfo({\n        requester : msg.sender,\n        isOpen : true\n        });\n\n        emit OracleRequest(index, airline, flight, timestamp);\n    }\n\n\n    // INSURANCE\n\n    function buyInsurance\n    (\n        address airline,\n        string memory flight,\n        uint256 timestamp\n    )\n    external\n    payable\n    {\n        require(!fsData.isInsured(airline, flight, timestamp, msg.sender), 'INSUREE_ALREADY_EXISTS');\n        dataContract.transfer(msg.value);\n        fsData.registerInsurance(airline, flight, timestamp, msg.sender, msg.value);\n    }\n\n\n    function sendToDataContract\n    (\n    )\n    external\n    payable\n    {\n        dataContract.transfer(msg.value);\n    }\n\n\n\n    // region ORACLE MANAGEMENT\n\n    // Incremented to add pseudo-randomness at various points\n    uint8 private nonce = 0;\n\n    // Fee to be paid when registering oracle\n    uint256 public constant REGISTRATION_FEE = 1 ether;\n\n    // Number of oracles that must respond for valid status\n    uint256 private constant MIN_RESPONSES = 3;\n\n\n    struct Oracle {\n        bool isRegistered;\n        uint8[3] indexes;\n    }\n\n    // Track all registered oracles\n    mapping(address => Oracle) private oracles;\n\n    // Model for responses from oracles\n    struct ResponseInfo {\n        address requester;                              // Account that requested status\n        bool isOpen;                                    // If open, oracle responses are accepted\n        mapping(uint8 => address[]) responses;          // Mapping key is the status code reported\n        // This lets us group responses and identify\n        // the response that majority of the oracles\n    }\n\n    // Track all oracle responses\n    // Key = hash(index, flight, timestamp)\n    mapping(bytes32 => ResponseInfo) private oracleResponses;\n\n    // Event fired each time an oracle submits a response\n    event FlightStatusInfo(address airline, string flight, uint256 timestamp, uint8 status);\n\n    event OracleReport(address airline, string flight, uint256 timestamp, uint8 status);\n\n    // Event fired when flight status request is submitted\n    // Oracles track this and if they have a matching index\n    // they fetch data and submit a response\n    event OracleRequest(uint8 index, address airline, string flight, uint256 timestamp);\n\n\n    function registerOracle\n    (\n    )\n    external\n    payable\n    {\n        require(!isOracleRegistered(), \"ORACLE_ALREADY_REGISTERED\");\n        require(msg.value >= REGISTRATION_FEE, \"REGISTRATION_FEE IS_REQUIRED\");\n        dataContract.transfer(REGISTRATION_FEE);\n\n        uint8[3] memory indexes = generateIndexes(msg.sender);\n\n        oracles[msg.sender] = Oracle({\n        isRegistered : true,\n        indexes : indexes\n        });\n    }\n\n\n    function isOracleRegistered()\n    view\n    public\n    returns (bool)\n    {\n        return oracles[msg.sender].isRegistered;\n    }\n\n\n    function getMyIndexes()\n    view\n    external\n    returns (uint8[3] memory)\n    {\n        require(oracles[msg.sender].isRegistered, \"Not_registered_as_an_oracle\");\n        return oracles[msg.sender].indexes;\n    }\n\n\n\n    // Called by oracle when a response is available to an outstanding request\n    // For the response to be accepted, there must be a pending request that is open\n    // and matches one of the three Indexes randomly assigned to the oracle at the\n    // time of registration (i.e. uninvited oracles are not welcome)\n    function submitOracleResponse\n    (\n        uint8 index,\n        address airline,\n        string memory flight,\n        uint256 timestamp,\n        uint8 statusCode\n    )\n    external\n    {\n        require((oracles[msg.sender].indexes[0] == index) || (oracles[msg.sender].indexes[1] == index) || (oracles[msg.sender].indexes[2] == index), \"Index does not match oracle request\");\n\n\n        bytes32 key = keccak256(abi.encodePacked(index, airline, flight, timestamp));\n        require(oracleResponses[key].isOpen, \"Flight or timestamp do not match oracle request\");\n\n        oracleResponses[key].responses[statusCode].push(msg.sender);\n\n        // Information isn't considered verified until at least MIN_RESPONSES\n        // oracles respond with the *** same *** information\n        emit OracleReport(airline, flight, timestamp, statusCode);\n        if (oracleResponses[key].responses[statusCode].length >= MIN_RESPONSES) {\n            oracleResponses[key].isOpen = false;\n            emit FlightStatusInfo(airline, flight, timestamp, statusCode);\n\n            // Handle flight status as appropriate\n            processFlightStatus(airline, flight, timestamp, statusCode);\n        }\n    }\n\n\n    function getFlightKey\n    (\n        address airline,\n        string memory flight,\n        uint256 timestamp\n    )\n    pure\n    internal\n    returns (bytes32)\n    {\n        return keccak256(abi.encodePacked(airline, flight, timestamp));\n    }\n\n    // Returns array of three non-duplicating integers from 0-9\n    function generateIndexes\n    (\n        address account\n    )\n    internal\n    returns (uint8[3] memory)\n    {\n        uint8[3] memory indexes;\n        indexes[0] = getRandomIndex(account);\n\n        indexes[1] = indexes[0];\n        while (indexes[1] == indexes[0]) {\n            indexes[1] = getRandomIndex(account);\n        }\n\n        indexes[2] = indexes[1];\n        while ((indexes[2] == indexes[0]) || (indexes[2] == indexes[1])) {\n            indexes[2] = getRandomIndex(account);\n        }\n\n        return indexes;\n    }\n\n    // Returns array of three non-duplicating integers from 0-9\n    function getRandomIndex\n    (\n        address account\n    )\n    internal\n    returns (uint8)\n    {\n        uint8 maxValue = 10;\n\n        // Pseudo random number...the incrementing nonce adds variation\n        uint8 random = uint8(uint256(keccak256(abi.encodePacked(blockhash(block.number - nonce++), account))) % maxValue);\n\n        if (nonce > 250) {\n            nonce = 0;\n            // Can only fetch blockhashes for last 256 blocks so we adapt\n        }\n\n        return random;\n    }\n\n    // endregion\n\n}\n",
  "sourcePath": "/Users/tonibuenter/_proj/misc/udacity/u-blockchain4-flightsurety/contracts/FlightSuretyApp.sol",
  "compiler": {
    "name": "solc",
    "version": "0.6.12+commit.27d51765.Emscripten.clang"
  },
  "schemaVersion": "3.4.1",
  "updatedAt": "2021-06-12T06:16:31.787Z",
  "networkType": "ethereum",
  "devdoc": {
    "kind": "dev",
    "methods": {},
    "version": 1
  },
  "userdoc": {
    "kind": "user",
    "methods": {},
    "version": 1
  }
}