{
  "contractName": "FlightSuretyData",
  "abi": [
    {
      "inputs": [],
      "stateMutability": "nonpayable",
      "type": "constructor"
    },
    {
      "stateMutability": "payable",
      "type": "fallback"
    },
    {
      "stateMutability": "payable",
      "type": "receive"
    },
    {
      "inputs": [],
      "name": "isOperational",
      "outputs": [
        {
          "internalType": "bool",
          "name": "",
          "type": "bool"
        }
      ],
      "stateMutability": "view",
      "type": "function"
    },
    {
      "inputs": [
        {
          "internalType": "bool",
          "name": "mode",
          "type": "bool"
        }
      ],
      "name": "setOperatingStatus",
      "outputs": [],
      "stateMutability": "nonpayable",
      "type": "function"
    },
    {
      "inputs": [
        {
          "internalType": "address",
          "name": "_contract",
          "type": "address"
        }
      ],
      "name": "authorizeCaller",
      "outputs": [],
      "stateMutability": "nonpayable",
      "type": "function"
    },
    {
      "inputs": [],
      "name": "registerAirline",
      "outputs": [],
      "stateMutability": "pure",
      "type": "function"
    },
    {
      "inputs": [],
      "name": "buy",
      "outputs": [],
      "stateMutability": "payable",
      "type": "function"
    },
    {
      "inputs": [],
      "name": "creditInsurees",
      "outputs": [],
      "stateMutability": "pure",
      "type": "function"
    },
    {
      "inputs": [],
      "name": "pay",
      "outputs": [],
      "stateMutability": "pure",
      "type": "function"
    },
    {
      "inputs": [],
      "name": "fund",
      "outputs": [],
      "stateMutability": "payable",
      "type": "function"
    }
  ],
  "bytecode": "0x60806040526000600160146101000a81548160ff02191690831515021790555034801561002b57600080fd5b50336000806101000a81548173ffffffffffffffffffffffffffffffffffffffff021916908373ffffffffffffffffffffffffffffffffffffffff1602179055506103e68061007b6000396000f3fe60806040526004361061007f5760003560e01c806363e29a3f1161004e57806363e29a3f14610154578063a6f2ae3a1461016b578063b60d428814610175578063cd905dff1461017f5761008e565b8063110466ed146100985780631b9265b8146100d55780632c388d5d146100ec57806336cee4841461013d5761008e565b3661008e5761008c6101ac565b005b6100966101ac565b005b3480156100a457600080fd5b506100d3600480360360208110156100bb57600080fd5b810190808035151590602001909291905050506101ae565b005b3480156100e157600080fd5b506100ea61028c565b005b3480156100f857600080fd5b5061013b6004803603602081101561010f57600080fd5b81019080803573ffffffffffffffffffffffffffffffffffffffff16906020019092919050505061028e565b005b34801561014957600080fd5b50610152610393565b005b34801561016057600080fd5b50610169610395565b005b610173610397565b005b61017d6101ac565b005b34801561018b57600080fd5b50610194610399565b60405180821515815260200191505060405180910390f35b565b60008054906101000a900473ffffffffffffffffffffffffffffffffffffffff1673ffffffffffffffffffffffffffffffffffffffff163373ffffffffffffffffffffffffffffffffffffffff161461026f576040517f08c379a000000000000000000000000000000000000000000000000000000000815260040180806020018281038252601c8152602001807f43616c6c6572206973206e6f7420636f6e7472616374206f776e65720000000081525060200191505060405180910390fd5b80600160146101000a81548160ff02191690831515021790555050565b565b60008054906101000a900473ffffffffffffffffffffffffffffffffffffffff1673ffffffffffffffffffffffffffffffffffffffff163373ffffffffffffffffffffffffffffffffffffffff161461034f576040517f08c379a000000000000000000000000000000000000000000000000000000000815260040180806020018281038252601c8152602001807f43616c6c6572206973206e6f7420636f6e7472616374206f776e65720000000081525060200191505060405180910390fd5b80600160006101000a81548173ffffffffffffffffffffffffffffffffffffffff021916908373ffffffffffffffffffffffffffffffffffffffff16021790555050565b565b565b565b6000600160149054906101000a900460ff1690509056fea2646970667358221220e0405cb2252b8241cc8e5958cecd13100bdbeed0c6ace7dd7ed640ac1eead0d864736f6c634300060c0033",
  "immutableReferences": {},
  "source": "// SPDX-License-Identifier: MIT\n\npragma solidity ^0.6.0;\n\nimport \"../node_modules/@openzeppelin/contracts/math/SafeMath.sol\";\n\ncontract FlightSuretyData {\n    using SafeMath for uint256;\n\n    /********************************************************************************************/\n    /*                                       DATA VARIABLES                                     */\n    /********************************************************************************************/\n\n    address private contractOwner;                                      // Account used to deploy contract\n    address private authorizedContract;\n    bool private operational = false;                                    // Blocks all state changes throughout the contract if false\n\n    /********************************************************************************************/\n    /*                                       EVENT DEFINITIONS                                  */\n    /********************************************************************************************/\n\n\n    /**\n    * @dev Constructor\n    *      The deploying account becomes contractOwner\n    */\n    constructor\n    (\n    )\n    public\n    {\n        contractOwner = msg.sender;\n    }\n\n    /********************************************************************************************/\n    /*                                       FUNCTION MODIFIERS                                 */\n    /********************************************************************************************/\n\n    // Modifiers help avoid duplication of code. They are typically used to validate something\n    // before a function is allowed to be executed.\n\n    /**\n    * @dev Modifier that requires the \"operational\" boolean variable to be \"true\"\n    *      This is used on all state changing functions to pause the contract in\n    *      the event there is an issue that needs to be fixed\n    */\n    modifier requireIsOperational()\n    {\n        require(operational, \"Contract is currently not operational\");\n        _;\n        // All modifiers require an \"_\" which indicates where the function body will be added\n    }\n\n    /**\n    * @dev Modifier that requires the \"ContractOwner\" account to be the function caller\n    */\n    modifier requireContractOwner()\n    {\n        require(msg.sender == contractOwner, \"Caller is not contract owner\");\n        _;\n    }\n\n    /********************************************************************************************/\n    /*                                       UTILITY FUNCTIONS                                  */\n    /********************************************************************************************/\n\n    /**\n    * @dev Get operating status of contract\n    *\n    * @return A bool that is the current operating status\n    */\n    function isOperational()\n    public\n    view\n    returns (bool)\n    {\n        return operational;\n    }\n\n\n    /**\n    * @dev Sets contract operations on/off\n    *\n    * When operational mode is disabled, all write transactions except for this one will fail\n    */\n    function setOperatingStatus\n    (\n        bool mode\n    )\n    external\n    requireContractOwner\n    {\n        operational = mode;\n    }\n\n\n    function authorizeCaller\n    (\n        address _contract\n    )\n    external\n    requireContractOwner\n    {\n        authorizedContract = _contract;\n    }\n\n\n    /********************************************************************************************/\n    /*                                     SMART CONTRACT FUNCTIONS                             */\n    /********************************************************************************************/\n\n    /**\n     * @dev Add an airline to the registration queue\n     *      Can only be called from FlightSuretyApp contract\n     *\n     */\n    function registerAirline\n    (\n    )\n    external\n    pure\n    {\n    }\n\n\n    /**\n     * @dev Buy insurance for a flight\n     *\n     */\n    function buy\n    (\n    )\n    external\n    payable\n    {\n\n    }\n\n    /**\n     *  @dev Credits payouts to insurees\n    */\n    function creditInsurees\n    (\n    )\n    external\n    pure\n    {\n    }\n\n\n    /**\n     *  @dev Transfers eligible payout funds to insuree\n     *\n    */\n    function pay\n    (\n    )\n    external\n    pure\n    {\n    }\n\n    /**\n     * @dev Initial funding for the insurance. Unless there are too many delayed flights\n     *      resulting in insurance payouts, the contract should be self-sustaining\n     *\n     */\n    function fund\n    (\n    )\n    public\n    payable\n    {\n    }\n\n    function getFlightKey\n    (\n        address airline,\n        string memory flight,\n        uint256 timestamp\n    )\n    pure\n    internal\n    returns (bytes32)\n    {\n        return keccak256(abi.encodePacked(airline, flight, timestamp));\n    }\n\n    /**\n    * @dev Fallback function for funding smart contract.\n    *\n    */\n    fallback()\n    external\n    payable\n    {\n        fund();\n    }\n\n    receive()\n    external\n    payable\n    {\n        fund();\n    }\n\n\n}\n\n",
  "sourcePath": "/Users/tonibuenter/_proj/misc/udacity/u-blockchain4-flightsurety/contracts/FlightSuretyData.sol",
  "compiler": {
    "name": "solc",
    "version": "0.6.12+commit.27d51765.Emscripten.clang"
  },
  "schemaVersion": "3.4.1",
  "updatedAt": "2021-05-29T08:04:29.095Z",
  "devdoc": {
    "kind": "dev",
    "methods": {
      "buy()": {
        "details": "Buy insurance for a flight"
      },
      "constructor": {
        "details": "Constructor      The deploying account becomes contractOwner"
      },
      "creditInsurees()": {
        "details": "Credits payouts to insurees"
      },
      "fund()": {
        "details": "Initial funding for the insurance. Unless there are too many delayed flights      resulting in insurance payouts, the contract should be self-sustaining"
      },
      "isOperational()": {
        "details": "Get operating status of contract",
        "returns": {
          "_0": "A bool that is the current operating status"
        }
      },
      "pay()": {
        "details": "Transfers eligible payout funds to insuree"
      },
      "registerAirline()": {
        "details": "Add an airline to the registration queue      Can only be called from FlightSuretyApp contract"
      },
      "setOperatingStatus(bool)": {
        "details": "Sets contract operations on/off When operational mode is disabled, all write transactions except for this one will fail"
      }
    },
    "version": 1
  },
  "userdoc": {
    "kind": "user",
    "methods": {},
    "version": 1
  }
}