{
  "contractName": "FlightSuretyData",
  "abi": [
    {
      "inputs": [],
      "stateMutability": "nonpayable",
      "type": "constructor"
    },
    {
      "anonymous": false,
      "inputs": [
        {
          "indexed": false,
          "internalType": "string",
          "name": "origin",
          "type": "string"
        },
        {
          "indexed": false,
          "internalType": "uint256",
          "name": "level",
          "type": "uint256"
        },
        {
          "indexed": false,
          "internalType": "string",
          "name": "info",
          "type": "string"
        }
      ],
      "name": "Console",
      "type": "event"
    },
    {
      "anonymous": false,
      "inputs": [
        {
          "indexed": false,
          "internalType": "address",
          "name": "airlineAddress",
          "type": "address"
        },
        {
          "indexed": false,
          "internalType": "string",
          "name": "airlineName",
          "type": "string"
        },
        {
          "indexed": false,
          "internalType": "uint256",
          "name": "status",
          "type": "uint256"
        }
      ],
      "name": "Registered",
      "type": "event"
    },
    {
      "anonymous": false,
      "inputs": [
        {
          "indexed": false,
          "internalType": "address",
          "name": "airlineAddress",
          "type": "address"
        },
        {
          "indexed": false,
          "internalType": "string",
          "name": "airlineName",
          "type": "string"
        },
        {
          "indexed": false,
          "internalType": "uint256",
          "name": "status",
          "type": "uint256"
        }
      ],
      "name": "VotingEvent",
      "type": "event"
    },
    {
      "stateMutability": "payable",
      "type": "fallback",
      "payable": true
    },
    {
      "inputs": [
        {
          "internalType": "bytes1",
          "name": "b",
          "type": "bytes1"
        }
      ],
      "name": "char",
      "outputs": [
        {
          "internalType": "bytes1",
          "name": "c",
          "type": "bytes1"
        }
      ],
      "stateMutability": "pure",
      "type": "function",
      "constant": true
    },
    {
      "inputs": [
        {
          "internalType": "string",
          "name": "origin",
          "type": "string"
        },
        {
          "internalType": "uint256",
          "name": "level",
          "type": "uint256"
        },
        {
          "internalType": "string",
          "name": "info",
          "type": "string"
        }
      ],
      "name": "log",
      "outputs": [],
      "stateMutability": "nonpayable",
      "type": "function"
    },
    {
      "inputs": [
        {
          "internalType": "address",
          "name": "x",
          "type": "address"
        }
      ],
      "name": "toAsciiString",
      "outputs": [
        {
          "internalType": "string",
          "name": "",
          "type": "string"
        }
      ],
      "stateMutability": "pure",
      "type": "function",
      "constant": true
    },
    {
      "stateMutability": "payable",
      "type": "receive",
      "payable": true
    },
    {
      "inputs": [
        {
          "internalType": "address",
          "name": "_contract",
          "type": "address"
        }
      ],
      "name": "authorizeCaller",
      "outputs": [],
      "stateMutability": "nonpayable",
      "type": "function"
    },
    {
      "inputs": [],
      "name": "getContractOwner",
      "outputs": [
        {
          "internalType": "address",
          "name": "",
          "type": "address"
        }
      ],
      "stateMutability": "view",
      "type": "function",
      "constant": true
    },
    {
      "inputs": [
        {
          "internalType": "address",
          "name": "_address",
          "type": "address"
        }
      ],
      "name": "getBallotSize",
      "outputs": [
        {
          "internalType": "uint256",
          "name": "",
          "type": "uint256"
        }
      ],
      "stateMutability": "view",
      "type": "function",
      "constant": true
    },
    {
      "inputs": [],
      "name": "registrationNeedsVoting",
      "outputs": [
        {
          "internalType": "bool",
          "name": "",
          "type": "bool"
        }
      ],
      "stateMutability": "view",
      "type": "function",
      "constant": true
    },
    {
      "inputs": [
        {
          "internalType": "address",
          "name": "_airlineAddress",
          "type": "address"
        },
        {
          "internalType": "string",
          "name": "_airlineName",
          "type": "string"
        }
      ],
      "name": "registerAirline",
      "outputs": [
        {
          "internalType": "bool",
          "name": "success",
          "type": "bool"
        },
        {
          "internalType": "uint256",
          "name": "votes",
          "type": "uint256"
        }
      ],
      "stateMutability": "nonpayable",
      "type": "function"
    },
    {
      "inputs": [
        {
          "internalType": "address",
          "name": "airline",
          "type": "address"
        }
      ],
      "name": "isRegistered",
      "outputs": [
        {
          "internalType": "bool",
          "name": "",
          "type": "bool"
        }
      ],
      "stateMutability": "view",
      "type": "function",
      "constant": true
    },
    {
      "inputs": [
        {
          "internalType": "address",
          "name": "_airlineAddress",
          "type": "address"
        }
      ],
      "name": "registrationStatus",
      "outputs": [
        {
          "internalType": "uint256",
          "name": "",
          "type": "uint256"
        }
      ],
      "stateMutability": "view",
      "type": "function",
      "constant": true
    },
    {
      "inputs": [
        {
          "internalType": "address",
          "name": "airline",
          "type": "address"
        }
      ],
      "name": "isAirline",
      "outputs": [
        {
          "internalType": "bool",
          "name": "",
          "type": "bool"
        }
      ],
      "stateMutability": "view",
      "type": "function",
      "constant": true
    },
    {
      "inputs": [],
      "name": "numberOfAirlines",
      "outputs": [
        {
          "internalType": "uint256",
          "name": "",
          "type": "uint256"
        }
      ],
      "stateMutability": "view",
      "type": "function",
      "constant": true
    },
    {
      "inputs": [],
      "name": "getConsensusThreshold",
      "outputs": [
        {
          "internalType": "uint256",
          "name": "",
          "type": "uint256"
        }
      ],
      "stateMutability": "view",
      "type": "function",
      "constant": true
    },
    {
      "inputs": [
        {
          "internalType": "uint256",
          "name": "index",
          "type": "uint256"
        }
      ],
      "name": "getAirlineByIndex",
      "outputs": [
        {
          "internalType": "address",
          "name": "airlineAddress",
          "type": "address"
        },
        {
          "internalType": "string",
          "name": "airlineName",
          "type": "string"
        },
        {
          "internalType": "uint256",
          "name": "airlineStatus",
          "type": "uint256"
        }
      ],
      "stateMutability": "view",
      "type": "function",
      "constant": true
    },
    {
      "inputs": [
        {
          "internalType": "address",
          "name": "_address",
          "type": "address"
        }
      ],
      "name": "getAirlineByAddress",
      "outputs": [
        {
          "internalType": "string",
          "name": "airlineName",
          "type": "string"
        },
        {
          "internalType": "uint256",
          "name": "airlineStatus",
          "type": "uint256"
        }
      ],
      "stateMutability": "view",
      "type": "function",
      "constant": true
    },
    {
      "inputs": [
        {
          "internalType": "uint256",
          "name": "_index",
          "type": "uint256"
        }
      ],
      "name": "votingResultsByIndex",
      "outputs": [
        {
          "internalType": "uint256",
          "name": "",
          "type": "uint256"
        },
        {
          "internalType": "uint256",
          "name": "",
          "type": "uint256"
        },
        {
          "internalType": "uint256",
          "name": "",
          "type": "uint256"
        },
        {
          "internalType": "uint256",
          "name": "",
          "type": "uint256"
        }
      ],
      "stateMutability": "view",
      "type": "function",
      "constant": true
    },
    {
      "inputs": [
        {
          "internalType": "address",
          "name": "_address",
          "type": "address"
        }
      ],
      "name": "votingResults",
      "outputs": [
        {
          "internalType": "uint256",
          "name": "yes",
          "type": "uint256"
        },
        {
          "internalType": "uint256",
          "name": "no",
          "type": "uint256"
        },
        {
          "internalType": "uint256",
          "name": "open",
          "type": "uint256"
        },
        {
          "internalType": "uint256",
          "name": "voters",
          "type": "uint256"
        }
      ],
      "stateMutability": "view",
      "type": "function",
      "constant": true
    },
    {
      "inputs": [
        {
          "internalType": "address",
          "name": "_candidateAddress",
          "type": "address"
        },
        {
          "internalType": "address",
          "name": "_voterAddress",
          "type": "address"
        },
        {
          "internalType": "uint256",
          "name": "_vote",
          "type": "uint256"
        }
      ],
      "name": "voteOnAirline",
      "outputs": [],
      "stateMutability": "nonpayable",
      "type": "function"
    },
    {
      "inputs": [
        {
          "internalType": "address",
          "name": "_airline",
          "type": "address"
        },
        {
          "internalType": "string",
          "name": "_flight",
          "type": "string"
        },
        {
          "internalType": "uint256",
          "name": "_timestamp",
          "type": "uint256"
        }
      ],
      "name": "registerFlight",
      "outputs": [],
      "stateMutability": "nonpayable",
      "type": "function"
    },
    {
      "inputs": [],
      "name": "getNumberOfFlights",
      "outputs": [
        {
          "internalType": "uint256",
          "name": "",
          "type": "uint256"
        }
      ],
      "stateMutability": "view",
      "type": "function",
      "constant": true
    },
    {
      "inputs": [
        {
          "internalType": "uint256",
          "name": "index",
          "type": "uint256"
        }
      ],
      "name": "getFlightByIndex",
      "outputs": [
        {
          "internalType": "address",
          "name": "airline",
          "type": "address"
        },
        {
          "internalType": "string",
          "name": "flight",
          "type": "string"
        },
        {
          "internalType": "uint256",
          "name": "timestamp",
          "type": "uint256"
        }
      ],
      "stateMutability": "view",
      "type": "function",
      "constant": true
    },
    {
      "inputs": [
        {
          "internalType": "address",
          "name": "_airline",
          "type": "address"
        },
        {
          "internalType": "string",
          "name": "_flight",
          "type": "string"
        },
        {
          "internalType": "uint256",
          "name": "_timestamp",
          "type": "uint256"
        }
      ],
      "name": "isFlightRegistered",
      "outputs": [
        {
          "internalType": "bool",
          "name": "",
          "type": "bool"
        }
      ],
      "stateMutability": "view",
      "type": "function",
      "constant": true
    },
    {
      "inputs": [
        {
          "internalType": "address",
          "name": "airline",
          "type": "address"
        },
        {
          "internalType": "string",
          "name": "flight",
          "type": "string"
        },
        {
          "internalType": "uint256",
          "name": "timestamp",
          "type": "uint256"
        },
        {
          "internalType": "address",
          "name": "insuree",
          "type": "address"
        }
      ],
      "name": "isInsured",
      "outputs": [
        {
          "internalType": "bool",
          "name": "",
          "type": "bool"
        }
      ],
      "stateMutability": "view",
      "type": "function",
      "constant": true
    },
    {
      "inputs": [
        {
          "internalType": "address",
          "name": "airline",
          "type": "address"
        },
        {
          "internalType": "string",
          "name": "flight",
          "type": "string"
        },
        {
          "internalType": "uint256",
          "name": "timestamp",
          "type": "uint256"
        },
        {
          "internalType": "address",
          "name": "insuree",
          "type": "address"
        },
        {
          "internalType": "uint256",
          "name": "amount",
          "type": "uint256"
        }
      ],
      "name": "registerInsurance",
      "outputs": [],
      "stateMutability": "nonpayable",
      "type": "function"
    },
    {
      "inputs": [
        {
          "internalType": "address",
          "name": "airline",
          "type": "address"
        },
        {
          "internalType": "string",
          "name": "flight",
          "type": "string"
        },
        {
          "internalType": "uint256",
          "name": "timestamp",
          "type": "uint256"
        }
      ],
      "name": "creditInsurees",
      "outputs": [],
      "stateMutability": "nonpayable",
      "type": "function"
    },
    {
      "inputs": [
        {
          "internalType": "address",
          "name": "airline",
          "type": "address"
        },
        {
          "internalType": "string",
          "name": "flight",
          "type": "string"
        },
        {
          "internalType": "uint256",
          "name": "timestamp",
          "type": "uint256"
        },
        {
          "internalType": "address payable",
          "name": "insuree",
          "type": "address"
        }
      ],
      "name": "pay",
      "outputs": [],
      "stateMutability": "payable",
      "type": "function",
      "payable": true
    },
    {
      "inputs": [],
      "name": "fund",
      "outputs": [],
      "stateMutability": "payable",
      "type": "function",
      "payable": true
    }
  ],
  "bytecode": "0x608060405266038d7ea4c6800060025560036004556000600655609660095534801561002a57600080fd5b50336000806101000a81548173ffffffffffffffffffffffffffffffffffffffff021916908373ffffffffffffffffffffffffffffffffffffffff160217905550613d908061007a6000396000f3fe60806040526004361061019f5760003560e01c8063602e03b4116100ec578063b60d42881161008a578063c8820a7011610064578063c8820a7014610f1a578063d42791e11461100c578063ee38a74914611037578063f92e0ecc1461113c576101a6565b8063b60d428814610dd1578063bb75e85c14610ddb578063c3c5a54714610eb3576101a6565b80637998c0b8116100c65780637998c0b814610b1b5780638b41aaae14610bec5780639c9161c514610c51578063a305e6b914610cb5576101a6565b8063602e03b4146109f857806360f3e3fb14610a5d57806369f9ad2f14610a88576101a6565b80633cc0be9c11610159578063442890d511610133578063442890d5146106cf57806345c83148146107105780634fe63a481461078a5780635970e0891461088f576101a6565b80633cc0be9c146104d8578063408ce10a146105ca578063433b875a146106a2576101a6565b80623cc044146101a85780630e248a1114610223578063241a53cb1461028a5780632c388d5d146103925780632c6e7598146103e35780633c85380f146104ad576101a6565b366101a657005b005b3480156101b457600080fd5b50610221600480360360608110156101cb57600080fd5b81019080803573ffffffffffffffffffffffffffffffffffffffff169060200190929190803573ffffffffffffffffffffffffffffffffffffffff16906020019092919080359060200190929190505050611264565b005b34801561022f57600080fd5b506102726004803603602081101561024657600080fd5b81019080803573ffffffffffffffffffffffffffffffffffffffff16906020019092919050505061187a565b60405180821515815260200191505060405180910390f35b34801561029657600080fd5b5061037a600480360360608110156102ad57600080fd5b81019080803573ffffffffffffffffffffffffffffffffffffffff169060200190929190803590602001906401000000008111156102ea57600080fd5b8201836020820111156102fc57600080fd5b8035906020019184600183028401116401000000008311171561031e57600080fd5b91908080601f016020809104026020016040519081016040528093929190818152602001838380828437600081840152601f19601f820116905080830192505050505050509192919290803590602001909291905050506118c8565b60405180821515815260200191505060405180910390f35b34801561039e57600080fd5b506103e1600480360360208110156103b557600080fd5b81019080803573ffffffffffffffffffffffffffffffffffffffff169060200190929190505050611949565b005b3480156103ef57600080fd5b506104326004803603602081101561040657600080fd5b81019080803573ffffffffffffffffffffffffffffffffffffffff16906020019092919050505061198d565b6040518080602001828103825283818151815260200191508051906020019080838360005b83811015610472578082015181840152602081019050610457565b50505050905090810190601f16801561049f5780820380516001836020036101000a031916815260200191505b509250505060405180910390f35b3480156104b957600080fd5b506104c2611af0565b6040518082815260200191505060405180910390f35b3480156104e457600080fd5b506105c8600480360360608110156104fb57600080fd5b81019080803573ffffffffffffffffffffffffffffffffffffffff1690602001909291908035906020019064010000000081111561053857600080fd5b82018360208201111561054a57600080fd5b8035906020019184600183028401116401000000008311171561056c57600080fd5b91908080601f016020809104026020016040519081016040528093929190818152602001838380828437600081840152601f19601f82011690508083019250505050505050919291929080359060200190929190505050611afa565b005b3480156105d657600080fd5b50610603600480360360208110156105ed57600080fd5b8101908080359060200190929190505050611d6e565b604051808473ffffffffffffffffffffffffffffffffffffffff16815260200180602001838152602001828103825284818151815260200191508051906020019080838360005b8381101561066557808201518184015260208101905061064a565b50505050905090810190601f1680156106925780820380516001836020036101000a031916815260200191505b5094505050505060405180910390f35b3480156106ae57600080fd5b506106b7611f12565b60405180821515815260200191505060405180910390f35b3480156106db57600080fd5b506106e4611fe4565b604051808273ffffffffffffffffffffffffffffffffffffffff16815260200191505060405180910390f35b34801561071c57600080fd5b5061075f6004803603602081101561073357600080fd5b81019080803573ffffffffffffffffffffffffffffffffffffffff16906020019092919050505061200d565b6040518085815260200184815260200183815260200182815260200194505050505060405180910390f35b61088d600480360360808110156107a057600080fd5b81019080803573ffffffffffffffffffffffffffffffffffffffff169060200190929190803590602001906401000000008111156107dd57600080fd5b8201836020820111156107ef57600080fd5b8035906020019184600183028401116401000000008311171561081157600080fd5b91908080601f016020809104026020016040519081016040528093929190818152602001838380828437600081840152601f19601f82011690508083019250505050505050919291929080359060200190929190803573ffffffffffffffffffffffffffffffffffffffff1690602001909291905050506120e4565b005b34801561089b57600080fd5b506109f6600480360360608110156108b257600080fd5b81019080803590602001906401000000008111156108cf57600080fd5b8201836020820111156108e157600080fd5b8035906020019184600183028401116401000000008311171561090357600080fd5b91908080601f016020809104026020016040519081016040528093929190818152602001838380828437600081840152601f19601f820116905080830192505050505050509192919290803590602001909291908035906020019064010000000081111561097057600080fd5b82018360208201111561098257600080fd5b803590602001918460018302840111640100000000831117156109a457600080fd5b91908080601f016020809104026020016040519081016040528093929190818152602001838380828437600081840152601f19601f8201169050808301925050505050505091929192905050506123a6565b005b348015610a0457600080fd5b50610a4760048036036020811015610a1b57600080fd5b81019080803573ffffffffffffffffffffffffffffffffffffffff1690602001909291905050506124bc565b6040518082815260200191505060405180910390f35b348015610a6957600080fd5b50610a72612508565b6040518082815260200191505060405180910390f35b348015610a9457600080fd5b50610ae360048036036020811015610aab57600080fd5b8101908080357effffffffffffffffffffffffffffffffffffffffffffffffffffffffffffff19169060200190929190505050612515565b60405180827effffffffffffffffffffffffffffffffffffffffffffffffffffffffffffff1916815260200191505060405180910390f35b348015610b2757600080fd5b50610b6a60048036036020811015610b3e57600080fd5b81019080803573ffffffffffffffffffffffffffffffffffffffff169060200190929190505050612549565b6040518080602001838152602001828103825284818151815260200191508051906020019080838360005b83811015610bb0578082015181840152602081019050610b95565b50505050905090810190601f168015610bdd5780820380516001836020036101000a031916815260200191505b50935050505060405180910390f35b348015610bf857600080fd5b50610c3b60048036036020811015610c0f57600080fd5b81019080803573ffffffffffffffffffffffffffffffffffffffff1690602001909291905050506126b5565b6040518082815260200191505060405180910390f35b348015610c5d57600080fd5b50610c8a60048036036020811015610c7457600080fd5b8101908080359060200190929190505050612706565b6040518085815260200184815260200183815260200182815260200194505050505060405180910390f35b348015610cc157600080fd5b50610dcf600480360360a0811015610cd857600080fd5b81019080803573ffffffffffffffffffffffffffffffffffffffff16906020019092919080359060200190640100000000811115610d1557600080fd5b820183602082011115610d2757600080fd5b80359060200191846001830284011164010000000083111715610d4957600080fd5b91908080601f016020809104026020016040519081016040528093929190818152602001838380828437600081840152601f19601f82011690508083019250505050505050919291929080359060200190929190803573ffffffffffffffffffffffffffffffffffffffff169060200190929190803590602001909291905050506127ce565b005b610dd96129d9565b005b348015610de757600080fd5b50610e1460048036036020811015610dfe57600080fd5b8101908080359060200190929190505050612db6565b604051808473ffffffffffffffffffffffffffffffffffffffff16815260200180602001838152602001828103825284818151815260200191508051906020019080838360005b83811015610e76578082015181840152602081019050610e5b565b50505050905090810190601f168015610ea35780820380516001836020036101000a031916815260200191505b5094505050505060405180910390f35b348015610ebf57600080fd5b50610f0260048036036020811015610ed657600080fd5b81019080803573ffffffffffffffffffffffffffffffffffffffff169060200190929190505050612f0b565b60405180821515815260200191505060405180910390f35b348015610f2657600080fd5b5061100a60048036036060811015610f3d57600080fd5b81019080803573ffffffffffffffffffffffffffffffffffffffff16906020019092919080359060200190640100000000811115610f7a57600080fd5b820183602082011115610f8c57600080fd5b80359060200191846001830284011164010000000083111715610fae57600080fd5b91908080601f016020809104026020016040519081016040528093929190818152602001838380828437600081840152601f19601f82011690508083019250505050505050919291929080359060200190929190505050612f5a565b005b34801561101857600080fd5b506110216131b3565b6040518082815260200191505060405180910390f35b34801561104357600080fd5b5061111d6004803603604081101561105a57600080fd5b81019080803573ffffffffffffffffffffffffffffffffffffffff1690602001909291908035906020019064010000000081111561109757600080fd5b8201836020820111156110a957600080fd5b803590602001918460018302840111640100000000831117156110cb57600080fd5b91908080601f016020809104026020016040519081016040528093929190818152602001838380828437600081840152601f19601f8201169050808301925050505050505091929192905050506131bd565b6040518083151581526020018281526020019250505060405180910390f35b34801561114857600080fd5b5061124c6004803603608081101561115f57600080fd5b81019080803573ffffffffffffffffffffffffffffffffffffffff1690602001909291908035906020019064010000000081111561119c57600080fd5b8201836020820111156111ae57600080fd5b803590602001918460018302840111640100000000831117156111d057600080fd5b91908080601f016020809104026020016040519081016040528093929190818152602001838380828437600081840152601f19601f82011690508083019250505050505050919291929080359060200190929190803573ffffffffffffffffffffffffffffffffffffffff1690602001909291905050506139d5565b60405180821515815260200191505060405180910390f35b60018114806112735750600281145b6112e5576040517f08c379a00000000000000000000000000000000000000000000000000000000081526004018080602001828103825260158152602001807f564f54455f53484f554c445f42455f315f4f525f32000000000000000000000081525060200191505060405180910390fd5b600073ffffffffffffffffffffffffffffffffffffffff168373ffffffffffffffffffffffffffffffffffffffff161415611388576040517f08c379a00000000000000000000000000000000000000000000000000000000081526004018080602001828103825260178152602001807f454d5054595f43414e4449444154455f4144445245535300000000000000000081525060200191505060405180910390fd5b600073ffffffffffffffffffffffffffffffffffffffff168273ffffffffffffffffffffffffffffffffffffffff16141561142b576040517f08c379a00000000000000000000000000000000000000000000000000000000081526004018080602001828103825260138152602001807f454d5054595f564f5445525f414444524553530000000000000000000000000081525060200191505060405180910390fd5b6000600760008573ffffffffffffffffffffffffffffffffffffffff1673ffffffffffffffffffffffffffffffffffffffff168152602001908152602001600020905060018160010154146114e8576040517f08c379a00000000000000000000000000000000000000000000000000000000081526004018080602001828103825260168152602001807f43414e4449444154455f5354415455535f4e4f545f310000000000000000000081525060200191505060405180910390fd5b6000600860008673ffffffffffffffffffffffffffffffffffffffff1673ffffffffffffffffffffffffffffffffffffffff1681526020019081526020016000209050600080600091505b826001015482101561176857600083600001600084815260200190815260200160002090507face1aa9780bbc49f856ae4fe04995bd3db501976b157012131b6f92019a346948160000160009054906101000a900473ffffffffffffffffffffffffffffffffffffffff1673ffffffffffffffffffffffffffffffffffffffff16604051808060200183815260200180602001838103835260088152602001807f766f74696e672d310000000000000000000000000000000000000000000000008152506020018381038252600c8152602001807f766f746572416464726573730000000000000000000000000000000000000000815250602001935050505060405180910390a18673ffffffffffffffffffffffffffffffffffffffff168160000160009054906101000a900473ffffffffffffffffffffffffffffffffffffffff1673ffffffffffffffffffffffffffffffffffffffff161415611746578581600301819055507face1aa9780bbc49f856ae4fe04995bd3db501976b157012131b6f92019a3469486604051808060200183815260200180602001838103835260088152602001807f766f74696e672d31000000000000000000000000000000000000000000000000815250602001838103825260078152602001807f696e20766f746500000000000000000000000000000000000000000000000000815250602001935050505060405180910390a15b60018160030154141561175a576001820191505b508180600101925050611533565b600260018460010154018161177957fe5b04811061187157600284600101819055507ffe9d4497e883ac6410397197a8dd9a80c9eb3a6ae51016c22f276b099ed1660d87856000018660010154604051808473ffffffffffffffffffffffffffffffffffffffff168152602001806020018381526020018281038252848181546001816001161561010002031660029004815260200191508054600181600116156101000203166002900480156118605780601f1061183557610100808354040283529160200191611860565b820191906000526020600020905b81548152906001019060200180831161184357829003601f168201915b505094505050505060405180910390a15b50505050505050565b600080600760008473ffffffffffffffffffffffffffffffffffffffff1673ffffffffffffffffffffffffffffffffffffffff16815260200190815260200160002060010154119050919050565b6000806118d6858585613a48565b9050600073ffffffffffffffffffffffffffffffffffffffff16600a600083815260200190815260200160002060000160009054906101000a900473ffffffffffffffffffffffffffffffffffffffff1673ffffffffffffffffffffffffffffffffffffffff1614159150509392505050565b80600160006101000a81548173ffffffffffffffffffffffffffffffffffffffff021916908373ffffffffffffffffffffffffffffffffffffffff16021790555050565b606080602867ffffffffffffffff811180156119a857600080fd5b506040519080825280601f01601f1916602001820160405280156119db5781602001600182028036833780820191505090505b50905060005b6014811015611ae65760008160130360080260020a8573ffffffffffffffffffffffffffffffffffffffff1681611a1457fe5b0460f81b9050600060108260f81c60ff1681611a2c57fe5b0460f81b905060008160f81c6010028360f81c0360f81b9050611a4e82612515565b858560020281518110611a5d57fe5b60200101907effffffffffffffffffffffffffffffffffffffffffffffffffffffffffffff1916908160001a905350611a9581612515565b856001866002020181518110611aa757fe5b60200101907effffffffffffffffffffffffffffffffffffffffffffffffffffffffffffff1916908160001a90535050505080806001019150506119e1565b5080915050919050565b6000600654905090565b600160009054906101000a900473ffffffffffffffffffffffffffffffffffffffff1673ffffffffffffffffffffffffffffffffffffffff163373ffffffffffffffffffffffffffffffffffffffff1614611bbd576040517f08c379a00000000000000000000000000000000000000000000000000000000081526004018080602001828103825260188152602001807f43414c4c45525f49535f4e4f545f415554484f52495a4544000000000000000081525060200191505060405180910390fd5b6000611bca848484613a48565b9050600073ffffffffffffffffffffffffffffffffffffffff16600a600083815260200190815260200160002060000160009054906101000a900473ffffffffffffffffffffffffffffffffffffffff1673ffffffffffffffffffffffffffffffffffffffff1614611ca4576040517f08c379a00000000000000000000000000000000000000000000000000000000081526004018080602001828103825260198152602001807f464c494748545f414c52454144595f524547495354455245440000000000000081525060200191505060405180910390fd5b83600a600083815260200190815260200160002060000160006101000a81548173ffffffffffffffffffffffffffffffffffffffff021916908373ffffffffffffffffffffffffffffffffffffffff16021790555081600a60008381526020019081526020016000206002018190555082600a60008381526020019081526020016000206001019080519060200190611d3e929190613bf8565b50600b81908060018154018082558091505060019003906000526020600020016000909190919091505550505050565b6000606060006006548410611deb576040517f08c379a000000000000000000000000000000000000000000000000000000000815260040180806020018281038252600b8152602001807f57524f4e475f494e44455800000000000000000000000000000000000000000081525060200191505060405180910390fd5b6005600085815260200190815260200160002060009054906101000a900473ffffffffffffffffffffffffffffffffffffffff1692506000600760008573ffffffffffffffffffffffffffffffffffffffff1673ffffffffffffffffffffffffffffffffffffffff1681526020019081526020016000209050806000018054600181600116156101000203166002900480601f016020809104026020016040519081016040528092919081815260200182805460018160011615610100020316600290048015611efc5780601f10611ed157610100808354040283529160200191611efc565b820191906000526020600020905b815481529060010190602001808311611edf57829003601f168201915b5050505050925080600101549150509193909250565b6000600160009054906101000a900473ffffffffffffffffffffffffffffffffffffffff1673ffffffffffffffffffffffffffffffffffffffff163373ffffffffffffffffffffffffffffffffffffffff1614611fd7576040517f08c379a00000000000000000000000000000000000000000000000000000000081526004018080602001828103825260188152602001807f43414c4c45525f49535f4e4f545f415554484f52495a4544000000000000000081525060200191505060405180910390fd5b6006546004541115905090565b60008060009054906101000a900473ffffffffffffffffffffffffffffffffffffffff16905090565b6000806000806000600860008773ffffffffffffffffffffffffffffffffffffffff1673ffffffffffffffffffffffffffffffffffffffff168152602001908152602001600020905060009450600093506000925060005b81600101548110156120d4576000826000016000838152602001908152602001600020905060008160030154141561209e576001850194505b6001816003015414156120b2576001870196505b6002816003015414156120c6576001860195505b508080600101915050612065565b5080600101549150509193509193565b60006120f1858585613a48565b9050600073ffffffffffffffffffffffffffffffffffffffff16600a600083815260200190815260200160002060000160009054906101000a900473ffffffffffffffffffffffffffffffffffffffff1673ffffffffffffffffffffffffffffffffffffffff1614156121cc576040517f08c379a00000000000000000000000000000000000000000000000000000000081526004018080602001828103825260148152602001807f464c494748545f444f45535f4e4f5f455849535400000000000000000000000081525060200191505060405180910390fd5b6000600a600083815260200190815260200160002060030160008473ffffffffffffffffffffffffffffffffffffffff1673ffffffffffffffffffffffffffffffffffffffff1681526020019081526020016000205411612278576040517f08c379a0000000000000000000000000000000000000000000000000000000008152600401808060200182810382526024815260200180613d376024913960400191505060405180910390fd5b6002600a6000838152602001908152602001600020600401541415612305576040517f08c379a00000000000000000000000000000000000000000000000000000000081526004018080602001828103825260098152602001807f4e4f5f5041594f5554000000000000000000000000000000000000000000000081525060200191505060405180910390fd5b8173ffffffffffffffffffffffffffffffffffffffff166108fc600a600084815260200190815260200160002060030160008573ffffffffffffffffffffffffffffffffffffffff1673ffffffffffffffffffffffffffffffffffffffff168152602001908152602001600020549081150290604051600060405180830381858888f1935050505015801561239e573d6000803e3d6000fd5b505050505050565b7face1aa9780bbc49f856ae4fe04995bd3db501976b157012131b6f92019a34694838383604051808060200184815260200180602001838103835286818151815260200191508051906020019080838360005b838110156124145780820151818401526020810190506123f9565b50505050905090810190601f1680156124415780820380516001836020036101000a031916815260200191505b50838103825284818151815260200191508051906020019080838360005b8381101561247a57808201518184015260208101905061245f565b50505050905090810190601f1680156124a75780820380516001836020036101000a031916815260200191505b509550505050505060405180910390a1505050565b6000600760008373ffffffffffffffffffffffffffffffffffffffff1673ffffffffffffffffffffffffffffffffffffffff168152602001908152602001600020600101549050919050565b6000600b80549050905090565b6000600a8260f81c60ff1610156125375760308260f81c0160f81b9050612544565b60578260f81c0160f81b90505b919050565b6060600080600760008573ffffffffffffffffffffffffffffffffffffffff1673ffffffffffffffffffffffffffffffffffffffff16815260200190815260200160002090506000816001015414612609576040517f08c379a000000000000000000000000000000000000000000000000000000000815260040180806020018281038252600d8152602001807f57524f4e475f414444524553530000000000000000000000000000000000000081525060200191505060405180910390fd5b806000018054600181600116156101000203166002900480601f0160208091040260200160405190810160405280929190818152602001828054600181600116156101000203166002900480156126a15780601f10612676576101008083540402835291602001916126a1565b820191906000526020600020905b81548152906001019060200180831161268457829003601f168201915b505050505092508060010154915050915091565b600080600860008473ffffffffffffffffffffffffffffffffffffffff1673ffffffffffffffffffffffffffffffffffffffff16815260200190815260200160002090508060010154915050919050565b6000806000806006548510612783576040517f08c379a00000000000000000000000000000000000000000000000000000000081526004018080602001828103825260138152602001807f57524f4e475f4149524c494e455f494e4445580000000000000000000000000081525060200191505060405180910390fd5b6127bf6005600087815260200190815260200160002060009054906101000a900473ffffffffffffffffffffffffffffffffffffffff1661200d565b93509350935093509193509193565b600160009054906101000a900473ffffffffffffffffffffffffffffffffffffffff1673ffffffffffffffffffffffffffffffffffffffff163373ffffffffffffffffffffffffffffffffffffffff1614612891576040517f08c379a00000000000000000000000000000000000000000000000000000000081526004018080602001828103825260188152602001807f43414c4c45525f49535f4e4f545f415554484f52495a4544000000000000000081525060200191505060405180910390fd5b600061289e868686613a48565b9050600073ffffffffffffffffffffffffffffffffffffffff16600a600083815260200190815260200160002060000160009054906101000a900473ffffffffffffffffffffffffffffffffffffffff1673ffffffffffffffffffffffffffffffffffffffff161415612979576040517f08c379a00000000000000000000000000000000000000000000000000000000081526004018080602001828103825260148152602001807f464c494748545f444f45535f4e4f5f455849535400000000000000000000000081525060200191505060405180910390fd5b81600a600083815260200190815260200160002060030160008573ffffffffffffffffffffffffffffffffffffffff1673ffffffffffffffffffffffffffffffffffffffff16815260200190815260200160002081905550505050505050565b6129e1613c78565b600760003373ffffffffffffffffffffffffffffffffffffffff1673ffffffffffffffffffffffffffffffffffffffff168152602001908152602001600020604051806040016040529081600082018054600181600116156101000203166002900480601f016020809104026020016040519081016040528092919081815260200182805460018160011615610100020316600290048015612ac45780601f10612a9957610100808354040283529160200191612ac4565b820191906000526020600020905b815481529060010190602001808311612aa757829003601f168201915b505050505081526020016001820154815250509050600081602001511415612b54576040517f08c379a00000000000000000000000000000000000000000000000000000000081526004018080602001828103825260168152602001807f4149524c494e455f4e4f545f524547495354455245440000000000000000000081525060200191505060405180910390fd5b600381602001511415612bcf576040517f08c379a000000000000000000000000000000000000000000000000000000000815260040180806020018281038252600e8152602001807f414c52454144595f46554e44454400000000000000000000000000000000000081525060200191505060405180910390fd5b6002816020015114612c49576040517f08c379a000000000000000000000000000000000000000000000000000000000815260040180806020018281038252600e8152602001807f554e4b4e4f574e5f53544154555300000000000000000000000000000000000081525060200191505060405180910390fd5b600254341015612cc1576040517f08c379a000000000000000000000000000000000000000000000000000000000815260040180806020018281038252600a8152602001807f4e4f545f454e4f5547480000000000000000000000000000000000000000000081525060200191505060405180910390fd5b3073ffffffffffffffffffffffffffffffffffffffff166108fc6002549081150290604051600060405180830381858888f19350505050158015612d09573d6000803e3d6000fd5b506000612d2160025434613aee90919063ffffffff16565b90503373ffffffffffffffffffffffffffffffffffffffff166108fc829081150290604051600060405180830381858888f19350505050158015612d69573d6000803e3d6000fd5b506003600760003373ffffffffffffffffffffffffffffffffffffffff1673ffffffffffffffffffffffffffffffffffffffff168152602001908152602001600020600101819055505050565b600060606000600a6000600b8681548110612dcd57fe5b9060005260206000200154815260200190815260200160002060000160009054906101000a900473ffffffffffffffffffffffffffffffffffffffff169250600a6000600b8681548110612e1d57fe5b906000526020600020015481526020019081526020016000206001018054600181600116156101000203166002900480601f016020809104026020016040519081016040528092919081815260200182805460018160011615610100020316600290048015612ecd5780601f10612ea257610100808354040283529160200191612ecd565b820191906000526020600020905b815481529060010190602001808311612eb057829003601f168201915b50505050509150600a6000600b8681548110612ee557fe5b906000526020600020015481526020019081526020016000206002015490509193909250565b60006001600760008473ffffffffffffffffffffffffffffffffffffffff1673ffffffffffffffffffffffffffffffffffffffff16815260200190815260200160002060010154119050919050565b600160009054906101000a900473ffffffffffffffffffffffffffffffffffffffff1673ffffffffffffffffffffffffffffffffffffffff163373ffffffffffffffffffffffffffffffffffffffff161461301d576040517f08c379a00000000000000000000000000000000000000000000000000000000081526004018080602001828103825260188152602001807f43414c4c45525f49535f4e4f545f415554484f52495a4544000000000000000081525060200191505060405180910390fd5b600061302a848484613a48565b9050600073ffffffffffffffffffffffffffffffffffffffff16600a600083815260200190815260200160002060000160009054906101000a900473ffffffffffffffffffffffffffffffffffffffff1673ffffffffffffffffffffffffffffffffffffffff161415613105576040517f08c379a00000000000000000000000000000000000000000000000000000000081526004018080602001828103825260148152602001807f466c696768745f646f65735f6e6f5f657869737400000000000000000000000081525060200191505060405180910390fd5b6001600a60008381526020019081526020016000206004015414613191576040517f08c379a00000000000000000000000000000000000000000000000000000000081526004018080602001828103825260178152602001807f466c69676874446174615f77726f6e675f73746174757300000000000000000081525060200191505060405180910390fd5b6002600a60008381526020019081526020016000206004018190555050505050565b6000600454905090565b600080600160009054906101000a900473ffffffffffffffffffffffffffffffffffffffff1673ffffffffffffffffffffffffffffffffffffffff163373ffffffffffffffffffffffffffffffffffffffff1614613283576040517f08c379a00000000000000000000000000000000000000000000000000000000081526004018080602001828103825260188152602001807f43414c4c45525f49535f4e4f545f415554484f52495a4544000000000000000081525060200191505060405180910390fd5b600073ffffffffffffffffffffffffffffffffffffffff168473ffffffffffffffffffffffffffffffffffffffff161415613326576040517f08c379a00000000000000000000000000000000000000000000000000000000081526004018080602001828103825260178152602001807f4d495353494e475f4149524c494e455f4144445245535300000000000000000081525060200191505060405180910390fd5b61332f84612f0b565b156133a2576040517f08c379a000000000000000000000000000000000000000000000000000000000815260040180806020018281038252601a8152602001807f4149524c494e455f414c52454144595f5245474953544552454400000000000081525060200191505060405180910390fd5b60009050600091506133b2611f12565b61343e5760405180604001604052808481526020016002815250600760008673ffffffffffffffffffffffffffffffffffffffff1673ffffffffffffffffffffffffffffffffffffffff1681526020019081526020016000206000820151816000019080519060200190613427929190613bf8565b50602082015181600101559050506001915061383f565b7face1aa9780bbc49f856ae4fe04995bd3db501976b157012131b6f92019a346948473ffffffffffffffffffffffffffffffffffffffff166040518080602001838152602001806020018381038352600a8152602001807f72656769737465722d31000000000000000000000000000000000000000000008152506020018381038252600c8152602001807f6e6565647320766f74696e670000000000000000000000000000000000000000815250602001935050505060405180910390a16000805b60065481101561376f5760006005600083815260200190815260200160002060009054906101000a900473ffffffffffffffffffffffffffffffffffffffff1690506000600760008373ffffffffffffffffffffffffffffffffffffffff1673ffffffffffffffffffffffffffffffffffffffff16815260200190815260200160002090506002816001015414156137605781600860008a73ffffffffffffffffffffffffffffffffffffffff1673ffffffffffffffffffffffffffffffffffffffff168152602001908152602001600020600001600086815260200190815260200160002060000160006101000a81548173ffffffffffffffffffffffffffffffffffffffff021916908373ffffffffffffffffffffffffffffffffffffffff16021790555080600001600860008a73ffffffffffffffffffffffffffffffffffffffff1673ffffffffffffffffffffffffffffffffffffffff168152602001908152602001600020600001600086815260200190815260200160002060010190805460018160011615610100020316600290046136a1929190613c92565b506000600860008a73ffffffffffffffffffffffffffffffffffffffff1673ffffffffffffffffffffffffffffffffffffffff16815260200190815260200160002060000160008681526020019081526020016000206003018190555083600860008a73ffffffffffffffffffffffffffffffffffffffff1673ffffffffffffffffffffffffffffffffffffffff1681526020019081526020016000206000016000868152602001908152602001600020600201819055506001840193505b50508080600101915050613501565b5080600860008773ffffffffffffffffffffffffffffffffffffffff1673ffffffffffffffffffffffffffffffffffffffff1681526020019081526020016000206001018190555080915060405180604001604052808581526020016001815250600760008773ffffffffffffffffffffffffffffffffffffffff1673ffffffffffffffffffffffffffffffffffffffff168152602001908152602001600020600082015181600001908051906020019061382b929190613bf8565b506020820151816001015590505060019250505b8360056000600654815260200190815260200160002060006101000a81548173ffffffffffffffffffffffffffffffffffffffff021916908373ffffffffffffffffffffffffffffffffffffffff16021790555060016006600082825401925050819055506000600760008673ffffffffffffffffffffffffffffffffffffffff1673ffffffffffffffffffffffffffffffffffffffff16815260200190815260200160002090507f89b886e508b5806f8c28179176052458c2bd0f54106811773b56be2d51a14e6085826000018360010154604051808473ffffffffffffffffffffffffffffffffffffffff168152602001806020018381526020018281038252848181546001816001161561010002031660029004815260200191508054600181600116156101000203166002900480156139bd5780601f10613992576101008083540402835291602001916139bd565b820191906000526020600020905b8154815290600101906020018083116139a057829003601f168201915b505094505050505060405180910390a1509250929050565b6000806139e3868686613a48565b90506000600a600083815260200190815260200160002060030160008573ffffffffffffffffffffffffffffffffffffffff1673ffffffffffffffffffffffffffffffffffffffff168152602001908152602001600020541415915050949350505050565b6000838383604051602001808473ffffffffffffffffffffffffffffffffffffffff1660601b815260140183805190602001908083835b60208310613aa25780518252602082019150602081019050602083039250613a7f565b6001836020036101000a03801982511681845116808217855250505050505090500182815260200193505050506040516020818303038152906040528051906020012090509392505050565b6000613b3083836040518060400160405280601e81526020017f536166654d6174683a207375627472616374696f6e206f766572666c6f770000815250613b38565b905092915050565b6000838311158290613be5576040517f08c379a00000000000000000000000000000000000000000000000000000000081526004018080602001828103825283818151815260200191508051906020019080838360005b83811015613baa578082015181840152602081019050613b8f565b50505050905090810190601f168015613bd75780820380516001836020036101000a031916815260200191505b509250505060405180910390fd5b5060008385039050809150509392505050565b828054600181600116156101000203166002900490600052602060002090601f016020900481019282601f10613c3957805160ff1916838001178555613c67565b82800160010185558215613c67579182015b82811115613c66578251825591602001919060010190613c4b565b5b509050613c749190613d19565b5090565b604051806040016040528060608152602001600081525090565b828054600181600116156101000203166002900490600052602060002090601f016020900481019282601f10613ccb5780548555613d08565b82800160010185558215613d0857600052602060002091601f016020900482015b82811115613d07578254825591600101919060010190613cec565b5b509050613d159190613d19565b5090565b5b80821115613d32576000816000905550600101613d1a565b509056fe494e53555245455f444f45535f4e4f5f45584953545f4f525f5041594f55545f444f4e45a26469706673582212209972ea3973ac011bff93e3085cf4968c86aac98c381f48340d66454ba375747564736f6c634300060c0033",
  "immutableReferences": {},
  "source": "// SPDX-License-Identifier: MIT\n\npragma solidity ^0.6.0;\n\nimport \"../node_modules/@openzeppelin/contracts/math/SafeMath.sol\";\nimport \"./Utils.sol\";\n\ncontract FlightSuretyData is Utils {\n    using SafeMath for uint256;\n\n    /********************************************************************************************/\n    /*                                       DATA VARIABLES                                     */\n    /********************************************************************************************/\n\n    address private contractOwner;                                      // Account used to deploy contract\n    address private authorizedContract;\n\n    uint private MINIMAL_FUND = 0.001 ether;\n\n    // Blocks all state changes throughout the contract if false\n\n\n    uint numberOfApproved;\n\n    struct Airline {\n        string name;\n        // 0 : does not exist\n        // 1 waiting for approval\n        // 2 approved\n        // 3 funded (10 ether payed)\n        // 9 blocked\n        uint status;\n    }\n\n    //\n    // Multiparty Consensus Approval VotingBox\n    //\n\n    struct Ballot {\n        address voterAddress;\n        string name;\n        uint index;\n        // 0 not voted\n        // 1 approve\n        // 2 disapprove\n        uint vote;\n    }\n\n    struct VotingBox {\n        mapping(uint => Ballot) ballotList;\n        uint ballotSize;\n    }\n\n    uint private consensusThreshold = 3;\n    mapping(uint => address) private airlineList;\n    uint private airlineIndex = 0;\n    mapping(address => Airline) private airlineData;\n    mapping(address => VotingBox) private votingBoxMap;\n\n\n\n\n    /********************************************************************************************/\n    /*                                       EVENT DEFINITIONS                                  */\n    /********************************************************************************************/\n\n    event Registered(address airlineAddress, string airlineName, uint status);\n\n    event VotingEvent(address airlineAddress, string airlineName, uint status);\n\n    /**\n    * @dev Constructor\n    *      The deploying account becomes contractOwner\n    */\n    constructor\n    (\n    )\n    public\n    {\n        contractOwner = msg.sender;\n    }\n\n    /********************************************************************************************/\n    /*                                       FUNCTION MODIFIERS                                 */\n    /********************************************************************************************/\n\n\n\n    /**\n    * @dev Modifier that requires the \"ContractOwner\" account to be the function caller\n    */\n    modifier requireContractOwner()\n    {\n        // DEV require(msg.sender == contractOwner || msg.sender == authorizedContract, \"CALLER_IS_NOT_CONTRACT_OWNER\");\n        _;\n    }\n\n    modifier requireAuthorizedCaller()\n    {\n        require(msg.sender == authorizedContract, \"CALLER_IS_NOT_AUTHORIZED\");\n        _;\n    }\n\n\n\n    /********************************************************************************************/\n    /*                                       UTILITY FUNCTIONS                                  */\n    /********************************************************************************************/\n\n\n\n\n    function authorizeCaller\n    (\n        address _contract\n    )\n    external\n    requireContractOwner\n    {\n        authorizedContract = _contract;\n    }\n\n    function getContractOwner\n    (\n    )\n    view\n    public\n    returns (address)\n    {\n        return contractOwner;\n    }\n\n    function getBallotSize\n    (\n        address _address\n    )\n    view\n    public\n    returns (uint)\n    {\n        VotingBox storage votingBox = votingBoxMap[_address];\n        return votingBox.ballotSize;\n    }\n\n\n    /********************************************************************************************/\n    /*                                     SMART CONTRACT FUNCTIONS                             */\n    /********************************************************************************************/\n\n\n    function registrationNeedsVoting()\n    public\n    requireAuthorizedCaller\n    view\n    returns (bool)\n    {\n        return !(consensusThreshold > airlineIndex);\n    }\n\n    function registerAirline\n    (\n        address _airlineAddress,\n        string memory _airlineName\n    )\n    requireAuthorizedCaller\n    external\n    returns (bool success, uint votes)\n    {\n        require(_airlineAddress != address(0), 'MISSING_AIRLINE_ADDRESS');\n        require(!isRegistered(_airlineAddress), 'AIRLINE_ALREADY_REGISTERED');\n        votes = 0;\n        success = false;\n        if (!registrationNeedsVoting()) {\n            airlineData[_airlineAddress] = Airline(_airlineName, 2);\n            success = true;\n        } else {\n            emit Console('register-1', uint(_airlineAddress), 'needs voting');\n            uint counter = 0;\n            for (uint i = 0; i < airlineIndex; i++) {\n                address voterAddress = airlineList[i];\n                Airline storage a = airlineData[voterAddress];\n                if (a.status == 2) {\n                    votingBoxMap[_airlineAddress].ballotList[counter].voterAddress = voterAddress;\n                    votingBoxMap[_airlineAddress].ballotList[counter].name = a.name;\n                    votingBoxMap[_airlineAddress].ballotList[counter].vote = 0;\n                    votingBoxMap[_airlineAddress].ballotList[counter].index = counter;\n                    counter += 1;\n                }\n            }\n            votingBoxMap[_airlineAddress].ballotSize = counter;\n            votes = counter;\n            airlineData[_airlineAddress] = Airline(_airlineName, 1);\n            success = true;\n        }\n        airlineList[airlineIndex] = _airlineAddress;\n        airlineIndex += 1;\n        Airline storage airline = airlineData[_airlineAddress];\n        emit Registered(_airlineAddress, airline.name, airline.status);\n        return (success, votes);\n    }\n\n\n    function isRegistered(address airline) public view returns (bool)\n    {\n        return airlineData[airline].status > 1;\n    }\n\n    function registrationStatus(\n        address _airlineAddress\n    )\n    public\n    view\n    returns (uint)\n    {\n        return airlineData[_airlineAddress].status;\n    }\n\n    function isAirline(address airline) public view returns (bool)\n    {\n        return airlineData[airline].status > 0;\n    }\n\n    function numberOfAirlines() public view returns (uint)\n    {\n        return airlineIndex;\n    }\n\n\n    function getConsensusThreshold() public view returns (uint)\n    {\n        return consensusThreshold;\n    }\n\n\n    function getAirlineByIndex(\n        uint index\n    )\n    public\n    view\n    returns (address airlineAddress, string memory airlineName, uint airlineStatus)\n    {\n        require(index < airlineIndex, 'WRONG_INDEX');\n        airlineAddress = airlineList[index];\n        Airline storage a = airlineData[airlineAddress];\n        airlineName = a.name;\n        airlineStatus = a.status;\n        return (airlineAddress, airlineName, airlineStatus);\n    }\n\n\n    function getAirlineByAddress(\n        address _address\n    )\n    public\n    view\n    returns (string memory airlineName, uint airlineStatus)\n    {\n        Airline storage airline = airlineData[_address];\n        require(airline.status == 0, 'WRONG_ADDRESS');\n        airlineName = airline.name;\n        airlineStatus = airline.status;\n        return (airlineName, airlineStatus);\n    }\n\n\n    function votingResultsByIndex(\n        uint _index\n    )\n    public\n    view\n    returns (uint, uint, uint, uint)\n    {\n        require(_index < airlineIndex, 'WRONG_AIRLINE_INDEX');\n        return votingResults(airlineList[_index]);\n    }\n\n\n    function votingResults\n    (\n        address _address\n    )\n    public\n    view\n    returns (uint yes, uint no, uint open, uint voters)\n    {\n        VotingBox storage votingBox = votingBoxMap[_address];\n        yes = 0;\n        no = 0;\n        open = 0;\n        for (uint i = 0; i < votingBox.ballotSize; i++) {\n            Ballot storage ballot = votingBox.ballotList[i];\n            if (ballot.vote == 0) {\n                open += 1;\n            }\n            if (ballot.vote == 1) {\n                yes += 1;\n            }\n            if (ballot.vote == 2) {\n                no += 1;\n            }\n        }\n        voters = votingBox.ballotSize;\n        return (yes, no, open, voters);\n    }\n\n\n    function voteOnAirline\n    (\n        address _candidateAddress,\n        address _voterAddress,\n        uint _vote\n    )\n    public\n\n    {\n        require(_vote == 1 || _vote == 2, 'VOTE_SHOULD_BE_1_OR_2');\n        require(_candidateAddress != address(0), 'EMPTY_CANDIDATE_ADDRESS');\n        require(_voterAddress != address(0), 'EMPTY_VOTER_ADDRESS');\n        Airline storage airline = airlineData[_candidateAddress];\n        require(airline.status == 1, 'CANDIDATE_STATUS_NOT_1');\n        VotingBox storage votingBox = votingBoxMap[_candidateAddress];\n        uint i = 0;\n        uint yeses = 0;\n        for (i = 0; i < votingBox.ballotSize; i++) {\n            Ballot storage ballot = votingBox.ballotList[i];\n            emit Console('voting-1', uint(ballot.voterAddress), 'voterAddress');\n            if (ballot.voterAddress == _voterAddress) {\n                ballot.vote = _vote;\n                emit Console('voting-1', _vote, 'in vote');\n            }\n            if (ballot.vote == 1) {\n                yeses += 1;\n            }\n        }\n        if (yeses >= (votingBox.ballotSize + 1) / 2) {\n            airline.status = 2;\n            emit VotingEvent(_candidateAddress, airline.name, airline.status);\n        }\n    }\n\n    uint paybackRatioPercentage = 150;\n\n    struct FlightData {\n        address airline;\n        string flight;\n        uint256 timestamp;\n        mapping(address => uint) insurances;\n        // 1 ok (initial)\n        // 2 pay outs\n        uint status;\n        uint totalSum;\n    }\n\n    mapping(bytes32 => FlightData) flightData;\n    bytes32[] flightKeys;\n\n\n    //\n    // FLIGHT\n    //\n\n    function registerFlight\n    (\n        address _airline, string memory _flight, uint256 _timestamp\n    )\n    external\n    requireAuthorizedCaller\n    {\n        bytes32 flightKey = getFlightKey(_airline, _flight, _timestamp);\n        require(flightData[flightKey].airline == address(0), 'FLIGHT_ALREADY_REGISTERED');\n        flightData[flightKey].airline = _airline;\n        flightData[flightKey].timestamp = _timestamp;\n        flightData[flightKey].flight = _flight;\n        flightKeys.push(flightKey);\n    }\n\n\n    function getNumberOfFlights\n    (\n\n    )\n    public\n    view\n    returns (uint)\n    {\n        return flightKeys.length;\n    }\n\n\n    function getFlightByIndex\n    (\n        uint index\n    )\n    public\n    view\n    returns (address airline, string memory flight, uint timestamp)\n    {\n        airline = flightData[flightKeys[index]].airline;\n        flight = flightData[flightKeys[index]].flight;\n        timestamp = flightData[flightKeys[index]].timestamp;\n        return (airline, flight, timestamp);\n    }\n\n    function isFlightRegistered\n    (\n        address _airline, string memory _flight, uint256 _timestamp\n    )\n    public\n    view\n    returns (bool)\n    {\n        bytes32 flightKey = getFlightKey(_airline, _flight, _timestamp);\n        return flightData[flightKey].airline != address(0);\n    }\n\n\n    //\n    // INSURANCE\n    //\n\n    function isInsured\n    (\n        address airline,\n        string memory flight,\n        uint256 timestamp,\n        address insuree\n    )\n    public\n    view\n    returns (bool)\n    {\n        bytes32 flightKey = getFlightKey(airline, flight, timestamp);\n        return flightData[flightKey].insurances[insuree] != 0;\n    }\n\n    function registerInsurance(\n        address airline,\n        string memory flight,\n        uint256 timestamp,\n        address insuree,\n        uint amount\n    )\n    external\n    requireAuthorizedCaller\n    {\n        bytes32 flightKey = getFlightKey(airline, flight, timestamp);\n        require(flightData[flightKey].airline != address(0), 'FLIGHT_DOES_NO_EXIST');\n        flightData[flightKey].insurances[insuree] = amount;\n    }\n\n\n    /**\n     *  @dev Credits payouts to insurees\n    */\n    function creditInsurees\n    (\n        address airline,\n        string memory flight,\n        uint256 timestamp\n    )\n    external\n    requireAuthorizedCaller\n    {\n        bytes32 flightKey = getFlightKey(airline, flight, timestamp);\n        require(flightData[flightKey].airline != address(0), 'Flight_does_no_exist');\n        require(flightData[flightKey].status == 1, 'FlightData_wrong_status');\n        flightData[flightKey].status = 2;\n    }\n\n\n    /**\n     *  @dev Transfers eligible payout funds to insuree\n     *\n    */\n    function pay\n    (\n        address airline,\n        string memory flight,\n        uint256 timestamp,\n        address payable insuree\n    )\n    external\n    payable\n    {\n\n        bytes32 flightKey = getFlightKey(airline, flight, timestamp);\n        require(flightData[flightKey].airline != address(0), 'FLIGHT_DOES_NO_EXIST');\n        require(flightData[flightKey].insurances[insuree] > 0, 'INSUREE_DOES_NO_EXIST_OR_PAYOUT_DONE');\n        require(flightData[flightKey].status != 2, 'NO_PAYOUT');\n        insuree.transfer(flightData[flightKey].insurances[insuree]);\n    }\n\n    /**\n     * @dev Initial funding for the insurance. Unless there are too many delayed flights\n     *      resulting in insurance payouts, the contract should be self-sustaining\n     *\n     */\n    function fund\n    (\n    )\n    public\n    payable\n    {\n        Airline memory airline = airlineData[msg.sender];\n        require(airline.status != 0, 'AIRLINE_NOT_REGISTERED');\n        require(airline.status != 3, 'ALREADY_FUNDED');\n        require(airline.status == 2, 'UNKNOWN_STATUS');\n        require(msg.value >= MINIMAL_FUND, 'NOT_ENOUGH');\n\n        payable(address(this)).transfer(MINIMAL_FUND);\n\n        uint amountToReturn = msg.value.sub(MINIMAL_FUND);\n        msg.sender.transfer(amountToReturn);\n        airlineData[msg.sender].status = 3;\n    }\n\n    function getFlightKey\n    (\n        address airline,\n        string memory flight,\n        uint256 timestamp\n    )\n    pure\n    internal\n    returns (bytes32)\n    {\n        return keccak256(abi.encodePacked(airline, flight, timestamp));\n    }\n\n    /**\n    * @dev Fallback function for funding smart contract.\n    *\n    */\n    fallback()\n    external\n    payable\n    {\n\n    }\n\n    receive()\n    external\n    payable\n    {\n\n    }\n\n\n}\n\n",
  "sourcePath": "/Users/tonibuenter/_proj/misc/udacity/u-blockchain4-flightsurety/contracts/FlightSuretyData.sol",
  "compiler": {
    "name": "solc",
    "version": "0.6.12+commit.27d51765.Emscripten.clang"
  },
  "schemaVersion": "3.4.1",
  "updatedAt": "2021-06-12T06:16:31.807Z",
  "networkType": "ethereum",
  "devdoc": {
    "kind": "dev",
    "methods": {
      "constructor": {
        "details": "Constructor      The deploying account becomes contractOwner"
      },
      "creditInsurees(address,string,uint256)": {
        "details": "Credits payouts to insurees"
      },
      "fund()": {
        "details": "Initial funding for the insurance. Unless there are too many delayed flights      resulting in insurance payouts, the contract should be self-sustaining"
      },
      "pay(address,string,uint256,address)": {
        "details": "Transfers eligible payout funds to insuree"
      }
    },
    "version": 1
  },
  "userdoc": {
    "kind": "user",
    "methods": {},
    "version": 1
  }
}