{
  "contractName": "FlightSuretyData",
  "abi": [
    {
      "inputs": [],
      "stateMutability": "nonpayable",
      "type": "constructor"
    },
    {
      "anonymous": false,
      "inputs": [
        {
          "indexed": false,
          "internalType": "string",
          "name": "origin",
          "type": "string"
        },
        {
          "indexed": false,
          "internalType": "uint256",
          "name": "level",
          "type": "uint256"
        },
        {
          "indexed": false,
          "internalType": "string",
          "name": "info",
          "type": "string"
        }
      ],
      "name": "Console",
      "type": "event"
    },
    {
      "anonymous": false,
      "inputs": [
        {
          "indexed": false,
          "internalType": "address",
          "name": "airlineAddress",
          "type": "address"
        },
        {
          "indexed": false,
          "internalType": "string",
          "name": "airlineName",
          "type": "string"
        },
        {
          "indexed": false,
          "internalType": "uint256",
          "name": "status",
          "type": "uint256"
        }
      ],
      "name": "Registered",
      "type": "event"
    },
    {
      "anonymous": false,
      "inputs": [
        {
          "indexed": false,
          "internalType": "address",
          "name": "airlineAddress",
          "type": "address"
        },
        {
          "indexed": false,
          "internalType": "string",
          "name": "airlineName",
          "type": "string"
        },
        {
          "indexed": false,
          "internalType": "uint256",
          "name": "status",
          "type": "uint256"
        }
      ],
      "name": "VotingEvent",
      "type": "event"
    },
    {
      "stateMutability": "payable",
      "type": "fallback",
      "payable": true
    },
    {
      "inputs": [
        {
          "internalType": "bytes1",
          "name": "b",
          "type": "bytes1"
        }
      ],
      "name": "char",
      "outputs": [
        {
          "internalType": "bytes1",
          "name": "c",
          "type": "bytes1"
        }
      ],
      "stateMutability": "pure",
      "type": "function",
      "constant": true
    },
    {
      "inputs": [
        {
          "internalType": "string",
          "name": "origin",
          "type": "string"
        },
        {
          "internalType": "uint256",
          "name": "level",
          "type": "uint256"
        },
        {
          "internalType": "string",
          "name": "info",
          "type": "string"
        }
      ],
      "name": "log",
      "outputs": [],
      "stateMutability": "nonpayable",
      "type": "function"
    },
    {
      "inputs": [
        {
          "internalType": "address",
          "name": "x",
          "type": "address"
        }
      ],
      "name": "toAsciiString",
      "outputs": [
        {
          "internalType": "string",
          "name": "",
          "type": "string"
        }
      ],
      "stateMutability": "pure",
      "type": "function",
      "constant": true
    },
    {
      "stateMutability": "payable",
      "type": "receive",
      "payable": true
    },
    {
      "inputs": [
        {
          "internalType": "address",
          "name": "_contract",
          "type": "address"
        }
      ],
      "name": "authorizeCaller",
      "outputs": [],
      "stateMutability": "nonpayable",
      "type": "function"
    },
    {
      "inputs": [],
      "name": "getContractOwner",
      "outputs": [
        {
          "internalType": "address",
          "name": "",
          "type": "address"
        }
      ],
      "stateMutability": "view",
      "type": "function",
      "constant": true
    },
    {
      "inputs": [
        {
          "internalType": "address",
          "name": "_address",
          "type": "address"
        }
      ],
      "name": "getBallotSize",
      "outputs": [
        {
          "internalType": "uint256",
          "name": "",
          "type": "uint256"
        }
      ],
      "stateMutability": "view",
      "type": "function",
      "constant": true
    },
    {
      "inputs": [],
      "name": "registrationNeedsVoting",
      "outputs": [
        {
          "internalType": "bool",
          "name": "",
          "type": "bool"
        }
      ],
      "stateMutability": "view",
      "type": "function",
      "constant": true
    },
    {
      "inputs": [
        {
          "internalType": "address",
          "name": "_airlineAddress",
          "type": "address"
        },
        {
          "internalType": "string",
          "name": "_airlineName",
          "type": "string"
        }
      ],
      "name": "registerAirline",
      "outputs": [
        {
          "internalType": "bool",
          "name": "success",
          "type": "bool"
        },
        {
          "internalType": "uint256",
          "name": "votes",
          "type": "uint256"
        }
      ],
      "stateMutability": "nonpayable",
      "type": "function"
    },
    {
      "inputs": [
        {
          "internalType": "address",
          "name": "airline",
          "type": "address"
        }
      ],
      "name": "isRegistered",
      "outputs": [
        {
          "internalType": "bool",
          "name": "",
          "type": "bool"
        }
      ],
      "stateMutability": "view",
      "type": "function",
      "constant": true
    },
    {
      "inputs": [
        {
          "internalType": "address",
          "name": "_airlineAddress",
          "type": "address"
        }
      ],
      "name": "registrationStatus",
      "outputs": [
        {
          "internalType": "uint256",
          "name": "",
          "type": "uint256"
        }
      ],
      "stateMutability": "view",
      "type": "function",
      "constant": true
    },
    {
      "inputs": [
        {
          "internalType": "address",
          "name": "airline",
          "type": "address"
        }
      ],
      "name": "isAirline",
      "outputs": [
        {
          "internalType": "bool",
          "name": "",
          "type": "bool"
        }
      ],
      "stateMutability": "view",
      "type": "function",
      "constant": true
    },
    {
      "inputs": [],
      "name": "numberOfAirlines",
      "outputs": [
        {
          "internalType": "uint256",
          "name": "",
          "type": "uint256"
        }
      ],
      "stateMutability": "view",
      "type": "function",
      "constant": true
    },
    {
      "inputs": [],
      "name": "getConsensusThreshold",
      "outputs": [
        {
          "internalType": "uint256",
          "name": "",
          "type": "uint256"
        }
      ],
      "stateMutability": "view",
      "type": "function",
      "constant": true
    },
    {
      "inputs": [
        {
          "internalType": "uint256",
          "name": "index",
          "type": "uint256"
        }
      ],
      "name": "getAirlineByIndex",
      "outputs": [
        {
          "internalType": "address",
          "name": "airlineAddress",
          "type": "address"
        },
        {
          "internalType": "string",
          "name": "airlineName",
          "type": "string"
        },
        {
          "internalType": "uint256",
          "name": "airlineStatus",
          "type": "uint256"
        }
      ],
      "stateMutability": "view",
      "type": "function",
      "constant": true
    },
    {
      "inputs": [
        {
          "internalType": "address",
          "name": "_address",
          "type": "address"
        }
      ],
      "name": "getAirlineByAddress",
      "outputs": [
        {
          "internalType": "string",
          "name": "airlineName",
          "type": "string"
        },
        {
          "internalType": "uint256",
          "name": "airlineStatus",
          "type": "uint256"
        }
      ],
      "stateMutability": "view",
      "type": "function",
      "constant": true
    },
    {
      "inputs": [
        {
          "internalType": "uint256",
          "name": "_index",
          "type": "uint256"
        }
      ],
      "name": "votingResultsByIndex",
      "outputs": [
        {
          "internalType": "uint256",
          "name": "",
          "type": "uint256"
        },
        {
          "internalType": "uint256",
          "name": "",
          "type": "uint256"
        },
        {
          "internalType": "uint256",
          "name": "",
          "type": "uint256"
        },
        {
          "internalType": "uint256",
          "name": "",
          "type": "uint256"
        }
      ],
      "stateMutability": "view",
      "type": "function",
      "constant": true
    },
    {
      "inputs": [
        {
          "internalType": "address",
          "name": "_address",
          "type": "address"
        }
      ],
      "name": "votingResults",
      "outputs": [
        {
          "internalType": "uint256",
          "name": "yes",
          "type": "uint256"
        },
        {
          "internalType": "uint256",
          "name": "no",
          "type": "uint256"
        },
        {
          "internalType": "uint256",
          "name": "open",
          "type": "uint256"
        },
        {
          "internalType": "uint256",
          "name": "voters",
          "type": "uint256"
        }
      ],
      "stateMutability": "view",
      "type": "function",
      "constant": true
    },
    {
      "inputs": [
        {
          "internalType": "address",
          "name": "_candidateAddress",
          "type": "address"
        },
        {
          "internalType": "address",
          "name": "_voterAddress",
          "type": "address"
        },
        {
          "internalType": "uint256",
          "name": "_vote",
          "type": "uint256"
        }
      ],
      "name": "voteOnAirline",
      "outputs": [],
      "stateMutability": "nonpayable",
      "type": "function"
    },
    {
      "inputs": [
        {
          "internalType": "address",
          "name": "_airline",
          "type": "address"
        },
        {
          "internalType": "string",
          "name": "_flight",
          "type": "string"
        },
        {
          "internalType": "uint256",
          "name": "_timestamp",
          "type": "uint256"
        }
      ],
      "name": "registerFlight",
      "outputs": [],
      "stateMutability": "nonpayable",
      "type": "function"
    },
    {
      "inputs": [
        {
          "internalType": "address",
          "name": "_airline",
          "type": "address"
        },
        {
          "internalType": "string",
          "name": "_flight",
          "type": "string"
        },
        {
          "internalType": "uint256",
          "name": "_timestamp",
          "type": "uint256"
        }
      ],
      "name": "isFlightRegistered",
      "outputs": [
        {
          "internalType": "bool",
          "name": "",
          "type": "bool"
        }
      ],
      "stateMutability": "view",
      "type": "function",
      "constant": true
    },
    {
      "inputs": [
        {
          "internalType": "address",
          "name": "airline",
          "type": "address"
        },
        {
          "internalType": "string",
          "name": "flight",
          "type": "string"
        },
        {
          "internalType": "uint256",
          "name": "timestamp",
          "type": "uint256"
        },
        {
          "internalType": "address",
          "name": "insuree",
          "type": "address"
        }
      ],
      "name": "isInsured",
      "outputs": [
        {
          "internalType": "bool",
          "name": "",
          "type": "bool"
        }
      ],
      "stateMutability": "view",
      "type": "function",
      "constant": true
    },
    {
      "inputs": [
        {
          "internalType": "address",
          "name": "airline",
          "type": "address"
        },
        {
          "internalType": "string",
          "name": "flight",
          "type": "string"
        },
        {
          "internalType": "uint256",
          "name": "timestamp",
          "type": "uint256"
        },
        {
          "internalType": "address",
          "name": "insuree",
          "type": "address"
        },
        {
          "internalType": "uint256",
          "name": "amount",
          "type": "uint256"
        }
      ],
      "name": "registerInsurance",
      "outputs": [],
      "stateMutability": "nonpayable",
      "type": "function"
    },
    {
      "inputs": [
        {
          "internalType": "address",
          "name": "airline",
          "type": "address"
        },
        {
          "internalType": "string",
          "name": "flight",
          "type": "string"
        },
        {
          "internalType": "uint256",
          "name": "timestamp",
          "type": "uint256"
        }
      ],
      "name": "creditInsurees",
      "outputs": [],
      "stateMutability": "nonpayable",
      "type": "function"
    },
    {
      "inputs": [
        {
          "internalType": "address",
          "name": "airline",
          "type": "address"
        },
        {
          "internalType": "string",
          "name": "flight",
          "type": "string"
        },
        {
          "internalType": "uint256",
          "name": "timestamp",
          "type": "uint256"
        },
        {
          "internalType": "address payable",
          "name": "insuree",
          "type": "address"
        }
      ],
      "name": "pay",
      "outputs": [],
      "stateMutability": "payable",
      "type": "function",
      "payable": true
    },
    {
      "inputs": [],
      "name": "fund",
      "outputs": [],
      "stateMutability": "payable",
      "type": "function",
      "payable": true
    }
  ],
  "bytecode": "0x6080604052600a60025560036004556000600655609660095534801561002457600080fd5b50336000806101000a81548173ffffffffffffffffffffffffffffffffffffffff021916908373ffffffffffffffffffffffffffffffffffffffff160217905550613acc806100746000396000f3fe6080604052600436106101695760003560e01c80635970e089116100d1578063a305e6b91161008a578063c8820a7011610064578063c8820a7014610de1578063d42791e114610ed3578063ee38a74914610efe578063f92e0ecc1461100357610170565b8063a305e6b914610c54578063b60d428814610d70578063c3c5a54714610d7a57610170565b80635970e08914610859578063602e03b4146109c257806369f9ad2f14610a275780637998c0b814610aba5780638b41aaae14610b8b5780639c9161c514610bf057610170565b80633cc0be9c116101235780633cc0be9c146104a2578063408ce10a14610594578063433b875a1461066c578063442890d51461069957806345c83148146106da5780634fe63a481461075457610170565b80623cc044146101725780630e248a11146101ed578063241a53cb146102545780632c388d5d1461035c5780632c6e7598146103ad5780633c85380f1461047757610170565b3661017057005b005b34801561017e57600080fd5b506101eb6004803603606081101561019557600080fd5b81019080803573ffffffffffffffffffffffffffffffffffffffff169060200190929190803573ffffffffffffffffffffffffffffffffffffffff1690602001909291908035906020019092919050505061112b565b005b3480156101f957600080fd5b5061023c6004803603602081101561021057600080fd5b81019080803573ffffffffffffffffffffffffffffffffffffffff169060200190929190505050611741565b60405180821515815260200191505060405180910390f35b34801561026057600080fd5b506103446004803603606081101561027757600080fd5b81019080803573ffffffffffffffffffffffffffffffffffffffff169060200190929190803590602001906401000000008111156102b457600080fd5b8201836020820111156102c657600080fd5b803590602001918460018302840111640100000000831117156102e857600080fd5b91908080601f016020809104026020016040519081016040528093929190818152602001838380828437600081840152601f19601f8201169050808301925050505050505091929192908035906020019092919050505061178f565b60405180821515815260200191505060405180910390f35b34801561036857600080fd5b506103ab6004803603602081101561037f57600080fd5b81019080803573ffffffffffffffffffffffffffffffffffffffff169060200190929190505050611810565b005b3480156103b957600080fd5b506103fc600480360360208110156103d057600080fd5b81019080803573ffffffffffffffffffffffffffffffffffffffff169060200190929190505050611854565b6040518080602001828103825283818151815260200191508051906020019080838360005b8381101561043c578082015181840152602081019050610421565b50505050905090810190601f1680156104695780820380516001836020036101000a031916815260200191505b509250505060405180910390f35b34801561048357600080fd5b5061048c6119b7565b6040518082815260200191505060405180910390f35b3480156104ae57600080fd5b50610592600480360360608110156104c557600080fd5b81019080803573ffffffffffffffffffffffffffffffffffffffff1690602001909291908035906020019064010000000081111561050257600080fd5b82018360208201111561051457600080fd5b8035906020019184600183028401116401000000008311171561053657600080fd5b91908080601f016020809104026020016040519081016040528093929190818152602001838380828437600081840152601f19601f820116905080830192505050505050509192919290803590602001909291905050506119c1565b005b3480156105a057600080fd5b506105cd600480360360208110156105b757600080fd5b8101908080359060200190929190505050611c0c565b604051808473ffffffffffffffffffffffffffffffffffffffff16815260200180602001838152602001828103825284818151815260200191508051906020019080838360005b8381101561062f578082015181840152602081019050610614565b50505050905090810190601f16801561065c5780820380516001836020036101000a031916815260200191505b5094505050505060405180910390f35b34801561067857600080fd5b50610681611db0565b60405180821515815260200191505060405180910390f35b3480156106a557600080fd5b506106ae611e82565b604051808273ffffffffffffffffffffffffffffffffffffffff16815260200191505060405180910390f35b3480156106e657600080fd5b50610729600480360360208110156106fd57600080fd5b81019080803573ffffffffffffffffffffffffffffffffffffffff169060200190929190505050611eab565b6040518085815260200184815260200183815260200182815260200194505050505060405180910390f35b6108576004803603608081101561076a57600080fd5b81019080803573ffffffffffffffffffffffffffffffffffffffff169060200190929190803590602001906401000000008111156107a757600080fd5b8201836020820111156107b957600080fd5b803590602001918460018302840111640100000000831117156107db57600080fd5b91908080601f016020809104026020016040519081016040528093929190818152602001838380828437600081840152601f19601f82011690508083019250505050505050919291929080359060200190929190803573ffffffffffffffffffffffffffffffffffffffff169060200190929190505050611f82565b005b34801561086557600080fd5b506109c06004803603606081101561087c57600080fd5b810190808035906020019064010000000081111561089957600080fd5b8201836020820111156108ab57600080fd5b803590602001918460018302840111640100000000831117156108cd57600080fd5b91908080601f016020809104026020016040519081016040528093929190818152602001838380828437600081840152601f19601f820116905080830192505050505050509192919290803590602001909291908035906020019064010000000081111561093a57600080fd5b82018360208201111561094c57600080fd5b8035906020019184600183028401116401000000008311171561096e57600080fd5b91908080601f016020809104026020016040519081016040528093929190818152602001838380828437600081840152601f19601f820116905080830192505050505050509192919290505050612244565b005b3480156109ce57600080fd5b50610a11600480360360208110156109e557600080fd5b81019080803573ffffffffffffffffffffffffffffffffffffffff16906020019092919050505061235a565b6040518082815260200191505060405180910390f35b348015610a3357600080fd5b50610a8260048036036020811015610a4a57600080fd5b8101908080357effffffffffffffffffffffffffffffffffffffffffffffffffffffffffffff191690602001909291905050506123a6565b60405180827effffffffffffffffffffffffffffffffffffffffffffffffffffffffffffff1916815260200191505060405180910390f35b348015610ac657600080fd5b50610b0960048036036020811015610add57600080fd5b81019080803573ffffffffffffffffffffffffffffffffffffffff1690602001909291905050506123da565b6040518080602001838152602001828103825284818151815260200191508051906020019080838360005b83811015610b4f578082015181840152602081019050610b34565b50505050905090810190601f168015610b7c5780820380516001836020036101000a031916815260200191505b50935050505060405180910390f35b348015610b9757600080fd5b50610bda60048036036020811015610bae57600080fd5b81019080803573ffffffffffffffffffffffffffffffffffffffff169060200190929190505050612546565b6040518082815260200191505060405180910390f35b348015610bfc57600080fd5b50610c2960048036036020811015610c1357600080fd5b8101908080359060200190929190505050612597565b6040518085815260200184815260200183815260200182815260200194505050505060405180910390f35b348015610c6057600080fd5b50610d6e600480360360a0811015610c7757600080fd5b81019080803573ffffffffffffffffffffffffffffffffffffffff16906020019092919080359060200190640100000000811115610cb457600080fd5b820183602082011115610cc657600080fd5b80359060200191846001830284011164010000000083111715610ce857600080fd5b91908080601f016020809104026020016040519081016040528093929190818152602001838380828437600081840152601f19601f82011690508083019250505050505050919291929080359060200190929190803573ffffffffffffffffffffffffffffffffffffffff1690602001909291908035906020019092919050505061265f565b005b610d7861286a565b005b348015610d8657600080fd5b50610dc960048036036020811015610d9d57600080fd5b81019080803573ffffffffffffffffffffffffffffffffffffffff169060200190929190505050612c47565b60405180821515815260200191505060405180910390f35b348015610ded57600080fd5b50610ed160048036036060811015610e0457600080fd5b81019080803573ffffffffffffffffffffffffffffffffffffffff16906020019092919080359060200190640100000000811115610e4157600080fd5b820183602082011115610e5357600080fd5b80359060200191846001830284011164010000000083111715610e7557600080fd5b91908080601f016020809104026020016040519081016040528093929190818152602001838380828437600081840152601f19601f82011690508083019250505050505050919291929080359060200190929190505050612c96565b005b348015610edf57600080fd5b50610ee8612eef565b6040518082815260200191505060405180910390f35b348015610f0a57600080fd5b50610fe460048036036040811015610f2157600080fd5b81019080803573ffffffffffffffffffffffffffffffffffffffff16906020019092919080359060200190640100000000811115610f5e57600080fd5b820183602082011115610f7057600080fd5b80359060200191846001830284011164010000000083111715610f9257600080fd5b91908080601f016020809104026020016040519081016040528093929190818152602001838380828437600081840152601f19601f820116905080830192505050505050509192919290505050612ef9565b6040518083151581526020018281526020019250505060405180910390f35b34801561100f57600080fd5b506111136004803603608081101561102657600080fd5b81019080803573ffffffffffffffffffffffffffffffffffffffff1690602001909291908035906020019064010000000081111561106357600080fd5b82018360208201111561107557600080fd5b8035906020019184600183028401116401000000008311171561109757600080fd5b91908080601f016020809104026020016040519081016040528093929190818152602001838380828437600081840152601f19601f82011690508083019250505050505050919291929080359060200190929190803573ffffffffffffffffffffffffffffffffffffffff169060200190929190505050613711565b60405180821515815260200191505060405180910390f35b600181148061113a5750600281145b6111ac576040517f08c379a00000000000000000000000000000000000000000000000000000000081526004018080602001828103825260158152602001807f564f54455f53484f554c445f42455f315f4f525f32000000000000000000000081525060200191505060405180910390fd5b600073ffffffffffffffffffffffffffffffffffffffff168373ffffffffffffffffffffffffffffffffffffffff16141561124f576040517f08c379a00000000000000000000000000000000000000000000000000000000081526004018080602001828103825260178152602001807f454d5054595f43414e4449444154455f4144445245535300000000000000000081525060200191505060405180910390fd5b600073ffffffffffffffffffffffffffffffffffffffff168273ffffffffffffffffffffffffffffffffffffffff1614156112f2576040517f08c379a00000000000000000000000000000000000000000000000000000000081526004018080602001828103825260138152602001807f454d5054595f564f5445525f414444524553530000000000000000000000000081525060200191505060405180910390fd5b6000600760008573ffffffffffffffffffffffffffffffffffffffff1673ffffffffffffffffffffffffffffffffffffffff168152602001908152602001600020905060018160010154146113af576040517f08c379a00000000000000000000000000000000000000000000000000000000081526004018080602001828103825260168152602001807f43414e4449444154455f5354415455535f4e4f545f310000000000000000000081525060200191505060405180910390fd5b6000600860008673ffffffffffffffffffffffffffffffffffffffff1673ffffffffffffffffffffffffffffffffffffffff1681526020019081526020016000209050600080600091505b826001015482101561162f57600083600001600084815260200190815260200160002090507face1aa9780bbc49f856ae4fe04995bd3db501976b157012131b6f92019a346948160000160009054906101000a900473ffffffffffffffffffffffffffffffffffffffff1673ffffffffffffffffffffffffffffffffffffffff16604051808060200183815260200180602001838103835260088152602001807f766f74696e672d310000000000000000000000000000000000000000000000008152506020018381038252600c8152602001807f766f746572416464726573730000000000000000000000000000000000000000815250602001935050505060405180910390a18673ffffffffffffffffffffffffffffffffffffffff168160000160009054906101000a900473ffffffffffffffffffffffffffffffffffffffff1673ffffffffffffffffffffffffffffffffffffffff16141561160d578581600301819055507face1aa9780bbc49f856ae4fe04995bd3db501976b157012131b6f92019a3469486604051808060200183815260200180602001838103835260088152602001807f766f74696e672d31000000000000000000000000000000000000000000000000815250602001838103825260078152602001807f696e20766f746500000000000000000000000000000000000000000000000000815250602001935050505060405180910390a15b600181600301541415611621576001820191505b5081806001019250506113fa565b600260018460010154018161164057fe5b04811061173857600284600101819055507ffe9d4497e883ac6410397197a8dd9a80c9eb3a6ae51016c22f276b099ed1660d87856000018660010154604051808473ffffffffffffffffffffffffffffffffffffffff168152602001806020018381526020018281038252848181546001816001161561010002031660029004815260200191508054600181600116156101000203166002900480156117275780601f106116fc57610100808354040283529160200191611727565b820191906000526020600020905b81548152906001019060200180831161170a57829003601f168201915b505094505050505060405180910390a15b50505050505050565b600080600760008473ffffffffffffffffffffffffffffffffffffffff1673ffffffffffffffffffffffffffffffffffffffff16815260200190815260200160002060010154119050919050565b60008061179d858585613784565b9050600073ffffffffffffffffffffffffffffffffffffffff16600a600083815260200190815260200160002060000160009054906101000a900473ffffffffffffffffffffffffffffffffffffffff1673ffffffffffffffffffffffffffffffffffffffff1614159150509392505050565b80600160006101000a81548173ffffffffffffffffffffffffffffffffffffffff021916908373ffffffffffffffffffffffffffffffffffffffff16021790555050565b606080602867ffffffffffffffff8111801561186f57600080fd5b506040519080825280601f01601f1916602001820160405280156118a25781602001600182028036833780820191505090505b50905060005b60148110156119ad5760008160130360080260020a8573ffffffffffffffffffffffffffffffffffffffff16816118db57fe5b0460f81b9050600060108260f81c60ff16816118f357fe5b0460f81b905060008160f81c6010028360f81c0360f81b9050611915826123a6565b85856002028151811061192457fe5b60200101907effffffffffffffffffffffffffffffffffffffffffffffffffffffffffffff1916908160001a90535061195c816123a6565b85600186600202018151811061196e57fe5b60200101907effffffffffffffffffffffffffffffffffffffffffffffffffffffffffffff1916908160001a90535050505080806001019150506118a8565b5080915050919050565b6000600654905090565b600160009054906101000a900473ffffffffffffffffffffffffffffffffffffffff1673ffffffffffffffffffffffffffffffffffffffff163373ffffffffffffffffffffffffffffffffffffffff1614611a84576040517f08c379a00000000000000000000000000000000000000000000000000000000081526004018080602001828103825260188152602001807f43414c4c45525f49535f4e4f545f415554484f52495a4544000000000000000081525060200191505060405180910390fd5b6000611a91848484613784565b9050600073ffffffffffffffffffffffffffffffffffffffff16600a600083815260200190815260200160002060000160009054906101000a900473ffffffffffffffffffffffffffffffffffffffff1673ffffffffffffffffffffffffffffffffffffffff1614611b6b576040517f08c379a00000000000000000000000000000000000000000000000000000000081526004018080602001828103825260198152602001807f464c494748545f414c52454144595f524547495354455245440000000000000081525060200191505060405180910390fd5b83600a600083815260200190815260200160002060000160006101000a81548173ffffffffffffffffffffffffffffffffffffffff021916908373ffffffffffffffffffffffffffffffffffffffff16021790555081600a60008381526020019081526020016000206002018190555082600a60008381526020019081526020016000206001019080519060200190611c05929190613934565b5050505050565b6000606060006006548410611c89576040517f08c379a000000000000000000000000000000000000000000000000000000000815260040180806020018281038252600b8152602001807f57524f4e475f494e44455800000000000000000000000000000000000000000081525060200191505060405180910390fd5b6005600085815260200190815260200160002060009054906101000a900473ffffffffffffffffffffffffffffffffffffffff1692506000600760008573ffffffffffffffffffffffffffffffffffffffff1673ffffffffffffffffffffffffffffffffffffffff1681526020019081526020016000209050806000018054600181600116156101000203166002900480601f016020809104026020016040519081016040528092919081815260200182805460018160011615610100020316600290048015611d9a5780601f10611d6f57610100808354040283529160200191611d9a565b820191906000526020600020905b815481529060010190602001808311611d7d57829003601f168201915b5050505050925080600101549150509193909250565b6000600160009054906101000a900473ffffffffffffffffffffffffffffffffffffffff1673ffffffffffffffffffffffffffffffffffffffff163373ffffffffffffffffffffffffffffffffffffffff1614611e75576040517f08c379a00000000000000000000000000000000000000000000000000000000081526004018080602001828103825260188152602001807f43414c4c45525f49535f4e4f545f415554484f52495a4544000000000000000081525060200191505060405180910390fd5b6006546004541115905090565b60008060009054906101000a900473ffffffffffffffffffffffffffffffffffffffff16905090565b6000806000806000600860008773ffffffffffffffffffffffffffffffffffffffff1673ffffffffffffffffffffffffffffffffffffffff168152602001908152602001600020905060009450600093506000925060005b8160010154811015611f725760008260000160008381526020019081526020016000209050600081600301541415611f3c576001850194505b600181600301541415611f50576001870196505b600281600301541415611f64576001860195505b508080600101915050611f03565b5080600101549150509193509193565b6000611f8f858585613784565b9050600073ffffffffffffffffffffffffffffffffffffffff16600a600083815260200190815260200160002060000160009054906101000a900473ffffffffffffffffffffffffffffffffffffffff1673ffffffffffffffffffffffffffffffffffffffff16141561206a576040517f08c379a00000000000000000000000000000000000000000000000000000000081526004018080602001828103825260148152602001807f464c494748545f444f45535f4e4f5f455849535400000000000000000000000081525060200191505060405180910390fd5b6000600a600083815260200190815260200160002060030160008473ffffffffffffffffffffffffffffffffffffffff1673ffffffffffffffffffffffffffffffffffffffff1681526020019081526020016000205411612116576040517f08c379a0000000000000000000000000000000000000000000000000000000008152600401808060200182810382526024815260200180613a736024913960400191505060405180910390fd5b6002600a60008381526020019081526020016000206004015414156121a3576040517f08c379a00000000000000000000000000000000000000000000000000000000081526004018080602001828103825260098152602001807f4e4f5f5041594f5554000000000000000000000000000000000000000000000081525060200191505060405180910390fd5b8173ffffffffffffffffffffffffffffffffffffffff166108fc600a600084815260200190815260200160002060030160008573ffffffffffffffffffffffffffffffffffffffff1673ffffffffffffffffffffffffffffffffffffffff168152602001908152602001600020549081150290604051600060405180830381858888f1935050505015801561223c573d6000803e3d6000fd5b505050505050565b7face1aa9780bbc49f856ae4fe04995bd3db501976b157012131b6f92019a34694838383604051808060200184815260200180602001838103835286818151815260200191508051906020019080838360005b838110156122b2578082015181840152602081019050612297565b50505050905090810190601f1680156122df5780820380516001836020036101000a031916815260200191505b50838103825284818151815260200191508051906020019080838360005b838110156123185780820151818401526020810190506122fd565b50505050905090810190601f1680156123455780820380516001836020036101000a031916815260200191505b509550505050505060405180910390a1505050565b6000600760008373ffffffffffffffffffffffffffffffffffffffff1673ffffffffffffffffffffffffffffffffffffffff168152602001908152602001600020600101549050919050565b6000600a8260f81c60ff1610156123c85760308260f81c0160f81b90506123d5565b60578260f81c0160f81b90505b919050565b6060600080600760008573ffffffffffffffffffffffffffffffffffffffff1673ffffffffffffffffffffffffffffffffffffffff1681526020019081526020016000209050600081600101541461249a576040517f08c379a000000000000000000000000000000000000000000000000000000000815260040180806020018281038252600d8152602001807f57524f4e475f414444524553530000000000000000000000000000000000000081525060200191505060405180910390fd5b806000018054600181600116156101000203166002900480601f0160208091040260200160405190810160405280929190818152602001828054600181600116156101000203166002900480156125325780601f1061250757610100808354040283529160200191612532565b820191906000526020600020905b81548152906001019060200180831161251557829003601f168201915b505050505092508060010154915050915091565b600080600860008473ffffffffffffffffffffffffffffffffffffffff1673ffffffffffffffffffffffffffffffffffffffff16815260200190815260200160002090508060010154915050919050565b6000806000806006548510612614576040517f08c379a00000000000000000000000000000000000000000000000000000000081526004018080602001828103825260138152602001807f57524f4e475f4149524c494e455f494e4445580000000000000000000000000081525060200191505060405180910390fd5b6126506005600087815260200190815260200160002060009054906101000a900473ffffffffffffffffffffffffffffffffffffffff16611eab565b93509350935093509193509193565b600160009054906101000a900473ffffffffffffffffffffffffffffffffffffffff1673ffffffffffffffffffffffffffffffffffffffff163373ffffffffffffffffffffffffffffffffffffffff1614612722576040517f08c379a00000000000000000000000000000000000000000000000000000000081526004018080602001828103825260188152602001807f43414c4c45525f49535f4e4f545f415554484f52495a4544000000000000000081525060200191505060405180910390fd5b600061272f868686613784565b9050600073ffffffffffffffffffffffffffffffffffffffff16600a600083815260200190815260200160002060000160009054906101000a900473ffffffffffffffffffffffffffffffffffffffff1673ffffffffffffffffffffffffffffffffffffffff16141561280a576040517f08c379a00000000000000000000000000000000000000000000000000000000081526004018080602001828103825260148152602001807f464c494748545f444f45535f4e4f5f455849535400000000000000000000000081525060200191505060405180910390fd5b81600a600083815260200190815260200160002060030160008573ffffffffffffffffffffffffffffffffffffffff1673ffffffffffffffffffffffffffffffffffffffff16815260200190815260200160002081905550505050505050565b6128726139b4565b600760003373ffffffffffffffffffffffffffffffffffffffff1673ffffffffffffffffffffffffffffffffffffffff168152602001908152602001600020604051806040016040529081600082018054600181600116156101000203166002900480601f0160208091040260200160405190810160405280929190818152602001828054600181600116156101000203166002900480156129555780601f1061292a57610100808354040283529160200191612955565b820191906000526020600020905b81548152906001019060200180831161293857829003601f168201915b5050505050815260200160018201548152505090506000816020015114156129e5576040517f08c379a00000000000000000000000000000000000000000000000000000000081526004018080602001828103825260168152602001807f4149524c494e455f4e4f545f524547495354455245440000000000000000000081525060200191505060405180910390fd5b600381602001511415612a60576040517f08c379a000000000000000000000000000000000000000000000000000000000815260040180806020018281038252600e8152602001807f414c52454144595f46554e44454400000000000000000000000000000000000081525060200191505060405180910390fd5b6002816020015114612ada576040517f08c379a000000000000000000000000000000000000000000000000000000000815260040180806020018281038252600e8152602001807f554e4b4e4f574e5f53544154555300000000000000000000000000000000000081525060200191505060405180910390fd5b600254341015612b52576040517f08c379a000000000000000000000000000000000000000000000000000000000815260040180806020018281038252600a8152602001807f4e4f545f454e4f5547480000000000000000000000000000000000000000000081525060200191505060405180910390fd5b3073ffffffffffffffffffffffffffffffffffffffff166108fc6002549081150290604051600060405180830381858888f19350505050158015612b9a573d6000803e3d6000fd5b506000612bb26002543461382a90919063ffffffff16565b90503373ffffffffffffffffffffffffffffffffffffffff166108fc829081150290604051600060405180830381858888f19350505050158015612bfa573d6000803e3d6000fd5b506003600760003373ffffffffffffffffffffffffffffffffffffffff1673ffffffffffffffffffffffffffffffffffffffff168152602001908152602001600020600101819055505050565b60006001600760008473ffffffffffffffffffffffffffffffffffffffff1673ffffffffffffffffffffffffffffffffffffffff16815260200190815260200160002060010154119050919050565b600160009054906101000a900473ffffffffffffffffffffffffffffffffffffffff1673ffffffffffffffffffffffffffffffffffffffff163373ffffffffffffffffffffffffffffffffffffffff1614612d59576040517f08c379a00000000000000000000000000000000000000000000000000000000081526004018080602001828103825260188152602001807f43414c4c45525f49535f4e4f545f415554484f52495a4544000000000000000081525060200191505060405180910390fd5b6000612d66848484613784565b9050600073ffffffffffffffffffffffffffffffffffffffff16600a600083815260200190815260200160002060000160009054906101000a900473ffffffffffffffffffffffffffffffffffffffff1673ffffffffffffffffffffffffffffffffffffffff161415612e41576040517f08c379a00000000000000000000000000000000000000000000000000000000081526004018080602001828103825260148152602001807f466c696768745f646f65735f6e6f5f657869737400000000000000000000000081525060200191505060405180910390fd5b6001600a60008381526020019081526020016000206004015414612ecd576040517f08c379a00000000000000000000000000000000000000000000000000000000081526004018080602001828103825260178152602001807f466c69676874446174615f77726f6e675f73746174757300000000000000000081525060200191505060405180910390fd5b6002600a60008381526020019081526020016000206004018190555050505050565b6000600454905090565b600080600160009054906101000a900473ffffffffffffffffffffffffffffffffffffffff1673ffffffffffffffffffffffffffffffffffffffff163373ffffffffffffffffffffffffffffffffffffffff1614612fbf576040517f08c379a00000000000000000000000000000000000000000000000000000000081526004018080602001828103825260188152602001807f43414c4c45525f49535f4e4f545f415554484f52495a4544000000000000000081525060200191505060405180910390fd5b600073ffffffffffffffffffffffffffffffffffffffff168473ffffffffffffffffffffffffffffffffffffffff161415613062576040517f08c379a00000000000000000000000000000000000000000000000000000000081526004018080602001828103825260178152602001807f4d495353494e475f4149524c494e455f4144445245535300000000000000000081525060200191505060405180910390fd5b61306b84612c47565b156130de576040517f08c379a000000000000000000000000000000000000000000000000000000000815260040180806020018281038252601a8152602001807f4149524c494e455f414c52454144595f5245474953544552454400000000000081525060200191505060405180910390fd5b60009050600091506130ee611db0565b61317a5760405180604001604052808481526020016002815250600760008673ffffffffffffffffffffffffffffffffffffffff1673ffffffffffffffffffffffffffffffffffffffff1681526020019081526020016000206000820151816000019080519060200190613163929190613934565b50602082015181600101559050506001915061357b565b7face1aa9780bbc49f856ae4fe04995bd3db501976b157012131b6f92019a346948473ffffffffffffffffffffffffffffffffffffffff166040518080602001838152602001806020018381038352600a8152602001807f72656769737465722d31000000000000000000000000000000000000000000008152506020018381038252600c8152602001807f6e6565647320766f74696e670000000000000000000000000000000000000000815250602001935050505060405180910390a16000805b6006548110156134ab5760006005600083815260200190815260200160002060009054906101000a900473ffffffffffffffffffffffffffffffffffffffff1690506000600760008373ffffffffffffffffffffffffffffffffffffffff1673ffffffffffffffffffffffffffffffffffffffff168152602001908152602001600020905060028160010154141561349c5781600860008a73ffffffffffffffffffffffffffffffffffffffff1673ffffffffffffffffffffffffffffffffffffffff168152602001908152602001600020600001600086815260200190815260200160002060000160006101000a81548173ffffffffffffffffffffffffffffffffffffffff021916908373ffffffffffffffffffffffffffffffffffffffff16021790555080600001600860008a73ffffffffffffffffffffffffffffffffffffffff1673ffffffffffffffffffffffffffffffffffffffff168152602001908152602001600020600001600086815260200190815260200160002060010190805460018160011615610100020316600290046133dd9291906139ce565b506000600860008a73ffffffffffffffffffffffffffffffffffffffff1673ffffffffffffffffffffffffffffffffffffffff16815260200190815260200160002060000160008681526020019081526020016000206003018190555083600860008a73ffffffffffffffffffffffffffffffffffffffff1673ffffffffffffffffffffffffffffffffffffffff1681526020019081526020016000206000016000868152602001908152602001600020600201819055506001840193505b5050808060010191505061323d565b5080600860008773ffffffffffffffffffffffffffffffffffffffff1673ffffffffffffffffffffffffffffffffffffffff1681526020019081526020016000206001018190555080915060405180604001604052808581526020016001815250600760008773ffffffffffffffffffffffffffffffffffffffff1673ffffffffffffffffffffffffffffffffffffffff1681526020019081526020016000206000820151816000019080519060200190613567929190613934565b506020820151816001015590505060019250505b8360056000600654815260200190815260200160002060006101000a81548173ffffffffffffffffffffffffffffffffffffffff021916908373ffffffffffffffffffffffffffffffffffffffff16021790555060016006600082825401925050819055506000600760008673ffffffffffffffffffffffffffffffffffffffff1673ffffffffffffffffffffffffffffffffffffffff16815260200190815260200160002090507f89b886e508b5806f8c28179176052458c2bd0f54106811773b56be2d51a14e6085826000018360010154604051808473ffffffffffffffffffffffffffffffffffffffff168152602001806020018381526020018281038252848181546001816001161561010002031660029004815260200191508054600181600116156101000203166002900480156136f95780601f106136ce576101008083540402835291602001916136f9565b820191906000526020600020905b8154815290600101906020018083116136dc57829003601f168201915b505094505050505060405180910390a1509250929050565b60008061371f868686613784565b90506000600a600083815260200190815260200160002060030160008573ffffffffffffffffffffffffffffffffffffffff1673ffffffffffffffffffffffffffffffffffffffff168152602001908152602001600020541415915050949350505050565b6000838383604051602001808473ffffffffffffffffffffffffffffffffffffffff1660601b815260140183805190602001908083835b602083106137de57805182526020820191506020810190506020830392506137bb565b6001836020036101000a03801982511681845116808217855250505050505090500182815260200193505050506040516020818303038152906040528051906020012090509392505050565b600061386c83836040518060400160405280601e81526020017f536166654d6174683a207375627472616374696f6e206f766572666c6f770000815250613874565b905092915050565b6000838311158290613921576040517f08c379a00000000000000000000000000000000000000000000000000000000081526004018080602001828103825283818151815260200191508051906020019080838360005b838110156138e65780820151818401526020810190506138cb565b50505050905090810190601f1680156139135780820380516001836020036101000a031916815260200191505b509250505060405180910390fd5b5060008385039050809150509392505050565b828054600181600116156101000203166002900490600052602060002090601f016020900481019282601f1061397557805160ff19168380011785556139a3565b828001600101855582156139a3579182015b828111156139a2578251825591602001919060010190613987565b5b5090506139b09190613a55565b5090565b604051806040016040528060608152602001600081525090565b828054600181600116156101000203166002900490600052602060002090601f016020900481019282601f10613a075780548555613a44565b82800160010185558215613a4457600052602060002091601f016020900482015b82811115613a43578254825591600101919060010190613a28565b5b509050613a519190613a55565b5090565b5b80821115613a6e576000816000905550600101613a56565b509056fe494e53555245455f444f45535f4e4f5f45584953545f4f525f5041594f55545f444f4e45a26469706673582212200c5b7deab9dd939a35d26979bf049ef74c234918503b8d0c57ed02bf1265bbb864736f6c634300060c0033",
  "immutableReferences": {},
  "source": "// SPDX-License-Identifier: MIT\n\npragma solidity ^0.6.0;\n\nimport \"../node_modules/@openzeppelin/contracts/math/SafeMath.sol\";\nimport \"./Utils.sol\";\n\ncontract FlightSuretyData is Utils {\n    using SafeMath for uint256;\n\n    /********************************************************************************************/\n    /*                                       DATA VARIABLES                                     */\n    /********************************************************************************************/\n\n    address private contractOwner;                                      // Account used to deploy contract\n    address private authorizedContract;\n\n    uint private MINIMAL_FUND = 10;\n\n    // Blocks all state changes throughout the contract if false\n\n\n    uint numberOfApproved;\n\n    struct Airline {\n        string name;\n        // 0 : does not exist\n        // 1 waiting for approval\n        // 2 approved\n        // 3 funded (10 ether payed)\n        // 9 blocked\n        uint status;\n    }\n\n    //\n    // Multiparty Consensus Approval VotingBox\n    //\n\n    struct Ballot {\n        address voterAddress;\n        string name;\n        uint index;\n        // 0 not voted\n        // 1 approve\n        // 2 disapprove\n        uint vote;\n    }\n\n    struct VotingBox {\n        mapping(uint => Ballot) ballotList;\n        uint ballotSize;\n    }\n\n    uint private consensusThreshold = 3;\n    mapping(uint => address) private airlineList;\n    uint private airlineIndex = 0;\n    mapping(address => Airline) private airlineData;\n    mapping(address => VotingBox) private votingBoxMap;\n\n\n\n\n    /********************************************************************************************/\n    /*                                       EVENT DEFINITIONS                                  */\n    /********************************************************************************************/\n\n    event Registered(address airlineAddress, string airlineName, uint status);\n\n    event VotingEvent(address airlineAddress, string airlineName, uint status);\n\n    /**\n    * @dev Constructor\n    *      The deploying account becomes contractOwner\n    */\n    constructor\n    (\n    )\n    public\n    {\n        contractOwner = msg.sender;\n    }\n\n    /********************************************************************************************/\n    /*                                       FUNCTION MODIFIERS                                 */\n    /********************************************************************************************/\n\n\n\n    /**\n    * @dev Modifier that requires the \"ContractOwner\" account to be the function caller\n    */\n    modifier requireContractOwner()\n    {\n        // DEV require(msg.sender == contractOwner || msg.sender == authorizedContract, \"CALLER_IS_NOT_CONTRACT_OWNER\");\n        _;\n    }\n\n    modifier requireAuthorizedCaller()\n    {\n        require(msg.sender == authorizedContract, \"CALLER_IS_NOT_AUTHORIZED\");\n        _;\n    }\n\n\n\n    /********************************************************************************************/\n    /*                                       UTILITY FUNCTIONS                                  */\n    /********************************************************************************************/\n\n\n\n\n    function authorizeCaller\n    (\n        address _contract\n    )\n    external\n    requireContractOwner\n    {\n        authorizedContract = _contract;\n    }\n\n    function getContractOwner\n    (\n    )\n    view\n    public\n    returns (address)\n    {\n        return contractOwner;\n    }\n\n    function getBallotSize\n    (\n        address _address\n    )\n    view\n    public\n    returns (uint)\n    {\n        VotingBox storage votingBox = votingBoxMap[_address];\n        return votingBox.ballotSize;\n    }\n\n\n    /********************************************************************************************/\n    /*                                     SMART CONTRACT FUNCTIONS                             */\n    /********************************************************************************************/\n\n\n    function registrationNeedsVoting()\n    public\n    requireAuthorizedCaller\n    view\n    returns (bool)\n    {\n        return !(consensusThreshold > airlineIndex);\n    }\n\n    function registerAirline\n    (\n        address _airlineAddress,\n        string memory _airlineName\n    )\n    requireAuthorizedCaller\n    external\n    returns (bool success, uint votes)\n    {\n        require(_airlineAddress != address(0), 'MISSING_AIRLINE_ADDRESS');\n        require(!isRegistered(_airlineAddress), 'AIRLINE_ALREADY_REGISTERED');\n        votes = 0;\n        success = false;\n        if (!registrationNeedsVoting()) {\n            airlineData[_airlineAddress] = Airline(_airlineName, 2);\n            success = true;\n        } else {\n            emit Console('register-1', uint(_airlineAddress), 'needs voting');\n            uint counter = 0;\n            for (uint i = 0; i < airlineIndex; i++) {\n                address voterAddress = airlineList[i];\n                Airline storage a = airlineData[voterAddress];\n                if (a.status == 2) {\n                    votingBoxMap[_airlineAddress].ballotList[counter].voterAddress = voterAddress;\n                    votingBoxMap[_airlineAddress].ballotList[counter].name = a.name;\n                    votingBoxMap[_airlineAddress].ballotList[counter].vote = 0;\n                    votingBoxMap[_airlineAddress].ballotList[counter].index = counter;\n                    counter += 1;\n                }\n            }\n            votingBoxMap[_airlineAddress].ballotSize = counter;\n            votes = counter;\n            airlineData[_airlineAddress] = Airline(_airlineName, 1);\n            success = true;\n        }\n        airlineList[airlineIndex] = _airlineAddress;\n        airlineIndex += 1;\n        Airline storage airline = airlineData[_airlineAddress];\n        emit Registered(_airlineAddress, airline.name, airline.status);\n        return (success, votes);\n    }\n\n\n    function isRegistered(address airline) public view returns (bool)\n    {\n        return airlineData[airline].status > 1;\n    }\n\n    function registrationStatus(\n        address _airlineAddress\n    )\n    public\n    view\n    returns (uint)\n    {\n        return airlineData[_airlineAddress].status;\n    }\n\n    function isAirline(address airline) public view returns (bool)\n    {\n        return airlineData[airline].status > 0;\n    }\n\n    function numberOfAirlines() public view returns (uint)\n    {\n        return airlineIndex;\n    }\n\n\n    function getConsensusThreshold() public view returns (uint)\n    {\n        return consensusThreshold;\n    }\n\n\n    function getAirlineByIndex(\n        uint index\n    )\n    public\n    view\n    returns (address airlineAddress, string memory airlineName, uint airlineStatus)\n    {\n        require(index < airlineIndex, 'WRONG_INDEX');\n        airlineAddress = airlineList[index];\n        Airline storage a = airlineData[airlineAddress];\n        airlineName = a.name;\n        airlineStatus = a.status;\n        return (airlineAddress, airlineName, airlineStatus);\n    }\n\n\n    function getAirlineByAddress(\n        address _address\n    )\n    public\n    view\n    returns (string memory airlineName, uint airlineStatus)\n    {\n        Airline storage airline = airlineData[_address];\n        require(airline.status == 0, 'WRONG_ADDRESS');\n        airlineName = airline.name;\n        airlineStatus = airline.status;\n        return (airlineName, airlineStatus);\n    }\n\n\n    function votingResultsByIndex(\n        uint _index\n    )\n    public\n    view\n    returns (uint, uint, uint, uint)\n    {\n        require(_index < airlineIndex, 'WRONG_AIRLINE_INDEX');\n        return votingResults(airlineList[_index]);\n    }\n\n\n    function votingResults\n    (\n        address _address\n    )\n    public\n    view\n    returns (uint yes, uint no, uint open, uint voters)\n    {\n        VotingBox storage votingBox = votingBoxMap[_address];\n        yes = 0;\n        no = 0;\n        open = 0;\n        for (uint i = 0; i < votingBox.ballotSize; i++) {\n            Ballot storage ballot = votingBox.ballotList[i];\n            if (ballot.vote == 0) {\n                open += 1;\n            }\n            if (ballot.vote == 1) {\n                yes += 1;\n            }\n            if (ballot.vote == 2) {\n                no += 1;\n            }\n        }\n        voters = votingBox.ballotSize;\n        return (yes, no, open, voters);\n    }\n\n\n    function voteOnAirline\n    (\n        address _candidateAddress,\n        address _voterAddress,\n        uint _vote\n    )\n    public\n\n    {\n        require(_vote == 1 || _vote == 2, 'VOTE_SHOULD_BE_1_OR_2');\n        require(_candidateAddress != address(0), 'EMPTY_CANDIDATE_ADDRESS');\n        require(_voterAddress != address(0), 'EMPTY_VOTER_ADDRESS');\n        Airline storage airline = airlineData[_candidateAddress];\n        require(airline.status == 1, 'CANDIDATE_STATUS_NOT_1');\n        VotingBox storage votingBox = votingBoxMap[_candidateAddress];\n        uint i = 0;\n        uint yeses = 0;\n        for (i = 0; i < votingBox.ballotSize; i++) {\n            Ballot storage ballot = votingBox.ballotList[i];\n            emit Console('voting-1', uint(ballot.voterAddress), 'voterAddress');\n            if (ballot.voterAddress == _voterAddress) {\n                ballot.vote = _vote;\n                emit Console('voting-1', _vote, 'in vote');\n            }\n            if (ballot.vote == 1) {\n                yeses += 1;\n            }\n        }\n        if (yeses >= (votingBox.ballotSize + 1) / 2) {\n            airline.status = 2;\n            emit VotingEvent(_candidateAddress, airline.name, airline.status);\n        }\n    }\n\n    uint paybackRatioPercentage = 150;\n\n    struct FlightData {\n        address airline;\n        string flight;\n        uint256 timestamp;\n        mapping(address => uint) insurances;\n        // 1 ok (initial)\n        // 2 pay outs\n        uint status;\n        uint totalSum;\n    }\n\n    mapping(bytes32 => FlightData) flightData;\n    bytes32[] flightKeys;\n\n\n    //\n    // FLIGHT\n    //\n\n    function registerFlight\n    (\n        address _airline, string memory _flight, uint256 _timestamp\n    )\n    external\n    requireAuthorizedCaller\n    {\n        bytes32 flightKey = getFlightKey(_airline, _flight, _timestamp);\n        require(flightData[flightKey].airline == address(0), 'FLIGHT_ALREADY_REGISTERED');\n        flightData[flightKey].airline = _airline;\n        flightData[flightKey].timestamp = _timestamp;\n        flightData[flightKey].flight = _flight;\n    }\n\n    function isFlightRegistered\n    (\n        address _airline, string memory _flight, uint256 _timestamp\n    )\n    public\n    view\n    returns (bool)\n    {\n        bytes32 flightKey = getFlightKey(_airline, _flight, _timestamp);\n        return flightData[flightKey].airline != address(0);\n    }\n\n\n    //\n    // INSURANCE\n    //\n\n    function isInsured\n    (\n        address airline,\n        string memory flight,\n        uint256 timestamp,\n        address insuree\n    )\n    public\n    view\n    returns (bool)\n    {\n        bytes32 flightKey = getFlightKey(airline, flight, timestamp);\n        return flightData[flightKey].insurances[insuree] != 0;\n    }\n\n    function registerInsurance(\n        address airline,\n        string memory flight,\n        uint256 timestamp,\n        address insuree,\n        uint amount\n    )\n    external\n    requireAuthorizedCaller\n    {\n        bytes32 flightKey = getFlightKey(airline, flight, timestamp);\n        require(flightData[flightKey].airline != address(0), 'FLIGHT_DOES_NO_EXIST');\n        flightData[flightKey].insurances[insuree] = amount;\n    }\n\n\n    /**\n     *  @dev Credits payouts to insurees\n    */\n    function creditInsurees\n    (\n        address airline,\n        string memory flight,\n        uint256 timestamp\n    )\n    external\n    requireAuthorizedCaller\n    {\n        bytes32 flightKey = getFlightKey(airline, flight, timestamp);\n        require(flightData[flightKey].airline != address(0), 'Flight_does_no_exist');\n        require(flightData[flightKey].status == 1, 'FlightData_wrong_status');\n        flightData[flightKey].status = 2;\n    }\n\n\n    /**\n     *  @dev Transfers eligible payout funds to insuree\n     *\n    */\n    function pay\n    (\n        address airline,\n        string memory flight,\n        uint256 timestamp,\n        address payable insuree\n    )\n    external\n    payable\n    {\n\n        bytes32 flightKey = getFlightKey(airline, flight, timestamp);\n        require(flightData[flightKey].airline != address(0), 'FLIGHT_DOES_NO_EXIST');\n        require(flightData[flightKey].insurances[insuree] > 0, 'INSUREE_DOES_NO_EXIST_OR_PAYOUT_DONE');\n        require(flightData[flightKey].status != 2, 'NO_PAYOUT');\n        insuree.transfer(flightData[flightKey].insurances[insuree]);\n    }\n\n    /**\n     * @dev Initial funding for the insurance. Unless there are too many delayed flights\n     *      resulting in insurance payouts, the contract should be self-sustaining\n     *\n     */\n    function fund\n    (\n    )\n    public\n    payable\n    {\n        Airline memory airline = airlineData[msg.sender];\n        require(airline.status != 0, 'AIRLINE_NOT_REGISTERED');\n        require(airline.status != 3, 'ALREADY_FUNDED');\n        require(airline.status == 2, 'UNKNOWN_STATUS');\n        require(msg.value >= MINIMAL_FUND, 'NOT_ENOUGH');\n\n        payable(address(this)).transfer(MINIMAL_FUND);\n\n        uint amountToReturn = msg.value.sub(MINIMAL_FUND);\n        msg.sender.transfer(amountToReturn);\n        airlineData[msg.sender].status = 3;\n    }\n\n    function getFlightKey\n    (\n        address airline,\n        string memory flight,\n        uint256 timestamp\n    )\n    pure\n    internal\n    returns (bytes32)\n    {\n        return keccak256(abi.encodePacked(airline, flight, timestamp));\n    }\n\n    /**\n    * @dev Fallback function for funding smart contract.\n    *\n    */\n    fallback()\n    external\n    payable\n    {\n\n    }\n\n    receive()\n    external\n    payable\n    {\n\n    }\n\n\n}\n\n",
  "sourcePath": "/Users/tonibuenter/_proj/misc/udacity/u-blockchain4-flightsurety/contracts/FlightSuretyData.sol",
  "compiler": {
    "name": "solc",
    "version": "0.6.12+commit.27d51765.Emscripten.clang"
  },
  "schemaVersion": "3.4.1",
  "updatedAt": "2021-06-10T19:52:40.385Z",
  "networkType": "ethereum",
  "devdoc": {
    "kind": "dev",
    "methods": {
      "constructor": {
        "details": "Constructor      The deploying account becomes contractOwner"
      },
      "creditInsurees(address,string,uint256)": {
        "details": "Credits payouts to insurees"
      },
      "fund()": {
        "details": "Initial funding for the insurance. Unless there are too many delayed flights      resulting in insurance payouts, the contract should be self-sustaining"
      },
      "pay(address,string,uint256,address)": {
        "details": "Transfers eligible payout funds to insuree"
      }
    },
    "version": 1
  },
  "userdoc": {
    "kind": "user",
    "methods": {},
    "version": 1
  }
}