{
  "contractName": "FlightSuretyData",
  "abi": [
    {
      "inputs": [],
      "stateMutability": "nonpayable",
      "type": "constructor"
    },
    {
      "anonymous": false,
      "inputs": [
        {
          "indexed": false,
          "internalType": "string",
          "name": "origin",
          "type": "string"
        },
        {
          "indexed": false,
          "internalType": "uint256",
          "name": "level",
          "type": "uint256"
        },
        {
          "indexed": false,
          "internalType": "string",
          "name": "info",
          "type": "string"
        }
      ],
      "name": "Console",
      "type": "event"
    },
    {
      "anonymous": false,
      "inputs": [
        {
          "indexed": false,
          "internalType": "address",
          "name": "airlineAddress",
          "type": "address"
        },
        {
          "indexed": false,
          "internalType": "string",
          "name": "airlineName",
          "type": "string"
        },
        {
          "indexed": false,
          "internalType": "uint256",
          "name": "status",
          "type": "uint256"
        }
      ],
      "name": "Registered",
      "type": "event"
    },
    {
      "anonymous": false,
      "inputs": [
        {
          "indexed": false,
          "internalType": "address",
          "name": "airlineAddress",
          "type": "address"
        },
        {
          "indexed": false,
          "internalType": "string",
          "name": "airlineName",
          "type": "string"
        },
        {
          "indexed": false,
          "internalType": "uint256",
          "name": "status",
          "type": "uint256"
        }
      ],
      "name": "VotingEvent",
      "type": "event"
    },
    {
      "stateMutability": "payable",
      "type": "fallback",
      "payable": true
    },
    {
      "inputs": [
        {
          "internalType": "bytes1",
          "name": "b",
          "type": "bytes1"
        }
      ],
      "name": "char",
      "outputs": [
        {
          "internalType": "bytes1",
          "name": "c",
          "type": "bytes1"
        }
      ],
      "stateMutability": "pure",
      "type": "function",
      "constant": true
    },
    {
      "inputs": [
        {
          "internalType": "string",
          "name": "origin",
          "type": "string"
        },
        {
          "internalType": "uint256",
          "name": "level",
          "type": "uint256"
        },
        {
          "internalType": "string",
          "name": "info",
          "type": "string"
        }
      ],
      "name": "log",
      "outputs": [],
      "stateMutability": "nonpayable",
      "type": "function"
    },
    {
      "inputs": [
        {
          "internalType": "address",
          "name": "x",
          "type": "address"
        }
      ],
      "name": "toAsciiString",
      "outputs": [
        {
          "internalType": "string",
          "name": "",
          "type": "string"
        }
      ],
      "stateMutability": "pure",
      "type": "function",
      "constant": true
    },
    {
      "stateMutability": "payable",
      "type": "receive",
      "payable": true
    },
    {
      "inputs": [
        {
          "internalType": "address",
          "name": "_contract",
          "type": "address"
        }
      ],
      "name": "authorizeCaller",
      "outputs": [],
      "stateMutability": "nonpayable",
      "type": "function"
    },
    {
      "inputs": [],
      "name": "getContractOwner",
      "outputs": [
        {
          "internalType": "address",
          "name": "",
          "type": "address"
        }
      ],
      "stateMutability": "view",
      "type": "function",
      "constant": true
    },
    {
      "inputs": [
        {
          "internalType": "address",
          "name": "_address",
          "type": "address"
        }
      ],
      "name": "getBallotSize",
      "outputs": [
        {
          "internalType": "uint256",
          "name": "",
          "type": "uint256"
        }
      ],
      "stateMutability": "view",
      "type": "function",
      "constant": true
    },
    {
      "inputs": [],
      "name": "registrationNeedsVoting",
      "outputs": [
        {
          "internalType": "bool",
          "name": "",
          "type": "bool"
        }
      ],
      "stateMutability": "view",
      "type": "function",
      "constant": true
    },
    {
      "inputs": [
        {
          "internalType": "address",
          "name": "_airlineAddress",
          "type": "address"
        },
        {
          "internalType": "string",
          "name": "_airlineName",
          "type": "string"
        }
      ],
      "name": "registerAirline",
      "outputs": [
        {
          "internalType": "bool",
          "name": "success",
          "type": "bool"
        },
        {
          "internalType": "uint256",
          "name": "votes",
          "type": "uint256"
        }
      ],
      "stateMutability": "nonpayable",
      "type": "function"
    },
    {
      "inputs": [
        {
          "internalType": "address",
          "name": "airline",
          "type": "address"
        }
      ],
      "name": "isRegistered",
      "outputs": [
        {
          "internalType": "bool",
          "name": "",
          "type": "bool"
        }
      ],
      "stateMutability": "view",
      "type": "function",
      "constant": true
    },
    {
      "inputs": [
        {
          "internalType": "address",
          "name": "_airlineAddress",
          "type": "address"
        }
      ],
      "name": "registrationStatus",
      "outputs": [
        {
          "internalType": "uint256",
          "name": "",
          "type": "uint256"
        }
      ],
      "stateMutability": "view",
      "type": "function",
      "constant": true
    },
    {
      "inputs": [
        {
          "internalType": "address",
          "name": "airline",
          "type": "address"
        }
      ],
      "name": "isAirline",
      "outputs": [
        {
          "internalType": "bool",
          "name": "",
          "type": "bool"
        }
      ],
      "stateMutability": "view",
      "type": "function",
      "constant": true
    },
    {
      "inputs": [],
      "name": "numberOfAirlines",
      "outputs": [
        {
          "internalType": "uint256",
          "name": "",
          "type": "uint256"
        }
      ],
      "stateMutability": "view",
      "type": "function",
      "constant": true
    },
    {
      "inputs": [],
      "name": "getConsensusThreshold",
      "outputs": [
        {
          "internalType": "uint256",
          "name": "",
          "type": "uint256"
        }
      ],
      "stateMutability": "view",
      "type": "function",
      "constant": true
    },
    {
      "inputs": [
        {
          "internalType": "uint256",
          "name": "index",
          "type": "uint256"
        }
      ],
      "name": "getAirline",
      "outputs": [
        {
          "internalType": "string",
          "name": "name",
          "type": "string"
        },
        {
          "internalType": "uint256",
          "name": "status",
          "type": "uint256"
        }
      ],
      "stateMutability": "view",
      "type": "function",
      "constant": true
    },
    {
      "inputs": [
        {
          "internalType": "uint256",
          "name": "_index",
          "type": "uint256"
        }
      ],
      "name": "votingResultsByIndex",
      "outputs": [
        {
          "internalType": "uint256",
          "name": "",
          "type": "uint256"
        },
        {
          "internalType": "uint256",
          "name": "",
          "type": "uint256"
        },
        {
          "internalType": "uint256",
          "name": "",
          "type": "uint256"
        },
        {
          "internalType": "uint256",
          "name": "",
          "type": "uint256"
        }
      ],
      "stateMutability": "view",
      "type": "function",
      "constant": true
    },
    {
      "inputs": [
        {
          "internalType": "address",
          "name": "_address",
          "type": "address"
        }
      ],
      "name": "votingResults",
      "outputs": [
        {
          "internalType": "uint256",
          "name": "yes",
          "type": "uint256"
        },
        {
          "internalType": "uint256",
          "name": "no",
          "type": "uint256"
        },
        {
          "internalType": "uint256",
          "name": "open",
          "type": "uint256"
        },
        {
          "internalType": "uint256",
          "name": "voters",
          "type": "uint256"
        }
      ],
      "stateMutability": "view",
      "type": "function",
      "constant": true
    },
    {
      "inputs": [
        {
          "internalType": "address",
          "name": "_candidateAddress",
          "type": "address"
        },
        {
          "internalType": "address",
          "name": "_voterAddress",
          "type": "address"
        },
        {
          "internalType": "uint256",
          "name": "_vote",
          "type": "uint256"
        }
      ],
      "name": "voteOnAirline",
      "outputs": [],
      "stateMutability": "nonpayable",
      "type": "function"
    },
    {
      "inputs": [
        {
          "internalType": "address",
          "name": "airline",
          "type": "address"
        },
        {
          "internalType": "string",
          "name": "flight",
          "type": "string"
        },
        {
          "internalType": "uint256",
          "name": "timestamp",
          "type": "uint256"
        },
        {
          "internalType": "address",
          "name": "insuree",
          "type": "address"
        },
        {
          "internalType": "uint256",
          "name": "amount",
          "type": "uint256"
        }
      ],
      "name": "buyInsurance",
      "outputs": [],
      "stateMutability": "payable",
      "type": "function",
      "payable": true
    },
    {
      "inputs": [
        {
          "internalType": "address",
          "name": "airline",
          "type": "address"
        },
        {
          "internalType": "string",
          "name": "flight",
          "type": "string"
        },
        {
          "internalType": "uint256",
          "name": "timestamp",
          "type": "uint256"
        }
      ],
      "name": "creditInsurees",
      "outputs": [],
      "stateMutability": "nonpayable",
      "type": "function"
    },
    {
      "inputs": [
        {
          "internalType": "address",
          "name": "airline",
          "type": "address"
        },
        {
          "internalType": "string",
          "name": "flight",
          "type": "string"
        },
        {
          "internalType": "uint256",
          "name": "timestamp",
          "type": "uint256"
        },
        {
          "internalType": "address payable",
          "name": "insuree",
          "type": "address"
        }
      ],
      "name": "pay",
      "outputs": [],
      "stateMutability": "payable",
      "type": "function",
      "payable": true
    },
    {
      "inputs": [],
      "name": "fund",
      "outputs": [],
      "stateMutability": "payable",
      "type": "function",
      "payable": true
    }
  ],
  "bytecode": "0x6080604052600a60025560036004556000600655609660095534801561002457600080fd5b50336000806101000a81548173ffffffffffffffffffffffffffffffffffffffff021916908373ffffffffffffffffffffffffffffffffffffffff1602179055506133c6806100746000396000f3fe60806040526004361061012d5760003560e01c8063602e03b4116100ab578063b60d42881161006f578063b60d428814610984578063c3c5a5471461098e578063c8820a70146109f5578063d42791e114610ae7578063d6e1c18914610b12578063ee38a74914610bcd57610134565b8063602e03b4146106b457806369f9ad2f14610719578063869d7b76146107ac5780638b41aaae146108bb5780639c9161c51461092057610134565b8063433b875a116100f2578063433b875a1461035e578063442890d51461038b57806345c83148146103cc5780634fe63a48146104465780635970e0891461054b57610134565b80623cc044146101365780630e248a11146101b15780632c388d5d146102185780632c6e7598146102695780633c85380f1461033357610134565b3661013457005b005b34801561014257600080fd5b506101af6004803603606081101561015957600080fd5b81019080803573ffffffffffffffffffffffffffffffffffffffff169060200190929190803573ffffffffffffffffffffffffffffffffffffffff16906020019092919080359060200190929190505050610cd2565b005b3480156101bd57600080fd5b50610200600480360360208110156101d457600080fd5b81019080803573ffffffffffffffffffffffffffffffffffffffff1690602001909291905050506112e5565b60405180821515815260200191505060405180910390f35b34801561022457600080fd5b506102676004803603602081101561023b57600080fd5b81019080803573ffffffffffffffffffffffffffffffffffffffff169060200190929190505050611333565b005b34801561027557600080fd5b506102b86004803603602081101561028c57600080fd5b81019080803573ffffffffffffffffffffffffffffffffffffffff169060200190929190505050611377565b6040518080602001828103825283818151815260200191508051906020019080838360005b838110156102f85780820151818401526020810190506102dd565b50505050905090810190601f1680156103255780820380516001836020036101000a031916815260200191505b509250505060405180910390f35b34801561033f57600080fd5b506103486114da565b6040518082815260200191505060405180910390f35b34801561036a57600080fd5b506103736114e4565b60405180821515815260200191505060405180910390f35b34801561039757600080fd5b506103a06115b6565b604051808273ffffffffffffffffffffffffffffffffffffffff16815260200191505060405180910390f35b3480156103d857600080fd5b5061041b600480360360208110156103ef57600080fd5b81019080803573ffffffffffffffffffffffffffffffffffffffff1690602001909291905050506115df565b6040518085815260200184815260200183815260200182815260200194505050505060405180910390f35b6105496004803603608081101561045c57600080fd5b81019080803573ffffffffffffffffffffffffffffffffffffffff1690602001909291908035906020019064010000000081111561049957600080fd5b8201836020820111156104ab57600080fd5b803590602001918460018302840111640100000000831117156104cd57600080fd5b91908080601f016020809104026020016040519081016040528093929190818152602001838380828437600081840152601f19601f82011690508083019250505050505050919291929080359060200190929190803573ffffffffffffffffffffffffffffffffffffffff1690602001909291905050506116b6565b005b34801561055757600080fd5b506106b26004803603606081101561056e57600080fd5b810190808035906020019064010000000081111561058b57600080fd5b82018360208201111561059d57600080fd5b803590602001918460018302840111640100000000831117156105bf57600080fd5b91908080601f016020809104026020016040519081016040528093929190818152602001838380828437600081840152601f19601f820116905080830192505050505050509192919290803590602001909291908035906020019064010000000081111561062c57600080fd5b82018360208201111561063e57600080fd5b8035906020019184600183028401116401000000008311171561066057600080fd5b91908080601f016020809104026020016040519081016040528093929190818152602001838380828437600081840152601f19601f820116905080830192505050505050509192919290505050611978565b005b3480156106c057600080fd5b50610703600480360360208110156106d757600080fd5b81019080803573ffffffffffffffffffffffffffffffffffffffff169060200190929190505050611a8e565b6040518082815260200191505060405180910390f35b34801561072557600080fd5b506107746004803603602081101561073c57600080fd5b8101908080357effffffffffffffffffffffffffffffffffffffffffffffffffffffffffffff19169060200190929190505050611ada565b60405180827effffffffffffffffffffffffffffffffffffffffffffffffffffffffffffff1916815260200191505060405180910390f35b6108b9600480360360a08110156107c257600080fd5b81019080803573ffffffffffffffffffffffffffffffffffffffff169060200190929190803590602001906401000000008111156107ff57600080fd5b82018360208201111561081157600080fd5b8035906020019184600183028401116401000000008311171561083357600080fd5b91908080601f016020809104026020016040519081016040528093929190818152602001838380828437600081840152601f19601f82011690508083019250505050505050919291929080359060200190929190803573ffffffffffffffffffffffffffffffffffffffff16906020019092919080359060200190929190505050611b0e565b005b3480156108c757600080fd5b5061090a600480360360208110156108de57600080fd5b81019080803573ffffffffffffffffffffffffffffffffffffffff169060200190929190505050611edb565b6040518082815260200191505060405180910390f35b34801561092c57600080fd5b506109596004803603602081101561094357600080fd5b8101908080359060200190929190505050611f2c565b6040518085815260200184815260200183815260200182815260200194505050505060405180910390f35b61098c611ff4565b005b34801561099a57600080fd5b506109dd600480360360208110156109b157600080fd5b81019080803573ffffffffffffffffffffffffffffffffffffffff1690602001909291905050506123d1565b60405180821515815260200191505060405180910390f35b348015610a0157600080fd5b50610ae560048036036060811015610a1857600080fd5b81019080803573ffffffffffffffffffffffffffffffffffffffff16906020019092919080359060200190640100000000811115610a5557600080fd5b820183602082011115610a6757600080fd5b80359060200191846001830284011164010000000083111715610a8957600080fd5b91908080601f016020809104026020016040519081016040528093929190818152602001838380828437600081840152601f19601f82011690508083019250505050505050919291929080359060200190929190505050612420565b005b348015610af357600080fd5b50610afc612679565b6040518082815260200191505060405180910390f35b348015610b1e57600080fd5b50610b4b60048036036020811015610b3557600080fd5b8101908080359060200190929190505050612683565b6040518080602001838152602001828103825284818151815260200191508051906020019080838360005b83811015610b91578082015181840152602081019050610b76565b50505050905090810190601f168015610bbe5780820380516001836020036101000a031916815260200191505b50935050505060405180910390f35b348015610bd957600080fd5b50610cb360048036036040811015610bf057600080fd5b81019080803573ffffffffffffffffffffffffffffffffffffffff16906020019092919080359060200190640100000000811115610c2d57600080fd5b820183602082011115610c3f57600080fd5b80359060200191846001830284011164010000000083111715610c6157600080fd5b91908080601f016020809104026020016040519081016040528093929190818152602001838380828437600081840152601f19601f820116905080830192505050505050509192919290505050612845565b6040518083151581526020018281526020019250505060405180910390f35b6001811480610ce15750600281145b610d53576040517f08c379a00000000000000000000000000000000000000000000000000000000081526004018080602001828103825260158152602001807f564f54455f53484f554c445f42455f315f4f525f32000000000000000000000081525060200191505060405180910390fd5b600073ffffffffffffffffffffffffffffffffffffffff168373ffffffffffffffffffffffffffffffffffffffff161415610df6576040517f08c379a00000000000000000000000000000000000000000000000000000000081526004018080602001828103825260178152602001807f454d5054595f43414e4449444154455f4144445245535300000000000000000081525060200191505060405180910390fd5b600073ffffffffffffffffffffffffffffffffffffffff168273ffffffffffffffffffffffffffffffffffffffff161415610e99576040517f08c379a00000000000000000000000000000000000000000000000000000000081526004018080602001828103825260138152602001807f454d5054595f564f5445525f414444524553530000000000000000000000000081525060200191505060405180910390fd5b6000600760008573ffffffffffffffffffffffffffffffffffffffff1673ffffffffffffffffffffffffffffffffffffffff16815260200190815260200160002090506001816001015414610f56576040517f08c379a00000000000000000000000000000000000000000000000000000000081526004018080602001828103825260168152602001807f43414e4449444154455f5354415455535f4e4f545f310000000000000000000081525060200191505060405180910390fd5b6000600860008673ffffffffffffffffffffffffffffffffffffffff1673ffffffffffffffffffffffffffffffffffffffff1681526020019081526020016000209050600080600091505b82600101548210156111d657600083600001600084815260200190815260200160002090507face1aa9780bbc49f856ae4fe04995bd3db501976b157012131b6f92019a346948160000160009054906101000a900473ffffffffffffffffffffffffffffffffffffffff1673ffffffffffffffffffffffffffffffffffffffff16604051808060200183815260200180602001838103835260088152602001807f766f74696e672d310000000000000000000000000000000000000000000000008152506020018381038252600c8152602001807f766f746572416464726573730000000000000000000000000000000000000000815250602001935050505060405180910390a18673ffffffffffffffffffffffffffffffffffffffff168160000160009054906101000a900473ffffffffffffffffffffffffffffffffffffffff1673ffffffffffffffffffffffffffffffffffffffff1614156111b4578581600301819055507face1aa9780bbc49f856ae4fe04995bd3db501976b157012131b6f92019a3469486604051808060200183815260200180602001838103835260088152602001807f766f74696e672d31000000000000000000000000000000000000000000000000815250602001838103825260078152602001807f696e20766f746500000000000000000000000000000000000000000000000000815250602001935050505060405180910390a15b6001816003015414156111c8576001820191505b508180600101925050610fa1565b60028360010154816111e457fe5b0481106112dc57600284600101819055507ffe9d4497e883ac6410397197a8dd9a80c9eb3a6ae51016c22f276b099ed1660d87856000018660010154604051808473ffffffffffffffffffffffffffffffffffffffff168152602001806020018381526020018281038252848181546001816001161561010002031660029004815260200191508054600181600116156101000203166002900480156112cb5780601f106112a0576101008083540402835291602001916112cb565b820191906000526020600020905b8154815290600101906020018083116112ae57829003601f168201915b505094505050505060405180910390a15b50505050505050565b600080600760008473ffffffffffffffffffffffffffffffffffffffff1673ffffffffffffffffffffffffffffffffffffffff16815260200190815260200160002060010154119050919050565b80600160006101000a81548173ffffffffffffffffffffffffffffffffffffffff021916908373ffffffffffffffffffffffffffffffffffffffff16021790555050565b606080602867ffffffffffffffff8111801561139257600080fd5b506040519080825280601f01601f1916602001820160405280156113c55781602001600182028036833780820191505090505b50905060005b60148110156114d05760008160130360080260020a8573ffffffffffffffffffffffffffffffffffffffff16816113fe57fe5b0460f81b9050600060108260f81c60ff168161141657fe5b0460f81b905060008160f81c6010028360f81c0360f81b905061143882611ada565b85856002028151811061144757fe5b60200101907effffffffffffffffffffffffffffffffffffffffffffffffffffffffffffff1916908160001a90535061147f81611ada565b85600186600202018151811061149157fe5b60200101907effffffffffffffffffffffffffffffffffffffffffffffffffffffffffffff1916908160001a90535050505080806001019150506113cb565b5080915050919050565b6000600654905090565b6000600160009054906101000a900473ffffffffffffffffffffffffffffffffffffffff1673ffffffffffffffffffffffffffffffffffffffff163373ffffffffffffffffffffffffffffffffffffffff16146115a9576040517f08c379a00000000000000000000000000000000000000000000000000000000081526004018080602001828103825260188152602001807f43414c4c45525f49535f4e4f545f415554484f52495a4544000000000000000081525060200191505060405180910390fd5b6006546004541115905090565b60008060009054906101000a900473ffffffffffffffffffffffffffffffffffffffff16905090565b6000806000806000600860008773ffffffffffffffffffffffffffffffffffffffff1673ffffffffffffffffffffffffffffffffffffffff168152602001908152602001600020905060009450600093506000925060005b81600101548110156116a65760008260000160008381526020019081526020016000209050600081600301541415611670576001850194505b600181600301541415611684576001870196505b600281600301541415611698576001860195505b508080600101915050611637565b5080600101549150509193509193565b60006116c385858561305d565b9050600073ffffffffffffffffffffffffffffffffffffffff16600a600083815260200190815260200160002060000160009054906101000a900473ffffffffffffffffffffffffffffffffffffffff1673ffffffffffffffffffffffffffffffffffffffff16141561179e576040517f08c379a00000000000000000000000000000000000000000000000000000000081526004018080602001828103825260148152602001807f466c696768745f646f65735f6e6f5f657869737400000000000000000000000081525060200191505060405180910390fd5b6000600a600083815260200190815260200160002060030160008473ffffffffffffffffffffffffffffffffffffffff1673ffffffffffffffffffffffffffffffffffffffff168152602001908152602001600020541161184a576040517f08c379a000000000000000000000000000000000000000000000000000000000815260040180806020018281038252602481526020018061334c6024913960400191505060405180910390fd5b6002600a60008381526020019081526020016000206004015414156118d7576040517f08c379a00000000000000000000000000000000000000000000000000000000081526004018080602001828103825260098152602001807f4e6f5f7061796f7574000000000000000000000000000000000000000000000081525060200191505060405180910390fd5b8173ffffffffffffffffffffffffffffffffffffffff166108fc600a600084815260200190815260200160002060030160008573ffffffffffffffffffffffffffffffffffffffff1673ffffffffffffffffffffffffffffffffffffffff168152602001908152602001600020549081150290604051600060405180830381858888f19350505050158015611970573d6000803e3d6000fd5b505050505050565b7face1aa9780bbc49f856ae4fe04995bd3db501976b157012131b6f92019a34694838383604051808060200184815260200180602001838103835286818151815260200191508051906020019080838360005b838110156119e65780820151818401526020810190506119cb565b50505050905090810190601f168015611a135780820380516001836020036101000a031916815260200191505b50838103825284818151815260200191508051906020019080838360005b83811015611a4c578082015181840152602081019050611a31565b50505050905090810190601f168015611a795780820380516001836020036101000a031916815260200191505b509550505050505060405180910390a1505050565b6000600760008373ffffffffffffffffffffffffffffffffffffffff1673ffffffffffffffffffffffffffffffffffffffff168152602001908152602001600020600101549050919050565b6000600a8260f81c60ff161015611afc5760308260f81c0160f81b9050611b09565b60578260f81c0160f81b90505b919050565b600160009054906101000a900473ffffffffffffffffffffffffffffffffffffffff1673ffffffffffffffffffffffffffffffffffffffff163373ffffffffffffffffffffffffffffffffffffffff1614611bd1576040517f08c379a00000000000000000000000000000000000000000000000000000000081526004018080602001828103825260188152602001807f43414c4c45525f49535f4e4f545f415554484f52495a4544000000000000000081525060200191505060405180910390fd5b6000611bde86868661305d565b905060008211611c39576040517f08c379a00000000000000000000000000000000000000000000000000000000081526004018080602001828103825260218152602001806133706021913960400191505060405180910390fd5b60008211611c92576040517f08c379a00000000000000000000000000000000000000000000000000000000081526004018080602001828103825260218152602001806133706021913960400191505060405180910390fd5b600073ffffffffffffffffffffffffffffffffffffffff16600a600083815260200190815260200160002060000160009054906101000a900473ffffffffffffffffffffffffffffffffffffffff1673ffffffffffffffffffffffffffffffffffffffff161415611d6b576040517f08c379a00000000000000000000000000000000000000000000000000000000081526004018080602001828103825260148152602001807f466c696768745f646f65735f6e6f5f657869737400000000000000000000000081525060200191505060405180910390fd5b6000600a600083815260200190815260200160002060030160008573ffffffffffffffffffffffffffffffffffffffff1673ffffffffffffffffffffffffffffffffffffffff1681526020019081526020016000205414611e34576040517f08c379a00000000000000000000000000000000000000000000000000000000081526004018080602001828103825260168152602001807f496e73757265655f616c72656164795f6578697374730000000000000000000081525060200191505060405180910390fd5b3073ffffffffffffffffffffffffffffffffffffffff166108fc839081150290604051600060405180830381858888f19350505050158015611e7a573d6000803e3d6000fd5b5081600a600083815260200190815260200160002060030160008573ffffffffffffffffffffffffffffffffffffffff1673ffffffffffffffffffffffffffffffffffffffff16815260200190815260200160002081905550505050505050565b600080600860008473ffffffffffffffffffffffffffffffffffffffff1673ffffffffffffffffffffffffffffffffffffffff16815260200190815260200160002090508060010154915050919050565b6000806000806006548510611fa9576040517f08c379a00000000000000000000000000000000000000000000000000000000081526004018080602001828103825260138152602001807f57524f4e475f4149524c494e455f494e4445580000000000000000000000000081525060200191505060405180910390fd5b611fe56005600087815260200190815260200160002060009054906101000a900473ffffffffffffffffffffffffffffffffffffffff166115df565b93509350935093509193509193565b611ffc61320d565b600760003373ffffffffffffffffffffffffffffffffffffffff1673ffffffffffffffffffffffffffffffffffffffff168152602001908152602001600020604051806040016040529081600082018054600181600116156101000203166002900480601f0160208091040260200160405190810160405280929190818152602001828054600181600116156101000203166002900480156120df5780601f106120b4576101008083540402835291602001916120df565b820191906000526020600020905b8154815290600101906020018083116120c257829003601f168201915b50505050508152602001600182015481525050905060008160200151141561216f576040517f08c379a00000000000000000000000000000000000000000000000000000000081526004018080602001828103825260168152602001807f4149524c494e455f4e4f545f524547495354455245440000000000000000000081525060200191505060405180910390fd5b6003816020015114156121ea576040517f08c379a000000000000000000000000000000000000000000000000000000000815260040180806020018281038252600e8152602001807f414c52454144595f46554e44454400000000000000000000000000000000000081525060200191505060405180910390fd5b6002816020015114612264576040517f08c379a000000000000000000000000000000000000000000000000000000000815260040180806020018281038252600e8152602001807f554e4b4e4f574e5f53544154555300000000000000000000000000000000000081525060200191505060405180910390fd5b6002543410156122dc576040517f08c379a000000000000000000000000000000000000000000000000000000000815260040180806020018281038252600a8152602001807f4e4f545f454e4f5547480000000000000000000000000000000000000000000081525060200191505060405180910390fd5b3073ffffffffffffffffffffffffffffffffffffffff166108fc6002549081150290604051600060405180830381858888f19350505050158015612324573d6000803e3d6000fd5b50600061233c6002543461310390919063ffffffff16565b90503373ffffffffffffffffffffffffffffffffffffffff166108fc829081150290604051600060405180830381858888f19350505050158015612384573d6000803e3d6000fd5b506003600760003373ffffffffffffffffffffffffffffffffffffffff1673ffffffffffffffffffffffffffffffffffffffff168152602001908152602001600020600101819055505050565b60006001600760008473ffffffffffffffffffffffffffffffffffffffff1673ffffffffffffffffffffffffffffffffffffffff16815260200190815260200160002060010154119050919050565b600160009054906101000a900473ffffffffffffffffffffffffffffffffffffffff1673ffffffffffffffffffffffffffffffffffffffff163373ffffffffffffffffffffffffffffffffffffffff16146124e3576040517f08c379a00000000000000000000000000000000000000000000000000000000081526004018080602001828103825260188152602001807f43414c4c45525f49535f4e4f545f415554484f52495a4544000000000000000081525060200191505060405180910390fd5b60006124f084848461305d565b9050600073ffffffffffffffffffffffffffffffffffffffff16600a600083815260200190815260200160002060000160009054906101000a900473ffffffffffffffffffffffffffffffffffffffff1673ffffffffffffffffffffffffffffffffffffffff1614156125cb576040517f08c379a00000000000000000000000000000000000000000000000000000000081526004018080602001828103825260148152602001807f466c696768745f646f65735f6e6f5f657869737400000000000000000000000081525060200191505060405180910390fd5b6001600a60008381526020019081526020016000206004015414612657576040517f08c379a00000000000000000000000000000000000000000000000000000000081526004018080602001828103825260178152602001807f466c69676874446174615f77726f6e675f73746174757300000000000000000081525060200191505060405180910390fd5b6002600a60008381526020019081526020016000206004018190555050505050565b6000600454905090565b6060600060065483106126fe576040517f08c379a000000000000000000000000000000000000000000000000000000000815260040180806020018281038252600b8152602001807f57726f6e675f496e64657800000000000000000000000000000000000000000081525060200191505060405180910390fd5b61270661320d565b600760006005600087815260200190815260200160002060009054906101000a900473ffffffffffffffffffffffffffffffffffffffff1673ffffffffffffffffffffffffffffffffffffffff1673ffffffffffffffffffffffffffffffffffffffff168152602001908152602001600020604051806040016040529081600082018054600181600116156101000203166002900480601f01602080910402602001604051908101604052809291908181526020018280546001816001161561010002031660029004801561281c5780601f106127f15761010080835404028352916020019161281c565b820191906000526020600020905b8154815290600101906020018083116127ff57829003601f168201915b505050505081526020016001820154815250509050806000015181602001519250925050915091565b600080600160009054906101000a900473ffffffffffffffffffffffffffffffffffffffff1673ffffffffffffffffffffffffffffffffffffffff163373ffffffffffffffffffffffffffffffffffffffff161461290b576040517f08c379a00000000000000000000000000000000000000000000000000000000081526004018080602001828103825260188152602001807f43414c4c45525f49535f4e4f545f415554484f52495a4544000000000000000081525060200191505060405180910390fd5b600073ffffffffffffffffffffffffffffffffffffffff168473ffffffffffffffffffffffffffffffffffffffff1614156129ae576040517f08c379a00000000000000000000000000000000000000000000000000000000081526004018080602001828103825260178152602001807f4d495353494e475f4149524c494e455f4144445245535300000000000000000081525060200191505060405180910390fd5b6129b7846123d1565b15612a2a576040517f08c379a000000000000000000000000000000000000000000000000000000000815260040180806020018281038252601a8152602001807f4149524c494e455f414c52454144595f5245474953544552454400000000000081525060200191505060405180910390fd5b6000905060009150612a3a6114e4565b612ac65760405180604001604052808481526020016002815250600760008673ffffffffffffffffffffffffffffffffffffffff1673ffffffffffffffffffffffffffffffffffffffff1681526020019081526020016000206000820151816000019080519060200190612aaf929190613227565b506020820151816001015590505060019150612ec7565b7face1aa9780bbc49f856ae4fe04995bd3db501976b157012131b6f92019a346948473ffffffffffffffffffffffffffffffffffffffff166040518080602001838152602001806020018381038352600a8152602001807f72656769737465722d31000000000000000000000000000000000000000000008152506020018381038252600c8152602001807f6e6565647320766f74696e670000000000000000000000000000000000000000815250602001935050505060405180910390a16000805b600654811015612df75760006005600083815260200190815260200160002060009054906101000a900473ffffffffffffffffffffffffffffffffffffffff1690506000600760008373ffffffffffffffffffffffffffffffffffffffff1673ffffffffffffffffffffffffffffffffffffffff1681526020019081526020016000209050600281600101541415612de85781600860008a73ffffffffffffffffffffffffffffffffffffffff1673ffffffffffffffffffffffffffffffffffffffff168152602001908152602001600020600001600086815260200190815260200160002060000160006101000a81548173ffffffffffffffffffffffffffffffffffffffff021916908373ffffffffffffffffffffffffffffffffffffffff16021790555080600001600860008a73ffffffffffffffffffffffffffffffffffffffff1673ffffffffffffffffffffffffffffffffffffffff16815260200190815260200160002060000160008681526020019081526020016000206001019080546001816001161561010002031660029004612d299291906132a7565b506000600860008a73ffffffffffffffffffffffffffffffffffffffff1673ffffffffffffffffffffffffffffffffffffffff16815260200190815260200160002060000160008681526020019081526020016000206003018190555083600860008a73ffffffffffffffffffffffffffffffffffffffff1673ffffffffffffffffffffffffffffffffffffffff1681526020019081526020016000206000016000868152602001908152602001600020600201819055506001840193505b50508080600101915050612b89565b5080600860008773ffffffffffffffffffffffffffffffffffffffff1673ffffffffffffffffffffffffffffffffffffffff1681526020019081526020016000206001018190555080915060405180604001604052808581526020016001815250600760008773ffffffffffffffffffffffffffffffffffffffff1673ffffffffffffffffffffffffffffffffffffffff1681526020019081526020016000206000820151816000019080519060200190612eb3929190613227565b506020820151816001015590505060019250505b8360056000600654815260200190815260200160002060006101000a81548173ffffffffffffffffffffffffffffffffffffffff021916908373ffffffffffffffffffffffffffffffffffffffff16021790555060016006600082825401925050819055506000600760008673ffffffffffffffffffffffffffffffffffffffff1673ffffffffffffffffffffffffffffffffffffffff16815260200190815260200160002090507f89b886e508b5806f8c28179176052458c2bd0f54106811773b56be2d51a14e6085826000018360010154604051808473ffffffffffffffffffffffffffffffffffffffff168152602001806020018381526020018281038252848181546001816001161561010002031660029004815260200191508054600181600116156101000203166002900480156130455780601f1061301a57610100808354040283529160200191613045565b820191906000526020600020905b81548152906001019060200180831161302857829003601f168201915b505094505050505060405180910390a1509250929050565b6000838383604051602001808473ffffffffffffffffffffffffffffffffffffffff1660601b815260140183805190602001908083835b602083106130b75780518252602082019150602081019050602083039250613094565b6001836020036101000a03801982511681845116808217855250505050505090500182815260200193505050506040516020818303038152906040528051906020012090509392505050565b600061314583836040518060400160405280601e81526020017f536166654d6174683a207375627472616374696f6e206f766572666c6f77000081525061314d565b905092915050565b60008383111582906131fa576040517f08c379a00000000000000000000000000000000000000000000000000000000081526004018080602001828103825283818151815260200191508051906020019080838360005b838110156131bf5780820151818401526020810190506131a4565b50505050905090810190601f1680156131ec5780820380516001836020036101000a031916815260200191505b509250505060405180910390fd5b5060008385039050809150509392505050565b604051806040016040528060608152602001600081525090565b828054600181600116156101000203166002900490600052602060002090601f016020900481019282601f1061326857805160ff1916838001178555613296565b82800160010185558215613296579182015b8281111561329557825182559160200191906001019061327a565b5b5090506132a3919061332e565b5090565b828054600181600116156101000203166002900490600052602060002090601f016020900481019282601f106132e0578054855561331d565b8280016001018555821561331d57600052602060002091601f016020900482015b8281111561331c578254825591600101919060010190613301565b5b50905061332a919061332e565b5090565b5b8082111561334757600081600090555060010161332f565b509056fe496e73757265655f646f65735f6e6f5f65786973745f6f725f7061796f75745f646f6e65416d6f756e745f6e656564735f746f5f62655f677265617465725f7468616e5f30a26469706673582212206a0a451c52c2ccd59f1aef22183ff6816e8d76634265cdd063a9ea35ade7956d64736f6c634300060c0033",
  "immutableReferences": {},
  "source": "// SPDX-License-Identifier: MIT\n\npragma solidity ^0.6.0;\n\nimport \"../node_modules/@openzeppelin/contracts/math/SafeMath.sol\";\nimport \"./Utils.sol\";\n\ncontract FlightSuretyData is Utils {\n    using SafeMath for uint256;\n\n    /********************************************************************************************/\n    /*                                       DATA VARIABLES                                     */\n    /********************************************************************************************/\n\n    address private contractOwner;                                      // Account used to deploy contract\n    address private authorizedContract;\n\n    uint private MINIMAL_FUND = 10;\n\n    // Blocks all state changes throughout the contract if false\n\n\n    uint numberOfApproved;\n\n    struct Airline {\n        string name;\n        // 0 : does not exist\n        // 1 waiting for approval\n        // 2 approved\n        // 3 funded (10 ether payed)\n        // 9 blocked\n        uint status;\n    }\n\n    //\n    // Multiparty Consensus Approval VotingBox\n    //\n\n    struct Ballot {\n        address voterAddress;\n        string name;\n        uint index;\n        // 0 not voted\n        // 1 approve\n        // 2 disapprove\n        uint vote;\n    }\n\n    struct VotingBox {\n        mapping(uint => Ballot) ballotList;\n        uint ballotSize;\n    }\n\n    uint private consensusThreshold = 3;\n    mapping(uint => address) private airlineList;\n    uint private airlineIndex = 0;\n    mapping(address => Airline) private airlineData;\n    mapping(address => VotingBox) private votingBoxMap;\n\n\n\n\n    /********************************************************************************************/\n    /*                                       EVENT DEFINITIONS                                  */\n    /********************************************************************************************/\n\n    event Registered(address airlineAddress, string airlineName, uint status);\n\n    event VotingEvent(address airlineAddress, string airlineName, uint status);\n\n    /**\n    * @dev Constructor\n    *      The deploying account becomes contractOwner\n    */\n    constructor\n    (\n    )\n    public\n    {\n        contractOwner = msg.sender;\n    }\n\n    /********************************************************************************************/\n    /*                                       FUNCTION MODIFIERS                                 */\n    /********************************************************************************************/\n\n\n\n    /**\n    * @dev Modifier that requires the \"ContractOwner\" account to be the function caller\n    */\n    modifier requireContractOwner()\n    {\n        // DEV require(msg.sender == contractOwner || msg.sender == authorizedContract, \"CALLER_IS_NOT_CONTRACT_OWNER\");\n        _;\n    }\n\n    modifier requireAuthorizedCaller()\n    {\n        require(msg.sender == authorizedContract, \"CALLER_IS_NOT_AUTHORIZED\");\n        _;\n    }\n\n\n\n    /********************************************************************************************/\n    /*                                       UTILITY FUNCTIONS                                  */\n    /********************************************************************************************/\n\n\n\n\n    function authorizeCaller\n    (\n        address _contract\n    )\n    external\n    requireContractOwner\n    {\n        authorizedContract = _contract;\n    }\n\n    function getContractOwner\n    (\n    )\n    view\n    public\n    returns (address)\n    {\n        return contractOwner;\n    }\n\n    function getBallotSize\n    (\n        address _address\n    )\n    view\n    public\n    returns (uint)\n    {\n        VotingBox storage votingBox = votingBoxMap[_address];\n        return votingBox.ballotSize;\n    }\n\n\n    /********************************************************************************************/\n    /*                                     SMART CONTRACT FUNCTIONS                             */\n    /********************************************************************************************/\n\n\n    function registrationNeedsVoting()\n    public\n    requireAuthorizedCaller\n    view\n    returns (bool)\n    {\n        return !(consensusThreshold > airlineIndex);\n    }\n\n    function registerAirline\n    (\n        address _airlineAddress,\n        string memory _airlineName\n    )\n    requireAuthorizedCaller\n    external\n    returns (bool success, uint votes)\n    {\n        require(_airlineAddress != address(0), 'MISSING_AIRLINE_ADDRESS');\n        require(!isRegistered(_airlineAddress), 'AIRLINE_ALREADY_REGISTERED');\n        votes = 0;\n        success = false;\n        if (!registrationNeedsVoting()) {\n            airlineData[_airlineAddress] = Airline(_airlineName, 2);\n            success = true;\n        } else {\n            emit Console('register-1', uint(_airlineAddress), 'needs voting');\n            uint counter = 0;\n            for (uint i = 0; i < airlineIndex; i++) {\n                address voterAddress = airlineList[i];\n                Airline storage a = airlineData[voterAddress];\n                if (a.status == 2) {\n                    votingBoxMap[_airlineAddress].ballotList[counter].voterAddress = voterAddress;\n                    votingBoxMap[_airlineAddress].ballotList[counter].name = a.name;\n                    votingBoxMap[_airlineAddress].ballotList[counter].vote = 0;\n                    votingBoxMap[_airlineAddress].ballotList[counter].index = counter;\n                    counter += 1;\n                }\n            }\n            votingBoxMap[_airlineAddress].ballotSize = counter;\n            votes = counter;\n            airlineData[_airlineAddress] = Airline(_airlineName, 1);\n            success = true;\n        }\n        airlineList[airlineIndex] = _airlineAddress;\n        airlineIndex += 1;\n        Airline storage airline = airlineData[_airlineAddress];\n        emit Registered(_airlineAddress, airline.name, airline.status);\n        return (success, votes);\n    }\n\n\n    function isRegistered(address airline) public view returns (bool)\n    {\n        return airlineData[airline].status > 1;\n    }\n\n    function registrationStatus(\n        address _airlineAddress\n    )\n    public\n    view\n    returns (uint)\n    {\n        return airlineData[_airlineAddress].status;\n    }\n\n    function isAirline(address airline) public view returns (bool)\n    {\n        return airlineData[airline].status > 0;\n    }\n\n    function numberOfAirlines() public view returns (uint)\n    {\n        return airlineIndex;\n    }\n\n\n    function getConsensusThreshold() public view returns (uint)\n    {\n        return consensusThreshold;\n    }\n\n\n    function getAirline(\n        uint index\n    )\n    public\n    view\n    returns (string memory name, uint status)\n    {\n        require(index < airlineIndex, 'Wrong_Index');\n        Airline memory a = airlineData[airlineList[index]];\n        return (a.name, a.status);\n    }\n\n\n    function votingResultsByIndex(\n        uint _index\n    )\n    public\n    view\n    returns (uint, uint, uint, uint)\n    {\n        require(_index < airlineIndex, 'WRONG_AIRLINE_INDEX');\n        return votingResults(airlineList[_index]);\n    }\n\n\n    function votingResults\n    (\n        address _address\n    )\n    public\n    view\n    returns (uint yes, uint no, uint open, uint voters)\n    {\n        VotingBox storage votingBox = votingBoxMap[_address];\n        yes = 0;\n        no = 0;\n        open = 0;\n        for (uint i = 0; i < votingBox.ballotSize; i++) {\n            Ballot storage ballot = votingBox.ballotList[i];\n            if (ballot.vote == 0) {\n                open += 1;\n            }\n            if (ballot.vote == 1) {\n                yes += 1;\n            }\n            if (ballot.vote == 2) {\n                no += 1;\n            }\n        }\n        voters = votingBox.ballotSize;\n        return (yes, no, open, voters);\n    }\n\n\n    function voteOnAirline\n    (\n        address _candidateAddress,\n        address _voterAddress,\n        uint _vote\n    )\n    public\n\n    {\n        require(_vote == 1 || _vote == 2, 'VOTE_SHOULD_BE_1_OR_2');\n        require(_candidateAddress != address(0), 'EMPTY_CANDIDATE_ADDRESS');\n        require(_voterAddress != address(0), 'EMPTY_VOTER_ADDRESS');\n        Airline storage airline = airlineData[_candidateAddress];\n        require(airline.status == 1, 'CANDIDATE_STATUS_NOT_1');\n        VotingBox storage votingBox = votingBoxMap[_candidateAddress];\n        uint i = 0;\n        uint yeses = 0;\n        for (i = 0; i < votingBox.ballotSize; i++) {\n            Ballot storage ballot = votingBox.ballotList[i];\n            emit Console('voting-1', uint(ballot.voterAddress), 'voterAddress');\n            if (ballot.voterAddress == _voterAddress) {\n                ballot.vote = _vote;\n                emit Console('voting-1', _vote, 'in vote');\n            }\n            if (ballot.vote == 1) {\n                yeses += 1;\n            }\n        }\n        if (yeses >= votingBox.ballotSize / 2) {\n            airline.status = 2;\n            emit VotingEvent(_candidateAddress, airline.name, airline.status);\n        }\n    }\n\n    //    ***\n    //    INSURANCE SECTION\n    //    ***\n\n    uint paybackRatioPercentage = 150;\n\n    struct FlightData {\n        address airline;\n        string flight;\n        uint256 timestamp;\n        mapping(address => uint) insurances;\n        // 1 ok (initial)\n        // 2 pay outs\n        uint status;\n        uint totalSum;\n    }\n\n    mapping(bytes32 => FlightData) flightData;\n    bytes32[] flightKeys;\n\n\n    /**\n     * @dev Buy insurance for a flight\n     *\n     */\n    function buyInsurance\n    (\n        address airline,\n        string memory flight,\n        uint256 timestamp,\n        address insuree,\n        uint amount\n    )\n    external\n    requireAuthorizedCaller\n    payable\n    {\n\n        bytes32 flightKey = getFlightKey(airline, flight, timestamp);\n        require(amount > 0, 'Amount_needs_to_be_greater_than_0');\n        require(amount > 0, 'Amount_needs_to_be_greater_than_0');\n        require(flightData[flightKey].airline != address(0), 'Flight_does_no_exist');\n        require(flightData[flightKey].insurances[insuree] == 0, 'Insuree_already_exists');\n\n\n        address(this).transfer(amount);\n        flightData[flightKey].insurances[insuree] = amount;\n\n    }\n\n    /**\n     *  @dev Credits payouts to insurees\n    */\n    function creditInsurees\n    (\n        address airline,\n        string memory flight,\n        uint256 timestamp\n    )\n    external\n    requireAuthorizedCaller\n    {\n        bytes32 flightKey = getFlightKey(airline, flight, timestamp);\n        require(flightData[flightKey].airline != address(0), 'Flight_does_no_exist');\n        require(flightData[flightKey].status == 1, 'FlightData_wrong_status');\n        flightData[flightKey].status = 2;\n    }\n\n\n    /**\n     *  @dev Transfers eligible payout funds to insuree\n     *\n    */\n    function pay\n    (\n        address airline,\n        string memory flight,\n        uint256 timestamp,\n        address payable insuree\n    )\n    external\n    payable\n    {\n\n        bytes32 flightKey = getFlightKey(airline, flight, timestamp);\n        require(flightData[flightKey].airline != address(0), 'Flight_does_no_exist');\n        require(flightData[flightKey].insurances[insuree] > 0, 'Insuree_does_no_exist_or_payout_done');\n        require(flightData[flightKey].status != 2, 'No_payout');\n        insuree.transfer(flightData[flightKey].insurances[insuree]);\n    }\n\n    /**\n     * @dev Initial funding for the insurance. Unless there are too many delayed flights\n     *      resulting in insurance payouts, the contract should be self-sustaining\n     *\n     */\n    function fund\n    (\n    )\n    public\n    payable\n    {\n        Airline memory airline = airlineData[msg.sender];\n        require(airline.status != 0, 'AIRLINE_NOT_REGISTERED');\n        require(airline.status != 3, 'ALREADY_FUNDED');\n        require(airline.status == 2, 'UNKNOWN_STATUS');\n        require(msg.value >= MINIMAL_FUND, 'NOT_ENOUGH');\n\n        payable(address(this)).transfer(MINIMAL_FUND);\n\n        uint amountToReturn = msg.value.sub(MINIMAL_FUND);\n        msg.sender.transfer(amountToReturn);\n        airlineData[msg.sender].status = 3;\n    }\n\n    function getFlightKey\n    (\n        address airline,\n        string memory flight,\n        uint256 timestamp\n    )\n    pure\n    internal\n    returns (bytes32)\n    {\n        return keccak256(abi.encodePacked(airline, flight, timestamp));\n    }\n\n    /**\n    * @dev Fallback function for funding smart contract.\n    *\n    */\n    fallback()\n    external\n    payable\n    {\n\n    }\n\n    receive()\n    external\n    payable\n    {\n\n    }\n\n\n}\n\n",
  "sourcePath": "/Users/tonibuenter/_proj/misc/udacity/u-blockchain4-flightsurety/contracts/FlightSuretyData.sol",
  "compiler": {
    "name": "solc",
    "version": "0.6.12+commit.27d51765.Emscripten.clang"
  },
  "schemaVersion": "3.4.1",
  "updatedAt": "2021-06-07T16:24:48.091Z",
  "networkType": "ethereum",
  "devdoc": {
    "kind": "dev",
    "methods": {
      "buyInsurance(address,string,uint256,address,uint256)": {
        "details": "Buy insurance for a flight"
      },
      "constructor": {
        "details": "Constructor      The deploying account becomes contractOwner"
      },
      "creditInsurees(address,string,uint256)": {
        "details": "Credits payouts to insurees"
      },
      "fund()": {
        "details": "Initial funding for the insurance. Unless there are too many delayed flights      resulting in insurance payouts, the contract should be self-sustaining"
      },
      "pay(address,string,uint256,address)": {
        "details": "Transfers eligible payout funds to insuree"
      }
    },
    "version": 1
  },
  "userdoc": {
    "kind": "user",
    "methods": {},
    "version": 1
  }
}